{
	"contracts/core/MorphBUs.sol": {
		"MorphBUs": {
			"abi": [
				{
					"inputs": [
						{
							"internalType": "contract IMBURegister",
							"name": "_register",
							"type": "address"
						}
					],
					"stateMutability": "nonpayable",
					"type": "constructor"
				},
				{
					"inputs": [
						{
							"internalType": "string",
							"name": "_name",
							"type": "string"
						}
					],
					"name": "follow",
					"outputs": [
						{
							"internalType": "uint256",
							"name": "_followId",
							"type": "uint256"
						}
					],
					"stateMutability": "nonpayable",
					"type": "function"
				},
				{
					"inputs": [
						{
							"internalType": "uint256",
							"name": "_contentId",
							"type": "uint256"
						}
					],
					"name": "getContent",
					"outputs": [
						{
							"components": [
								{
									"internalType": "uint256",
									"name": "id",
									"type": "uint256"
								},
								{
									"internalType": "string",
									"name": "ipfsHash",
									"type": "string"
								},
								{
									"internalType": "address",
									"name": "author",
									"type": "address"
								},
								{
									"internalType": "string",
									"name": "authorName",
									"type": "string"
								},
								{
									"internalType": "uint256",
									"name": "date",
									"type": "uint256"
								}
							],
							"internalType": "struct Content",
							"name": "_content",
							"type": "tuple"
						}
					],
					"stateMutability": "view",
					"type": "function"
				},
				{
					"inputs": [],
					"name": "getFeed",
					"outputs": [
						{
							"internalType": "uint256[]",
							"name": "_contentIds",
							"type": "uint256[]"
						}
					],
					"stateMutability": "view",
					"type": "function"
				},
				{
					"inputs": [
						{
							"internalType": "uint256",
							"name": "_followId",
							"type": "uint256"
						}
					],
					"name": "getFollow",
					"outputs": [
						{
							"components": [
								{
									"internalType": "uint256",
									"name": "id",
									"type": "uint256"
								},
								{
									"internalType": "string",
									"name": "targetName",
									"type": "string"
								},
								{
									"internalType": "uint256",
									"name": "date",
									"type": "uint256"
								}
							],
							"internalType": "struct Follow",
							"name": "_follow",
							"type": "tuple"
						}
					],
					"stateMutability": "view",
					"type": "function"
				},
				{
					"inputs": [],
					"name": "getFollowingCount",
					"outputs": [
						{
							"internalType": "uint256",
							"name": "_count",
							"type": "uint256"
						}
					],
					"stateMutability": "view",
					"type": "function"
				},
				{
					"inputs": [],
					"name": "getFollows",
					"outputs": [
						{
							"internalType": "uint256[]",
							"name": "_followIds",
							"type": "uint256[]"
						}
					],
					"stateMutability": "view",
					"type": "function"
				},
				{
					"inputs": [
						{
							"internalType": "uint256",
							"name": "_messageId",
							"type": "uint256"
						}
					],
					"name": "getMessage",
					"outputs": [
						{
							"components": [
								{
									"internalType": "uint256",
									"name": "id",
									"type": "uint256"
								},
								{
									"internalType": "string",
									"name": "fromName",
									"type": "string"
								},
								{
									"internalType": "string",
									"name": "toName",
									"type": "string"
								},
								{
									"internalType": "string",
									"name": "ipfsHash",
									"type": "string"
								},
								{
									"internalType": "uint256",
									"name": "date",
									"type": "uint256"
								}
							],
							"internalType": "struct Message",
							"name": "_message",
							"type": "tuple"
						}
					],
					"stateMutability": "view",
					"type": "function"
				},
				{
					"inputs": [],
					"name": "getMessages",
					"outputs": [
						{
							"internalType": "uint256[]",
							"name": "messageIds",
							"type": "uint256[]"
						}
					],
					"stateMutability": "view",
					"type": "function"
				},
				{
					"inputs": [],
					"name": "getReward",
					"outputs": [
						{
							"internalType": "uint256",
							"name": "_rewardAmount",
							"type": "uint256"
						}
					],
					"stateMutability": "view",
					"type": "function"
				},
				{
					"inputs": [
						{
							"internalType": "uint256",
							"name": "_shareId",
							"type": "uint256"
						}
					],
					"name": "getShare",
					"outputs": [
						{
							"components": [
								{
									"internalType": "uint256",
									"name": "id",
									"type": "uint256"
								},
								{
									"internalType": "uint256",
									"name": "contentId",
									"type": "uint256"
								},
								{
									"internalType": "uint256[]",
									"name": "userIds",
									"type": "uint256[]"
								},
								{
									"internalType": "uint256",
									"name": "date",
									"type": "uint256"
								}
							],
							"internalType": "struct Share",
							"name": "_share",
							"type": "tuple"
						}
					],
					"stateMutability": "view",
					"type": "function"
				},
				{
					"inputs": [
						{
							"internalType": "string",
							"name": "_name",
							"type": "string"
						}
					],
					"name": "isMorphNameAvailable",
					"outputs": [
						{
							"internalType": "bool",
							"name": "_isAvailable",
							"type": "bool"
						}
					],
					"stateMutability": "view",
					"type": "function"
				},
				{
					"inputs": [
						{
							"internalType": "string",
							"name": "_name",
							"type": "string"
						}
					],
					"name": "isMuted",
					"outputs": [
						{
							"internalType": "bool",
							"name": "_isMuted",
							"type": "bool"
						}
					],
					"stateMutability": "view",
					"type": "function"
				},
				{
					"inputs": [
						{
							"internalType": "string",
							"name": "_name",
							"type": "string"
						}
					],
					"name": "mute",
					"outputs": [
						{
							"internalType": "uint256",
							"name": "_muteId",
							"type": "uint256"
						}
					],
					"stateMutability": "nonpayable",
					"type": "function"
				},
				{
					"inputs": [],
					"name": "notifyChangeOfAddress",
					"outputs": [
						{
							"internalType": "bool",
							"name": "_acknowledged",
							"type": "bool"
						}
					],
					"stateMutability": "nonpayable",
					"type": "function"
				},
				{
					"inputs": [
						{
							"components": [
								{
									"internalType": "uint256",
									"name": "id",
									"type": "uint256"
								},
								{
									"internalType": "string",
									"name": "ipfsHash",
									"type": "string"
								},
								{
									"internalType": "address",
									"name": "author",
									"type": "address"
								},
								{
									"internalType": "string",
									"name": "authorName",
									"type": "string"
								},
								{
									"internalType": "uint256",
									"name": "date",
									"type": "uint256"
								}
							],
							"internalType": "struct Content",
							"name": "_content",
							"type": "tuple"
						}
					],
					"name": "post",
					"outputs": [
						{
							"internalType": "uint256",
							"name": "_contentId",
							"type": "uint256"
						}
					],
					"stateMutability": "nonpayable",
					"type": "function"
				},
				{
					"inputs": [
						{
							"components": [
								{
									"internalType": "uint256",
									"name": "id",
									"type": "uint256"
								},
								{
									"internalType": "string",
									"name": "fromName",
									"type": "string"
								},
								{
									"internalType": "string",
									"name": "toName",
									"type": "string"
								},
								{
									"internalType": "string",
									"name": "ipfsHash",
									"type": "string"
								},
								{
									"internalType": "uint256",
									"name": "date",
									"type": "uint256"
								}
							],
							"internalType": "struct Message",
							"name": "_message",
							"type": "tuple"
						}
					],
					"name": "sendMessage",
					"outputs": [
						{
							"internalType": "uint256",
							"name": "_messageId",
							"type": "uint256"
						}
					],
					"stateMutability": "nonpayable",
					"type": "function"
				},
				{
					"inputs": [
						{
							"internalType": "string",
							"name": "_name",
							"type": "string"
						}
					],
					"name": "setMorphName",
					"outputs": [
						{
							"internalType": "uint256",
							"name": "_id",
							"type": "uint256"
						}
					],
					"stateMutability": "nonpayable",
					"type": "function"
				},
				{
					"inputs": [
						{
							"internalType": "uint256",
							"name": "_contentId",
							"type": "uint256"
						},
						{
							"internalType": "uint256[]",
							"name": "_ids",
							"type": "uint256[]"
						}
					],
					"name": "share",
					"outputs": [
						{
							"internalType": "uint256",
							"name": "_shareId",
							"type": "uint256"
						}
					],
					"stateMutability": "nonpayable",
					"type": "function"
				},
				{
					"inputs": [
						{
							"internalType": "uint256[]",
							"name": "_contentIds",
							"type": "uint256[]"
						}
					],
					"name": "trimFeed",
					"outputs": [
						{
							"internalType": "uint256",
							"name": "_trimId",
							"type": "uint256"
						}
					],
					"stateMutability": "nonpayable",
					"type": "function"
				},
				{
					"inputs": [
						{
							"internalType": "uint256[]",
							"name": "_messageIds",
							"type": "uint256[]"
						}
					],
					"name": "trimMessages",
					"outputs": [
						{
							"internalType": "bool",
							"name": "_trimmed",
							"type": "bool"
						}
					],
					"stateMutability": "nonpayable",
					"type": "function"
				},
				{
					"inputs": [
						{
							"internalType": "string",
							"name": "_name",
							"type": "string"
						}
					],
					"name": "unfollow",
					"outputs": [
						{
							"internalType": "bool",
							"name": "_unfollowed",
							"type": "bool"
						}
					],
					"stateMutability": "nonpayable",
					"type": "function"
				},
				{
					"inputs": [
						{
							"internalType": "string",
							"name": "_name",
							"type": "string"
						}
					],
					"name": "unmute",
					"outputs": [
						{
							"internalType": "bool",
							"name": "_unmuted",
							"type": "bool"
						}
					],
					"stateMutability": "nonpayable",
					"type": "function"
				}
			],
			"devdoc": {
				"kind": "dev",
				"methods": {},
				"version": 1
			},
			"evm": {
				"assembly": "    /* \"contracts/core/MorphBUs.sol\":441:5120  contract MorphBUs is IMorphBUs { ... */\n  mstore(0x40, 0x80)\n    /* \"contracts/core/MorphBUs.sol\":1199:1298  constructor(IMBURegister _register) {... */\n  callvalue\n  dup1\n  iszero\n  tag_1\n  jumpi\n  0x00\n  dup1\n  revert\ntag_1:\n  pop\n  mload(0x40)\n  sub(codesize, bytecodeSize)\n  dup1\n  bytecodeSize\n  dup4\n  codecopy\n  dup2\n  dup2\n  add\n  0x40\n  mstore\n  dup2\n  add\n  swap1\n  tag_2\n  swap2\n  swap1\n  tag_3\n  jump\t// in\ntag_2:\n    /* \"contracts/core/MorphBUs.sol\":1257:1266  _register */\n  dup1\n    /* \"contracts/core/MorphBUs.sol\":1246:1254  register */\n  0x00\n  dup1\n    /* \"contracts/core/MorphBUs.sol\":1246:1266  register = _register */\n  0x0100\n  exp\n  dup2\n  sload\n  dup2\n  0xffffffffffffffffffffffffffffffffffffffff\n  mul\n  not\n  and\n  swap1\n  dup4\n  0xffffffffffffffffffffffffffffffffffffffff\n  and\n  mul\n  or\n  swap1\n  sstore\n  pop\n    /* \"contracts/core/MorphBUs.sol\":1277:1289  initialize() */\n  tag_6\n    /* \"contracts/core/MorphBUs.sol\":1277:1287  initialize */\n  shl(0x20, tag_7)\n    /* \"contracts/core/MorphBUs.sol\":1277:1289  initialize() */\n  0x20\n  shr\n  jump\t// in\ntag_6:\n  pop\n    /* \"contracts/core/MorphBUs.sol\":1199:1298  constructor(IMBURegister _register) {... */\n  pop\n    /* \"contracts/core/MorphBUs.sol\":441:5120  contract MorphBUs is IMorphBUs { ... */\n  jump(tag_8)\n    /* \"contracts/core/MorphBUs.sol\":4645:5115  function initialize() internal returns (bool _initialized) {... */\ntag_7:\n    /* \"contracts/core/MorphBUs.sol\":4685:4702  bool _initialized */\n  0x00\n    /* \"contracts/core/MorphBUs.sol\":4739:4747  register */\n  dup1\n  0x00\n  swap1\n  sload\n  swap1\n  0x0100\n  exp\n  swap1\n  div\n  0xffffffffffffffffffffffffffffffffffffffff\n  and\n    /* \"contracts/core/MorphBUs.sol\":4739:4758  register.getAddress */\n  0xffffffffffffffffffffffffffffffffffffffff\n  and\n  0xbf40fac1\n    /* \"contracts/core/MorphBUs.sol\":4759:4771  NAME_MANAGER */\n  mload(0x40)\n  dup1\n  0x40\n  add\n  0x40\n  mstore\n  dup1\n  0x15\n  dup2\n  mstore\n  0x20\n  add\n  0x52455345525645445f4e414d455f4d414e414745520000000000000000000000\n  dup2\n  mstore\n  pop\n    /* \"contracts/core/MorphBUs.sol\":4739:4772  register.getAddress(NAME_MANAGER) */\n  mload(0x40)\n  dup3\n  0xffffffff\n  and\n  0xe0\n  shl\n  dup2\n  mstore\n  0x04\n  add\n  tag_10\n  swap2\n  swap1\n  tag_11\n  jump\t// in\ntag_10:\n  0x20\n  mload(0x40)\n  dup1\n  dup4\n  sub\n  dup2\n  dup7\n  gas\n  staticcall\n  iszero\n  dup1\n  iszero\n  tag_13\n  jumpi\n  returndatasize\n  0x00\n  dup1\n  returndatacopy\n  revert(0x00, returndatasize)\ntag_13:\n  pop\n  pop\n  pop\n  pop\n  mload(0x40)\n  returndatasize\n  not(0x1f)\n  0x1f\n  dup3\n  add\n  and\n  dup3\n  add\n  dup1\n  0x40\n  mstore\n  pop\n  dup2\n  add\n  swap1\n  tag_14\n  swap2\n  swap1\n  tag_15\n  jump\t// in\ntag_14:\n    /* \"contracts/core/MorphBUs.sol\":4715:4720  names */\n  0x01\n  0x00\n    /* \"contracts/core/MorphBUs.sol\":4715:4773  names = IMBUNameManager(register.getAddress(NAME_MANAGER)) */\n  0x0100\n  exp\n  dup2\n  sload\n  dup2\n  0xffffffffffffffffffffffffffffffffffffffff\n  mul\n  not\n  and\n  swap1\n  dup4\n  0xffffffffffffffffffffffffffffffffffffffff\n  and\n  mul\n  or\n  swap1\n  sstore\n  pop\n    /* \"contracts/core/MorphBUs.sol\":4820:4828  register */\n  0x00\n  dup1\n  sload\n  swap1\n  0x0100\n  exp\n  swap1\n  div\n  0xffffffffffffffffffffffffffffffffffffffff\n  and\n    /* \"contracts/core/MorphBUs.sol\":4820:4839  register.getAddress */\n  0xffffffffffffffffffffffffffffffffffffffff\n  and\n  0xbf40fac1\n    /* \"contracts/core/MorphBUs.sol\":4840:4855  CONTENT_MANAGER */\n  mload(0x40)\n  dup1\n  0x40\n  add\n  0x40\n  mstore\n  dup1\n  0x18\n  dup2\n  mstore\n  0x20\n  add\n  0x52455345525645445f434f4e54454e545f4d414e414745520000000000000000\n  dup2\n  mstore\n  pop\n    /* \"contracts/core/MorphBUs.sol\":4820:4856  register.getAddress(CONTENT_MANAGER) */\n  mload(0x40)\n  dup3\n  0xffffffff\n  and\n  0xe0\n  shl\n  dup2\n  mstore\n  0x04\n  add\n  tag_16\n  swap2\n  swap1\n  tag_11\n  jump\t// in\ntag_16:\n  0x20\n  mload(0x40)\n  dup1\n  dup4\n  sub\n  dup2\n  dup7\n  gas\n  staticcall\n  iszero\n  dup1\n  iszero\n  tag_18\n  jumpi\n  returndatasize\n  0x00\n  dup1\n  returndatacopy\n  revert(0x00, returndatasize)\ntag_18:\n  pop\n  pop\n  pop\n  pop\n  mload(0x40)\n  returndatasize\n  not(0x1f)\n  0x1f\n  dup3\n  add\n  and\n  dup3\n  add\n  dup1\n  0x40\n  mstore\n  pop\n  dup2\n  add\n  swap1\n  tag_19\n  swap2\n  swap1\n  tag_15\n  jump\t// in\ntag_19:\n    /* \"contracts/core/MorphBUs.sol\":4784:4798  contentManager */\n  0x02\n  0x00\n    /* \"contracts/core/MorphBUs.sol\":4784:4857  contentManager = IMBUContentManager(register.getAddress(CONTENT_MANAGER)) */\n  0x0100\n  exp\n  dup2\n  sload\n  dup2\n  0xffffffffffffffffffffffffffffffffffffffff\n  mul\n  not\n  and\n  swap1\n  dup4\n  0xffffffffffffffffffffffffffffffffffffffff\n  and\n  mul\n  or\n  swap1\n  sstore\n  pop\n    /* \"contracts/core/MorphBUs.sol\":4899:4907  register */\n  0x00\n  dup1\n  sload\n  swap1\n  0x0100\n  exp\n  swap1\n  div\n  0xffffffffffffffffffffffffffffffffffffffff\n  and\n    /* \"contracts/core/MorphBUs.sol\":4899:4918  register.getAddress */\n  0xffffffffffffffffffffffffffffffffffffffff\n  and\n  0xbf40fac1\n    /* \"contracts/core/MorphBUs.sol\":4919:4934  MESSAGE_MANAGER */\n  mload(0x40)\n  dup1\n  0x40\n  add\n  0x40\n  mstore\n  dup1\n  0x18\n  dup2\n  mstore\n  0x20\n  add\n  0x52455345525645445f4d4553534147455f4d414e414745520000000000000000\n  dup2\n  mstore\n  pop\n    /* \"contracts/core/MorphBUs.sol\":4899:4935  register.getAddress(MESSAGE_MANAGER) */\n  mload(0x40)\n  dup3\n  0xffffffff\n  and\n  0xe0\n  shl\n  dup2\n  mstore\n  0x04\n  add\n  tag_20\n  swap2\n  swap1\n  tag_11\n  jump\t// in\ntag_20:\n  0x20\n  mload(0x40)\n  dup1\n  dup4\n  sub\n  dup2\n  dup7\n  gas\n  staticcall\n  iszero\n  dup1\n  iszero\n  tag_22\n  jumpi\n  returndatasize\n  0x00\n  dup1\n  returndatacopy\n  revert(0x00, returndatasize)\ntag_22:\n  pop\n  pop\n  pop\n  pop\n  mload(0x40)\n  returndatasize\n  not(0x1f)\n  0x1f\n  dup3\n  add\n  and\n  dup3\n  add\n  dup1\n  0x40\n  mstore\n  pop\n  dup2\n  add\n  swap1\n  tag_23\n  swap2\n  swap1\n  tag_15\n  jump\t// in\ntag_23:\n    /* \"contracts/core/MorphBUs.sol\":4869:4877  messages */\n  0x03\n  0x00\n    /* \"contracts/core/MorphBUs.sol\":4869:4936  messages = IMBUMessageManager(register.getAddress(MESSAGE_MANAGER)) */\n  0x0100\n  exp\n  dup2\n  sload\n  dup2\n  0xffffffffffffffffffffffffffffffffffffffff\n  mul\n  not\n  and\n  swap1\n  dup4\n  0xffffffffffffffffffffffffffffffffffffffff\n  and\n  mul\n  or\n  swap1\n  sstore\n  pop\n    /* \"contracts/core/MorphBUs.sol\":4971:4979  register */\n  0x00\n  dup1\n  sload\n  swap1\n  0x0100\n  exp\n  swap1\n  div\n  0xffffffffffffffffffffffffffffffffffffffff\n  and\n    /* \"contracts/core/MorphBUs.sol\":4971:4990  register.getAddress */\n  0xffffffffffffffffffffffffffffffffffffffff\n  and\n  0xbf40fac1\n    /* \"contracts/core/MorphBUs.sol\":4991:5003  FEED_MANAGER */\n  mload(0x40)\n  dup1\n  0x40\n  add\n  0x40\n  mstore\n  dup1\n  0x15\n  dup2\n  mstore\n  0x20\n  add\n  0x52455345525645445f464545445f4d414e414745520000000000000000000000\n  dup2\n  mstore\n  pop\n    /* \"contracts/core/MorphBUs.sol\":4971:5004  register.getAddress(FEED_MANAGER) */\n  mload(0x40)\n  dup3\n  0xffffffff\n  and\n  0xe0\n  shl\n  dup2\n  mstore\n  0x04\n  add\n  tag_24\n  swap2\n  swap1\n  tag_11\n  jump\t// in\ntag_24:\n  0x20\n  mload(0x40)\n  dup1\n  dup4\n  sub\n  dup2\n  dup7\n  gas\n  staticcall\n  iszero\n  dup1\n  iszero\n  tag_26\n  jumpi\n  returndatasize\n  0x00\n  dup1\n  returndatacopy\n  revert(0x00, returndatasize)\ntag_26:\n  pop\n  pop\n  pop\n  pop\n  mload(0x40)\n  returndatasize\n  not(0x1f)\n  0x1f\n  dup3\n  add\n  and\n  dup3\n  add\n  dup1\n  0x40\n  mstore\n  pop\n  dup2\n  add\n  swap1\n  tag_27\n  swap2\n  swap1\n  tag_15\n  jump\t// in\ntag_27:\n    /* \"contracts/core/MorphBUs.sol\":4948:4952  feed */\n  0x04\n  0x00\n    /* \"contracts/core/MorphBUs.sol\":4948:5005  feed = IMBUFeedManager(register.getAddress(FEED_MANAGER)) */\n  0x0100\n  exp\n  dup2\n  sload\n  dup2\n  0xffffffffffffffffffffffffffffffffffffffff\n  mul\n  not\n  and\n  swap1\n  dup4\n  0xffffffffffffffffffffffffffffffffffffffff\n  and\n  mul\n  or\n  swap1\n  sstore\n  pop\n    /* \"contracts/core/MorphBUs.sol\":5046:5054  register */\n  0x00\n  dup1\n  sload\n  swap1\n  0x0100\n  exp\n  swap1\n  div\n  0xffffffffffffffffffffffffffffffffffffffff\n  and\n    /* \"contracts/core/MorphBUs.sol\":5046:5065  register.getAddress */\n  0xffffffffffffffffffffffffffffffffffffffff\n  and\n  0xbf40fac1\n    /* \"contracts/core/MorphBUs.sol\":5066:5081  FOLLOWS_MANAGER */\n  mload(0x40)\n  dup1\n  0x40\n  add\n  0x40\n  mstore\n  dup1\n  0x18\n  dup2\n  mstore\n  0x20\n  add\n  0x52455345525645445f464f4c4c4f57535f4d414e414745520000000000000000\n  dup2\n  mstore\n  pop\n    /* \"contracts/core/MorphBUs.sol\":5046:5082  register.getAddress(FOLLOWS_MANAGER) */\n  mload(0x40)\n  dup3\n  0xffffffff\n  and\n  0xe0\n  shl\n  dup2\n  mstore\n  0x04\n  add\n  tag_28\n  swap2\n  swap1\n  tag_11\n  jump\t// in\ntag_28:\n  0x20\n  mload(0x40)\n  dup1\n  dup4\n  sub\n  dup2\n  dup7\n  gas\n  staticcall\n  iszero\n  dup1\n  iszero\n  tag_30\n  jumpi\n  returndatasize\n  0x00\n  dup1\n  returndatacopy\n  revert(0x00, returndatasize)\ntag_30:\n  pop\n  pop\n  pop\n  pop\n  mload(0x40)\n  returndatasize\n  not(0x1f)\n  0x1f\n  dup3\n  add\n  and\n  dup3\n  add\n  dup1\n  0x40\n  mstore\n  pop\n  dup2\n  add\n  swap1\n  tag_31\n  swap2\n  swap1\n  tag_15\n  jump\t// in\ntag_31:\n    /* \"contracts/core/MorphBUs.sol\":5017:5024  follows */\n  0x05\n  0x00\n    /* \"contracts/core/MorphBUs.sol\":5017:5083  follows = IMBUFollowsManager(register.getAddress(FOLLOWS_MANAGER)) */\n  0x0100\n  exp\n  dup2\n  sload\n  dup2\n  0xffffffffffffffffffffffffffffffffffffffff\n  mul\n  not\n  and\n  swap1\n  dup4\n  0xffffffffffffffffffffffffffffffffffffffff\n  and\n  mul\n  or\n  swap1\n  sstore\n  pop\n    /* \"contracts/core/MorphBUs.sol\":5102:5106  true */\n  0x01\n    /* \"contracts/core/MorphBUs.sol\":5095:5106  return true */\n  swap1\n  pop\n    /* \"contracts/core/MorphBUs.sol\":4645:5115  function initialize() internal returns (bool _initialized) {... */\n  swap1\n  jump\t// out\n    /* \"#utility.yul\":88:205   */\ntag_33:\n    /* \"#utility.yul\":197:198   */\n  0x00\n    /* \"#utility.yul\":194:195   */\n  dup1\n    /* \"#utility.yul\":187:199   */\n  revert\n    /* \"#utility.yul\":334:460   */\ntag_35:\n    /* \"#utility.yul\":371:378   */\n  0x00\n    /* \"#utility.yul\":411:453   */\n  0xffffffffffffffffffffffffffffffffffffffff\n    /* \"#utility.yul\":404:409   */\n  dup3\n    /* \"#utility.yul\":400:454   */\n  and\n    /* \"#utility.yul\":389:454   */\n  swap1\n  pop\n    /* \"#utility.yul\":334:460   */\n  swap2\n  swap1\n  pop\n  jump\t// out\n    /* \"#utility.yul\":466:562   */\ntag_36:\n    /* \"#utility.yul\":503:510   */\n  0x00\n    /* \"#utility.yul\":532:556   */\n  tag_53\n    /* \"#utility.yul\":550:555   */\n  dup3\n    /* \"#utility.yul\":532:556   */\n  tag_35\n  jump\t// in\ntag_53:\n    /* \"#utility.yul\":521:556   */\n  swap1\n  pop\n    /* \"#utility.yul\":466:562   */\n  swap2\n  swap1\n  pop\n  jump\t// out\n    /* \"#utility.yul\":568:684   */\ntag_37:\n    /* \"#utility.yul\":625:632   */\n  0x00\n    /* \"#utility.yul\":654:678   */\n  tag_55\n    /* \"#utility.yul\":672:677   */\n  dup3\n    /* \"#utility.yul\":654:678   */\n  tag_36\n  jump\t// in\ntag_55:\n    /* \"#utility.yul\":643:678   */\n  swap1\n  pop\n    /* \"#utility.yul\":568:684   */\n  swap2\n  swap1\n  pop\n  jump\t// out\n    /* \"#utility.yul\":690:852   */\ntag_38:\n    /* \"#utility.yul\":783:827   */\n  tag_57\n    /* \"#utility.yul\":821:826   */\n  dup2\n    /* \"#utility.yul\":783:827   */\n  tag_37\n  jump\t// in\ntag_57:\n    /* \"#utility.yul\":776:781   */\n  dup2\n    /* \"#utility.yul\":773:828   */\n  eq\n    /* \"#utility.yul\":763:846   */\n  tag_58\n  jumpi\n    /* \"#utility.yul\":842:843   */\n  0x00\n    /* \"#utility.yul\":839:840   */\n  dup1\n    /* \"#utility.yul\":832:844   */\n  revert\n    /* \"#utility.yul\":763:846   */\ntag_58:\n    /* \"#utility.yul\":690:852   */\n  pop\n  jump\t// out\n    /* \"#utility.yul\":858:1041   */\ntag_39:\n    /* \"#utility.yul\":935:940   */\n  0x00\n    /* \"#utility.yul\":966:972   */\n  dup2\n    /* \"#utility.yul\":960:973   */\n  mload\n    /* \"#utility.yul\":951:973   */\n  swap1\n  pop\n    /* \"#utility.yul\":982:1035   */\n  tag_60\n    /* \"#utility.yul\":1029:1034   */\n  dup2\n    /* \"#utility.yul\":982:1035   */\n  tag_38\n  jump\t// in\ntag_60:\n    /* \"#utility.yul\":858:1041   */\n  swap3\n  swap2\n  pop\n  pop\n  jump\t// out\n    /* \"#utility.yul\":1047:1438   */\ntag_3:\n    /* \"#utility.yul\":1137:1143   */\n  0x00\n    /* \"#utility.yul\":1186:1188   */\n  0x20\n    /* \"#utility.yul\":1174:1183   */\n  dup3\n    /* \"#utility.yul\":1165:1172   */\n  dup5\n    /* \"#utility.yul\":1161:1184   */\n  sub\n    /* \"#utility.yul\":1157:1189   */\n  slt\n    /* \"#utility.yul\":1154:1273   */\n  iszero\n  tag_62\n  jumpi\n    /* \"#utility.yul\":1192:1271   */\n  tag_63\n  tag_33\n  jump\t// in\ntag_63:\n    /* \"#utility.yul\":1154:1273   */\ntag_62:\n    /* \"#utility.yul\":1312:1313   */\n  0x00\n    /* \"#utility.yul\":1337:1421   */\n  tag_64\n    /* \"#utility.yul\":1413:1420   */\n  dup5\n    /* \"#utility.yul\":1404:1410   */\n  dup3\n    /* \"#utility.yul\":1393:1402   */\n  dup6\n    /* \"#utility.yul\":1389:1411   */\n  add\n    /* \"#utility.yul\":1337:1421   */\n  tag_39\n  jump\t// in\ntag_64:\n    /* \"#utility.yul\":1327:1421   */\n  swap2\n  pop\n    /* \"#utility.yul\":1283:1431   */\n  pop\n    /* \"#utility.yul\":1047:1438   */\n  swap3\n  swap2\n  pop\n  pop\n  jump\t// out\n    /* \"#utility.yul\":1444:1543   */\ntag_40:\n    /* \"#utility.yul\":1496:1502   */\n  0x00\n    /* \"#utility.yul\":1530:1535   */\n  dup2\n    /* \"#utility.yul\":1524:1536   */\n  mload\n    /* \"#utility.yul\":1514:1536   */\n  swap1\n  pop\n    /* \"#utility.yul\":1444:1543   */\n  swap2\n  swap1\n  pop\n  jump\t// out\n    /* \"#utility.yul\":1549:1718   */\ntag_41:\n    /* \"#utility.yul\":1633:1644   */\n  0x00\n    /* \"#utility.yul\":1667:1673   */\n  dup3\n    /* \"#utility.yul\":1662:1665   */\n  dup3\n    /* \"#utility.yul\":1655:1674   */\n  mstore\n    /* \"#utility.yul\":1707:1711   */\n  0x20\n    /* \"#utility.yul\":1702:1705   */\n  dup3\n    /* \"#utility.yul\":1698:1712   */\n  add\n    /* \"#utility.yul\":1683:1712   */\n  swap1\n  pop\n    /* \"#utility.yul\":1549:1718   */\n  swap3\n  swap2\n  pop\n  pop\n  jump\t// out\n    /* \"#utility.yul\":1724:1863   */\ntag_42:\n    /* \"#utility.yul\":1813:1819   */\n  dup3\n    /* \"#utility.yul\":1808:1811   */\n  dup2\n    /* \"#utility.yul\":1803:1806   */\n  dup4\n    /* \"#utility.yul\":1797:1820   */\n  mcopy\n    /* \"#utility.yul\":1854:1855   */\n  0x00\n    /* \"#utility.yul\":1845:1851   */\n  dup4\n    /* \"#utility.yul\":1840:1843   */\n  dup4\n    /* \"#utility.yul\":1836:1852   */\n  add\n    /* \"#utility.yul\":1829:1856   */\n  mstore\n    /* \"#utility.yul\":1724:1863   */\n  pop\n  pop\n  pop\n  jump\t// out\n    /* \"#utility.yul\":1869:1971   */\ntag_43:\n    /* \"#utility.yul\":1910:1916   */\n  0x00\n    /* \"#utility.yul\":1961:1963   */\n  0x1f\n    /* \"#utility.yul\":1957:1964   */\n  not\n    /* \"#utility.yul\":1952:1954   */\n  0x1f\n    /* \"#utility.yul\":1945:1950   */\n  dup4\n    /* \"#utility.yul\":1941:1955   */\n  add\n    /* \"#utility.yul\":1937:1965   */\n  and\n    /* \"#utility.yul\":1927:1965   */\n  swap1\n  pop\n    /* \"#utility.yul\":1869:1971   */\n  swap2\n  swap1\n  pop\n  jump\t// out\n    /* \"#utility.yul\":1977:2354   */\ntag_44:\n    /* \"#utility.yul\":2065:2068   */\n  0x00\n    /* \"#utility.yul\":2093:2132   */\n  tag_70\n    /* \"#utility.yul\":2126:2131   */\n  dup3\n    /* \"#utility.yul\":2093:2132   */\n  tag_40\n  jump\t// in\ntag_70:\n    /* \"#utility.yul\":2148:2219   */\n  tag_71\n    /* \"#utility.yul\":2212:2218   */\n  dup2\n    /* \"#utility.yul\":2207:2210   */\n  dup6\n    /* \"#utility.yul\":2148:2219   */\n  tag_41\n  jump\t// in\ntag_71:\n    /* \"#utility.yul\":2141:2219   */\n  swap4\n  pop\n    /* \"#utility.yul\":2228:2293   */\n  tag_72\n    /* \"#utility.yul\":2286:2292   */\n  dup2\n    /* \"#utility.yul\":2281:2284   */\n  dup6\n    /* \"#utility.yul\":2274:2278   */\n  0x20\n    /* \"#utility.yul\":2267:2272   */\n  dup7\n    /* \"#utility.yul\":2263:2279   */\n  add\n    /* \"#utility.yul\":2228:2293   */\n  tag_42\n  jump\t// in\ntag_72:\n    /* \"#utility.yul\":2318:2347   */\n  tag_73\n    /* \"#utility.yul\":2340:2346   */\n  dup2\n    /* \"#utility.yul\":2318:2347   */\n  tag_43\n  jump\t// in\ntag_73:\n    /* \"#utility.yul\":2313:2316   */\n  dup5\n    /* \"#utility.yul\":2309:2348   */\n  add\n    /* \"#utility.yul\":2302:2348   */\n  swap2\n  pop\n    /* \"#utility.yul\":2069:2354   */\n  pop\n    /* \"#utility.yul\":1977:2354   */\n  swap3\n  swap2\n  pop\n  pop\n  jump\t// out\n    /* \"#utility.yul\":2360:2673   */\ntag_11:\n    /* \"#utility.yul\":2473:2477   */\n  0x00\n    /* \"#utility.yul\":2511:2513   */\n  0x20\n    /* \"#utility.yul\":2500:2509   */\n  dup3\n    /* \"#utility.yul\":2496:2514   */\n  add\n    /* \"#utility.yul\":2488:2514   */\n  swap1\n  pop\n    /* \"#utility.yul\":2560:2569   */\n  dup2\n    /* \"#utility.yul\":2554:2558   */\n  dup2\n    /* \"#utility.yul\":2550:2570   */\n  sub\n    /* \"#utility.yul\":2546:2547   */\n  0x00\n    /* \"#utility.yul\":2535:2544   */\n  dup4\n    /* \"#utility.yul\":2531:2548   */\n  add\n    /* \"#utility.yul\":2524:2571   */\n  mstore\n    /* \"#utility.yul\":2588:2666   */\n  tag_75\n    /* \"#utility.yul\":2661:2665   */\n  dup2\n    /* \"#utility.yul\":2652:2658   */\n  dup5\n    /* \"#utility.yul\":2588:2666   */\n  tag_44\n  jump\t// in\ntag_75:\n    /* \"#utility.yul\":2580:2666   */\n  swap1\n  pop\n    /* \"#utility.yul\":2360:2673   */\n  swap3\n  swap2\n  pop\n  pop\n  jump\t// out\n    /* \"#utility.yul\":2679:2801   */\ntag_45:\n    /* \"#utility.yul\":2752:2776   */\n  tag_77\n    /* \"#utility.yul\":2770:2775   */\n  dup2\n    /* \"#utility.yul\":2752:2776   */\n  tag_36\n  jump\t// in\ntag_77:\n    /* \"#utility.yul\":2745:2750   */\n  dup2\n    /* \"#utility.yul\":2742:2777   */\n  eq\n    /* \"#utility.yul\":2732:2795   */\n  tag_78\n  jumpi\n    /* \"#utility.yul\":2791:2792   */\n  0x00\n    /* \"#utility.yul\":2788:2789   */\n  dup1\n    /* \"#utility.yul\":2781:2793   */\n  revert\n    /* \"#utility.yul\":2732:2795   */\ntag_78:\n    /* \"#utility.yul\":2679:2801   */\n  pop\n  jump\t// out\n    /* \"#utility.yul\":2807:2950   */\ntag_46:\n    /* \"#utility.yul\":2864:2869   */\n  0x00\n    /* \"#utility.yul\":2895:2901   */\n  dup2\n    /* \"#utility.yul\":2889:2902   */\n  mload\n    /* \"#utility.yul\":2880:2902   */\n  swap1\n  pop\n    /* \"#utility.yul\":2911:2944   */\n  tag_80\n    /* \"#utility.yul\":2938:2943   */\n  dup2\n    /* \"#utility.yul\":2911:2944   */\n  tag_45\n  jump\t// in\ntag_80:\n    /* \"#utility.yul\":2807:2950   */\n  swap3\n  swap2\n  pop\n  pop\n  jump\t// out\n    /* \"#utility.yul\":2956:3307   */\ntag_15:\n    /* \"#utility.yul\":3026:3032   */\n  0x00\n    /* \"#utility.yul\":3075:3077   */\n  0x20\n    /* \"#utility.yul\":3063:3072   */\n  dup3\n    /* \"#utility.yul\":3054:3061   */\n  dup5\n    /* \"#utility.yul\":3050:3073   */\n  sub\n    /* \"#utility.yul\":3046:3078   */\n  slt\n    /* \"#utility.yul\":3043:3162   */\n  iszero\n  tag_82\n  jumpi\n    /* \"#utility.yul\":3081:3160   */\n  tag_83\n  tag_33\n  jump\t// in\ntag_83:\n    /* \"#utility.yul\":3043:3162   */\ntag_82:\n    /* \"#utility.yul\":3201:3202   */\n  0x00\n    /* \"#utility.yul\":3226:3290   */\n  tag_84\n    /* \"#utility.yul\":3282:3289   */\n  dup5\n    /* \"#utility.yul\":3273:3279   */\n  dup3\n    /* \"#utility.yul\":3262:3271   */\n  dup6\n    /* \"#utility.yul\":3258:3280   */\n  add\n    /* \"#utility.yul\":3226:3290   */\n  tag_46\n  jump\t// in\ntag_84:\n    /* \"#utility.yul\":3216:3290   */\n  swap2\n  pop\n    /* \"#utility.yul\":3172:3300   */\n  pop\n    /* \"#utility.yul\":2956:3307   */\n  swap3\n  swap2\n  pop\n  pop\n  jump\t// out\n    /* \"contracts/core/MorphBUs.sol\":441:5120  contract MorphBUs is IMorphBUs { ... */\ntag_8:\n  dataSize(sub_0)\n  dup1\n  dataOffset(sub_0)\n  0x00\n  codecopy\n  0x00\n  return\nstop\n\nsub_0: assembly {\n        /* \"contracts/core/MorphBUs.sol\":441:5120  contract MorphBUs is IMorphBUs { ... */\n      mstore(0x40, 0x80)\n      callvalue\n      dup1\n      iszero\n      tag_1\n      jumpi\n      0x00\n      dup1\n      revert\n    tag_1:\n      pop\n      jumpi(tag_2, lt(calldatasize, 0x04))\n      shr(0xe0, calldataload(0x00))\n      dup1\n      0x86f79edb\n      gt\n      tag_25\n      jumpi\n      dup1\n      0xbb2877da\n      gt\n      tag_26\n      jumpi\n      dup1\n      0xbb2877da\n      eq\n      tag_19\n      jumpi\n      dup1\n      0xca8d458f\n      eq\n      tag_20\n      jumpi\n      dup1\n      0xcde4c10c\n      eq\n      tag_21\n      jumpi\n      dup1\n      0xcfb5a5f8\n      eq\n      tag_22\n      jumpi\n      dup1\n      0xdbadb1d1\n      eq\n      tag_23\n      jumpi\n      dup1\n      0xde0c9b6a\n      eq\n      tag_24\n      jumpi\n      jump(tag_2)\n    tag_26:\n      dup1\n      0x86f79edb\n      eq\n      tag_14\n      jumpi\n      dup1\n      0x8f4a3807\n      eq\n      tag_15\n      jumpi\n      dup1\n      0x90045069\n      eq\n      tag_16\n      jumpi\n      dup1\n      0xa120734b\n      eq\n      tag_17\n      jumpi\n      dup1\n      0xaa5724c9\n      eq\n      tag_18\n      jumpi\n      jump(tag_2)\n    tag_25:\n      dup1\n      0x3d18b912\n      gt\n      tag_27\n      jumpi\n      dup1\n      0x3d18b912\n      eq\n      tag_8\n      jumpi\n      dup1\n      0x53e224d2\n      eq\n      tag_9\n      jumpi\n      dup1\n      0x5ff6cbf3\n      eq\n      tag_10\n      jumpi\n      dup1\n      0x73fba1fa\n      eq\n      tag_11\n      jumpi\n      dup1\n      0x80127f7e\n      eq\n      tag_12\n      jumpi\n      dup1\n      0x82b566fa\n      eq\n      tag_13\n      jumpi\n      jump(tag_2)\n    tag_27:\n      dup1\n      0x0b7ad54c\n      eq\n      tag_3\n      jumpi\n      dup1\n      0x10349ed4\n      eq\n      tag_4\n      jumpi\n      dup1\n      0x2a788dae\n      eq\n      tag_5\n      jumpi\n      dup1\n      0x2f76ca39\n      eq\n      tag_6\n      jumpi\n      dup1\n      0x390deb17\n      eq\n      tag_7\n      jumpi\n    tag_2:\n      0x00\n      dup1\n      revert\n        /* \"contracts/core/MorphBUs.sol\":2557:2707  function getContent(uint256 _contentId) view external returns (Content memory _content){... */\n    tag_3:\n      tag_28\n      0x04\n      dup1\n      calldatasize\n      sub\n      dup2\n      add\n      swap1\n      tag_29\n      swap2\n      swap1\n      tag_30\n      jump\t// in\n    tag_29:\n      tag_31\n      jump\t// in\n    tag_28:\n      mload(0x40)\n      tag_32\n      swap2\n      swap1\n      tag_33\n      jump\t// in\n    tag_32:\n      mload(0x40)\n      dup1\n      swap2\n      sub\n      swap1\n      return\n        /* \"contracts/core/MorphBUs.sol\":1838:1999  function share(uint256 _contentId, uint256 [] memory _ids) external returns (uint256 _shareId){... */\n    tag_4:\n      tag_34\n      0x04\n      dup1\n      calldatasize\n      sub\n      dup2\n      add\n      swap1\n      tag_35\n      swap2\n      swap1\n      tag_36\n      jump\t// in\n    tag_35:\n      tag_37\n      jump\t// in\n    tag_34:\n      mload(0x40)\n      tag_38\n      swap2\n      swap1\n      tag_39\n      jump\t// in\n    tag_38:\n      mload(0x40)\n      dup1\n      swap2\n      sub\n      swap1\n      return\n        /* \"contracts/core/MorphBUs.sol\":3564:3690  function mute(string memory _name) external returns (uint256 _muteId){... */\n    tag_5:\n      tag_40\n      0x04\n      dup1\n      calldatasize\n      sub\n      dup2\n      add\n      swap1\n      tag_41\n      swap2\n      swap1\n      tag_42\n      jump\t// in\n    tag_41:\n      tag_43\n      jump\t// in\n    tag_40:\n      mload(0x40)\n      tag_44\n      swap2\n      swap1\n      tag_39\n      jump\t// in\n    tag_44:\n      mload(0x40)\n      dup1\n      swap2\n      sub\n      swap1\n      return\n        /* \"contracts/core/MorphBUs.sol\":2715:2846  function getFollowingCount() view external returns (uint256 _count){... */\n    tag_6:\n      tag_45\n      tag_46\n      jump\t// in\n    tag_45:\n      mload(0x40)\n      tag_47\n      swap2\n      swap1\n      tag_39\n      jump\t// in\n    tag_47:\n      mload(0x40)\n      dup1\n      swap2\n      sub\n      swap1\n      return\n        /* \"contracts/core/MorphBUs.sol\":3138:3270  function follow(string memory _name) external returns (uint256 _followId){... */\n    tag_7:\n      tag_48\n      0x04\n      dup1\n      calldatasize\n      sub\n      dup2\n      add\n      swap1\n      tag_49\n      swap2\n      swap1\n      tag_42\n      jump\t// in\n    tag_49:\n      tag_50\n      jump\t// in\n    tag_48:\n      mload(0x40)\n      tag_51\n      swap2\n      swap1\n      tag_39\n      jump\t// in\n    tag_51:\n      mload(0x40)\n      dup1\n      swap2\n      sub\n      swap1\n      return\n        /* \"contracts/core/MorphBUs.sol\":2143:2264  function getReward() view external returns (uint256 _rewardAmount){... */\n    tag_8:\n      tag_52\n      tag_53\n      jump\t// in\n    tag_52:\n      mload(0x40)\n      tag_54\n      swap2\n      swap1\n      tag_39\n      jump\t// in\n    tag_54:\n      mload(0x40)\n      dup1\n      swap2\n      sub\n      swap1\n      return\n        /* \"contracts/core/MorphBUs.sol\":3278:3413  function unfollow(string memory _name) external returns (bool _unfollowed){... */\n    tag_9:\n      tag_55\n      0x04\n      dup1\n      calldatasize\n      sub\n      dup2\n      add\n      swap1\n      tag_56\n      swap2\n      swap1\n      tag_42\n      jump\t// in\n    tag_56:\n      tag_57\n      jump\t// in\n    tag_55:\n      mload(0x40)\n      tag_58\n      swap2\n      swap1\n      tag_59\n      jump\t// in\n    tag_58:\n      mload(0x40)\n      dup1\n      swap2\n      sub\n      swap1\n      return\n        /* \"contracts/core/MorphBUs.sol\":3834:3967  function getMessages() view external returns (uint256 [] memory messageIds){... */\n    tag_10:\n      tag_60\n      tag_61\n      jump\t// in\n    tag_60:\n      mload(0x40)\n      tag_62\n      swap2\n      swap1\n      tag_63\n      jump\t// in\n    tag_62:\n      mload(0x40)\n      dup1\n      swap2\n      sub\n      swap1\n      return\n        /* \"contracts/core/MorphBUs.sol\":2402:2549  function trimFeed(uint256 [] memory _contentIds) external returns (uint256 _trimId){... */\n    tag_11:\n      tag_64\n      0x04\n      dup1\n      calldatasize\n      sub\n      dup2\n      add\n      swap1\n      tag_65\n      swap2\n      swap1\n      tag_66\n      jump\t// in\n    tag_65:\n      tag_67\n      jump\t// in\n    tag_64:\n      mload(0x40)\n      tag_68\n      swap2\n      swap1\n      tag_39\n      jump\t// in\n    tag_68:\n      mload(0x40)\n      dup1\n      swap2\n      sub\n      swap1\n      return\n        /* \"contracts/core/MorphBUs.sol\":2993:3130  function getFollow(uint256 _followId) view external returns (Follow memory _follow){... */\n    tag_12:\n      tag_69\n      0x04\n      dup1\n      calldatasize\n      sub\n      dup2\n      add\n      swap1\n      tag_70\n      swap2\n      swap1\n      tag_30\n      jump\t// in\n    tag_70:\n      tag_71\n      jump\t// in\n    tag_69:\n      mload(0x40)\n      tag_72\n      swap2\n      swap1\n      tag_73\n      jump\t// in\n    tag_72:\n      mload(0x40)\n      dup1\n      swap2\n      sub\n      swap1\n      return\n        /* \"contracts/core/MorphBUs.sol\":3698:3826  function unmute(string memory _name) external returns (bool _unmuted){... */\n    tag_13:\n      tag_74\n      0x04\n      dup1\n      calldatasize\n      sub\n      dup2\n      add\n      swap1\n      tag_75\n      swap2\n      swap1\n      tag_42\n      jump\t// in\n    tag_75:\n      tag_76\n      jump\t// in\n    tag_74:\n      mload(0x40)\n      tag_77\n      swap2\n      swap1\n      tag_59\n      jump\t// in\n    tag_77:\n      mload(0x40)\n      dup1\n      swap2\n      sub\n      swap1\n      return\n        /* \"contracts/core/MorphBUs.sol\":3975:4119  function getMessage(uint256 _messageId) view external returns (Message memory _message){... */\n    tag_14:\n      tag_78\n      0x04\n      dup1\n      calldatasize\n      sub\n      dup2\n      add\n      swap1\n      tag_79\n      swap2\n      swap1\n      tag_30\n      jump\t// in\n    tag_79:\n      tag_80\n      jump\t// in\n    tag_78:\n      mload(0x40)\n      tag_81\n      swap2\n      swap1\n      tag_82\n      jump\t// in\n    tag_81:\n      mload(0x40)\n      dup1\n      swap2\n      sub\n      swap1\n      return\n        /* \"contracts/core/MorphBUs.sol\":1614:1830  function post(Content memory _content) external returns (uint256 _contentId){... */\n    tag_15:\n      tag_83\n      0x04\n      dup1\n      calldatasize\n      sub\n      dup2\n      add\n      swap1\n      tag_84\n      swap2\n      swap1\n      tag_85\n      jump\t// in\n    tag_84:\n      tag_86\n      jump\t// in\n    tag_83:\n      mload(0x40)\n      tag_87\n      swap2\n      swap1\n      tag_39\n      jump\t// in\n    tag_87:\n      mload(0x40)\n      dup1\n      swap2\n      sub\n      swap1\n      return\n        /* \"contracts/core/MorphBUs.sol\":3421:3556  function isMuted(string memory _name) view external returns (bool _isMuted){... */\n    tag_16:\n      tag_88\n      0x04\n      dup1\n      calldatasize\n      sub\n      dup2\n      add\n      swap1\n      tag_89\n      swap2\n      swap1\n      tag_42\n      jump\t// in\n    tag_89:\n      tag_90\n      jump\t// in\n    tag_88:\n      mload(0x40)\n      tag_91\n      swap2\n      swap1\n      tag_59\n      jump\t// in\n    tag_91:\n      mload(0x40)\n      dup1\n      swap2\n      sub\n      swap1\n      return\n        /* \"contracts/core/MorphBUs.sol\":2854:2985  function getFollows() view external returns (uint256 [] memory _followIds){... */\n    tag_17:\n      tag_92\n      tag_93\n      jump\t// in\n    tag_92:\n      mload(0x40)\n      tag_94\n      swap2\n      swap1\n      tag_63\n      jump\t// in\n    tag_94:\n      mload(0x40)\n      dup1\n      swap2\n      sub\n      swap1\n      return\n        /* \"contracts/core/MorphBUs.sol\":4274:4419  function trimMessages(uint256 [] memory _messageIds) external returns (bool _trimmed){... */\n    tag_18:\n      tag_95\n      0x04\n      dup1\n      calldatasize\n      sub\n      dup2\n      add\n      swap1\n      tag_96\n      swap2\n      swap1\n      tag_66\n      jump\t// in\n    tag_96:\n      tag_97\n      jump\t// in\n    tag_95:\n      mload(0x40)\n      tag_98\n      swap2\n      swap1\n      tag_59\n      jump\t// in\n    tag_98:\n      mload(0x40)\n      dup1\n      swap2\n      sub\n      swap1\n      return\n        /* \"contracts/core/MorphBUs.sol\":1470:1606  function setMorphName(string memory _name) external returns (uint256 _id){... */\n    tag_19:\n      tag_99\n      0x04\n      dup1\n      calldatasize\n      sub\n      dup2\n      add\n      swap1\n      tag_100\n      swap2\n      swap1\n      tag_42\n      jump\t// in\n    tag_100:\n      tag_101\n      jump\t// in\n    tag_99:\n      mload(0x40)\n      tag_102\n      swap2\n      swap1\n      tag_39\n      jump\t// in\n    tag_102:\n      mload(0x40)\n      dup1\n      swap2\n      sub\n      swap1\n      return\n        /* \"contracts/core/MorphBUs.sol\":4127:4266  function sendMessage(Message memory _message) external returns (uint256 _messageId){... */\n    tag_20:\n      tag_103\n      0x04\n      dup1\n      calldatasize\n      sub\n      dup2\n      add\n      swap1\n      tag_104\n      swap2\n      swap1\n      tag_105\n      jump\t// in\n    tag_104:\n      tag_106\n      jump\t// in\n    tag_103:\n      mload(0x40)\n      tag_107\n      swap2\n      swap1\n      tag_39\n      jump\t// in\n    tag_107:\n      mload(0x40)\n      dup1\n      swap2\n      sub\n      swap1\n      return\n        /* \"contracts/core/MorphBUs.sol\":4427:4536  function notifyChangeOfAddress() external returns (bool _acknowledged) {... */\n    tag_21:\n      tag_108\n      tag_109\n      jump\t// in\n    tag_108:\n      mload(0x40)\n      tag_110\n      swap2\n      swap1\n      tag_59\n      jump\t// in\n    tag_110:\n      mload(0x40)\n      dup1\n      swap2\n      sub\n      swap1\n      return\n        /* \"contracts/core/MorphBUs.sol\":2007:2135  function getShare(uint256 _shareId) view external returns (Share memory _share){... */\n    tag_22:\n      tag_111\n      0x04\n      dup1\n      calldatasize\n      sub\n      dup2\n      add\n      swap1\n      tag_112\n      swap2\n      swap1\n      tag_30\n      jump\t// in\n    tag_112:\n      tag_113\n      jump\t// in\n    tag_111:\n      mload(0x40)\n      tag_114\n      swap2\n      swap1\n      tag_115\n      jump\t// in\n    tag_114:\n      mload(0x40)\n      dup1\n      swap2\n      sub\n      swap1\n      return\n        /* \"contracts/core/MorphBUs.sol\":2272:2394  function getFeed() view external returns (uint256 [] memory _contentIds){... */\n    tag_23:\n      tag_116\n      tag_117\n      jump\t// in\n    tag_116:\n      mload(0x40)\n      tag_118\n      swap2\n      swap1\n      tag_63\n      jump\t// in\n    tag_118:\n      mload(0x40)\n      dup1\n      swap2\n      sub\n      swap1\n      return\n        /* \"contracts/core/MorphBUs.sol\":1310:1461  function isMorphNameAvailable(string memory _name) view external returns (bool _isAvailable){... */\n    tag_24:\n      tag_119\n      0x04\n      dup1\n      calldatasize\n      sub\n      dup2\n      add\n      swap1\n      tag_120\n      swap2\n      swap1\n      tag_42\n      jump\t// in\n    tag_120:\n      tag_121\n      jump\t// in\n    tag_119:\n      mload(0x40)\n      tag_122\n      swap2\n      swap1\n      tag_59\n      jump\t// in\n    tag_122:\n      mload(0x40)\n      dup1\n      swap2\n      sub\n      swap1\n      return\n        /* \"contracts/core/MorphBUs.sol\":2557:2707  function getContent(uint256 _contentId) view external returns (Content memory _content){... */\n    tag_31:\n        /* \"contracts/core/MorphBUs.sol\":2620:2643  Content memory _content */\n      tag_123\n      tag_124\n      jump\t// in\n    tag_123:\n        /* \"contracts/core/MorphBUs.sol\":2662:2676  contentManager */\n      0x02\n      0x00\n      swap1\n      sload\n      swap1\n      0x0100\n      exp\n      swap1\n      div\n      0xffffffffffffffffffffffffffffffffffffffff\n      and\n        /* \"contracts/core/MorphBUs.sol\":2662:2687  contentManager.getContent */\n      0xffffffffffffffffffffffffffffffffffffffff\n      and\n      0x0b7ad54c\n        /* \"contracts/core/MorphBUs.sol\":2688:2698  _contentId */\n      dup4\n        /* \"contracts/core/MorphBUs.sol\":2662:2699  contentManager.getContent(_contentId) */\n      mload(0x40)\n      dup3\n      0xffffffff\n      and\n      0xe0\n      shl\n      dup2\n      mstore\n      0x04\n      add\n      tag_126\n      swap2\n      swap1\n      tag_39\n      jump\t// in\n    tag_126:\n      0x00\n      mload(0x40)\n      dup1\n      dup4\n      sub\n      dup2\n      dup7\n      gas\n      staticcall\n      iszero\n      dup1\n      iszero\n      tag_128\n      jumpi\n      returndatasize\n      0x00\n      dup1\n      returndatacopy\n      revert(0x00, returndatasize)\n    tag_128:\n      pop\n      pop\n      pop\n      pop\n      mload(0x40)\n      returndatasize\n      0x00\n      dup3\n      returndatacopy\n      returndatasize\n      not(0x1f)\n      0x1f\n      dup3\n      add\n      and\n      dup3\n      add\n      dup1\n      0x40\n      mstore\n      pop\n      dup2\n      add\n      swap1\n      tag_129\n      swap2\n      swap1\n      tag_130\n      jump\t// in\n    tag_129:\n        /* \"contracts/core/MorphBUs.sol\":2655:2699  return contentManager.getContent(_contentId) */\n      swap1\n      pop\n        /* \"contracts/core/MorphBUs.sol\":2557:2707  function getContent(uint256 _contentId) view external returns (Content memory _content){... */\n      swap2\n      swap1\n      pop\n      jump\t// out\n        /* \"contracts/core/MorphBUs.sol\":1838:1999  function share(uint256 _contentId, uint256 [] memory _ids) external returns (uint256 _shareId){... */\n    tag_37:\n        /* \"contracts/core/MorphBUs.sol\":1915:1931  uint256 _shareId */\n      0x00\n        /* \"contracts/core/MorphBUs.sol\":1950:1954  feed */\n      0x04\n      0x00\n      swap1\n      sload\n      swap1\n      0x0100\n      exp\n      swap1\n      div\n      0xffffffffffffffffffffffffffffffffffffffff\n      and\n        /* \"contracts/core/MorphBUs.sol\":1950:1960  feed.share */\n      0xffffffffffffffffffffffffffffffffffffffff\n      and\n      0xddb50336\n        /* \"contracts/core/MorphBUs.sol\":1962:1972  _contentId */\n      dup5\n        /* \"contracts/core/MorphBUs.sol\":1974:1978  _ids */\n      dup5\n        /* \"contracts/core/MorphBUs.sol\":1980:1990  msg.sender */\n      caller\n        /* \"contracts/core/MorphBUs.sol\":1950:1991  feed.share( _contentId, _ids, msg.sender) */\n      mload(0x40)\n      dup5\n      0xffffffff\n      and\n      0xe0\n      shl\n      dup2\n      mstore\n      0x04\n      add\n      tag_132\n      swap4\n      swap3\n      swap2\n      swap1\n      tag_133\n      jump\t// in\n    tag_132:\n      0x20\n      mload(0x40)\n      dup1\n      dup4\n      sub\n      dup2\n      0x00\n      dup8\n      gas\n      call\n      iszero\n      dup1\n      iszero\n      tag_135\n      jumpi\n      returndatasize\n      0x00\n      dup1\n      returndatacopy\n      revert(0x00, returndatasize)\n    tag_135:\n      pop\n      pop\n      pop\n      pop\n      mload(0x40)\n      returndatasize\n      not(0x1f)\n      0x1f\n      dup3\n      add\n      and\n      dup3\n      add\n      dup1\n      0x40\n      mstore\n      pop\n      dup2\n      add\n      swap1\n      tag_136\n      swap2\n      swap1\n      tag_137\n      jump\t// in\n    tag_136:\n        /* \"contracts/core/MorphBUs.sol\":1943:1991  return feed.share( _contentId, _ids, msg.sender) */\n      swap1\n      pop\n        /* \"contracts/core/MorphBUs.sol\":1838:1999  function share(uint256 _contentId, uint256 [] memory _ids) external returns (uint256 _shareId){... */\n      swap3\n      swap2\n      pop\n      pop\n      jump\t// out\n        /* \"contracts/core/MorphBUs.sol\":3564:3690  function mute(string memory _name) external returns (uint256 _muteId){... */\n    tag_43:\n        /* \"contracts/core/MorphBUs.sol\":3617:3632  uint256 _muteId */\n      0x00\n        /* \"contracts/core/MorphBUs.sol\":3651:3658  follows */\n      0x05\n      0x00\n      swap1\n      sload\n      swap1\n      0x0100\n      exp\n      swap1\n      div\n      0xffffffffffffffffffffffffffffffffffffffff\n      and\n        /* \"contracts/core/MorphBUs.sol\":3651:3663  follows.mute */\n      0xffffffffffffffffffffffffffffffffffffffff\n      and\n      0x8b4b0282\n        /* \"contracts/core/MorphBUs.sol\":3664:3669  _name */\n      dup4\n        /* \"contracts/core/MorphBUs.sol\":3671:3681  msg.sender */\n      caller\n        /* \"contracts/core/MorphBUs.sol\":3651:3682  follows.mute(_name, msg.sender) */\n      mload(0x40)\n      dup4\n      0xffffffff\n      and\n      0xe0\n      shl\n      dup2\n      mstore\n      0x04\n      add\n      tag_139\n      swap3\n      swap2\n      swap1\n      tag_140\n      jump\t// in\n    tag_139:\n      0x20\n      mload(0x40)\n      dup1\n      dup4\n      sub\n      dup2\n      0x00\n      dup8\n      gas\n      call\n      iszero\n      dup1\n      iszero\n      tag_142\n      jumpi\n      returndatasize\n      0x00\n      dup1\n      returndatacopy\n      revert(0x00, returndatasize)\n    tag_142:\n      pop\n      pop\n      pop\n      pop\n      mload(0x40)\n      returndatasize\n      not(0x1f)\n      0x1f\n      dup3\n      add\n      and\n      dup3\n      add\n      dup1\n      0x40\n      mstore\n      pop\n      dup2\n      add\n      swap1\n      tag_143\n      swap2\n      swap1\n      tag_137\n      jump\t// in\n    tag_143:\n        /* \"contracts/core/MorphBUs.sol\":3644:3682  return follows.mute(_name, msg.sender) */\n      swap1\n      pop\n        /* \"contracts/core/MorphBUs.sol\":3564:3690  function mute(string memory _name) external returns (uint256 _muteId){... */\n      swap2\n      swap1\n      pop\n      jump\t// out\n        /* \"contracts/core/MorphBUs.sol\":2715:2846  function getFollowingCount() view external returns (uint256 _count){... */\n    tag_46:\n        /* \"contracts/core/MorphBUs.sol\":2767:2781  uint256 _count */\n      0x00\n        /* \"contracts/core/MorphBUs.sol\":2800:2807  follows */\n      0x05\n      0x00\n      swap1\n      sload\n      swap1\n      0x0100\n      exp\n      swap1\n      div\n      0xffffffffffffffffffffffffffffffffffffffff\n      and\n        /* \"contracts/core/MorphBUs.sol\":2800:2825  follows.getFollowingCount */\n      0xffffffffffffffffffffffffffffffffffffffff\n      and\n      0xfab7d536\n        /* \"contracts/core/MorphBUs.sol\":2826:2836  msg.sender */\n      caller\n        /* \"contracts/core/MorphBUs.sol\":2800:2837  follows.getFollowingCount(msg.sender) */\n      mload(0x40)\n      dup3\n      0xffffffff\n      and\n      0xe0\n      shl\n      dup2\n      mstore\n      0x04\n      add\n      tag_145\n      swap2\n      swap1\n      tag_146\n      jump\t// in\n    tag_145:\n      0x20\n      mload(0x40)\n      dup1\n      dup4\n      sub\n      dup2\n      dup7\n      gas\n      staticcall\n      iszero\n      dup1\n      iszero\n      tag_148\n      jumpi\n      returndatasize\n      0x00\n      dup1\n      returndatacopy\n      revert(0x00, returndatasize)\n    tag_148:\n      pop\n      pop\n      pop\n      pop\n      mload(0x40)\n      returndatasize\n      not(0x1f)\n      0x1f\n      dup3\n      add\n      and\n      dup3\n      add\n      dup1\n      0x40\n      mstore\n      pop\n      dup2\n      add\n      swap1\n      tag_149\n      swap2\n      swap1\n      tag_137\n      jump\t// in\n    tag_149:\n        /* \"contracts/core/MorphBUs.sol\":2793:2837  return follows.getFollowingCount(msg.sender) */\n      swap1\n      pop\n        /* \"contracts/core/MorphBUs.sol\":2715:2846  function getFollowingCount() view external returns (uint256 _count){... */\n      swap1\n      jump\t// out\n        /* \"contracts/core/MorphBUs.sol\":3138:3270  function follow(string memory _name) external returns (uint256 _followId){... */\n    tag_50:\n        /* \"contracts/core/MorphBUs.sol\":3193:3210  uint256 _followId */\n      0x00\n        /* \"contracts/core/MorphBUs.sol\":3229:3236  follows */\n      0x05\n      0x00\n      swap1\n      sload\n      swap1\n      0x0100\n      exp\n      swap1\n      div\n      0xffffffffffffffffffffffffffffffffffffffff\n      and\n        /* \"contracts/core/MorphBUs.sol\":3229:3243  follows.follow */\n      0xffffffffffffffffffffffffffffffffffffffff\n      and\n      0xfc49dd4d\n        /* \"contracts/core/MorphBUs.sol\":3244:3249  _name */\n      dup4\n        /* \"contracts/core/MorphBUs.sol\":3251:3261  msg.sender */\n      caller\n        /* \"contracts/core/MorphBUs.sol\":3229:3262  follows.follow(_name, msg.sender) */\n      mload(0x40)\n      dup4\n      0xffffffff\n      and\n      0xe0\n      shl\n      dup2\n      mstore\n      0x04\n      add\n      tag_151\n      swap3\n      swap2\n      swap1\n      tag_140\n      jump\t// in\n    tag_151:\n      0x20\n      mload(0x40)\n      dup1\n      dup4\n      sub\n      dup2\n      0x00\n      dup8\n      gas\n      call\n      iszero\n      dup1\n      iszero\n      tag_153\n      jumpi\n      returndatasize\n      0x00\n      dup1\n      returndatacopy\n      revert(0x00, returndatasize)\n    tag_153:\n      pop\n      pop\n      pop\n      pop\n      mload(0x40)\n      returndatasize\n      not(0x1f)\n      0x1f\n      dup3\n      add\n      and\n      dup3\n      add\n      dup1\n      0x40\n      mstore\n      pop\n      dup2\n      add\n      swap1\n      tag_154\n      swap2\n      swap1\n      tag_137\n      jump\t// in\n    tag_154:\n        /* \"contracts/core/MorphBUs.sol\":3222:3262  return follows.follow(_name, msg.sender) */\n      swap1\n      pop\n        /* \"contracts/core/MorphBUs.sol\":3138:3270  function follow(string memory _name) external returns (uint256 _followId){... */\n      swap2\n      swap1\n      pop\n      jump\t// out\n        /* \"contracts/core/MorphBUs.sol\":2143:2264  function getReward() view external returns (uint256 _rewardAmount){... */\n    tag_53:\n        /* \"contracts/core/MorphBUs.sol\":2187:2208  uint256 _rewardAmount */\n      0x00\n        /* \"contracts/core/MorphBUs.sol\":2227:2234  rewards */\n      0x06\n      0x00\n      swap1\n      sload\n      swap1\n      0x0100\n      exp\n      swap1\n      div\n      0xffffffffffffffffffffffffffffffffffffffff\n      and\n        /* \"contracts/core/MorphBUs.sol\":2227:2244  rewards.getReward */\n      0xffffffffffffffffffffffffffffffffffffffff\n      and\n      0xc00007b0\n        /* \"contracts/core/MorphBUs.sol\":2245:2255  msg.sender */\n      caller\n        /* \"contracts/core/MorphBUs.sol\":2227:2256  rewards.getReward(msg.sender) */\n      mload(0x40)\n      dup3\n      0xffffffff\n      and\n      0xe0\n      shl\n      dup2\n      mstore\n      0x04\n      add\n      tag_156\n      swap2\n      swap1\n      tag_146\n      jump\t// in\n    tag_156:\n      0x20\n      mload(0x40)\n      dup1\n      dup4\n      sub\n      dup2\n      dup7\n      gas\n      staticcall\n      iszero\n      dup1\n      iszero\n      tag_158\n      jumpi\n      returndatasize\n      0x00\n      dup1\n      returndatacopy\n      revert(0x00, returndatasize)\n    tag_158:\n      pop\n      pop\n      pop\n      pop\n      mload(0x40)\n      returndatasize\n      not(0x1f)\n      0x1f\n      dup3\n      add\n      and\n      dup3\n      add\n      dup1\n      0x40\n      mstore\n      pop\n      dup2\n      add\n      swap1\n      tag_159\n      swap2\n      swap1\n      tag_137\n      jump\t// in\n    tag_159:\n        /* \"contracts/core/MorphBUs.sol\":2220:2256  return rewards.getReward(msg.sender) */\n      swap1\n      pop\n        /* \"contracts/core/MorphBUs.sol\":2143:2264  function getReward() view external returns (uint256 _rewardAmount){... */\n      swap1\n      jump\t// out\n        /* \"contracts/core/MorphBUs.sol\":3278:3413  function unfollow(string memory _name) external returns (bool _unfollowed){... */\n    tag_57:\n        /* \"contracts/core/MorphBUs.sol\":3335:3351  bool _unfollowed */\n      0x00\n        /* \"contracts/core/MorphBUs.sol\":3370:3377  follows */\n      0x05\n      0x00\n      swap1\n      sload\n      swap1\n      0x0100\n      exp\n      swap1\n      div\n      0xffffffffffffffffffffffffffffffffffffffff\n      and\n        /* \"contracts/core/MorphBUs.sol\":3370:3386  follows.unfollow */\n      0xffffffffffffffffffffffffffffffffffffffff\n      and\n      0x0f9caca2\n        /* \"contracts/core/MorphBUs.sol\":3387:3392  _name */\n      dup4\n        /* \"contracts/core/MorphBUs.sol\":3394:3404  msg.sender */\n      caller\n        /* \"contracts/core/MorphBUs.sol\":3370:3405  follows.unfollow(_name, msg.sender) */\n      mload(0x40)\n      dup4\n      0xffffffff\n      and\n      0xe0\n      shl\n      dup2\n      mstore\n      0x04\n      add\n      tag_161\n      swap3\n      swap2\n      swap1\n      tag_140\n      jump\t// in\n    tag_161:\n      0x20\n      mload(0x40)\n      dup1\n      dup4\n      sub\n      dup2\n      0x00\n      dup8\n      gas\n      call\n      iszero\n      dup1\n      iszero\n      tag_163\n      jumpi\n      returndatasize\n      0x00\n      dup1\n      returndatacopy\n      revert(0x00, returndatasize)\n    tag_163:\n      pop\n      pop\n      pop\n      pop\n      mload(0x40)\n      returndatasize\n      not(0x1f)\n      0x1f\n      dup3\n      add\n      and\n      dup3\n      add\n      dup1\n      0x40\n      mstore\n      pop\n      dup2\n      add\n      swap1\n      tag_164\n      swap2\n      swap1\n      tag_165\n      jump\t// in\n    tag_164:\n        /* \"contracts/core/MorphBUs.sol\":3363:3405  return follows.unfollow(_name, msg.sender) */\n      swap1\n      pop\n        /* \"contracts/core/MorphBUs.sol\":3278:3413  function unfollow(string memory _name) external returns (bool _unfollowed){... */\n      swap2\n      swap1\n      pop\n      jump\t// out\n        /* \"contracts/core/MorphBUs.sol\":3834:3967  function getMessages() view external returns (uint256 [] memory messageIds){... */\n    tag_61:\n        /* \"contracts/core/MorphBUs.sol\":3880:3908  uint256 [] memory messageIds */\n      0x60\n        /* \"contracts/core/MorphBUs.sol\":3927:3935  messages */\n      0x03\n      0x00\n      swap1\n      sload\n      swap1\n      0x0100\n      exp\n      swap1\n      div\n      0xffffffffffffffffffffffffffffffffffffffff\n      and\n        /* \"contracts/core/MorphBUs.sol\":3927:3947  messages.getMessages */\n      0xffffffffffffffffffffffffffffffffffffffff\n      and\n      0xb2f71322\n        /* \"contracts/core/MorphBUs.sol\":3948:3958  msg.sender */\n      caller\n        /* \"contracts/core/MorphBUs.sol\":3927:3959  messages.getMessages(msg.sender) */\n      mload(0x40)\n      dup3\n      0xffffffff\n      and\n      0xe0\n      shl\n      dup2\n      mstore\n      0x04\n      add\n      tag_167\n      swap2\n      swap1\n      tag_146\n      jump\t// in\n    tag_167:\n      0x00\n      mload(0x40)\n      dup1\n      dup4\n      sub\n      dup2\n      dup7\n      gas\n      staticcall\n      iszero\n      dup1\n      iszero\n      tag_169\n      jumpi\n      returndatasize\n      0x00\n      dup1\n      returndatacopy\n      revert(0x00, returndatasize)\n    tag_169:\n      pop\n      pop\n      pop\n      pop\n      mload(0x40)\n      returndatasize\n      0x00\n      dup3\n      returndatacopy\n      returndatasize\n      not(0x1f)\n      0x1f\n      dup3\n      add\n      and\n      dup3\n      add\n      dup1\n      0x40\n      mstore\n      pop\n      dup2\n      add\n      swap1\n      tag_170\n      swap2\n      swap1\n      tag_171\n      jump\t// in\n    tag_170:\n        /* \"contracts/core/MorphBUs.sol\":3920:3959  return messages.getMessages(msg.sender) */\n      swap1\n      pop\n        /* \"contracts/core/MorphBUs.sol\":3834:3967  function getMessages() view external returns (uint256 [] memory messageIds){... */\n      swap1\n      jump\t// out\n        /* \"contracts/core/MorphBUs.sol\":2402:2549  function trimFeed(uint256 [] memory _contentIds) external returns (uint256 _trimId){... */\n    tag_67:\n        /* \"contracts/core/MorphBUs.sol\":2469:2484  uint256 _trimId */\n      0x00\n        /* \"contracts/core/MorphBUs.sol\":2503:2507  feed */\n      0x04\n      0x00\n      swap1\n      sload\n      swap1\n      0x0100\n      exp\n      swap1\n      div\n      0xffffffffffffffffffffffffffffffffffffffff\n      and\n        /* \"contracts/core/MorphBUs.sol\":2503:2516  feed.trimFeed */\n      0xffffffffffffffffffffffffffffffffffffffff\n      and\n      0xd5370905\n        /* \"contracts/core/MorphBUs.sol\":2517:2528  _contentIds */\n      dup4\n        /* \"contracts/core/MorphBUs.sol\":2530:2540  msg.sender */\n      caller\n        /* \"contracts/core/MorphBUs.sol\":2503:2541  feed.trimFeed(_contentIds, msg.sender) */\n      mload(0x40)\n      dup4\n      0xffffffff\n      and\n      0xe0\n      shl\n      dup2\n      mstore\n      0x04\n      add\n      tag_173\n      swap3\n      swap2\n      swap1\n      tag_174\n      jump\t// in\n    tag_173:\n      0x20\n      mload(0x40)\n      dup1\n      dup4\n      sub\n      dup2\n      0x00\n      dup8\n      gas\n      call\n      iszero\n      dup1\n      iszero\n      tag_176\n      jumpi\n      returndatasize\n      0x00\n      dup1\n      returndatacopy\n      revert(0x00, returndatasize)\n    tag_176:\n      pop\n      pop\n      pop\n      pop\n      mload(0x40)\n      returndatasize\n      not(0x1f)\n      0x1f\n      dup3\n      add\n      and\n      dup3\n      add\n      dup1\n      0x40\n      mstore\n      pop\n      dup2\n      add\n      swap1\n      tag_177\n      swap2\n      swap1\n      tag_137\n      jump\t// in\n    tag_177:\n        /* \"contracts/core/MorphBUs.sol\":2496:2541  return feed.trimFeed(_contentIds, msg.sender) */\n      swap1\n      pop\n        /* \"contracts/core/MorphBUs.sol\":2402:2549  function trimFeed(uint256 [] memory _contentIds) external returns (uint256 _trimId){... */\n      swap2\n      swap1\n      pop\n      jump\t// out\n        /* \"contracts/core/MorphBUs.sol\":2993:3130  function getFollow(uint256 _followId) view external returns (Follow memory _follow){... */\n    tag_71:\n        /* \"contracts/core/MorphBUs.sol\":3054:3075  Follow memory _follow */\n      tag_178\n      tag_179\n      jump\t// in\n    tag_178:\n        /* \"contracts/core/MorphBUs.sol\":3094:3101  follows */\n      0x05\n      0x00\n      swap1\n      sload\n      swap1\n      0x0100\n      exp\n      swap1\n      div\n      0xffffffffffffffffffffffffffffffffffffffff\n      and\n        /* \"contracts/core/MorphBUs.sol\":3094:3111  follows.getFollow */\n      0xffffffffffffffffffffffffffffffffffffffff\n      and\n      0x80127f7e\n        /* \"contracts/core/MorphBUs.sol\":3112:3121  _followId */\n      dup4\n        /* \"contracts/core/MorphBUs.sol\":3094:3122  follows.getFollow(_followId) */\n      mload(0x40)\n      dup3\n      0xffffffff\n      and\n      0xe0\n      shl\n      dup2\n      mstore\n      0x04\n      add\n      tag_181\n      swap2\n      swap1\n      tag_39\n      jump\t// in\n    tag_181:\n      0x00\n      mload(0x40)\n      dup1\n      dup4\n      sub\n      dup2\n      dup7\n      gas\n      staticcall\n      iszero\n      dup1\n      iszero\n      tag_183\n      jumpi\n      returndatasize\n      0x00\n      dup1\n      returndatacopy\n      revert(0x00, returndatasize)\n    tag_183:\n      pop\n      pop\n      pop\n      pop\n      mload(0x40)\n      returndatasize\n      0x00\n      dup3\n      returndatacopy\n      returndatasize\n      not(0x1f)\n      0x1f\n      dup3\n      add\n      and\n      dup3\n      add\n      dup1\n      0x40\n      mstore\n      pop\n      dup2\n      add\n      swap1\n      tag_184\n      swap2\n      swap1\n      tag_185\n      jump\t// in\n    tag_184:\n        /* \"contracts/core/MorphBUs.sol\":3087:3122  return follows.getFollow(_followId) */\n      swap1\n      pop\n        /* \"contracts/core/MorphBUs.sol\":2993:3130  function getFollow(uint256 _followId) view external returns (Follow memory _follow){... */\n      swap2\n      swap1\n      pop\n      jump\t// out\n        /* \"contracts/core/MorphBUs.sol\":3698:3826  function unmute(string memory _name) external returns (bool _unmuted){... */\n    tag_76:\n        /* \"contracts/core/MorphBUs.sol\":3753:3766  bool _unmuted */\n      0x00\n        /* \"contracts/core/MorphBUs.sol\":3785:3792  follows */\n      0x05\n      0x00\n      swap1\n      sload\n      swap1\n      0x0100\n      exp\n      swap1\n      div\n      0xffffffffffffffffffffffffffffffffffffffff\n      and\n        /* \"contracts/core/MorphBUs.sol\":3785:3799  follows.unmute */\n      0xffffffffffffffffffffffffffffffffffffffff\n      and\n      0x01e40142\n        /* \"contracts/core/MorphBUs.sol\":3800:3805  _name */\n      dup4\n        /* \"contracts/core/MorphBUs.sol\":3807:3817  msg.sender */\n      caller\n        /* \"contracts/core/MorphBUs.sol\":3785:3818  follows.unmute(_name, msg.sender) */\n      mload(0x40)\n      dup4\n      0xffffffff\n      and\n      0xe0\n      shl\n      dup2\n      mstore\n      0x04\n      add\n      tag_187\n      swap3\n      swap2\n      swap1\n      tag_140\n      jump\t// in\n    tag_187:\n      0x20\n      mload(0x40)\n      dup1\n      dup4\n      sub\n      dup2\n      0x00\n      dup8\n      gas\n      call\n      iszero\n      dup1\n      iszero\n      tag_189\n      jumpi\n      returndatasize\n      0x00\n      dup1\n      returndatacopy\n      revert(0x00, returndatasize)\n    tag_189:\n      pop\n      pop\n      pop\n      pop\n      mload(0x40)\n      returndatasize\n      not(0x1f)\n      0x1f\n      dup3\n      add\n      and\n      dup3\n      add\n      dup1\n      0x40\n      mstore\n      pop\n      dup2\n      add\n      swap1\n      tag_190\n      swap2\n      swap1\n      tag_165\n      jump\t// in\n    tag_190:\n        /* \"contracts/core/MorphBUs.sol\":3778:3818  return follows.unmute(_name, msg.sender) */\n      swap1\n      pop\n        /* \"contracts/core/MorphBUs.sol\":3698:3826  function unmute(string memory _name) external returns (bool _unmuted){... */\n      swap2\n      swap1\n      pop\n      jump\t// out\n        /* \"contracts/core/MorphBUs.sol\":3975:4119  function getMessage(uint256 _messageId) view external returns (Message memory _message){... */\n    tag_80:\n        /* \"contracts/core/MorphBUs.sol\":4038:4061  Message memory _message */\n      tag_191\n      tag_192\n      jump\t// in\n    tag_191:\n        /* \"contracts/core/MorphBUs.sol\":4080:4088  messages */\n      0x03\n      0x00\n      swap1\n      sload\n      swap1\n      0x0100\n      exp\n      swap1\n      div\n      0xffffffffffffffffffffffffffffffffffffffff\n      and\n        /* \"contracts/core/MorphBUs.sol\":4080:4099  messages.getMessage */\n      0xffffffffffffffffffffffffffffffffffffffff\n      and\n      0x86f79edb\n        /* \"contracts/core/MorphBUs.sol\":4100:4110  _messageId */\n      dup4\n        /* \"contracts/core/MorphBUs.sol\":4080:4111  messages.getMessage(_messageId) */\n      mload(0x40)\n      dup3\n      0xffffffff\n      and\n      0xe0\n      shl\n      dup2\n      mstore\n      0x04\n      add\n      tag_194\n      swap2\n      swap1\n      tag_39\n      jump\t// in\n    tag_194:\n      0x00\n      mload(0x40)\n      dup1\n      dup4\n      sub\n      dup2\n      dup7\n      gas\n      staticcall\n      iszero\n      dup1\n      iszero\n      tag_196\n      jumpi\n      returndatasize\n      0x00\n      dup1\n      returndatacopy\n      revert(0x00, returndatasize)\n    tag_196:\n      pop\n      pop\n      pop\n      pop\n      mload(0x40)\n      returndatasize\n      0x00\n      dup3\n      returndatacopy\n      returndatasize\n      not(0x1f)\n      0x1f\n      dup3\n      add\n      and\n      dup3\n      add\n      dup1\n      0x40\n      mstore\n      pop\n      dup2\n      add\n      swap1\n      tag_197\n      swap2\n      swap1\n      tag_198\n      jump\t// in\n    tag_197:\n        /* \"contracts/core/MorphBUs.sol\":4073:4111  return messages.getMessage(_messageId) */\n      swap1\n      pop\n        /* \"contracts/core/MorphBUs.sol\":3975:4119  function getMessage(uint256 _messageId) view external returns (Message memory _message){... */\n      swap2\n      swap1\n      pop\n      jump\t// out\n        /* \"contracts/core/MorphBUs.sol\":1614:1830  function post(Content memory _content) external returns (uint256 _contentId){... */\n    tag_86:\n        /* \"contracts/core/MorphBUs.sol\":1671:1689  uint256 _contentId */\n      0x00\n        /* \"contracts/core/MorphBUs.sol\":1714:1728  contentManager */\n      0x02\n      0x00\n      swap1\n      sload\n      swap1\n      0x0100\n      exp\n      swap1\n      div\n      0xffffffffffffffffffffffffffffffffffffffff\n      and\n        /* \"contracts/core/MorphBUs.sol\":1714:1733  contentManager.post */\n      0xffffffffffffffffffffffffffffffffffffffff\n      and\n      0x8f4a3807\n        /* \"contracts/core/MorphBUs.sol\":1734:1742  _content */\n      dup4\n        /* \"contracts/core/MorphBUs.sol\":1714:1743  contentManager.post(_content) */\n      mload(0x40)\n      dup3\n      0xffffffff\n      and\n      0xe0\n      shl\n      dup2\n      mstore\n      0x04\n      add\n      tag_200\n      swap2\n      swap1\n      tag_33\n      jump\t// in\n    tag_200:\n      0x20\n      mload(0x40)\n      dup1\n      dup4\n      sub\n      dup2\n      0x00\n      dup8\n      gas\n      call\n      iszero\n      dup1\n      iszero\n      tag_202\n      jumpi\n      returndatasize\n      0x00\n      dup1\n      returndatacopy\n      revert(0x00, returndatasize)\n    tag_202:\n      pop\n      pop\n      pop\n      pop\n      mload(0x40)\n      returndatasize\n      not(0x1f)\n      0x1f\n      dup3\n      add\n      and\n      dup3\n      add\n      dup1\n      0x40\n      mstore\n      pop\n      dup2\n      add\n      swap1\n      tag_203\n      swap2\n      swap1\n      tag_137\n      jump\t// in\n    tag_203:\n        /* \"contracts/core/MorphBUs.sol\":1701:1743  _contentId = contentManager.post(_content) */\n      swap1\n      pop\n        /* \"contracts/core/MorphBUs.sol\":1755:1759  feed */\n      0x04\n      0x00\n      swap1\n      sload\n      swap1\n      0x0100\n      exp\n      swap1\n      div\n      0xffffffffffffffffffffffffffffffffffffffff\n      and\n        /* \"contracts/core/MorphBUs.sol\":1755:1769  feed.addToFeed */\n      0xffffffffffffffffffffffffffffffffffffffff\n      and\n      0x276384b5\n        /* \"contracts/core/MorphBUs.sol\":1770:1780  _contentId */\n      dup3\n        /* \"contracts/core/MorphBUs.sol\":1782:1792  msg.sender */\n      caller\n        /* \"contracts/core/MorphBUs.sol\":1755:1793  feed.addToFeed(_contentId, msg.sender) */\n      mload(0x40)\n      dup4\n      0xffffffff\n      and\n      0xe0\n      shl\n      dup2\n      mstore\n      0x04\n      add\n      tag_204\n      swap3\n      swap2\n      swap1\n      tag_205\n      jump\t// in\n    tag_204:\n      0x20\n      mload(0x40)\n      dup1\n      dup4\n      sub\n      dup2\n      0x00\n      dup8\n      gas\n      call\n      iszero\n      dup1\n      iszero\n      tag_207\n      jumpi\n      returndatasize\n      0x00\n      dup1\n      returndatacopy\n      revert(0x00, returndatasize)\n    tag_207:\n      pop\n      pop\n      pop\n      pop\n      mload(0x40)\n      returndatasize\n      not(0x1f)\n      0x1f\n      dup3\n      add\n      and\n      dup3\n      add\n      dup1\n      0x40\n      mstore\n      pop\n      dup2\n      add\n      swap1\n      tag_208\n      swap2\n      swap1\n      tag_165\n      jump\t// in\n    tag_208:\n      pop\n        /* \"contracts/core/MorphBUs.sol\":1614:1830  function post(Content memory _content) external returns (uint256 _contentId){... */\n      swap2\n      swap1\n      pop\n      jump\t// out\n        /* \"contracts/core/MorphBUs.sol\":3421:3556  function isMuted(string memory _name) view external returns (bool _isMuted){... */\n    tag_90:\n        /* \"contracts/core/MorphBUs.sol\":3482:3495  bool _isMuted */\n      0x00\n        /* \"contracts/core/MorphBUs.sol\":3514:3521  follows */\n      0x05\n      0x00\n      swap1\n      sload\n      swap1\n      0x0100\n      exp\n      swap1\n      div\n      0xffffffffffffffffffffffffffffffffffffffff\n      and\n        /* \"contracts/core/MorphBUs.sol\":3514:3529  follows.isMuted */\n      0xffffffffffffffffffffffffffffffffffffffff\n      and\n      0xfe658b60\n        /* \"contracts/core/MorphBUs.sol\":3530:3535  _name */\n      dup4\n        /* \"contracts/core/MorphBUs.sol\":3537:3547  msg.sender */\n      caller\n        /* \"contracts/core/MorphBUs.sol\":3514:3548  follows.isMuted(_name, msg.sender) */\n      mload(0x40)\n      dup4\n      0xffffffff\n      and\n      0xe0\n      shl\n      dup2\n      mstore\n      0x04\n      add\n      tag_210\n      swap3\n      swap2\n      swap1\n      tag_140\n      jump\t// in\n    tag_210:\n      0x20\n      mload(0x40)\n      dup1\n      dup4\n      sub\n      dup2\n      dup7\n      gas\n      staticcall\n      iszero\n      dup1\n      iszero\n      tag_212\n      jumpi\n      returndatasize\n      0x00\n      dup1\n      returndatacopy\n      revert(0x00, returndatasize)\n    tag_212:\n      pop\n      pop\n      pop\n      pop\n      mload(0x40)\n      returndatasize\n      not(0x1f)\n      0x1f\n      dup3\n      add\n      and\n      dup3\n      add\n      dup1\n      0x40\n      mstore\n      pop\n      dup2\n      add\n      swap1\n      tag_213\n      swap2\n      swap1\n      tag_165\n      jump\t// in\n    tag_213:\n        /* \"contracts/core/MorphBUs.sol\":3507:3548  return follows.isMuted(_name, msg.sender) */\n      swap1\n      pop\n        /* \"contracts/core/MorphBUs.sol\":3421:3556  function isMuted(string memory _name) view external returns (bool _isMuted){... */\n      swap2\n      swap1\n      pop\n      jump\t// out\n        /* \"contracts/core/MorphBUs.sol\":2854:2985  function getFollows() view external returns (uint256 [] memory _followIds){... */\n    tag_93:\n        /* \"contracts/core/MorphBUs.sol\":2899:2927  uint256 [] memory _followIds */\n      0x60\n        /* \"contracts/core/MorphBUs.sol\":2946:2953  follows */\n      0x05\n      0x00\n      swap1\n      sload\n      swap1\n      0x0100\n      exp\n      swap1\n      div\n      0xffffffffffffffffffffffffffffffffffffffff\n      and\n        /* \"contracts/core/MorphBUs.sol\":2946:2964  follows.getFollows */\n      0xffffffffffffffffffffffffffffffffffffffff\n      and\n      0xeb0eeb10\n        /* \"contracts/core/MorphBUs.sol\":2965:2975  msg.sender */\n      caller\n        /* \"contracts/core/MorphBUs.sol\":2946:2976  follows.getFollows(msg.sender) */\n      mload(0x40)\n      dup3\n      0xffffffff\n      and\n      0xe0\n      shl\n      dup2\n      mstore\n      0x04\n      add\n      tag_215\n      swap2\n      swap1\n      tag_146\n      jump\t// in\n    tag_215:\n      0x00\n      mload(0x40)\n      dup1\n      dup4\n      sub\n      dup2\n      dup7\n      gas\n      staticcall\n      iszero\n      dup1\n      iszero\n      tag_217\n      jumpi\n      returndatasize\n      0x00\n      dup1\n      returndatacopy\n      revert(0x00, returndatasize)\n    tag_217:\n      pop\n      pop\n      pop\n      pop\n      mload(0x40)\n      returndatasize\n      0x00\n      dup3\n      returndatacopy\n      returndatasize\n      not(0x1f)\n      0x1f\n      dup3\n      add\n      and\n      dup3\n      add\n      dup1\n      0x40\n      mstore\n      pop\n      dup2\n      add\n      swap1\n      tag_218\n      swap2\n      swap1\n      tag_171\n      jump\t// in\n    tag_218:\n        /* \"contracts/core/MorphBUs.sol\":2939:2976  return follows.getFollows(msg.sender) */\n      swap1\n      pop\n        /* \"contracts/core/MorphBUs.sol\":2854:2985  function getFollows() view external returns (uint256 [] memory _followIds){... */\n      swap1\n      jump\t// out\n        /* \"contracts/core/MorphBUs.sol\":4274:4419  function trimMessages(uint256 [] memory _messageIds) external returns (bool _trimmed){... */\n    tag_97:\n        /* \"contracts/core/MorphBUs.sol\":4345:4358  bool _trimmed */\n      0x00\n        /* \"contracts/core/MorphBUs.sol\":4377:4385  messages */\n      0x03\n      0x00\n      swap1\n      sload\n      swap1\n      0x0100\n      exp\n      swap1\n      div\n      0xffffffffffffffffffffffffffffffffffffffff\n      and\n        /* \"contracts/core/MorphBUs.sol\":4377:4398  messages.trimMessages */\n      0xffffffffffffffffffffffffffffffffffffffff\n      and\n      0xaa5724c9\n        /* \"contracts/core/MorphBUs.sol\":4399:4410  _messageIds */\n      dup4\n        /* \"contracts/core/MorphBUs.sol\":4377:4411  messages.trimMessages(_messageIds) */\n      mload(0x40)\n      dup3\n      0xffffffff\n      and\n      0xe0\n      shl\n      dup2\n      mstore\n      0x04\n      add\n      tag_220\n      swap2\n      swap1\n      tag_63\n      jump\t// in\n    tag_220:\n      0x20\n      mload(0x40)\n      dup1\n      dup4\n      sub\n      dup2\n      0x00\n      dup8\n      gas\n      call\n      iszero\n      dup1\n      iszero\n      tag_222\n      jumpi\n      returndatasize\n      0x00\n      dup1\n      returndatacopy\n      revert(0x00, returndatasize)\n    tag_222:\n      pop\n      pop\n      pop\n      pop\n      mload(0x40)\n      returndatasize\n      not(0x1f)\n      0x1f\n      dup3\n      add\n      and\n      dup3\n      add\n      dup1\n      0x40\n      mstore\n      pop\n      dup2\n      add\n      swap1\n      tag_223\n      swap2\n      swap1\n      tag_165\n      jump\t// in\n    tag_223:\n        /* \"contracts/core/MorphBUs.sol\":4370:4411  return messages.trimMessages(_messageIds) */\n      swap1\n      pop\n        /* \"contracts/core/MorphBUs.sol\":4274:4419  function trimMessages(uint256 [] memory _messageIds) external returns (bool _trimmed){... */\n      swap2\n      swap1\n      pop\n      jump\t// out\n        /* \"contracts/core/MorphBUs.sol\":1470:1606  function setMorphName(string memory _name) external returns (uint256 _id){... */\n    tag_101:\n        /* \"contracts/core/MorphBUs.sol\":1531:1542  uint256 _id */\n      0x00\n        /* \"contracts/core/MorphBUs.sol\":1561:1566  names */\n      0x01\n      0x00\n      swap1\n      sload\n      swap1\n      0x0100\n      exp\n      swap1\n      div\n      0xffffffffffffffffffffffffffffffffffffffff\n      and\n        /* \"contracts/core/MorphBUs.sol\":1561:1579  names.setMorphName */\n      0xffffffffffffffffffffffffffffffffffffffff\n      and\n      0xf3b95c46\n        /* \"contracts/core/MorphBUs.sol\":1580:1585  _name */\n      dup4\n        /* \"contracts/core/MorphBUs.sol\":1587:1597  msg.sender */\n      caller\n        /* \"contracts/core/MorphBUs.sol\":1561:1598  names.setMorphName(_name, msg.sender) */\n      mload(0x40)\n      dup4\n      0xffffffff\n      and\n      0xe0\n      shl\n      dup2\n      mstore\n      0x04\n      add\n      tag_225\n      swap3\n      swap2\n      swap1\n      tag_140\n      jump\t// in\n    tag_225:\n      0x20\n      mload(0x40)\n      dup1\n      dup4\n      sub\n      dup2\n      0x00\n      dup8\n      gas\n      call\n      iszero\n      dup1\n      iszero\n      tag_227\n      jumpi\n      returndatasize\n      0x00\n      dup1\n      returndatacopy\n      revert(0x00, returndatasize)\n    tag_227:\n      pop\n      pop\n      pop\n      pop\n      mload(0x40)\n      returndatasize\n      not(0x1f)\n      0x1f\n      dup3\n      add\n      and\n      dup3\n      add\n      dup1\n      0x40\n      mstore\n      pop\n      dup2\n      add\n      swap1\n      tag_228\n      swap2\n      swap1\n      tag_137\n      jump\t// in\n    tag_228:\n        /* \"contracts/core/MorphBUs.sol\":1554:1598  return names.setMorphName(_name, msg.sender) */\n      swap1\n      pop\n        /* \"contracts/core/MorphBUs.sol\":1470:1606  function setMorphName(string memory _name) external returns (uint256 _id){... */\n      swap2\n      swap1\n      pop\n      jump\t// out\n        /* \"contracts/core/MorphBUs.sol\":4127:4266  function sendMessage(Message memory _message) external returns (uint256 _messageId){... */\n    tag_106:\n        /* \"contracts/core/MorphBUs.sol\":4191:4209  uint256 _messageId */\n      0x00\n        /* \"contracts/core/MorphBUs.sol\":4228:4236  messages */\n      0x03\n      0x00\n      swap1\n      sload\n      swap1\n      0x0100\n      exp\n      swap1\n      div\n      0xffffffffffffffffffffffffffffffffffffffff\n      and\n        /* \"contracts/core/MorphBUs.sol\":4228:4248  messages.sendMessage */\n      0xffffffffffffffffffffffffffffffffffffffff\n      and\n      0xca8d458f\n        /* \"contracts/core/MorphBUs.sol\":4249:4257  _message */\n      dup4\n        /* \"contracts/core/MorphBUs.sol\":4228:4258  messages.sendMessage(_message) */\n      mload(0x40)\n      dup3\n      0xffffffff\n      and\n      0xe0\n      shl\n      dup2\n      mstore\n      0x04\n      add\n      tag_230\n      swap2\n      swap1\n      tag_82\n      jump\t// in\n    tag_230:\n      0x20\n      mload(0x40)\n      dup1\n      dup4\n      sub\n      dup2\n      0x00\n      dup8\n      gas\n      call\n      iszero\n      dup1\n      iszero\n      tag_232\n      jumpi\n      returndatasize\n      0x00\n      dup1\n      returndatacopy\n      revert(0x00, returndatasize)\n    tag_232:\n      pop\n      pop\n      pop\n      pop\n      mload(0x40)\n      returndatasize\n      not(0x1f)\n      0x1f\n      dup3\n      add\n      and\n      dup3\n      add\n      dup1\n      0x40\n      mstore\n      pop\n      dup2\n      add\n      swap1\n      tag_233\n      swap2\n      swap1\n      tag_137\n      jump\t// in\n    tag_233:\n        /* \"contracts/core/MorphBUs.sol\":4221:4258  return messages.sendMessage(_message) */\n      swap1\n      pop\n        /* \"contracts/core/MorphBUs.sol\":4127:4266  function sendMessage(Message memory _message) external returns (uint256 _messageId){... */\n      swap2\n      swap1\n      pop\n      jump\t// out\n        /* \"contracts/core/MorphBUs.sol\":4427:4536  function notifyChangeOfAddress() external returns (bool _acknowledged) {... */\n    tag_109:\n        /* \"contracts/core/MorphBUs.sol\":4478:4496  bool _acknowledged */\n      0x00\n        /* \"contracts/core/MorphBUs.sol\":4516:4528  initialize() */\n      tag_235\n        /* \"contracts/core/MorphBUs.sol\":4516:4526  initialize */\n      tag_236\n        /* \"contracts/core/MorphBUs.sol\":4516:4528  initialize() */\n      jump\t// in\n    tag_235:\n        /* \"contracts/core/MorphBUs.sol\":4509:4528  return initialize() */\n      swap1\n      pop\n        /* \"contracts/core/MorphBUs.sol\":4427:4536  function notifyChangeOfAddress() external returns (bool _acknowledged) {... */\n      swap1\n      jump\t// out\n        /* \"contracts/core/MorphBUs.sol\":2007:2135  function getShare(uint256 _shareId) view external returns (Share memory _share){... */\n    tag_113:\n        /* \"contracts/core/MorphBUs.sol\":2066:2085  Share memory _share */\n      tag_237\n      tag_238\n      jump\t// in\n    tag_237:\n        /* \"contracts/core/MorphBUs.sol\":2104:2108  feed */\n      0x04\n      0x00\n      swap1\n      sload\n      swap1\n      0x0100\n      exp\n      swap1\n      div\n      0xffffffffffffffffffffffffffffffffffffffff\n      and\n        /* \"contracts/core/MorphBUs.sol\":2104:2117  feed.getShare */\n      0xffffffffffffffffffffffffffffffffffffffff\n      and\n      0xcfb5a5f8\n        /* \"contracts/core/MorphBUs.sol\":2118:2126  _shareId */\n      dup4\n        /* \"contracts/core/MorphBUs.sol\":2104:2127  feed.getShare(_shareId) */\n      mload(0x40)\n      dup3\n      0xffffffff\n      and\n      0xe0\n      shl\n      dup2\n      mstore\n      0x04\n      add\n      tag_240\n      swap2\n      swap1\n      tag_39\n      jump\t// in\n    tag_240:\n      0x00\n      mload(0x40)\n      dup1\n      dup4\n      sub\n      dup2\n      dup7\n      gas\n      staticcall\n      iszero\n      dup1\n      iszero\n      tag_242\n      jumpi\n      returndatasize\n      0x00\n      dup1\n      returndatacopy\n      revert(0x00, returndatasize)\n    tag_242:\n      pop\n      pop\n      pop\n      pop\n      mload(0x40)\n      returndatasize\n      0x00\n      dup3\n      returndatacopy\n      returndatasize\n      not(0x1f)\n      0x1f\n      dup3\n      add\n      and\n      dup3\n      add\n      dup1\n      0x40\n      mstore\n      pop\n      dup2\n      add\n      swap1\n      tag_243\n      swap2\n      swap1\n      tag_244\n      jump\t// in\n    tag_243:\n        /* \"contracts/core/MorphBUs.sol\":2097:2127  return feed.getShare(_shareId) */\n      swap1\n      pop\n        /* \"contracts/core/MorphBUs.sol\":2007:2135  function getShare(uint256 _shareId) view external returns (Share memory _share){... */\n      swap2\n      swap1\n      pop\n      jump\t// out\n        /* \"contracts/core/MorphBUs.sol\":2272:2394  function getFeed() view external returns (uint256 [] memory _contentIds){... */\n    tag_117:\n        /* \"contracts/core/MorphBUs.sol\":2314:2343  uint256 [] memory _contentIds */\n      0x60\n        /* \"contracts/core/MorphBUs.sol\":2362:2366  feed */\n      0x04\n      0x00\n      swap1\n      sload\n      swap1\n      0x0100\n      exp\n      swap1\n      div\n      0xffffffffffffffffffffffffffffffffffffffff\n      and\n        /* \"contracts/core/MorphBUs.sol\":2362:2374  feed.getFeed */\n      0xffffffffffffffffffffffffffffffffffffffff\n      and\n      0x16b8e731\n        /* \"contracts/core/MorphBUs.sol\":2375:2385  msg.sender */\n      caller\n        /* \"contracts/core/MorphBUs.sol\":2362:2386  feed.getFeed(msg.sender) */\n      mload(0x40)\n      dup3\n      0xffffffff\n      and\n      0xe0\n      shl\n      dup2\n      mstore\n      0x04\n      add\n      tag_246\n      swap2\n      swap1\n      tag_146\n      jump\t// in\n    tag_246:\n      0x00\n      mload(0x40)\n      dup1\n      dup4\n      sub\n      dup2\n      dup7\n      gas\n      staticcall\n      iszero\n      dup1\n      iszero\n      tag_248\n      jumpi\n      returndatasize\n      0x00\n      dup1\n      returndatacopy\n      revert(0x00, returndatasize)\n    tag_248:\n      pop\n      pop\n      pop\n      pop\n      mload(0x40)\n      returndatasize\n      0x00\n      dup3\n      returndatacopy\n      returndatasize\n      not(0x1f)\n      0x1f\n      dup3\n      add\n      and\n      dup3\n      add\n      dup1\n      0x40\n      mstore\n      pop\n      dup2\n      add\n      swap1\n      tag_249\n      swap2\n      swap1\n      tag_171\n      jump\t// in\n    tag_249:\n        /* \"contracts/core/MorphBUs.sol\":2355:2386  return feed.getFeed(msg.sender) */\n      swap1\n      pop\n        /* \"contracts/core/MorphBUs.sol\":2272:2394  function getFeed() view external returns (uint256 [] memory _contentIds){... */\n      swap1\n      jump\t// out\n        /* \"contracts/core/MorphBUs.sol\":1310:1461  function isMorphNameAvailable(string memory _name) view external returns (bool _isAvailable){... */\n    tag_121:\n        /* \"contracts/core/MorphBUs.sol\":1384:1401  bool _isAvailable */\n      0x00\n        /* \"contracts/core/MorphBUs.sol\":1420:1425  names */\n      0x01\n      0x00\n      swap1\n      sload\n      swap1\n      0x0100\n      exp\n      swap1\n      div\n      0xffffffffffffffffffffffffffffffffffffffff\n      and\n        /* \"contracts/core/MorphBUs.sol\":1420:1446  names.isMorphNameAvailable */\n      0xffffffffffffffffffffffffffffffffffffffff\n      and\n      0xde0c9b6a\n        /* \"contracts/core/MorphBUs.sol\":1447:1452  _name */\n      dup4\n        /* \"contracts/core/MorphBUs.sol\":1420:1453  names.isMorphNameAvailable(_name) */\n      mload(0x40)\n      dup3\n      0xffffffff\n      and\n      0xe0\n      shl\n      dup2\n      mstore\n      0x04\n      add\n      tag_251\n      swap2\n      swap1\n      tag_252\n      jump\t// in\n    tag_251:\n      0x20\n      mload(0x40)\n      dup1\n      dup4\n      sub\n      dup2\n      dup7\n      gas\n      staticcall\n      iszero\n      dup1\n      iszero\n      tag_254\n      jumpi\n      returndatasize\n      0x00\n      dup1\n      returndatacopy\n      revert(0x00, returndatasize)\n    tag_254:\n      pop\n      pop\n      pop\n      pop\n      mload(0x40)\n      returndatasize\n      not(0x1f)\n      0x1f\n      dup3\n      add\n      and\n      dup3\n      add\n      dup1\n      0x40\n      mstore\n      pop\n      dup2\n      add\n      swap1\n      tag_255\n      swap2\n      swap1\n      tag_165\n      jump\t// in\n    tag_255:\n        /* \"contracts/core/MorphBUs.sol\":1413:1453  return names.isMorphNameAvailable(_name) */\n      swap1\n      pop\n        /* \"contracts/core/MorphBUs.sol\":1310:1461  function isMorphNameAvailable(string memory _name) view external returns (bool _isAvailable){... */\n      swap2\n      swap1\n      pop\n      jump\t// out\n        /* \"contracts/core/MorphBUs.sol\":4645:5115  function initialize() internal returns (bool _initialized) {... */\n    tag_236:\n        /* \"contracts/core/MorphBUs.sol\":4685:4702  bool _initialized */\n      0x00\n        /* \"contracts/core/MorphBUs.sol\":4739:4747  register */\n      dup1\n      0x00\n      swap1\n      sload\n      swap1\n      0x0100\n      exp\n      swap1\n      div\n      0xffffffffffffffffffffffffffffffffffffffff\n      and\n        /* \"contracts/core/MorphBUs.sol\":4739:4758  register.getAddress */\n      0xffffffffffffffffffffffffffffffffffffffff\n      and\n      0xbf40fac1\n        /* \"contracts/core/MorphBUs.sol\":4759:4771  NAME_MANAGER */\n      mload(0x40)\n      dup1\n      0x40\n      add\n      0x40\n      mstore\n      dup1\n      0x15\n      dup2\n      mstore\n      0x20\n      add\n      0x52455345525645445f4e414d455f4d414e414745520000000000000000000000\n      dup2\n      mstore\n      pop\n        /* \"contracts/core/MorphBUs.sol\":4739:4772  register.getAddress(NAME_MANAGER) */\n      mload(0x40)\n      dup3\n      0xffffffff\n      and\n      0xe0\n      shl\n      dup2\n      mstore\n      0x04\n      add\n      tag_257\n      swap2\n      swap1\n      tag_252\n      jump\t// in\n    tag_257:\n      0x20\n      mload(0x40)\n      dup1\n      dup4\n      sub\n      dup2\n      dup7\n      gas\n      staticcall\n      iszero\n      dup1\n      iszero\n      tag_259\n      jumpi\n      returndatasize\n      0x00\n      dup1\n      returndatacopy\n      revert(0x00, returndatasize)\n    tag_259:\n      pop\n      pop\n      pop\n      pop\n      mload(0x40)\n      returndatasize\n      not(0x1f)\n      0x1f\n      dup3\n      add\n      and\n      dup3\n      add\n      dup1\n      0x40\n      mstore\n      pop\n      dup2\n      add\n      swap1\n      tag_260\n      swap2\n      swap1\n      tag_261\n      jump\t// in\n    tag_260:\n        /* \"contracts/core/MorphBUs.sol\":4715:4720  names */\n      0x01\n      0x00\n        /* \"contracts/core/MorphBUs.sol\":4715:4773  names = IMBUNameManager(register.getAddress(NAME_MANAGER)) */\n      0x0100\n      exp\n      dup2\n      sload\n      dup2\n      0xffffffffffffffffffffffffffffffffffffffff\n      mul\n      not\n      and\n      swap1\n      dup4\n      0xffffffffffffffffffffffffffffffffffffffff\n      and\n      mul\n      or\n      swap1\n      sstore\n      pop\n        /* \"contracts/core/MorphBUs.sol\":4820:4828  register */\n      0x00\n      dup1\n      sload\n      swap1\n      0x0100\n      exp\n      swap1\n      div\n      0xffffffffffffffffffffffffffffffffffffffff\n      and\n        /* \"contracts/core/MorphBUs.sol\":4820:4839  register.getAddress */\n      0xffffffffffffffffffffffffffffffffffffffff\n      and\n      0xbf40fac1\n        /* \"contracts/core/MorphBUs.sol\":4840:4855  CONTENT_MANAGER */\n      mload(0x40)\n      dup1\n      0x40\n      add\n      0x40\n      mstore\n      dup1\n      0x18\n      dup2\n      mstore\n      0x20\n      add\n      0x52455345525645445f434f4e54454e545f4d414e414745520000000000000000\n      dup2\n      mstore\n      pop\n        /* \"contracts/core/MorphBUs.sol\":4820:4856  register.getAddress(CONTENT_MANAGER) */\n      mload(0x40)\n      dup3\n      0xffffffff\n      and\n      0xe0\n      shl\n      dup2\n      mstore\n      0x04\n      add\n      tag_262\n      swap2\n      swap1\n      tag_252\n      jump\t// in\n    tag_262:\n      0x20\n      mload(0x40)\n      dup1\n      dup4\n      sub\n      dup2\n      dup7\n      gas\n      staticcall\n      iszero\n      dup1\n      iszero\n      tag_264\n      jumpi\n      returndatasize\n      0x00\n      dup1\n      returndatacopy\n      revert(0x00, returndatasize)\n    tag_264:\n      pop\n      pop\n      pop\n      pop\n      mload(0x40)\n      returndatasize\n      not(0x1f)\n      0x1f\n      dup3\n      add\n      and\n      dup3\n      add\n      dup1\n      0x40\n      mstore\n      pop\n      dup2\n      add\n      swap1\n      tag_265\n      swap2\n      swap1\n      tag_261\n      jump\t// in\n    tag_265:\n        /* \"contracts/core/MorphBUs.sol\":4784:4798  contentManager */\n      0x02\n      0x00\n        /* \"contracts/core/MorphBUs.sol\":4784:4857  contentManager = IMBUContentManager(register.getAddress(CONTENT_MANAGER)) */\n      0x0100\n      exp\n      dup2\n      sload\n      dup2\n      0xffffffffffffffffffffffffffffffffffffffff\n      mul\n      not\n      and\n      swap1\n      dup4\n      0xffffffffffffffffffffffffffffffffffffffff\n      and\n      mul\n      or\n      swap1\n      sstore\n      pop\n        /* \"contracts/core/MorphBUs.sol\":4899:4907  register */\n      0x00\n      dup1\n      sload\n      swap1\n      0x0100\n      exp\n      swap1\n      div\n      0xffffffffffffffffffffffffffffffffffffffff\n      and\n        /* \"contracts/core/MorphBUs.sol\":4899:4918  register.getAddress */\n      0xffffffffffffffffffffffffffffffffffffffff\n      and\n      0xbf40fac1\n        /* \"contracts/core/MorphBUs.sol\":4919:4934  MESSAGE_MANAGER */\n      mload(0x40)\n      dup1\n      0x40\n      add\n      0x40\n      mstore\n      dup1\n      0x18\n      dup2\n      mstore\n      0x20\n      add\n      0x52455345525645445f4d4553534147455f4d414e414745520000000000000000\n      dup2\n      mstore\n      pop\n        /* \"contracts/core/MorphBUs.sol\":4899:4935  register.getAddress(MESSAGE_MANAGER) */\n      mload(0x40)\n      dup3\n      0xffffffff\n      and\n      0xe0\n      shl\n      dup2\n      mstore\n      0x04\n      add\n      tag_266\n      swap2\n      swap1\n      tag_252\n      jump\t// in\n    tag_266:\n      0x20\n      mload(0x40)\n      dup1\n      dup4\n      sub\n      dup2\n      dup7\n      gas\n      staticcall\n      iszero\n      dup1\n      iszero\n      tag_268\n      jumpi\n      returndatasize\n      0x00\n      dup1\n      returndatacopy\n      revert(0x00, returndatasize)\n    tag_268:\n      pop\n      pop\n      pop\n      pop\n      mload(0x40)\n      returndatasize\n      not(0x1f)\n      0x1f\n      dup3\n      add\n      and\n      dup3\n      add\n      dup1\n      0x40\n      mstore\n      pop\n      dup2\n      add\n      swap1\n      tag_269\n      swap2\n      swap1\n      tag_261\n      jump\t// in\n    tag_269:\n        /* \"contracts/core/MorphBUs.sol\":4869:4877  messages */\n      0x03\n      0x00\n        /* \"contracts/core/MorphBUs.sol\":4869:4936  messages = IMBUMessageManager(register.getAddress(MESSAGE_MANAGER)) */\n      0x0100\n      exp\n      dup2\n      sload\n      dup2\n      0xffffffffffffffffffffffffffffffffffffffff\n      mul\n      not\n      and\n      swap1\n      dup4\n      0xffffffffffffffffffffffffffffffffffffffff\n      and\n      mul\n      or\n      swap1\n      sstore\n      pop\n        /* \"contracts/core/MorphBUs.sol\":4971:4979  register */\n      0x00\n      dup1\n      sload\n      swap1\n      0x0100\n      exp\n      swap1\n      div\n      0xffffffffffffffffffffffffffffffffffffffff\n      and\n        /* \"contracts/core/MorphBUs.sol\":4971:4990  register.getAddress */\n      0xffffffffffffffffffffffffffffffffffffffff\n      and\n      0xbf40fac1\n        /* \"contracts/core/MorphBUs.sol\":4991:5003  FEED_MANAGER */\n      mload(0x40)\n      dup1\n      0x40\n      add\n      0x40\n      mstore\n      dup1\n      0x15\n      dup2\n      mstore\n      0x20\n      add\n      0x52455345525645445f464545445f4d414e414745520000000000000000000000\n      dup2\n      mstore\n      pop\n        /* \"contracts/core/MorphBUs.sol\":4971:5004  register.getAddress(FEED_MANAGER) */\n      mload(0x40)\n      dup3\n      0xffffffff\n      and\n      0xe0\n      shl\n      dup2\n      mstore\n      0x04\n      add\n      tag_270\n      swap2\n      swap1\n      tag_252\n      jump\t// in\n    tag_270:\n      0x20\n      mload(0x40)\n      dup1\n      dup4\n      sub\n      dup2\n      dup7\n      gas\n      staticcall\n      iszero\n      dup1\n      iszero\n      tag_272\n      jumpi\n      returndatasize\n      0x00\n      dup1\n      returndatacopy\n      revert(0x00, returndatasize)\n    tag_272:\n      pop\n      pop\n      pop\n      pop\n      mload(0x40)\n      returndatasize\n      not(0x1f)\n      0x1f\n      dup3\n      add\n      and\n      dup3\n      add\n      dup1\n      0x40\n      mstore\n      pop\n      dup2\n      add\n      swap1\n      tag_273\n      swap2\n      swap1\n      tag_261\n      jump\t// in\n    tag_273:\n        /* \"contracts/core/MorphBUs.sol\":4948:4952  feed */\n      0x04\n      0x00\n        /* \"contracts/core/MorphBUs.sol\":4948:5005  feed = IMBUFeedManager(register.getAddress(FEED_MANAGER)) */\n      0x0100\n      exp\n      dup2\n      sload\n      dup2\n      0xffffffffffffffffffffffffffffffffffffffff\n      mul\n      not\n      and\n      swap1\n      dup4\n      0xffffffffffffffffffffffffffffffffffffffff\n      and\n      mul\n      or\n      swap1\n      sstore\n      pop\n        /* \"contracts/core/MorphBUs.sol\":5046:5054  register */\n      0x00\n      dup1\n      sload\n      swap1\n      0x0100\n      exp\n      swap1\n      div\n      0xffffffffffffffffffffffffffffffffffffffff\n      and\n        /* \"contracts/core/MorphBUs.sol\":5046:5065  register.getAddress */\n      0xffffffffffffffffffffffffffffffffffffffff\n      and\n      0xbf40fac1\n        /* \"contracts/core/MorphBUs.sol\":5066:5081  FOLLOWS_MANAGER */\n      mload(0x40)\n      dup1\n      0x40\n      add\n      0x40\n      mstore\n      dup1\n      0x18\n      dup2\n      mstore\n      0x20\n      add\n      0x52455345525645445f464f4c4c4f57535f4d414e414745520000000000000000\n      dup2\n      mstore\n      pop\n        /* \"contracts/core/MorphBUs.sol\":5046:5082  register.getAddress(FOLLOWS_MANAGER) */\n      mload(0x40)\n      dup3\n      0xffffffff\n      and\n      0xe0\n      shl\n      dup2\n      mstore\n      0x04\n      add\n      tag_274\n      swap2\n      swap1\n      tag_252\n      jump\t// in\n    tag_274:\n      0x20\n      mload(0x40)\n      dup1\n      dup4\n      sub\n      dup2\n      dup7\n      gas\n      staticcall\n      iszero\n      dup1\n      iszero\n      tag_276\n      jumpi\n      returndatasize\n      0x00\n      dup1\n      returndatacopy\n      revert(0x00, returndatasize)\n    tag_276:\n      pop\n      pop\n      pop\n      pop\n      mload(0x40)\n      returndatasize\n      not(0x1f)\n      0x1f\n      dup3\n      add\n      and\n      dup3\n      add\n      dup1\n      0x40\n      mstore\n      pop\n      dup2\n      add\n      swap1\n      tag_277\n      swap2\n      swap1\n      tag_261\n      jump\t// in\n    tag_277:\n        /* \"contracts/core/MorphBUs.sol\":5017:5024  follows */\n      0x05\n      0x00\n        /* \"contracts/core/MorphBUs.sol\":5017:5083  follows = IMBUFollowsManager(register.getAddress(FOLLOWS_MANAGER)) */\n      0x0100\n      exp\n      dup2\n      sload\n      dup2\n      0xffffffffffffffffffffffffffffffffffffffff\n      mul\n      not\n      and\n      swap1\n      dup4\n      0xffffffffffffffffffffffffffffffffffffffff\n      and\n      mul\n      or\n      swap1\n      sstore\n      pop\n        /* \"contracts/core/MorphBUs.sol\":5102:5106  true */\n      0x01\n        /* \"contracts/core/MorphBUs.sol\":5095:5106  return true */\n      swap1\n      pop\n        /* \"contracts/core/MorphBUs.sol\":4645:5115  function initialize() internal returns (bool _initialized) {... */\n      swap1\n      jump\t// out\n    tag_124:\n      mload(0x40)\n      dup1\n      0xa0\n      add\n      0x40\n      mstore\n      dup1\n      0x00\n      dup2\n      mstore\n      0x20\n      add\n      0x60\n      dup2\n      mstore\n      0x20\n      add\n      and(0xffffffffffffffffffffffffffffffffffffffff, 0x00)\n      dup2\n      mstore\n      0x20\n      add\n      0x60\n      dup2\n      mstore\n      0x20\n      add\n      0x00\n      dup2\n      mstore\n      pop\n      swap1\n      jump\t// out\n    tag_179:\n      mload(0x40)\n      dup1\n      0x60\n      add\n      0x40\n      mstore\n      dup1\n      0x00\n      dup2\n      mstore\n      0x20\n      add\n      0x60\n      dup2\n      mstore\n      0x20\n      add\n      0x00\n      dup2\n      mstore\n      pop\n      swap1\n      jump\t// out\n    tag_192:\n      mload(0x40)\n      dup1\n      0xa0\n      add\n      0x40\n      mstore\n      dup1\n      0x00\n      dup2\n      mstore\n      0x20\n      add\n      0x60\n      dup2\n      mstore\n      0x20\n      add\n      0x60\n      dup2\n      mstore\n      0x20\n      add\n      0x60\n      dup2\n      mstore\n      0x20\n      add\n      0x00\n      dup2\n      mstore\n      pop\n      swap1\n      jump\t// out\n    tag_238:\n      mload(0x40)\n      dup1\n      0x80\n      add\n      0x40\n      mstore\n      dup1\n      0x00\n      dup2\n      mstore\n      0x20\n      add\n      0x00\n      dup2\n      mstore\n      0x20\n      add\n      0x60\n      dup2\n      mstore\n      0x20\n      add\n      0x00\n      dup2\n      mstore\n      pop\n      swap1\n      jump\t// out\n        /* \"#utility.yul\":7:82   */\n    tag_278:\n        /* \"#utility.yul\":40:46   */\n      0x00\n        /* \"#utility.yul\":73:75   */\n      0x40\n        /* \"#utility.yul\":67:76   */\n      mload\n        /* \"#utility.yul\":57:76   */\n      swap1\n      pop\n        /* \"#utility.yul\":7:82   */\n      swap1\n      jump\t// out\n        /* \"#utility.yul\":88:205   */\n    tag_279:\n        /* \"#utility.yul\":197:198   */\n      0x00\n        /* \"#utility.yul\":194:195   */\n      dup1\n        /* \"#utility.yul\":187:199   */\n      revert\n        /* \"#utility.yul\":211:328   */\n    tag_280:\n        /* \"#utility.yul\":320:321   */\n      0x00\n        /* \"#utility.yul\":317:318   */\n      dup1\n        /* \"#utility.yul\":310:322   */\n      revert\n        /* \"#utility.yul\":334:411   */\n    tag_281:\n        /* \"#utility.yul\":371:378   */\n      0x00\n        /* \"#utility.yul\":400:405   */\n      dup2\n        /* \"#utility.yul\":389:405   */\n      swap1\n      pop\n        /* \"#utility.yul\":334:411   */\n      swap2\n      swap1\n      pop\n      jump\t// out\n        /* \"#utility.yul\":417:539   */\n    tag_282:\n        /* \"#utility.yul\":490:514   */\n      tag_348\n        /* \"#utility.yul\":508:513   */\n      dup2\n        /* \"#utility.yul\":490:514   */\n      tag_281\n      jump\t// in\n    tag_348:\n        /* \"#utility.yul\":483:488   */\n      dup2\n        /* \"#utility.yul\":480:515   */\n      eq\n        /* \"#utility.yul\":470:533   */\n      tag_349\n      jumpi\n        /* \"#utility.yul\":529:530   */\n      0x00\n        /* \"#utility.yul\":526:527   */\n      dup1\n        /* \"#utility.yul\":519:531   */\n      revert\n        /* \"#utility.yul\":470:533   */\n    tag_349:\n        /* \"#utility.yul\":417:539   */\n      pop\n      jump\t// out\n        /* \"#utility.yul\":545:684   */\n    tag_283:\n        /* \"#utility.yul\":591:596   */\n      0x00\n        /* \"#utility.yul\":629:635   */\n      dup2\n        /* \"#utility.yul\":616:636   */\n      calldataload\n        /* \"#utility.yul\":607:636   */\n      swap1\n      pop\n        /* \"#utility.yul\":645:678   */\n      tag_351\n        /* \"#utility.yul\":672:677   */\n      dup2\n        /* \"#utility.yul\":645:678   */\n      tag_282\n      jump\t// in\n    tag_351:\n        /* \"#utility.yul\":545:684   */\n      swap3\n      swap2\n      pop\n      pop\n      jump\t// out\n        /* \"#utility.yul\":690:1019   */\n    tag_30:\n        /* \"#utility.yul\":749:755   */\n      0x00\n        /* \"#utility.yul\":798:800   */\n      0x20\n        /* \"#utility.yul\":786:795   */\n      dup3\n        /* \"#utility.yul\":777:784   */\n      dup5\n        /* \"#utility.yul\":773:796   */\n      sub\n        /* \"#utility.yul\":769:801   */\n      slt\n        /* \"#utility.yul\":766:885   */\n      iszero\n      tag_353\n      jumpi\n        /* \"#utility.yul\":804:883   */\n      tag_354\n      tag_279\n      jump\t// in\n    tag_354:\n        /* \"#utility.yul\":766:885   */\n    tag_353:\n        /* \"#utility.yul\":924:925   */\n      0x00\n        /* \"#utility.yul\":949:1002   */\n      tag_355\n        /* \"#utility.yul\":994:1001   */\n      dup5\n        /* \"#utility.yul\":985:991   */\n      dup3\n        /* \"#utility.yul\":974:983   */\n      dup6\n        /* \"#utility.yul\":970:992   */\n      add\n        /* \"#utility.yul\":949:1002   */\n      tag_283\n      jump\t// in\n    tag_355:\n        /* \"#utility.yul\":939:1002   */\n      swap2\n      pop\n        /* \"#utility.yul\":895:1012   */\n      pop\n        /* \"#utility.yul\":690:1019   */\n      swap3\n      swap2\n      pop\n      pop\n      jump\t// out\n        /* \"#utility.yul\":1025:1133   */\n    tag_284:\n        /* \"#utility.yul\":1102:1126   */\n      tag_357\n        /* \"#utility.yul\":1120:1125   */\n      dup2\n        /* \"#utility.yul\":1102:1126   */\n      tag_281\n      jump\t// in\n    tag_357:\n        /* \"#utility.yul\":1097:1100   */\n      dup3\n        /* \"#utility.yul\":1090:1127   */\n      mstore\n        /* \"#utility.yul\":1025:1133   */\n      pop\n      pop\n      jump\t// out\n        /* \"#utility.yul\":1139:1238   */\n    tag_285:\n        /* \"#utility.yul\":1191:1197   */\n      0x00\n        /* \"#utility.yul\":1225:1230   */\n      dup2\n        /* \"#utility.yul\":1219:1231   */\n      mload\n        /* \"#utility.yul\":1209:1231   */\n      swap1\n      pop\n        /* \"#utility.yul\":1139:1238   */\n      swap2\n      swap1\n      pop\n      jump\t// out\n        /* \"#utility.yul\":1244:1403   */\n    tag_286:\n        /* \"#utility.yul\":1318:1329   */\n      0x00\n        /* \"#utility.yul\":1352:1358   */\n      dup3\n        /* \"#utility.yul\":1347:1350   */\n      dup3\n        /* \"#utility.yul\":1340:1359   */\n      mstore\n        /* \"#utility.yul\":1392:1396   */\n      0x20\n        /* \"#utility.yul\":1387:1390   */\n      dup3\n        /* \"#utility.yul\":1383:1397   */\n      add\n        /* \"#utility.yul\":1368:1397   */\n      swap1\n      pop\n        /* \"#utility.yul\":1244:1403   */\n      swap3\n      swap2\n      pop\n      pop\n      jump\t// out\n        /* \"#utility.yul\":1409:1548   */\n    tag_287:\n        /* \"#utility.yul\":1498:1504   */\n      dup3\n        /* \"#utility.yul\":1493:1496   */\n      dup2\n        /* \"#utility.yul\":1488:1491   */\n      dup4\n        /* \"#utility.yul\":1482:1505   */\n      mcopy\n        /* \"#utility.yul\":1539:1540   */\n      0x00\n        /* \"#utility.yul\":1530:1536   */\n      dup4\n        /* \"#utility.yul\":1525:1528   */\n      dup4\n        /* \"#utility.yul\":1521:1537   */\n      add\n        /* \"#utility.yul\":1514:1541   */\n      mstore\n        /* \"#utility.yul\":1409:1548   */\n      pop\n      pop\n      pop\n      jump\t// out\n        /* \"#utility.yul\":1554:1656   */\n    tag_288:\n        /* \"#utility.yul\":1595:1601   */\n      0x00\n        /* \"#utility.yul\":1646:1648   */\n      0x1f\n        /* \"#utility.yul\":1642:1649   */\n      not\n        /* \"#utility.yul\":1637:1639   */\n      0x1f\n        /* \"#utility.yul\":1630:1635   */\n      dup4\n        /* \"#utility.yul\":1626:1640   */\n      add\n        /* \"#utility.yul\":1622:1650   */\n      and\n        /* \"#utility.yul\":1612:1650   */\n      swap1\n      pop\n        /* \"#utility.yul\":1554:1656   */\n      swap2\n      swap1\n      pop\n      jump\t// out\n        /* \"#utility.yul\":1662:2019   */\n    tag_289:\n        /* \"#utility.yul\":1740:1743   */\n      0x00\n        /* \"#utility.yul\":1768:1807   */\n      tag_363\n        /* \"#utility.yul\":1801:1806   */\n      dup3\n        /* \"#utility.yul\":1768:1807   */\n      tag_285\n      jump\t// in\n    tag_363:\n        /* \"#utility.yul\":1823:1884   */\n      tag_364\n        /* \"#utility.yul\":1877:1883   */\n      dup2\n        /* \"#utility.yul\":1872:1875   */\n      dup6\n        /* \"#utility.yul\":1823:1884   */\n      tag_286\n      jump\t// in\n    tag_364:\n        /* \"#utility.yul\":1816:1884   */\n      swap4\n      pop\n        /* \"#utility.yul\":1893:1958   */\n      tag_365\n        /* \"#utility.yul\":1951:1957   */\n      dup2\n        /* \"#utility.yul\":1946:1949   */\n      dup6\n        /* \"#utility.yul\":1939:1943   */\n      0x20\n        /* \"#utility.yul\":1932:1937   */\n      dup7\n        /* \"#utility.yul\":1928:1944   */\n      add\n        /* \"#utility.yul\":1893:1958   */\n      tag_287\n      jump\t// in\n    tag_365:\n        /* \"#utility.yul\":1983:2012   */\n      tag_366\n        /* \"#utility.yul\":2005:2011   */\n      dup2\n        /* \"#utility.yul\":1983:2012   */\n      tag_288\n      jump\t// in\n    tag_366:\n        /* \"#utility.yul\":1978:1981   */\n      dup5\n        /* \"#utility.yul\":1974:2013   */\n      add\n        /* \"#utility.yul\":1967:2013   */\n      swap2\n      pop\n        /* \"#utility.yul\":1744:2019   */\n      pop\n        /* \"#utility.yul\":1662:2019   */\n      swap3\n      swap2\n      pop\n      pop\n      jump\t// out\n        /* \"#utility.yul\":2025:2151   */\n    tag_290:\n        /* \"#utility.yul\":2062:2069   */\n      0x00\n        /* \"#utility.yul\":2102:2144   */\n      0xffffffffffffffffffffffffffffffffffffffff\n        /* \"#utility.yul\":2095:2100   */\n      dup3\n        /* \"#utility.yul\":2091:2145   */\n      and\n        /* \"#utility.yul\":2080:2145   */\n      swap1\n      pop\n        /* \"#utility.yul\":2025:2151   */\n      swap2\n      swap1\n      pop\n      jump\t// out\n        /* \"#utility.yul\":2157:2253   */\n    tag_291:\n        /* \"#utility.yul\":2194:2201   */\n      0x00\n        /* \"#utility.yul\":2223:2247   */\n      tag_369\n        /* \"#utility.yul\":2241:2246   */\n      dup3\n        /* \"#utility.yul\":2223:2247   */\n      tag_290\n      jump\t// in\n    tag_369:\n        /* \"#utility.yul\":2212:2247   */\n      swap1\n      pop\n        /* \"#utility.yul\":2157:2253   */\n      swap2\n      swap1\n      pop\n      jump\t// out\n        /* \"#utility.yul\":2259:2367   */\n    tag_292:\n        /* \"#utility.yul\":2336:2360   */\n      tag_371\n        /* \"#utility.yul\":2354:2359   */\n      dup2\n        /* \"#utility.yul\":2336:2360   */\n      tag_291\n      jump\t// in\n    tag_371:\n        /* \"#utility.yul\":2331:2334   */\n      dup3\n        /* \"#utility.yul\":2324:2361   */\n      mstore\n        /* \"#utility.yul\":2259:2367   */\n      pop\n      pop\n      jump\t// out\n        /* \"#utility.yul\":2413:3620   */\n    tag_293:\n        /* \"#utility.yul\":2530:2533   */\n      0x00\n        /* \"#utility.yul\":2566:2570   */\n      0xa0\n        /* \"#utility.yul\":2561:2564   */\n      dup4\n        /* \"#utility.yul\":2557:2571   */\n      add\n        /* \"#utility.yul\":2651:2655   */\n      0x00\n        /* \"#utility.yul\":2644:2649   */\n      dup4\n        /* \"#utility.yul\":2640:2656   */\n      add\n        /* \"#utility.yul\":2634:2657   */\n      mload\n        /* \"#utility.yul\":2670:2733   */\n      tag_373\n        /* \"#utility.yul\":2727:2731   */\n      0x00\n        /* \"#utility.yul\":2722:2725   */\n      dup7\n        /* \"#utility.yul\":2718:2732   */\n      add\n        /* \"#utility.yul\":2704:2716   */\n      dup3\n        /* \"#utility.yul\":2670:2733   */\n      tag_284\n      jump\t// in\n    tag_373:\n        /* \"#utility.yul\":2581:2743   */\n      pop\n        /* \"#utility.yul\":2829:2833   */\n      0x20\n        /* \"#utility.yul\":2822:2827   */\n      dup4\n        /* \"#utility.yul\":2818:2834   */\n      add\n        /* \"#utility.yul\":2812:2835   */\n      mload\n        /* \"#utility.yul\":2882:2885   */\n      dup5\n        /* \"#utility.yul\":2876:2880   */\n      dup3\n        /* \"#utility.yul\":2872:2886   */\n      sub\n        /* \"#utility.yul\":2865:2869   */\n      0x20\n        /* \"#utility.yul\":2860:2863   */\n      dup7\n        /* \"#utility.yul\":2856:2870   */\n      add\n        /* \"#utility.yul\":2849:2887   */\n      mstore\n        /* \"#utility.yul\":2908:2981   */\n      tag_374\n        /* \"#utility.yul\":2976:2980   */\n      dup3\n        /* \"#utility.yul\":2962:2974   */\n      dup3\n        /* \"#utility.yul\":2908:2981   */\n      tag_289\n      jump\t// in\n    tag_374:\n        /* \"#utility.yul\":2900:2981   */\n      swap2\n      pop\n        /* \"#utility.yul\":2753:2992   */\n      pop\n        /* \"#utility.yul\":3076:3080   */\n      0x40\n        /* \"#utility.yul\":3069:3074   */\n      dup4\n        /* \"#utility.yul\":3065:3081   */\n      add\n        /* \"#utility.yul\":3059:3082   */\n      mload\n        /* \"#utility.yul\":3095:3158   */\n      tag_375\n        /* \"#utility.yul\":3152:3156   */\n      0x40\n        /* \"#utility.yul\":3147:3150   */\n      dup7\n        /* \"#utility.yul\":3143:3157   */\n      add\n        /* \"#utility.yul\":3129:3141   */\n      dup3\n        /* \"#utility.yul\":3095:3158   */\n      tag_292\n      jump\t// in\n    tag_375:\n        /* \"#utility.yul\":3002:3168   */\n      pop\n        /* \"#utility.yul\":3256:3260   */\n      0x60\n        /* \"#utility.yul\":3249:3254   */\n      dup4\n        /* \"#utility.yul\":3245:3261   */\n      add\n        /* \"#utility.yul\":3239:3262   */\n      mload\n        /* \"#utility.yul\":3309:3312   */\n      dup5\n        /* \"#utility.yul\":3303:3307   */\n      dup3\n        /* \"#utility.yul\":3299:3313   */\n      sub\n        /* \"#utility.yul\":3292:3296   */\n      0x60\n        /* \"#utility.yul\":3287:3290   */\n      dup7\n        /* \"#utility.yul\":3283:3297   */\n      add\n        /* \"#utility.yul\":3276:3314   */\n      mstore\n        /* \"#utility.yul\":3335:3408   */\n      tag_376\n        /* \"#utility.yul\":3403:3407   */\n      dup3\n        /* \"#utility.yul\":3389:3401   */\n      dup3\n        /* \"#utility.yul\":3335:3408   */\n      tag_289\n      jump\t// in\n    tag_376:\n        /* \"#utility.yul\":3327:3408   */\n      swap2\n      pop\n        /* \"#utility.yul\":3178:3419   */\n      pop\n        /* \"#utility.yul\":3501:3505   */\n      0x80\n        /* \"#utility.yul\":3494:3499   */\n      dup4\n        /* \"#utility.yul\":3490:3506   */\n      add\n        /* \"#utility.yul\":3484:3507   */\n      mload\n        /* \"#utility.yul\":3520:3583   */\n      tag_377\n        /* \"#utility.yul\":3577:3581   */\n      0x80\n        /* \"#utility.yul\":3572:3575   */\n      dup7\n        /* \"#utility.yul\":3568:3582   */\n      add\n        /* \"#utility.yul\":3554:3566   */\n      dup3\n        /* \"#utility.yul\":3520:3583   */\n      tag_284\n      jump\t// in\n    tag_377:\n        /* \"#utility.yul\":3429:3593   */\n      pop\n        /* \"#utility.yul\":3610:3614   */\n      dup1\n        /* \"#utility.yul\":3603:3614   */\n      swap2\n      pop\n        /* \"#utility.yul\":2535:3620   */\n      pop\n        /* \"#utility.yul\":2413:3620   */\n      swap3\n      swap2\n      pop\n      pop\n      jump\t// out\n        /* \"#utility.yul\":3626:3995   */\n    tag_33:\n        /* \"#utility.yul\":3767:3771   */\n      0x00\n        /* \"#utility.yul\":3805:3807   */\n      0x20\n        /* \"#utility.yul\":3794:3803   */\n      dup3\n        /* \"#utility.yul\":3790:3808   */\n      add\n        /* \"#utility.yul\":3782:3808   */\n      swap1\n      pop\n        /* \"#utility.yul\":3854:3863   */\n      dup2\n        /* \"#utility.yul\":3848:3852   */\n      dup2\n        /* \"#utility.yul\":3844:3864   */\n      sub\n        /* \"#utility.yul\":3840:3841   */\n      0x00\n        /* \"#utility.yul\":3829:3838   */\n      dup4\n        /* \"#utility.yul\":3825:3842   */\n      add\n        /* \"#utility.yul\":3818:3865   */\n      mstore\n        /* \"#utility.yul\":3882:3988   */\n      tag_379\n        /* \"#utility.yul\":3983:3987   */\n      dup2\n        /* \"#utility.yul\":3974:3980   */\n      dup5\n        /* \"#utility.yul\":3882:3988   */\n      tag_293\n      jump\t// in\n    tag_379:\n        /* \"#utility.yul\":3874:3988   */\n      swap1\n      pop\n        /* \"#utility.yul\":3626:3995   */\n      swap3\n      swap2\n      pop\n      pop\n      jump\t// out\n        /* \"#utility.yul\":4001:4118   */\n    tag_294:\n        /* \"#utility.yul\":4110:4111   */\n      0x00\n        /* \"#utility.yul\":4107:4108   */\n      dup1\n        /* \"#utility.yul\":4100:4112   */\n      revert\n        /* \"#utility.yul\":4124:4304   */\n    tag_295:\n        /* \"#utility.yul\":4172:4249   */\n      0x4e487b7100000000000000000000000000000000000000000000000000000000\n        /* \"#utility.yul\":4169:4170   */\n      0x00\n        /* \"#utility.yul\":4162:4250   */\n      mstore\n        /* \"#utility.yul\":4269:4273   */\n      0x41\n        /* \"#utility.yul\":4266:4267   */\n      0x04\n        /* \"#utility.yul\":4259:4274   */\n      mstore\n        /* \"#utility.yul\":4293:4297   */\n      0x24\n        /* \"#utility.yul\":4290:4291   */\n      0x00\n        /* \"#utility.yul\":4283:4298   */\n      revert\n        /* \"#utility.yul\":4310:4591   */\n    tag_296:\n        /* \"#utility.yul\":4393:4420   */\n      tag_383\n        /* \"#utility.yul\":4415:4419   */\n      dup3\n        /* \"#utility.yul\":4393:4420   */\n      tag_288\n      jump\t// in\n    tag_383:\n        /* \"#utility.yul\":4385:4391   */\n      dup2\n        /* \"#utility.yul\":4381:4421   */\n      add\n        /* \"#utility.yul\":4523:4529   */\n      dup2\n        /* \"#utility.yul\":4511:4521   */\n      dup2\n        /* \"#utility.yul\":4508:4530   */\n      lt\n        /* \"#utility.yul\":4487:4505   */\n      0xffffffffffffffff\n        /* \"#utility.yul\":4475:4485   */\n      dup3\n        /* \"#utility.yul\":4472:4506   */\n      gt\n        /* \"#utility.yul\":4469:4531   */\n      or\n        /* \"#utility.yul\":4466:4554   */\n      iszero\n      tag_384\n      jumpi\n        /* \"#utility.yul\":4534:4552   */\n      tag_385\n      tag_295\n      jump\t// in\n    tag_385:\n        /* \"#utility.yul\":4466:4554   */\n    tag_384:\n        /* \"#utility.yul\":4574:4584   */\n      dup1\n        /* \"#utility.yul\":4570:4572   */\n      0x40\n        /* \"#utility.yul\":4563:4585   */\n      mstore\n        /* \"#utility.yul\":4353:4591   */\n      pop\n        /* \"#utility.yul\":4310:4591   */\n      pop\n      pop\n      jump\t// out\n        /* \"#utility.yul\":4597:4726   */\n    tag_297:\n        /* \"#utility.yul\":4631:4637   */\n      0x00\n        /* \"#utility.yul\":4658:4678   */\n      tag_387\n      tag_278\n      jump\t// in\n    tag_387:\n        /* \"#utility.yul\":4648:4678   */\n      swap1\n      pop\n        /* \"#utility.yul\":4687:4720   */\n      tag_388\n        /* \"#utility.yul\":4715:4719   */\n      dup3\n        /* \"#utility.yul\":4707:4713   */\n      dup3\n        /* \"#utility.yul\":4687:4720   */\n      tag_296\n      jump\t// in\n    tag_388:\n        /* \"#utility.yul\":4597:4726   */\n      swap2\n      swap1\n      pop\n      jump\t// out\n        /* \"#utility.yul\":4732:5043   */\n    tag_298:\n        /* \"#utility.yul\":4809:4813   */\n      0x00\n        /* \"#utility.yul\":4899:4917   */\n      0xffffffffffffffff\n        /* \"#utility.yul\":4891:4897   */\n      dup3\n        /* \"#utility.yul\":4888:4918   */\n      gt\n        /* \"#utility.yul\":4885:4941   */\n      iszero\n      tag_390\n      jumpi\n        /* \"#utility.yul\":4921:4939   */\n      tag_391\n      tag_295\n      jump\t// in\n    tag_391:\n        /* \"#utility.yul\":4885:4941   */\n    tag_390:\n        /* \"#utility.yul\":4971:4975   */\n      0x20\n        /* \"#utility.yul\":4963:4969   */\n      dup3\n        /* \"#utility.yul\":4959:4976   */\n      mul\n        /* \"#utility.yul\":4951:4976   */\n      swap1\n      pop\n        /* \"#utility.yul\":5031:5035   */\n      0x20\n        /* \"#utility.yul\":5025:5029   */\n      dup2\n        /* \"#utility.yul\":5021:5036   */\n      add\n        /* \"#utility.yul\":5013:5036   */\n      swap1\n      pop\n        /* \"#utility.yul\":4732:5043   */\n      swap2\n      swap1\n      pop\n      jump\t// out\n        /* \"#utility.yul\":5049:5166   */\n    tag_299:\n        /* \"#utility.yul\":5158:5159   */\n      0x00\n        /* \"#utility.yul\":5155:5156   */\n      dup1\n        /* \"#utility.yul\":5148:5160   */\n      revert\n        /* \"#utility.yul\":5189:5899   */\n    tag_300:\n        /* \"#utility.yul\":5285:5290   */\n      0x00\n        /* \"#utility.yul\":5310:5391   */\n      tag_394\n        /* \"#utility.yul\":5326:5390   */\n      tag_395\n        /* \"#utility.yul\":5383:5389   */\n      dup5\n        /* \"#utility.yul\":5326:5390   */\n      tag_298\n      jump\t// in\n    tag_395:\n        /* \"#utility.yul\":5310:5391   */\n      tag_297\n      jump\t// in\n    tag_394:\n        /* \"#utility.yul\":5301:5391   */\n      swap1\n      pop\n        /* \"#utility.yul\":5411:5416   */\n      dup1\n        /* \"#utility.yul\":5440:5446   */\n      dup4\n        /* \"#utility.yul\":5433:5438   */\n      dup3\n        /* \"#utility.yul\":5426:5447   */\n      mstore\n        /* \"#utility.yul\":5474:5478   */\n      0x20\n        /* \"#utility.yul\":5467:5472   */\n      dup3\n        /* \"#utility.yul\":5463:5479   */\n      add\n        /* \"#utility.yul\":5456:5479   */\n      swap1\n      pop\n        /* \"#utility.yul\":5527:5531   */\n      0x20\n        /* \"#utility.yul\":5519:5525   */\n      dup5\n        /* \"#utility.yul\":5515:5532   */\n      mul\n        /* \"#utility.yul\":5507:5513   */\n      dup4\n        /* \"#utility.yul\":5503:5533   */\n      add\n        /* \"#utility.yul\":5556:5559   */\n      dup6\n        /* \"#utility.yul\":5548:5554   */\n      dup2\n        /* \"#utility.yul\":5545:5560   */\n      gt\n        /* \"#utility.yul\":5542:5664   */\n      iszero\n      tag_396\n      jumpi\n        /* \"#utility.yul\":5575:5654   */\n      tag_397\n      tag_299\n      jump\t// in\n    tag_397:\n        /* \"#utility.yul\":5542:5664   */\n    tag_396:\n        /* \"#utility.yul\":5690:5696   */\n      dup4\n        /* \"#utility.yul\":5673:5893   */\n    tag_398:\n        /* \"#utility.yul\":5707:5713   */\n      dup2\n        /* \"#utility.yul\":5702:5705   */\n      dup2\n        /* \"#utility.yul\":5699:5714   */\n      lt\n        /* \"#utility.yul\":5673:5893   */\n      iszero\n      tag_400\n      jumpi\n        /* \"#utility.yul\":5782:5785   */\n      dup1\n        /* \"#utility.yul\":5811:5848   */\n      tag_401\n        /* \"#utility.yul\":5844:5847   */\n      dup9\n        /* \"#utility.yul\":5832:5842   */\n      dup3\n        /* \"#utility.yul\":5811:5848   */\n      tag_283\n      jump\t// in\n    tag_401:\n        /* \"#utility.yul\":5806:5809   */\n      dup5\n        /* \"#utility.yul\":5799:5849   */\n      mstore\n        /* \"#utility.yul\":5878:5882   */\n      0x20\n        /* \"#utility.yul\":5873:5876   */\n      dup5\n        /* \"#utility.yul\":5869:5883   */\n      add\n        /* \"#utility.yul\":5862:5883   */\n      swap4\n      pop\n        /* \"#utility.yul\":5749:5893   */\n      pop\n        /* \"#utility.yul\":5733:5737   */\n      0x20\n        /* \"#utility.yul\":5728:5731   */\n      dup2\n        /* \"#utility.yul\":5724:5738   */\n      add\n        /* \"#utility.yul\":5717:5738   */\n      swap1\n      pop\n        /* \"#utility.yul\":5673:5893   */\n      jump(tag_398)\n    tag_400:\n        /* \"#utility.yul\":5677:5698   */\n      pop\n        /* \"#utility.yul\":5291:5899   */\n      pop\n      pop\n        /* \"#utility.yul\":5189:5899   */\n      swap4\n      swap3\n      pop\n      pop\n      pop\n      jump\t// out\n        /* \"#utility.yul\":5922:6292   */\n    tag_301:\n        /* \"#utility.yul\":5993:5998   */\n      0x00\n        /* \"#utility.yul\":6042:6045   */\n      dup3\n        /* \"#utility.yul\":6035:6039   */\n      0x1f\n        /* \"#utility.yul\":6027:6033   */\n      dup4\n        /* \"#utility.yul\":6023:6040   */\n      add\n        /* \"#utility.yul\":6019:6046   */\n      slt\n        /* \"#utility.yul\":6009:6131   */\n      tag_403\n      jumpi\n        /* \"#utility.yul\":6050:6129   */\n      tag_404\n      tag_294\n      jump\t// in\n    tag_404:\n        /* \"#utility.yul\":6009:6131   */\n    tag_403:\n        /* \"#utility.yul\":6167:6173   */\n      dup2\n        /* \"#utility.yul\":6154:6174   */\n      calldataload\n        /* \"#utility.yul\":6192:6286   */\n      tag_405\n        /* \"#utility.yul\":6282:6285   */\n      dup5\n        /* \"#utility.yul\":6274:6280   */\n      dup3\n        /* \"#utility.yul\":6267:6271   */\n      0x20\n        /* \"#utility.yul\":6259:6265   */\n      dup7\n        /* \"#utility.yul\":6255:6272   */\n      add\n        /* \"#utility.yul\":6192:6286   */\n      tag_300\n      jump\t// in\n    tag_405:\n        /* \"#utility.yul\":6183:6286   */\n      swap2\n      pop\n        /* \"#utility.yul\":5999:6292   */\n      pop\n        /* \"#utility.yul\":5922:6292   */\n      swap3\n      swap2\n      pop\n      pop\n      jump\t// out\n        /* \"#utility.yul\":6298:6982   */\n    tag_36:\n        /* \"#utility.yul\":6391:6397   */\n      0x00\n        /* \"#utility.yul\":6399:6405   */\n      dup1\n        /* \"#utility.yul\":6448:6450   */\n      0x40\n        /* \"#utility.yul\":6436:6445   */\n      dup4\n        /* \"#utility.yul\":6427:6434   */\n      dup6\n        /* \"#utility.yul\":6423:6446   */\n      sub\n        /* \"#utility.yul\":6419:6451   */\n      slt\n        /* \"#utility.yul\":6416:6535   */\n      iszero\n      tag_407\n      jumpi\n        /* \"#utility.yul\":6454:6533   */\n      tag_408\n      tag_279\n      jump\t// in\n    tag_408:\n        /* \"#utility.yul\":6416:6535   */\n    tag_407:\n        /* \"#utility.yul\":6574:6575   */\n      0x00\n        /* \"#utility.yul\":6599:6652   */\n      tag_409\n        /* \"#utility.yul\":6644:6651   */\n      dup6\n        /* \"#utility.yul\":6635:6641   */\n      dup3\n        /* \"#utility.yul\":6624:6633   */\n      dup7\n        /* \"#utility.yul\":6620:6642   */\n      add\n        /* \"#utility.yul\":6599:6652   */\n      tag_283\n      jump\t// in\n    tag_409:\n        /* \"#utility.yul\":6589:6652   */\n      swap3\n      pop\n        /* \"#utility.yul\":6545:6662   */\n      pop\n        /* \"#utility.yul\":6729:6731   */\n      0x20\n        /* \"#utility.yul\":6718:6727   */\n      dup4\n        /* \"#utility.yul\":6714:6732   */\n      add\n        /* \"#utility.yul\":6701:6733   */\n      calldataload\n        /* \"#utility.yul\":6760:6778   */\n      0xffffffffffffffff\n        /* \"#utility.yul\":6752:6758   */\n      dup2\n        /* \"#utility.yul\":6749:6779   */\n      gt\n        /* \"#utility.yul\":6746:6863   */\n      iszero\n      tag_410\n      jumpi\n        /* \"#utility.yul\":6782:6861   */\n      tag_411\n      tag_280\n      jump\t// in\n    tag_411:\n        /* \"#utility.yul\":6746:6863   */\n    tag_410:\n        /* \"#utility.yul\":6887:6965   */\n      tag_412\n        /* \"#utility.yul\":6957:6964   */\n      dup6\n        /* \"#utility.yul\":6948:6954   */\n      dup3\n        /* \"#utility.yul\":6937:6946   */\n      dup7\n        /* \"#utility.yul\":6933:6955   */\n      add\n        /* \"#utility.yul\":6887:6965   */\n      tag_301\n      jump\t// in\n    tag_412:\n        /* \"#utility.yul\":6877:6965   */\n      swap2\n      pop\n        /* \"#utility.yul\":6672:6975   */\n      pop\n        /* \"#utility.yul\":6298:6982   */\n      swap3\n      pop\n      swap3\n      swap1\n      pop\n      jump\t// out\n        /* \"#utility.yul\":6988:7106   */\n    tag_302:\n        /* \"#utility.yul\":7075:7099   */\n      tag_414\n        /* \"#utility.yul\":7093:7098   */\n      dup2\n        /* \"#utility.yul\":7075:7099   */\n      tag_281\n      jump\t// in\n    tag_414:\n        /* \"#utility.yul\":7070:7073   */\n      dup3\n        /* \"#utility.yul\":7063:7100   */\n      mstore\n        /* \"#utility.yul\":6988:7106   */\n      pop\n      pop\n      jump\t// out\n        /* \"#utility.yul\":7112:7334   */\n    tag_39:\n        /* \"#utility.yul\":7205:7209   */\n      0x00\n        /* \"#utility.yul\":7243:7245   */\n      0x20\n        /* \"#utility.yul\":7232:7241   */\n      dup3\n        /* \"#utility.yul\":7228:7246   */\n      add\n        /* \"#utility.yul\":7220:7246   */\n      swap1\n      pop\n        /* \"#utility.yul\":7256:7327   */\n      tag_416\n        /* \"#utility.yul\":7324:7325   */\n      0x00\n        /* \"#utility.yul\":7313:7322   */\n      dup4\n        /* \"#utility.yul\":7309:7326   */\n      add\n        /* \"#utility.yul\":7300:7306   */\n      dup5\n        /* \"#utility.yul\":7256:7327   */\n      tag_302\n      jump\t// in\n    tag_416:\n        /* \"#utility.yul\":7112:7334   */\n      swap3\n      swap2\n      pop\n      pop\n      jump\t// out\n        /* \"#utility.yul\":7340:7457   */\n    tag_303:\n        /* \"#utility.yul\":7449:7450   */\n      0x00\n        /* \"#utility.yul\":7446:7447   */\n      dup1\n        /* \"#utility.yul\":7439:7451   */\n      revert\n        /* \"#utility.yul\":7463:7771   */\n    tag_304:\n        /* \"#utility.yul\":7525:7529   */\n      0x00\n        /* \"#utility.yul\":7615:7633   */\n      0xffffffffffffffff\n        /* \"#utility.yul\":7607:7613   */\n      dup3\n        /* \"#utility.yul\":7604:7634   */\n      gt\n        /* \"#utility.yul\":7601:7657   */\n      iszero\n      tag_419\n      jumpi\n        /* \"#utility.yul\":7637:7655   */\n      tag_420\n      tag_295\n      jump\t// in\n    tag_420:\n        /* \"#utility.yul\":7601:7657   */\n    tag_419:\n        /* \"#utility.yul\":7675:7704   */\n      tag_421\n        /* \"#utility.yul\":7697:7703   */\n      dup3\n        /* \"#utility.yul\":7675:7704   */\n      tag_288\n      jump\t// in\n    tag_421:\n        /* \"#utility.yul\":7667:7704   */\n      swap1\n      pop\n        /* \"#utility.yul\":7759:7763   */\n      0x20\n        /* \"#utility.yul\":7753:7757   */\n      dup2\n        /* \"#utility.yul\":7749:7764   */\n      add\n        /* \"#utility.yul\":7741:7764   */\n      swap1\n      pop\n        /* \"#utility.yul\":7463:7771   */\n      swap2\n      swap1\n      pop\n      jump\t// out\n        /* \"#utility.yul\":7777:7925   */\n    tag_305:\n        /* \"#utility.yul\":7875:7881   */\n      dup3\n        /* \"#utility.yul\":7870:7873   */\n      dup2\n        /* \"#utility.yul\":7865:7868   */\n      dup4\n        /* \"#utility.yul\":7852:7882   */\n      calldatacopy\n        /* \"#utility.yul\":7916:7917   */\n      0x00\n        /* \"#utility.yul\":7907:7913   */\n      dup4\n        /* \"#utility.yul\":7902:7905   */\n      dup4\n        /* \"#utility.yul\":7898:7914   */\n      add\n        /* \"#utility.yul\":7891:7918   */\n      mstore\n        /* \"#utility.yul\":7777:7925   */\n      pop\n      pop\n      pop\n      jump\t// out\n        /* \"#utility.yul\":7931:8356   */\n    tag_306:\n        /* \"#utility.yul\":8009:8014   */\n      0x00\n        /* \"#utility.yul\":8034:8100   */\n      tag_424\n        /* \"#utility.yul\":8050:8099   */\n      tag_425\n        /* \"#utility.yul\":8092:8098   */\n      dup5\n        /* \"#utility.yul\":8050:8099   */\n      tag_304\n      jump\t// in\n    tag_425:\n        /* \"#utility.yul\":8034:8100   */\n      tag_297\n      jump\t// in\n    tag_424:\n        /* \"#utility.yul\":8025:8100   */\n      swap1\n      pop\n        /* \"#utility.yul\":8123:8129   */\n      dup3\n        /* \"#utility.yul\":8116:8121   */\n      dup2\n        /* \"#utility.yul\":8109:8130   */\n      mstore\n        /* \"#utility.yul\":8161:8165   */\n      0x20\n        /* \"#utility.yul\":8154:8159   */\n      dup2\n        /* \"#utility.yul\":8150:8166   */\n      add\n        /* \"#utility.yul\":8199:8202   */\n      dup5\n        /* \"#utility.yul\":8190:8196   */\n      dup5\n        /* \"#utility.yul\":8185:8188   */\n      dup5\n        /* \"#utility.yul\":8181:8197   */\n      add\n        /* \"#utility.yul\":8178:8203   */\n      gt\n        /* \"#utility.yul\":8175:8287   */\n      iszero\n      tag_426\n      jumpi\n        /* \"#utility.yul\":8206:8285   */\n      tag_427\n      tag_303\n      jump\t// in\n    tag_427:\n        /* \"#utility.yul\":8175:8287   */\n    tag_426:\n        /* \"#utility.yul\":8296:8350   */\n      tag_428\n        /* \"#utility.yul\":8343:8349   */\n      dup5\n        /* \"#utility.yul\":8338:8341   */\n      dup3\n        /* \"#utility.yul\":8333:8336   */\n      dup6\n        /* \"#utility.yul\":8296:8350   */\n      tag_305\n      jump\t// in\n    tag_428:\n        /* \"#utility.yul\":8015:8356   */\n      pop\n        /* \"#utility.yul\":7931:8356   */\n      swap4\n      swap3\n      pop\n      pop\n      pop\n      jump\t// out\n        /* \"#utility.yul\":8376:8716   */\n    tag_307:\n        /* \"#utility.yul\":8432:8437   */\n      0x00\n        /* \"#utility.yul\":8481:8484   */\n      dup3\n        /* \"#utility.yul\":8474:8478   */\n      0x1f\n        /* \"#utility.yul\":8466:8472   */\n      dup4\n        /* \"#utility.yul\":8462:8479   */\n      add\n        /* \"#utility.yul\":8458:8485   */\n      slt\n        /* \"#utility.yul\":8448:8570   */\n      tag_430\n      jumpi\n        /* \"#utility.yul\":8489:8568   */\n      tag_431\n      tag_294\n      jump\t// in\n    tag_431:\n        /* \"#utility.yul\":8448:8570   */\n    tag_430:\n        /* \"#utility.yul\":8606:8612   */\n      dup2\n        /* \"#utility.yul\":8593:8613   */\n      calldataload\n        /* \"#utility.yul\":8631:8710   */\n      tag_432\n        /* \"#utility.yul\":8706:8709   */\n      dup5\n        /* \"#utility.yul\":8698:8704   */\n      dup3\n        /* \"#utility.yul\":8691:8695   */\n      0x20\n        /* \"#utility.yul\":8683:8689   */\n      dup7\n        /* \"#utility.yul\":8679:8696   */\n      add\n        /* \"#utility.yul\":8631:8710   */\n      tag_306\n      jump\t// in\n    tag_432:\n        /* \"#utility.yul\":8622:8710   */\n      swap2\n      pop\n        /* \"#utility.yul\":8438:8716   */\n      pop\n        /* \"#utility.yul\":8376:8716   */\n      swap3\n      swap2\n      pop\n      pop\n      jump\t// out\n        /* \"#utility.yul\":8722:9231   */\n    tag_42:\n        /* \"#utility.yul\":8791:8797   */\n      0x00\n        /* \"#utility.yul\":8840:8842   */\n      0x20\n        /* \"#utility.yul\":8828:8837   */\n      dup3\n        /* \"#utility.yul\":8819:8826   */\n      dup5\n        /* \"#utility.yul\":8815:8838   */\n      sub\n        /* \"#utility.yul\":8811:8843   */\n      slt\n        /* \"#utility.yul\":8808:8927   */\n      iszero\n      tag_434\n      jumpi\n        /* \"#utility.yul\":8846:8925   */\n      tag_435\n      tag_279\n      jump\t// in\n    tag_435:\n        /* \"#utility.yul\":8808:8927   */\n    tag_434:\n        /* \"#utility.yul\":8994:8995   */\n      0x00\n        /* \"#utility.yul\":8983:8992   */\n      dup3\n        /* \"#utility.yul\":8979:8996   */\n      add\n        /* \"#utility.yul\":8966:8997   */\n      calldataload\n        /* \"#utility.yul\":9024:9042   */\n      0xffffffffffffffff\n        /* \"#utility.yul\":9016:9022   */\n      dup2\n        /* \"#utility.yul\":9013:9043   */\n      gt\n        /* \"#utility.yul\":9010:9127   */\n      iszero\n      tag_436\n      jumpi\n        /* \"#utility.yul\":9046:9125   */\n      tag_437\n      tag_280\n      jump\t// in\n    tag_437:\n        /* \"#utility.yul\":9010:9127   */\n    tag_436:\n        /* \"#utility.yul\":9151:9214   */\n      tag_438\n        /* \"#utility.yul\":9206:9213   */\n      dup5\n        /* \"#utility.yul\":9197:9203   */\n      dup3\n        /* \"#utility.yul\":9186:9195   */\n      dup6\n        /* \"#utility.yul\":9182:9204   */\n      add\n        /* \"#utility.yul\":9151:9214   */\n      tag_307\n      jump\t// in\n    tag_438:\n        /* \"#utility.yul\":9141:9214   */\n      swap2\n      pop\n        /* \"#utility.yul\":8937:9224   */\n      pop\n        /* \"#utility.yul\":8722:9231   */\n      swap3\n      swap2\n      pop\n      pop\n      jump\t// out\n        /* \"#utility.yul\":9237:9327   */\n    tag_308:\n        /* \"#utility.yul\":9271:9278   */\n      0x00\n        /* \"#utility.yul\":9314:9319   */\n      dup2\n        /* \"#utility.yul\":9307:9320   */\n      iszero\n        /* \"#utility.yul\":9300:9321   */\n      iszero\n        /* \"#utility.yul\":9289:9321   */\n      swap1\n      pop\n        /* \"#utility.yul\":9237:9327   */\n      swap2\n      swap1\n      pop\n      jump\t// out\n        /* \"#utility.yul\":9333:9442   */\n    tag_309:\n        /* \"#utility.yul\":9414:9435   */\n      tag_441\n        /* \"#utility.yul\":9429:9434   */\n      dup2\n        /* \"#utility.yul\":9414:9435   */\n      tag_308\n      jump\t// in\n    tag_441:\n        /* \"#utility.yul\":9409:9412   */\n      dup3\n        /* \"#utility.yul\":9402:9436   */\n      mstore\n        /* \"#utility.yul\":9333:9442   */\n      pop\n      pop\n      jump\t// out\n        /* \"#utility.yul\":9448:9658   */\n    tag_59:\n        /* \"#utility.yul\":9535:9539   */\n      0x00\n        /* \"#utility.yul\":9573:9575   */\n      0x20\n        /* \"#utility.yul\":9562:9571   */\n      dup3\n        /* \"#utility.yul\":9558:9576   */\n      add\n        /* \"#utility.yul\":9550:9576   */\n      swap1\n      pop\n        /* \"#utility.yul\":9586:9651   */\n      tag_443\n        /* \"#utility.yul\":9648:9649   */\n      0x00\n        /* \"#utility.yul\":9637:9646   */\n      dup4\n        /* \"#utility.yul\":9633:9650   */\n      add\n        /* \"#utility.yul\":9624:9630   */\n      dup5\n        /* \"#utility.yul\":9586:9651   */\n      tag_309\n      jump\t// in\n    tag_443:\n        /* \"#utility.yul\":9448:9658   */\n      swap3\n      swap2\n      pop\n      pop\n      jump\t// out\n        /* \"#utility.yul\":9664:9778   */\n    tag_310:\n        /* \"#utility.yul\":9731:9737   */\n      0x00\n        /* \"#utility.yul\":9765:9770   */\n      dup2\n        /* \"#utility.yul\":9759:9771   */\n      mload\n        /* \"#utility.yul\":9749:9771   */\n      swap1\n      pop\n        /* \"#utility.yul\":9664:9778   */\n      swap2\n      swap1\n      pop\n      jump\t// out\n        /* \"#utility.yul\":9784:9968   */\n    tag_311:\n        /* \"#utility.yul\":9883:9894   */\n      0x00\n        /* \"#utility.yul\":9917:9923   */\n      dup3\n        /* \"#utility.yul\":9912:9915   */\n      dup3\n        /* \"#utility.yul\":9905:9924   */\n      mstore\n        /* \"#utility.yul\":9957:9961   */\n      0x20\n        /* \"#utility.yul\":9952:9955   */\n      dup3\n        /* \"#utility.yul\":9948:9962   */\n      add\n        /* \"#utility.yul\":9933:9962   */\n      swap1\n      pop\n        /* \"#utility.yul\":9784:9968   */\n      swap3\n      swap2\n      pop\n      pop\n      jump\t// out\n        /* \"#utility.yul\":9974:10106   */\n    tag_312:\n        /* \"#utility.yul\":10041:10045   */\n      0x00\n        /* \"#utility.yul\":10064:10067   */\n      dup2\n        /* \"#utility.yul\":10056:10067   */\n      swap1\n      pop\n        /* \"#utility.yul\":10094:10098   */\n      0x20\n        /* \"#utility.yul\":10089:10092   */\n      dup3\n        /* \"#utility.yul\":10085:10099   */\n      add\n        /* \"#utility.yul\":10077:10099   */\n      swap1\n      pop\n        /* \"#utility.yul\":9974:10106   */\n      swap2\n      swap1\n      pop\n      jump\t// out\n        /* \"#utility.yul\":10112:10291   */\n    tag_313:\n        /* \"#utility.yul\":10181:10191   */\n      0x00\n        /* \"#utility.yul\":10202:10248   */\n      tag_448\n        /* \"#utility.yul\":10244:10247   */\n      dup4\n        /* \"#utility.yul\":10236:10242   */\n      dup4\n        /* \"#utility.yul\":10202:10248   */\n      tag_284\n      jump\t// in\n    tag_448:\n        /* \"#utility.yul\":10280:10284   */\n      0x20\n        /* \"#utility.yul\":10275:10278   */\n      dup4\n        /* \"#utility.yul\":10271:10285   */\n      add\n        /* \"#utility.yul\":10257:10285   */\n      swap1\n      pop\n        /* \"#utility.yul\":10112:10291   */\n      swap3\n      swap2\n      pop\n      pop\n      jump\t// out\n        /* \"#utility.yul\":10297:10410   */\n    tag_314:\n        /* \"#utility.yul\":10367:10371   */\n      0x00\n        /* \"#utility.yul\":10399:10403   */\n      0x20\n        /* \"#utility.yul\":10394:10397   */\n      dup3\n        /* \"#utility.yul\":10390:10404   */\n      add\n        /* \"#utility.yul\":10382:10404   */\n      swap1\n      pop\n        /* \"#utility.yul\":10297:10410   */\n      swap2\n      swap1\n      pop\n      jump\t// out\n        /* \"#utility.yul\":10446:11178   */\n    tag_315:\n        /* \"#utility.yul\":10565:10568   */\n      0x00\n        /* \"#utility.yul\":10594:10648   */\n      tag_451\n        /* \"#utility.yul\":10642:10647   */\n      dup3\n        /* \"#utility.yul\":10594:10648   */\n      tag_310\n      jump\t// in\n    tag_451:\n        /* \"#utility.yul\":10664:10750   */\n      tag_452\n        /* \"#utility.yul\":10743:10749   */\n      dup2\n        /* \"#utility.yul\":10738:10741   */\n      dup6\n        /* \"#utility.yul\":10664:10750   */\n      tag_311\n      jump\t// in\n    tag_452:\n        /* \"#utility.yul\":10657:10750   */\n      swap4\n      pop\n        /* \"#utility.yul\":10774:10830   */\n      tag_453\n        /* \"#utility.yul\":10824:10829   */\n      dup4\n        /* \"#utility.yul\":10774:10830   */\n      tag_312\n      jump\t// in\n    tag_453:\n        /* \"#utility.yul\":10853:10860   */\n      dup1\n        /* \"#utility.yul\":10884:10885   */\n      0x00\n        /* \"#utility.yul\":10869:11153   */\n    tag_454:\n        /* \"#utility.yul\":10894:10900   */\n      dup4\n        /* \"#utility.yul\":10891:10892   */\n      dup2\n        /* \"#utility.yul\":10888:10901   */\n      lt\n        /* \"#utility.yul\":10869:11153   */\n      iszero\n      tag_456\n      jumpi\n        /* \"#utility.yul\":10970:10976   */\n      dup2\n        /* \"#utility.yul\":10964:10977   */\n      mload\n        /* \"#utility.yul\":10997:11060   */\n      tag_457\n        /* \"#utility.yul\":11056:11059   */\n      dup9\n        /* \"#utility.yul\":11041:11054   */\n      dup3\n        /* \"#utility.yul\":10997:11060   */\n      tag_313\n      jump\t// in\n    tag_457:\n        /* \"#utility.yul\":10990:11060   */\n      swap8\n      pop\n        /* \"#utility.yul\":11083:11143   */\n      tag_458\n        /* \"#utility.yul\":11136:11142   */\n      dup4\n        /* \"#utility.yul\":11083:11143   */\n      tag_314\n      jump\t// in\n    tag_458:\n        /* \"#utility.yul\":11073:11143   */\n      swap3\n      pop\n        /* \"#utility.yul\":10929:11153   */\n      pop\n        /* \"#utility.yul\":10916:10917   */\n      0x01\n        /* \"#utility.yul\":10913:10914   */\n      dup2\n        /* \"#utility.yul\":10909:10918   */\n      add\n        /* \"#utility.yul\":10904:10918   */\n      swap1\n      pop\n        /* \"#utility.yul\":10869:11153   */\n      jump(tag_454)\n    tag_456:\n        /* \"#utility.yul\":10873:10887   */\n      pop\n        /* \"#utility.yul\":11169:11172   */\n      dup6\n        /* \"#utility.yul\":11162:11172   */\n      swap4\n      pop\n        /* \"#utility.yul\":10570:11178   */\n      pop\n      pop\n      pop\n        /* \"#utility.yul\":10446:11178   */\n      swap3\n      swap2\n      pop\n      pop\n      jump\t// out\n        /* \"#utility.yul\":11184:11557   */\n    tag_63:\n        /* \"#utility.yul\":11327:11331   */\n      0x00\n        /* \"#utility.yul\":11365:11367   */\n      0x20\n        /* \"#utility.yul\":11354:11363   */\n      dup3\n        /* \"#utility.yul\":11350:11368   */\n      add\n        /* \"#utility.yul\":11342:11368   */\n      swap1\n      pop\n        /* \"#utility.yul\":11414:11423   */\n      dup2\n        /* \"#utility.yul\":11408:11412   */\n      dup2\n        /* \"#utility.yul\":11404:11424   */\n      sub\n        /* \"#utility.yul\":11400:11401   */\n      0x00\n        /* \"#utility.yul\":11389:11398   */\n      dup4\n        /* \"#utility.yul\":11385:11402   */\n      add\n        /* \"#utility.yul\":11378:11425   */\n      mstore\n        /* \"#utility.yul\":11442:11550   */\n      tag_460\n        /* \"#utility.yul\":11545:11549   */\n      dup2\n        /* \"#utility.yul\":11536:11542   */\n      dup5\n        /* \"#utility.yul\":11442:11550   */\n      tag_315\n      jump\t// in\n    tag_460:\n        /* \"#utility.yul\":11434:11550   */\n      swap1\n      pop\n        /* \"#utility.yul\":11184:11557   */\n      swap3\n      swap2\n      pop\n      pop\n      jump\t// out\n        /* \"#utility.yul\":11563:12102   */\n    tag_66:\n        /* \"#utility.yul\":11647:11653   */\n      0x00\n        /* \"#utility.yul\":11696:11698   */\n      0x20\n        /* \"#utility.yul\":11684:11693   */\n      dup3\n        /* \"#utility.yul\":11675:11682   */\n      dup5\n        /* \"#utility.yul\":11671:11694   */\n      sub\n        /* \"#utility.yul\":11667:11699   */\n      slt\n        /* \"#utility.yul\":11664:11783   */\n      iszero\n      tag_462\n      jumpi\n        /* \"#utility.yul\":11702:11781   */\n      tag_463\n      tag_279\n      jump\t// in\n    tag_463:\n        /* \"#utility.yul\":11664:11783   */\n    tag_462:\n        /* \"#utility.yul\":11850:11851   */\n      0x00\n        /* \"#utility.yul\":11839:11848   */\n      dup3\n        /* \"#utility.yul\":11835:11852   */\n      add\n        /* \"#utility.yul\":11822:11853   */\n      calldataload\n        /* \"#utility.yul\":11880:11898   */\n      0xffffffffffffffff\n        /* \"#utility.yul\":11872:11878   */\n      dup2\n        /* \"#utility.yul\":11869:11899   */\n      gt\n        /* \"#utility.yul\":11866:11983   */\n      iszero\n      tag_464\n      jumpi\n        /* \"#utility.yul\":11902:11981   */\n      tag_465\n      tag_280\n      jump\t// in\n    tag_465:\n        /* \"#utility.yul\":11866:11983   */\n    tag_464:\n        /* \"#utility.yul\":12007:12085   */\n      tag_466\n        /* \"#utility.yul\":12077:12084   */\n      dup5\n        /* \"#utility.yul\":12068:12074   */\n      dup3\n        /* \"#utility.yul\":12057:12066   */\n      dup6\n        /* \"#utility.yul\":12053:12075   */\n      add\n        /* \"#utility.yul\":12007:12085   */\n      tag_301\n      jump\t// in\n    tag_466:\n        /* \"#utility.yul\":11997:12085   */\n      swap2\n      pop\n        /* \"#utility.yul\":11793:12095   */\n      pop\n        /* \"#utility.yul\":11563:12102   */\n      swap3\n      swap2\n      pop\n      pop\n      jump\t// out\n        /* \"#utility.yul\":12146:12926   */\n    tag_316:\n        /* \"#utility.yul\":12261:12264   */\n      0x00\n        /* \"#utility.yul\":12297:12301   */\n      0x60\n        /* \"#utility.yul\":12292:12295   */\n      dup4\n        /* \"#utility.yul\":12288:12302   */\n      add\n        /* \"#utility.yul\":12382:12386   */\n      0x00\n        /* \"#utility.yul\":12375:12380   */\n      dup4\n        /* \"#utility.yul\":12371:12387   */\n      add\n        /* \"#utility.yul\":12365:12388   */\n      mload\n        /* \"#utility.yul\":12401:12464   */\n      tag_468\n        /* \"#utility.yul\":12458:12462   */\n      0x00\n        /* \"#utility.yul\":12453:12456   */\n      dup7\n        /* \"#utility.yul\":12449:12463   */\n      add\n        /* \"#utility.yul\":12435:12447   */\n      dup3\n        /* \"#utility.yul\":12401:12464   */\n      tag_284\n      jump\t// in\n    tag_468:\n        /* \"#utility.yul\":12312:12474   */\n      pop\n        /* \"#utility.yul\":12562:12566   */\n      0x20\n        /* \"#utility.yul\":12555:12560   */\n      dup4\n        /* \"#utility.yul\":12551:12567   */\n      add\n        /* \"#utility.yul\":12545:12568   */\n      mload\n        /* \"#utility.yul\":12615:12618   */\n      dup5\n        /* \"#utility.yul\":12609:12613   */\n      dup3\n        /* \"#utility.yul\":12605:12619   */\n      sub\n        /* \"#utility.yul\":12598:12602   */\n      0x20\n        /* \"#utility.yul\":12593:12596   */\n      dup7\n        /* \"#utility.yul\":12589:12603   */\n      add\n        /* \"#utility.yul\":12582:12620   */\n      mstore\n        /* \"#utility.yul\":12641:12714   */\n      tag_469\n        /* \"#utility.yul\":12709:12713   */\n      dup3\n        /* \"#utility.yul\":12695:12707   */\n      dup3\n        /* \"#utility.yul\":12641:12714   */\n      tag_289\n      jump\t// in\n    tag_469:\n        /* \"#utility.yul\":12633:12714   */\n      swap2\n      pop\n        /* \"#utility.yul\":12484:12725   */\n      pop\n        /* \"#utility.yul\":12807:12811   */\n      0x40\n        /* \"#utility.yul\":12800:12805   */\n      dup4\n        /* \"#utility.yul\":12796:12812   */\n      add\n        /* \"#utility.yul\":12790:12813   */\n      mload\n        /* \"#utility.yul\":12826:12889   */\n      tag_470\n        /* \"#utility.yul\":12883:12887   */\n      0x40\n        /* \"#utility.yul\":12878:12881   */\n      dup7\n        /* \"#utility.yul\":12874:12888   */\n      add\n        /* \"#utility.yul\":12860:12872   */\n      dup3\n        /* \"#utility.yul\":12826:12889   */\n      tag_284\n      jump\t// in\n    tag_470:\n        /* \"#utility.yul\":12735:12899   */\n      pop\n        /* \"#utility.yul\":12916:12920   */\n      dup1\n        /* \"#utility.yul\":12909:12920   */\n      swap2\n      pop\n        /* \"#utility.yul\":12266:12926   */\n      pop\n        /* \"#utility.yul\":12146:12926   */\n      swap3\n      swap2\n      pop\n      pop\n      jump\t// out\n        /* \"#utility.yul\":12932:13297   */\n    tag_73:\n        /* \"#utility.yul\":13071:13075   */\n      0x00\n        /* \"#utility.yul\":13109:13111   */\n      0x20\n        /* \"#utility.yul\":13098:13107   */\n      dup3\n        /* \"#utility.yul\":13094:13112   */\n      add\n        /* \"#utility.yul\":13086:13112   */\n      swap1\n      pop\n        /* \"#utility.yul\":13158:13167   */\n      dup2\n        /* \"#utility.yul\":13152:13156   */\n      dup2\n        /* \"#utility.yul\":13148:13168   */\n      sub\n        /* \"#utility.yul\":13144:13145   */\n      0x00\n        /* \"#utility.yul\":13133:13142   */\n      dup4\n        /* \"#utility.yul\":13129:13146   */\n      add\n        /* \"#utility.yul\":13122:13169   */\n      mstore\n        /* \"#utility.yul\":13186:13290   */\n      tag_472\n        /* \"#utility.yul\":13285:13289   */\n      dup2\n        /* \"#utility.yul\":13276:13282   */\n      dup5\n        /* \"#utility.yul\":13186:13290   */\n      tag_316\n      jump\t// in\n    tag_472:\n        /* \"#utility.yul\":13178:13290   */\n      swap1\n      pop\n        /* \"#utility.yul\":12932:13297   */\n      swap3\n      swap2\n      pop\n      pop\n      jump\t// out\n        /* \"#utility.yul\":13343:14619   */\n    tag_317:\n        /* \"#utility.yul\":13460:13463   */\n      0x00\n        /* \"#utility.yul\":13496:13500   */\n      0xa0\n        /* \"#utility.yul\":13491:13494   */\n      dup4\n        /* \"#utility.yul\":13487:13501   */\n      add\n        /* \"#utility.yul\":13581:13585   */\n      0x00\n        /* \"#utility.yul\":13574:13579   */\n      dup4\n        /* \"#utility.yul\":13570:13586   */\n      add\n        /* \"#utility.yul\":13564:13587   */\n      mload\n        /* \"#utility.yul\":13600:13663   */\n      tag_474\n        /* \"#utility.yul\":13657:13661   */\n      0x00\n        /* \"#utility.yul\":13652:13655   */\n      dup7\n        /* \"#utility.yul\":13648:13662   */\n      add\n        /* \"#utility.yul\":13634:13646   */\n      dup3\n        /* \"#utility.yul\":13600:13663   */\n      tag_284\n      jump\t// in\n    tag_474:\n        /* \"#utility.yul\":13511:13673   */\n      pop\n        /* \"#utility.yul\":13759:13763   */\n      0x20\n        /* \"#utility.yul\":13752:13757   */\n      dup4\n        /* \"#utility.yul\":13748:13764   */\n      add\n        /* \"#utility.yul\":13742:13765   */\n      mload\n        /* \"#utility.yul\":13812:13815   */\n      dup5\n        /* \"#utility.yul\":13806:13810   */\n      dup3\n        /* \"#utility.yul\":13802:13816   */\n      sub\n        /* \"#utility.yul\":13795:13799   */\n      0x20\n        /* \"#utility.yul\":13790:13793   */\n      dup7\n        /* \"#utility.yul\":13786:13800   */\n      add\n        /* \"#utility.yul\":13779:13817   */\n      mstore\n        /* \"#utility.yul\":13838:13911   */\n      tag_475\n        /* \"#utility.yul\":13906:13910   */\n      dup3\n        /* \"#utility.yul\":13892:13904   */\n      dup3\n        /* \"#utility.yul\":13838:13911   */\n      tag_289\n      jump\t// in\n    tag_475:\n        /* \"#utility.yul\":13830:13911   */\n      swap2\n      pop\n        /* \"#utility.yul\":13683:13922   */\n      pop\n        /* \"#utility.yul\":14006:14010   */\n      0x40\n        /* \"#utility.yul\":13999:14004   */\n      dup4\n        /* \"#utility.yul\":13995:14011   */\n      add\n        /* \"#utility.yul\":13989:14012   */\n      mload\n        /* \"#utility.yul\":14059:14062   */\n      dup5\n        /* \"#utility.yul\":14053:14057   */\n      dup3\n        /* \"#utility.yul\":14049:14063   */\n      sub\n        /* \"#utility.yul\":14042:14046   */\n      0x40\n        /* \"#utility.yul\":14037:14040   */\n      dup7\n        /* \"#utility.yul\":14033:14047   */\n      add\n        /* \"#utility.yul\":14026:14064   */\n      mstore\n        /* \"#utility.yul\":14085:14158   */\n      tag_476\n        /* \"#utility.yul\":14153:14157   */\n      dup3\n        /* \"#utility.yul\":14139:14151   */\n      dup3\n        /* \"#utility.yul\":14085:14158   */\n      tag_289\n      jump\t// in\n    tag_476:\n        /* \"#utility.yul\":14077:14158   */\n      swap2\n      pop\n        /* \"#utility.yul\":13932:14169   */\n      pop\n        /* \"#utility.yul\":14255:14259   */\n      0x60\n        /* \"#utility.yul\":14248:14253   */\n      dup4\n        /* \"#utility.yul\":14244:14260   */\n      add\n        /* \"#utility.yul\":14238:14261   */\n      mload\n        /* \"#utility.yul\":14308:14311   */\n      dup5\n        /* \"#utility.yul\":14302:14306   */\n      dup3\n        /* \"#utility.yul\":14298:14312   */\n      sub\n        /* \"#utility.yul\":14291:14295   */\n      0x60\n        /* \"#utility.yul\":14286:14289   */\n      dup7\n        /* \"#utility.yul\":14282:14296   */\n      add\n        /* \"#utility.yul\":14275:14313   */\n      mstore\n        /* \"#utility.yul\":14334:14407   */\n      tag_477\n        /* \"#utility.yul\":14402:14406   */\n      dup3\n        /* \"#utility.yul\":14388:14400   */\n      dup3\n        /* \"#utility.yul\":14334:14407   */\n      tag_289\n      jump\t// in\n    tag_477:\n        /* \"#utility.yul\":14326:14407   */\n      swap2\n      pop\n        /* \"#utility.yul\":14179:14418   */\n      pop\n        /* \"#utility.yul\":14500:14504   */\n      0x80\n        /* \"#utility.yul\":14493:14498   */\n      dup4\n        /* \"#utility.yul\":14489:14505   */\n      add\n        /* \"#utility.yul\":14483:14506   */\n      mload\n        /* \"#utility.yul\":14519:14582   */\n      tag_478\n        /* \"#utility.yul\":14576:14580   */\n      0x80\n        /* \"#utility.yul\":14571:14574   */\n      dup7\n        /* \"#utility.yul\":14567:14581   */\n      add\n        /* \"#utility.yul\":14553:14565   */\n      dup3\n        /* \"#utility.yul\":14519:14582   */\n      tag_284\n      jump\t// in\n    tag_478:\n        /* \"#utility.yul\":14428:14592   */\n      pop\n        /* \"#utility.yul\":14609:14613   */\n      dup1\n        /* \"#utility.yul\":14602:14613   */\n      swap2\n      pop\n        /* \"#utility.yul\":13465:14619   */\n      pop\n        /* \"#utility.yul\":13343:14619   */\n      swap3\n      swap2\n      pop\n      pop\n      jump\t// out\n        /* \"#utility.yul\":14625:14994   */\n    tag_82:\n        /* \"#utility.yul\":14766:14770   */\n      0x00\n        /* \"#utility.yul\":14804:14806   */\n      0x20\n        /* \"#utility.yul\":14793:14802   */\n      dup3\n        /* \"#utility.yul\":14789:14807   */\n      add\n        /* \"#utility.yul\":14781:14807   */\n      swap1\n      pop\n        /* \"#utility.yul\":14853:14862   */\n      dup2\n        /* \"#utility.yul\":14847:14851   */\n      dup2\n        /* \"#utility.yul\":14843:14863   */\n      sub\n        /* \"#utility.yul\":14839:14840   */\n      0x00\n        /* \"#utility.yul\":14828:14837   */\n      dup4\n        /* \"#utility.yul\":14824:14841   */\n      add\n        /* \"#utility.yul\":14817:14864   */\n      mstore\n        /* \"#utility.yul\":14881:14987   */\n      tag_480\n        /* \"#utility.yul\":14982:14986   */\n      dup2\n        /* \"#utility.yul\":14973:14979   */\n      dup5\n        /* \"#utility.yul\":14881:14987   */\n      tag_317\n      jump\t// in\n    tag_480:\n        /* \"#utility.yul\":14873:14987   */\n      swap1\n      pop\n        /* \"#utility.yul\":14625:14994   */\n      swap3\n      swap2\n      pop\n      pop\n      jump\t// out\n        /* \"#utility.yul\":15000:15117   */\n    tag_318:\n        /* \"#utility.yul\":15109:15110   */\n      0x00\n        /* \"#utility.yul\":15106:15107   */\n      dup1\n        /* \"#utility.yul\":15099:15111   */\n      revert\n        /* \"#utility.yul\":15123:15240   */\n    tag_319:\n        /* \"#utility.yul\":15232:15233   */\n      0x00\n        /* \"#utility.yul\":15229:15230   */\n      dup1\n        /* \"#utility.yul\":15222:15234   */\n      revert\n        /* \"#utility.yul\":15246:15368   */\n    tag_320:\n        /* \"#utility.yul\":15319:15343   */\n      tag_484\n        /* \"#utility.yul\":15337:15342   */\n      dup2\n        /* \"#utility.yul\":15319:15343   */\n      tag_291\n      jump\t// in\n    tag_484:\n        /* \"#utility.yul\":15312:15317   */\n      dup2\n        /* \"#utility.yul\":15309:15344   */\n      eq\n        /* \"#utility.yul\":15299:15362   */\n      tag_485\n      jumpi\n        /* \"#utility.yul\":15358:15359   */\n      0x00\n        /* \"#utility.yul\":15355:15356   */\n      dup1\n        /* \"#utility.yul\":15348:15360   */\n      revert\n        /* \"#utility.yul\":15299:15362   */\n    tag_485:\n        /* \"#utility.yul\":15246:15368   */\n      pop\n      jump\t// out\n        /* \"#utility.yul\":15374:15513   */\n    tag_321:\n        /* \"#utility.yul\":15420:15425   */\n      0x00\n        /* \"#utility.yul\":15458:15464   */\n      dup2\n        /* \"#utility.yul\":15445:15465   */\n      calldataload\n        /* \"#utility.yul\":15436:15465   */\n      swap1\n      pop\n        /* \"#utility.yul\":15474:15507   */\n      tag_487\n        /* \"#utility.yul\":15501:15506   */\n      dup2\n        /* \"#utility.yul\":15474:15507   */\n      tag_320\n      jump\t// in\n    tag_487:\n        /* \"#utility.yul\":15374:15513   */\n      swap3\n      swap2\n      pop\n      pop\n      jump\t// out\n        /* \"#utility.yul\":15541:16948   */\n    tag_322:\n        /* \"#utility.yul\":15614:15619   */\n      0x00\n        /* \"#utility.yul\":15658:15662   */\n      0xa0\n        /* \"#utility.yul\":15646:15655   */\n      dup3\n        /* \"#utility.yul\":15641:15644   */\n      dup5\n        /* \"#utility.yul\":15637:15656   */\n      sub\n        /* \"#utility.yul\":15633:15663   */\n      slt\n        /* \"#utility.yul\":15630:15747   */\n      iszero\n      tag_489\n      jumpi\n        /* \"#utility.yul\":15666:15745   */\n      tag_490\n      tag_318\n      jump\t// in\n    tag_490:\n        /* \"#utility.yul\":15630:15747   */\n    tag_489:\n        /* \"#utility.yul\":15765:15786   */\n      tag_491\n        /* \"#utility.yul\":15781:15785   */\n      0xa0\n        /* \"#utility.yul\":15765:15786   */\n      tag_297\n      jump\t// in\n    tag_491:\n        /* \"#utility.yul\":15756:15786   */\n      swap1\n      pop\n        /* \"#utility.yul\":15843:15844   */\n      0x00\n        /* \"#utility.yul\":15883:15932   */\n      tag_492\n        /* \"#utility.yul\":15928:15931   */\n      dup5\n        /* \"#utility.yul\":15919:15925   */\n      dup3\n        /* \"#utility.yul\":15908:15917   */\n      dup6\n        /* \"#utility.yul\":15904:15926   */\n      add\n        /* \"#utility.yul\":15883:15932   */\n      tag_283\n      jump\t// in\n    tag_492:\n        /* \"#utility.yul\":15876:15880   */\n      0x00\n        /* \"#utility.yul\":15869:15874   */\n      dup4\n        /* \"#utility.yul\":15865:15881   */\n      add\n        /* \"#utility.yul\":15858:15933   */\n      mstore\n        /* \"#utility.yul\":15796:15944   */\n      pop\n        /* \"#utility.yul\":16035:16037   */\n      0x20\n        /* \"#utility.yul\":16024:16033   */\n      dup3\n        /* \"#utility.yul\":16020:16038   */\n      add\n        /* \"#utility.yul\":16007:16039   */\n      calldataload\n        /* \"#utility.yul\":16066:16084   */\n      0xffffffffffffffff\n        /* \"#utility.yul\":16058:16064   */\n      dup2\n        /* \"#utility.yul\":16055:16085   */\n      gt\n        /* \"#utility.yul\":16052:16169   */\n      iszero\n      tag_493\n      jumpi\n        /* \"#utility.yul\":16088:16167   */\n      tag_494\n      tag_319\n      jump\t// in\n    tag_494:\n        /* \"#utility.yul\":16052:16169   */\n    tag_493:\n        /* \"#utility.yul\":16208:16267   */\n      tag_495\n        /* \"#utility.yul\":16263:16266   */\n      dup5\n        /* \"#utility.yul\":16254:16260   */\n      dup3\n        /* \"#utility.yul\":16243:16252   */\n      dup6\n        /* \"#utility.yul\":16239:16261   */\n      add\n        /* \"#utility.yul\":16208:16267   */\n      tag_307\n      jump\t// in\n    tag_495:\n        /* \"#utility.yul\":16201:16205   */\n      0x20\n        /* \"#utility.yul\":16194:16199   */\n      dup4\n        /* \"#utility.yul\":16190:16206   */\n      add\n        /* \"#utility.yul\":16183:16268   */\n      mstore\n        /* \"#utility.yul\":15954:16279   */\n      pop\n        /* \"#utility.yul\":16340:16342   */\n      0x40\n        /* \"#utility.yul\":16381:16430   */\n      tag_496\n        /* \"#utility.yul\":16426:16429   */\n      dup5\n        /* \"#utility.yul\":16417:16423   */\n      dup3\n        /* \"#utility.yul\":16406:16415   */\n      dup6\n        /* \"#utility.yul\":16402:16424   */\n      add\n        /* \"#utility.yul\":16381:16430   */\n      tag_321\n      jump\t// in\n    tag_496:\n        /* \"#utility.yul\":16374:16378   */\n      0x40\n        /* \"#utility.yul\":16367:16372   */\n      dup4\n        /* \"#utility.yul\":16363:16379   */\n      add\n        /* \"#utility.yul\":16356:16431   */\n      mstore\n        /* \"#utility.yul\":16289:16442   */\n      pop\n        /* \"#utility.yul\":16535:16537   */\n      0x60\n        /* \"#utility.yul\":16524:16533   */\n      dup3\n        /* \"#utility.yul\":16520:16538   */\n      add\n        /* \"#utility.yul\":16507:16539   */\n      calldataload\n        /* \"#utility.yul\":16566:16584   */\n      0xffffffffffffffff\n        /* \"#utility.yul\":16558:16564   */\n      dup2\n        /* \"#utility.yul\":16555:16585   */\n      gt\n        /* \"#utility.yul\":16552:16669   */\n      iszero\n      tag_497\n      jumpi\n        /* \"#utility.yul\":16588:16667   */\n      tag_498\n      tag_319\n      jump\t// in\n    tag_498:\n        /* \"#utility.yul\":16552:16669   */\n    tag_497:\n        /* \"#utility.yul\":16708:16767   */\n      tag_499\n        /* \"#utility.yul\":16763:16766   */\n      dup5\n        /* \"#utility.yul\":16754:16760   */\n      dup3\n        /* \"#utility.yul\":16743:16752   */\n      dup6\n        /* \"#utility.yul\":16739:16761   */\n      add\n        /* \"#utility.yul\":16708:16767   */\n      tag_307\n      jump\t// in\n    tag_499:\n        /* \"#utility.yul\":16701:16705   */\n      0x60\n        /* \"#utility.yul\":16694:16699   */\n      dup4\n        /* \"#utility.yul\":16690:16706   */\n      add\n        /* \"#utility.yul\":16683:16768   */\n      mstore\n        /* \"#utility.yul\":16452:16779   */\n      pop\n        /* \"#utility.yul\":16838:16841   */\n      0x80\n        /* \"#utility.yul\":16880:16929   */\n      tag_500\n        /* \"#utility.yul\":16925:16928   */\n      dup5\n        /* \"#utility.yul\":16916:16922   */\n      dup3\n        /* \"#utility.yul\":16905:16914   */\n      dup6\n        /* \"#utility.yul\":16901:16923   */\n      add\n        /* \"#utility.yul\":16880:16929   */\n      tag_283\n      jump\t// in\n    tag_500:\n        /* \"#utility.yul\":16873:16877   */\n      0x80\n        /* \"#utility.yul\":16866:16871   */\n      dup4\n        /* \"#utility.yul\":16862:16878   */\n      add\n        /* \"#utility.yul\":16855:16930   */\n      mstore\n        /* \"#utility.yul\":16789:16941   */\n      pop\n        /* \"#utility.yul\":15541:16948   */\n      swap3\n      swap2\n      pop\n      pop\n      jump\t// out\n        /* \"#utility.yul\":16954:17491   */\n    tag_85:\n        /* \"#utility.yul\":17037:17043   */\n      0x00\n        /* \"#utility.yul\":17086:17088   */\n      0x20\n        /* \"#utility.yul\":17074:17083   */\n      dup3\n        /* \"#utility.yul\":17065:17072   */\n      dup5\n        /* \"#utility.yul\":17061:17084   */\n      sub\n        /* \"#utility.yul\":17057:17089   */\n      slt\n        /* \"#utility.yul\":17054:17173   */\n      iszero\n      tag_502\n      jumpi\n        /* \"#utility.yul\":17092:17171   */\n      tag_503\n      tag_279\n      jump\t// in\n    tag_503:\n        /* \"#utility.yul\":17054:17173   */\n    tag_502:\n        /* \"#utility.yul\":17240:17241   */\n      0x00\n        /* \"#utility.yul\":17229:17238   */\n      dup3\n        /* \"#utility.yul\":17225:17242   */\n      add\n        /* \"#utility.yul\":17212:17243   */\n      calldataload\n        /* \"#utility.yul\":17270:17288   */\n      0xffffffffffffffff\n        /* \"#utility.yul\":17262:17268   */\n      dup2\n        /* \"#utility.yul\":17259:17289   */\n      gt\n        /* \"#utility.yul\":17256:17373   */\n      iszero\n      tag_504\n      jumpi\n        /* \"#utility.yul\":17292:17371   */\n      tag_505\n      tag_280\n      jump\t// in\n    tag_505:\n        /* \"#utility.yul\":17256:17373   */\n    tag_504:\n        /* \"#utility.yul\":17397:17474   */\n      tag_506\n        /* \"#utility.yul\":17466:17473   */\n      dup5\n        /* \"#utility.yul\":17457:17463   */\n      dup3\n        /* \"#utility.yul\":17446:17455   */\n      dup6\n        /* \"#utility.yul\":17442:17464   */\n      add\n        /* \"#utility.yul\":17397:17474   */\n      tag_322\n      jump\t// in\n    tag_506:\n        /* \"#utility.yul\":17387:17474   */\n      swap2\n      pop\n        /* \"#utility.yul\":17183:17484   */\n      pop\n        /* \"#utility.yul\":16954:17491   */\n      swap3\n      swap2\n      pop\n      pop\n      jump\t// out\n        /* \"#utility.yul\":17519:19094   */\n    tag_323:\n        /* \"#utility.yul\":17592:17597   */\n      0x00\n        /* \"#utility.yul\":17636:17640   */\n      0xa0\n        /* \"#utility.yul\":17624:17633   */\n      dup3\n        /* \"#utility.yul\":17619:17622   */\n      dup5\n        /* \"#utility.yul\":17615:17634   */\n      sub\n        /* \"#utility.yul\":17611:17641   */\n      slt\n        /* \"#utility.yul\":17608:17725   */\n      iszero\n      tag_508\n      jumpi\n        /* \"#utility.yul\":17644:17723   */\n      tag_509\n      tag_318\n      jump\t// in\n    tag_509:\n        /* \"#utility.yul\":17608:17725   */\n    tag_508:\n        /* \"#utility.yul\":17743:17764   */\n      tag_510\n        /* \"#utility.yul\":17759:17763   */\n      0xa0\n        /* \"#utility.yul\":17743:17764   */\n      tag_297\n      jump\t// in\n    tag_510:\n        /* \"#utility.yul\":17734:17764   */\n      swap1\n      pop\n        /* \"#utility.yul\":17821:17822   */\n      0x00\n        /* \"#utility.yul\":17861:17910   */\n      tag_511\n        /* \"#utility.yul\":17906:17909   */\n      dup5\n        /* \"#utility.yul\":17897:17903   */\n      dup3\n        /* \"#utility.yul\":17886:17895   */\n      dup6\n        /* \"#utility.yul\":17882:17904   */\n      add\n        /* \"#utility.yul\":17861:17910   */\n      tag_283\n      jump\t// in\n    tag_511:\n        /* \"#utility.yul\":17854:17858   */\n      0x00\n        /* \"#utility.yul\":17847:17852   */\n      dup4\n        /* \"#utility.yul\":17843:17859   */\n      add\n        /* \"#utility.yul\":17836:17911   */\n      mstore\n        /* \"#utility.yul\":17774:17922   */\n      pop\n        /* \"#utility.yul\":18013:18015   */\n      0x20\n        /* \"#utility.yul\":18002:18011   */\n      dup3\n        /* \"#utility.yul\":17998:18016   */\n      add\n        /* \"#utility.yul\":17985:18017   */\n      calldataload\n        /* \"#utility.yul\":18044:18062   */\n      0xffffffffffffffff\n        /* \"#utility.yul\":18036:18042   */\n      dup2\n        /* \"#utility.yul\":18033:18063   */\n      gt\n        /* \"#utility.yul\":18030:18147   */\n      iszero\n      tag_512\n      jumpi\n        /* \"#utility.yul\":18066:18145   */\n      tag_513\n      tag_319\n      jump\t// in\n    tag_513:\n        /* \"#utility.yul\":18030:18147   */\n    tag_512:\n        /* \"#utility.yul\":18186:18245   */\n      tag_514\n        /* \"#utility.yul\":18241:18244   */\n      dup5\n        /* \"#utility.yul\":18232:18238   */\n      dup3\n        /* \"#utility.yul\":18221:18230   */\n      dup6\n        /* \"#utility.yul\":18217:18239   */\n      add\n        /* \"#utility.yul\":18186:18245   */\n      tag_307\n      jump\t// in\n    tag_514:\n        /* \"#utility.yul\":18179:18183   */\n      0x20\n        /* \"#utility.yul\":18172:18177   */\n      dup4\n        /* \"#utility.yul\":18168:18184   */\n      add\n        /* \"#utility.yul\":18161:18246   */\n      mstore\n        /* \"#utility.yul\":17932:18257   */\n      pop\n        /* \"#utility.yul\":18346:18348   */\n      0x40\n        /* \"#utility.yul\":18335:18344   */\n      dup3\n        /* \"#utility.yul\":18331:18349   */\n      add\n        /* \"#utility.yul\":18318:18350   */\n      calldataload\n        /* \"#utility.yul\":18377:18395   */\n      0xffffffffffffffff\n        /* \"#utility.yul\":18369:18375   */\n      dup2\n        /* \"#utility.yul\":18366:18396   */\n      gt\n        /* \"#utility.yul\":18363:18480   */\n      iszero\n      tag_515\n      jumpi\n        /* \"#utility.yul\":18399:18478   */\n      tag_516\n      tag_319\n      jump\t// in\n    tag_516:\n        /* \"#utility.yul\":18363:18480   */\n    tag_515:\n        /* \"#utility.yul\":18519:18578   */\n      tag_517\n        /* \"#utility.yul\":18574:18577   */\n      dup5\n        /* \"#utility.yul\":18565:18571   */\n      dup3\n        /* \"#utility.yul\":18554:18563   */\n      dup6\n        /* \"#utility.yul\":18550:18572   */\n      add\n        /* \"#utility.yul\":18519:18578   */\n      tag_307\n      jump\t// in\n    tag_517:\n        /* \"#utility.yul\":18512:18516   */\n      0x40\n        /* \"#utility.yul\":18505:18510   */\n      dup4\n        /* \"#utility.yul\":18501:18517   */\n      add\n        /* \"#utility.yul\":18494:18579   */\n      mstore\n        /* \"#utility.yul\":18267:18590   */\n      pop\n        /* \"#utility.yul\":18681:18683   */\n      0x60\n        /* \"#utility.yul\":18670:18679   */\n      dup3\n        /* \"#utility.yul\":18666:18684   */\n      add\n        /* \"#utility.yul\":18653:18685   */\n      calldataload\n        /* \"#utility.yul\":18712:18730   */\n      0xffffffffffffffff\n        /* \"#utility.yul\":18704:18710   */\n      dup2\n        /* \"#utility.yul\":18701:18731   */\n      gt\n        /* \"#utility.yul\":18698:18815   */\n      iszero\n      tag_518\n      jumpi\n        /* \"#utility.yul\":18734:18813   */\n      tag_519\n      tag_319\n      jump\t// in\n    tag_519:\n        /* \"#utility.yul\":18698:18815   */\n    tag_518:\n        /* \"#utility.yul\":18854:18913   */\n      tag_520\n        /* \"#utility.yul\":18909:18912   */\n      dup5\n        /* \"#utility.yul\":18900:18906   */\n      dup3\n        /* \"#utility.yul\":18889:18898   */\n      dup6\n        /* \"#utility.yul\":18885:18907   */\n      add\n        /* \"#utility.yul\":18854:18913   */\n      tag_307\n      jump\t// in\n    tag_520:\n        /* \"#utility.yul\":18847:18851   */\n      0x60\n        /* \"#utility.yul\":18840:18845   */\n      dup4\n        /* \"#utility.yul\":18836:18852   */\n      add\n        /* \"#utility.yul\":18829:18914   */\n      mstore\n        /* \"#utility.yul\":18600:18925   */\n      pop\n        /* \"#utility.yul\":18984:18987   */\n      0x80\n        /* \"#utility.yul\":19026:19075   */\n      tag_521\n        /* \"#utility.yul\":19071:19074   */\n      dup5\n        /* \"#utility.yul\":19062:19068   */\n      dup3\n        /* \"#utility.yul\":19051:19060   */\n      dup6\n        /* \"#utility.yul\":19047:19069   */\n      add\n        /* \"#utility.yul\":19026:19075   */\n      tag_283\n      jump\t// in\n    tag_521:\n        /* \"#utility.yul\":19019:19023   */\n      0x80\n        /* \"#utility.yul\":19012:19017   */\n      dup4\n        /* \"#utility.yul\":19008:19024   */\n      add\n        /* \"#utility.yul\":19001:19076   */\n      mstore\n        /* \"#utility.yul\":18935:19087   */\n      pop\n        /* \"#utility.yul\":17519:19094   */\n      swap3\n      swap2\n      pop\n      pop\n      jump\t// out\n        /* \"#utility.yul\":19100:19637   */\n    tag_105:\n        /* \"#utility.yul\":19183:19189   */\n      0x00\n        /* \"#utility.yul\":19232:19234   */\n      0x20\n        /* \"#utility.yul\":19220:19229   */\n      dup3\n        /* \"#utility.yul\":19211:19218   */\n      dup5\n        /* \"#utility.yul\":19207:19230   */\n      sub\n        /* \"#utility.yul\":19203:19235   */\n      slt\n        /* \"#utility.yul\":19200:19319   */\n      iszero\n      tag_523\n      jumpi\n        /* \"#utility.yul\":19238:19317   */\n      tag_524\n      tag_279\n      jump\t// in\n    tag_524:\n        /* \"#utility.yul\":19200:19319   */\n    tag_523:\n        /* \"#utility.yul\":19386:19387   */\n      0x00\n        /* \"#utility.yul\":19375:19384   */\n      dup3\n        /* \"#utility.yul\":19371:19388   */\n      add\n        /* \"#utility.yul\":19358:19389   */\n      calldataload\n        /* \"#utility.yul\":19416:19434   */\n      0xffffffffffffffff\n        /* \"#utility.yul\":19408:19414   */\n      dup2\n        /* \"#utility.yul\":19405:19435   */\n      gt\n        /* \"#utility.yul\":19402:19519   */\n      iszero\n      tag_525\n      jumpi\n        /* \"#utility.yul\":19438:19517   */\n      tag_526\n      tag_280\n      jump\t// in\n    tag_526:\n        /* \"#utility.yul\":19402:19519   */\n    tag_525:\n        /* \"#utility.yul\":19543:19620   */\n      tag_527\n        /* \"#utility.yul\":19612:19619   */\n      dup5\n        /* \"#utility.yul\":19603:19609   */\n      dup3\n        /* \"#utility.yul\":19592:19601   */\n      dup6\n        /* \"#utility.yul\":19588:19610   */\n      add\n        /* \"#utility.yul\":19543:19620   */\n      tag_323\n      jump\t// in\n    tag_527:\n        /* \"#utility.yul\":19533:19620   */\n      swap2\n      pop\n        /* \"#utility.yul\":19329:19630   */\n      pop\n        /* \"#utility.yul\":19100:19637   */\n      swap3\n      swap2\n      pop\n      pop\n      jump\t// out\n        /* \"#utility.yul\":19643:19817   */\n    tag_324:\n        /* \"#utility.yul\":19732:19743   */\n      0x00\n        /* \"#utility.yul\":19766:19772   */\n      dup3\n        /* \"#utility.yul\":19761:19764   */\n      dup3\n        /* \"#utility.yul\":19754:19773   */\n      mstore\n        /* \"#utility.yul\":19806:19810   */\n      0x20\n        /* \"#utility.yul\":19801:19804   */\n      dup3\n        /* \"#utility.yul\":19797:19811   */\n      add\n        /* \"#utility.yul\":19782:19811   */\n      swap1\n      pop\n        /* \"#utility.yul\":19643:19817   */\n      swap3\n      swap2\n      pop\n      pop\n      jump\t// out\n        /* \"#utility.yul\":19853:20565   */\n    tag_325:\n        /* \"#utility.yul\":19962:19965   */\n      0x00\n        /* \"#utility.yul\":19991:20045   */\n      tag_530\n        /* \"#utility.yul\":20039:20044   */\n      dup3\n        /* \"#utility.yul\":19991:20045   */\n      tag_310\n      jump\t// in\n    tag_530:\n        /* \"#utility.yul\":20061:20137   */\n      tag_531\n        /* \"#utility.yul\":20130:20136   */\n      dup2\n        /* \"#utility.yul\":20125:20128   */\n      dup6\n        /* \"#utility.yul\":20061:20137   */\n      tag_324\n      jump\t// in\n    tag_531:\n        /* \"#utility.yul\":20054:20137   */\n      swap4\n      pop\n        /* \"#utility.yul\":20161:20217   */\n      tag_532\n        /* \"#utility.yul\":20211:20216   */\n      dup4\n        /* \"#utility.yul\":20161:20217   */\n      tag_312\n      jump\t// in\n    tag_532:\n        /* \"#utility.yul\":20240:20247   */\n      dup1\n        /* \"#utility.yul\":20271:20272   */\n      0x00\n        /* \"#utility.yul\":20256:20540   */\n    tag_533:\n        /* \"#utility.yul\":20281:20287   */\n      dup4\n        /* \"#utility.yul\":20278:20279   */\n      dup2\n        /* \"#utility.yul\":20275:20288   */\n      lt\n        /* \"#utility.yul\":20256:20540   */\n      iszero\n      tag_535\n      jumpi\n        /* \"#utility.yul\":20357:20363   */\n      dup2\n        /* \"#utility.yul\":20351:20364   */\n      mload\n        /* \"#utility.yul\":20384:20447   */\n      tag_536\n        /* \"#utility.yul\":20443:20446   */\n      dup9\n        /* \"#utility.yul\":20428:20441   */\n      dup3\n        /* \"#utility.yul\":20384:20447   */\n      tag_313\n      jump\t// in\n    tag_536:\n        /* \"#utility.yul\":20377:20447   */\n      swap8\n      pop\n        /* \"#utility.yul\":20470:20530   */\n      tag_537\n        /* \"#utility.yul\":20523:20529   */\n      dup4\n        /* \"#utility.yul\":20470:20530   */\n      tag_314\n      jump\t// in\n    tag_537:\n        /* \"#utility.yul\":20460:20530   */\n      swap3\n      pop\n        /* \"#utility.yul\":20316:20540   */\n      pop\n        /* \"#utility.yul\":20303:20304   */\n      0x01\n        /* \"#utility.yul\":20300:20301   */\n      dup2\n        /* \"#utility.yul\":20296:20305   */\n      add\n        /* \"#utility.yul\":20291:20305   */\n      swap1\n      pop\n        /* \"#utility.yul\":20256:20540   */\n      jump(tag_533)\n    tag_535:\n        /* \"#utility.yul\":20260:20274   */\n      pop\n        /* \"#utility.yul\":20556:20559   */\n      dup6\n        /* \"#utility.yul\":20549:20559   */\n      swap4\n      pop\n        /* \"#utility.yul\":19967:20565   */\n      pop\n      pop\n      pop\n        /* \"#utility.yul\":19853:20565   */\n      swap3\n      swap2\n      pop\n      pop\n      jump\t// out\n        /* \"#utility.yul\":20607:21591   */\n    tag_326:\n        /* \"#utility.yul\":20720:20723   */\n      0x00\n        /* \"#utility.yul\":20756:20760   */\n      0x80\n        /* \"#utility.yul\":20751:20754   */\n      dup4\n        /* \"#utility.yul\":20747:20761   */\n      add\n        /* \"#utility.yul\":20841:20845   */\n      0x00\n        /* \"#utility.yul\":20834:20839   */\n      dup4\n        /* \"#utility.yul\":20830:20846   */\n      add\n        /* \"#utility.yul\":20824:20847   */\n      mload\n        /* \"#utility.yul\":20860:20923   */\n      tag_539\n        /* \"#utility.yul\":20917:20921   */\n      0x00\n        /* \"#utility.yul\":20912:20915   */\n      dup7\n        /* \"#utility.yul\":20908:20922   */\n      add\n        /* \"#utility.yul\":20894:20906   */\n      dup3\n        /* \"#utility.yul\":20860:20923   */\n      tag_284\n      jump\t// in\n    tag_539:\n        /* \"#utility.yul\":20771:20933   */\n      pop\n        /* \"#utility.yul\":21020:21024   */\n      0x20\n        /* \"#utility.yul\":21013:21018   */\n      dup4\n        /* \"#utility.yul\":21009:21025   */\n      add\n        /* \"#utility.yul\":21003:21026   */\n      mload\n        /* \"#utility.yul\":21039:21102   */\n      tag_540\n        /* \"#utility.yul\":21096:21100   */\n      0x20\n        /* \"#utility.yul\":21091:21094   */\n      dup7\n        /* \"#utility.yul\":21087:21101   */\n      add\n        /* \"#utility.yul\":21073:21085   */\n      dup3\n        /* \"#utility.yul\":21039:21102   */\n      tag_284\n      jump\t// in\n    tag_540:\n        /* \"#utility.yul\":20943:21112   */\n      pop\n        /* \"#utility.yul\":21197:21201   */\n      0x40\n        /* \"#utility.yul\":21190:21195   */\n      dup4\n        /* \"#utility.yul\":21186:21202   */\n      add\n        /* \"#utility.yul\":21180:21203   */\n      mload\n        /* \"#utility.yul\":21250:21253   */\n      dup5\n        /* \"#utility.yul\":21244:21248   */\n      dup3\n        /* \"#utility.yul\":21240:21254   */\n      sub\n        /* \"#utility.yul\":21233:21237   */\n      0x40\n        /* \"#utility.yul\":21228:21231   */\n      dup7\n        /* \"#utility.yul\":21224:21238   */\n      add\n        /* \"#utility.yul\":21217:21255   */\n      mstore\n        /* \"#utility.yul\":21276:21379   */\n      tag_541\n        /* \"#utility.yul\":21374:21378   */\n      dup3\n        /* \"#utility.yul\":21360:21372   */\n      dup3\n        /* \"#utility.yul\":21276:21379   */\n      tag_325\n      jump\t// in\n    tag_541:\n        /* \"#utility.yul\":21268:21379   */\n      swap2\n      pop\n        /* \"#utility.yul\":21122:21390   */\n      pop\n        /* \"#utility.yul\":21472:21476   */\n      0x60\n        /* \"#utility.yul\":21465:21470   */\n      dup4\n        /* \"#utility.yul\":21461:21477   */\n      add\n        /* \"#utility.yul\":21455:21478   */\n      mload\n        /* \"#utility.yul\":21491:21554   */\n      tag_542\n        /* \"#utility.yul\":21548:21552   */\n      0x60\n        /* \"#utility.yul\":21543:21546   */\n      dup7\n        /* \"#utility.yul\":21539:21553   */\n      add\n        /* \"#utility.yul\":21525:21537   */\n      dup3\n        /* \"#utility.yul\":21491:21554   */\n      tag_284\n      jump\t// in\n    tag_542:\n        /* \"#utility.yul\":21400:21564   */\n      pop\n        /* \"#utility.yul\":21581:21585   */\n      dup1\n        /* \"#utility.yul\":21574:21585   */\n      swap2\n      pop\n        /* \"#utility.yul\":20725:21591   */\n      pop\n        /* \"#utility.yul\":20607:21591   */\n      swap3\n      swap2\n      pop\n      pop\n      jump\t// out\n        /* \"#utility.yul\":21597:21958   */\n    tag_115:\n        /* \"#utility.yul\":21734:21738   */\n      0x00\n        /* \"#utility.yul\":21772:21774   */\n      0x20\n        /* \"#utility.yul\":21761:21770   */\n      dup3\n        /* \"#utility.yul\":21757:21775   */\n      add\n        /* \"#utility.yul\":21749:21775   */\n      swap1\n      pop\n        /* \"#utility.yul\":21821:21830   */\n      dup2\n        /* \"#utility.yul\":21815:21819   */\n      dup2\n        /* \"#utility.yul\":21811:21831   */\n      sub\n        /* \"#utility.yul\":21807:21808   */\n      0x00\n        /* \"#utility.yul\":21796:21805   */\n      dup4\n        /* \"#utility.yul\":21792:21809   */\n      add\n        /* \"#utility.yul\":21785:21832   */\n      mstore\n        /* \"#utility.yul\":21849:21951   */\n      tag_544\n        /* \"#utility.yul\":21946:21950   */\n      dup2\n        /* \"#utility.yul\":21937:21943   */\n      dup5\n        /* \"#utility.yul\":21849:21951   */\n      tag_326\n      jump\t// in\n    tag_544:\n        /* \"#utility.yul\":21841:21951   */\n      swap1\n      pop\n        /* \"#utility.yul\":21597:21958   */\n      swap3\n      swap2\n      pop\n      pop\n      jump\t// out\n        /* \"#utility.yul\":21964:22107   */\n    tag_327:\n        /* \"#utility.yul\":22021:22026   */\n      0x00\n        /* \"#utility.yul\":22052:22058   */\n      dup2\n        /* \"#utility.yul\":22046:22059   */\n      mload\n        /* \"#utility.yul\":22037:22059   */\n      swap1\n      pop\n        /* \"#utility.yul\":22068:22101   */\n      tag_546\n        /* \"#utility.yul\":22095:22100   */\n      dup2\n        /* \"#utility.yul\":22068:22101   */\n      tag_282\n      jump\t// in\n    tag_546:\n        /* \"#utility.yul\":21964:22107   */\n      swap3\n      swap2\n      pop\n      pop\n      jump\t// out\n        /* \"#utility.yul\":22113:22547   */\n    tag_328:\n        /* \"#utility.yul\":22202:22207   */\n      0x00\n        /* \"#utility.yul\":22227:22293   */\n      tag_548\n        /* \"#utility.yul\":22243:22292   */\n      tag_549\n        /* \"#utility.yul\":22285:22291   */\n      dup5\n        /* \"#utility.yul\":22243:22292   */\n      tag_304\n      jump\t// in\n    tag_549:\n        /* \"#utility.yul\":22227:22293   */\n      tag_297\n      jump\t// in\n    tag_548:\n        /* \"#utility.yul\":22218:22293   */\n      swap1\n      pop\n        /* \"#utility.yul\":22316:22322   */\n      dup3\n        /* \"#utility.yul\":22309:22314   */\n      dup2\n        /* \"#utility.yul\":22302:22323   */\n      mstore\n        /* \"#utility.yul\":22354:22358   */\n      0x20\n        /* \"#utility.yul\":22347:22352   */\n      dup2\n        /* \"#utility.yul\":22343:22359   */\n      add\n        /* \"#utility.yul\":22392:22395   */\n      dup5\n        /* \"#utility.yul\":22383:22389   */\n      dup5\n        /* \"#utility.yul\":22378:22381   */\n      dup5\n        /* \"#utility.yul\":22374:22390   */\n      add\n        /* \"#utility.yul\":22371:22396   */\n      gt\n        /* \"#utility.yul\":22368:22480   */\n      iszero\n      tag_550\n      jumpi\n        /* \"#utility.yul\":22399:22478   */\n      tag_551\n      tag_303\n      jump\t// in\n    tag_551:\n        /* \"#utility.yul\":22368:22480   */\n    tag_550:\n        /* \"#utility.yul\":22489:22541   */\n      tag_552\n        /* \"#utility.yul\":22534:22540   */\n      dup5\n        /* \"#utility.yul\":22529:22532   */\n      dup3\n        /* \"#utility.yul\":22524:22527   */\n      dup6\n        /* \"#utility.yul\":22489:22541   */\n      tag_287\n      jump\t// in\n    tag_552:\n        /* \"#utility.yul\":22208:22547   */\n      pop\n        /* \"#utility.yul\":22113:22547   */\n      swap4\n      swap3\n      pop\n      pop\n      pop\n      jump\t// out\n        /* \"#utility.yul\":22567:22922   */\n    tag_329:\n        /* \"#utility.yul\":22634:22639   */\n      0x00\n        /* \"#utility.yul\":22683:22686   */\n      dup3\n        /* \"#utility.yul\":22676:22680   */\n      0x1f\n        /* \"#utility.yul\":22668:22674   */\n      dup4\n        /* \"#utility.yul\":22664:22681   */\n      add\n        /* \"#utility.yul\":22660:22687   */\n      slt\n        /* \"#utility.yul\":22650:22772   */\n      tag_554\n      jumpi\n        /* \"#utility.yul\":22691:22770   */\n      tag_555\n      tag_294\n      jump\t// in\n    tag_555:\n        /* \"#utility.yul\":22650:22772   */\n    tag_554:\n        /* \"#utility.yul\":22801:22807   */\n      dup2\n        /* \"#utility.yul\":22795:22808   */\n      mload\n        /* \"#utility.yul\":22826:22916   */\n      tag_556\n        /* \"#utility.yul\":22912:22915   */\n      dup5\n        /* \"#utility.yul\":22904:22910   */\n      dup3\n        /* \"#utility.yul\":22897:22901   */\n      0x20\n        /* \"#utility.yul\":22889:22895   */\n      dup7\n        /* \"#utility.yul\":22885:22902   */\n      add\n        /* \"#utility.yul\":22826:22916   */\n      tag_328\n      jump\t// in\n    tag_556:\n        /* \"#utility.yul\":22817:22916   */\n      swap2\n      pop\n        /* \"#utility.yul\":22640:22922   */\n      pop\n        /* \"#utility.yul\":22567:22922   */\n      swap3\n      swap2\n      pop\n      pop\n      jump\t// out\n        /* \"#utility.yul\":22928:23071   */\n    tag_330:\n        /* \"#utility.yul\":22985:22990   */\n      0x00\n        /* \"#utility.yul\":23016:23022   */\n      dup2\n        /* \"#utility.yul\":23010:23023   */\n      mload\n        /* \"#utility.yul\":23001:23023   */\n      swap1\n      pop\n        /* \"#utility.yul\":23032:23065   */\n      tag_558\n        /* \"#utility.yul\":23059:23064   */\n      dup2\n        /* \"#utility.yul\":23032:23065   */\n      tag_320\n      jump\t// in\n    tag_558:\n        /* \"#utility.yul\":22928:23071   */\n      swap3\n      swap2\n      pop\n      pop\n      jump\t// out\n        /* \"#utility.yul\":23099:24558   */\n    tag_331:\n        /* \"#utility.yul\":23183:23188   */\n      0x00\n        /* \"#utility.yul\":23227:23231   */\n      0xa0\n        /* \"#utility.yul\":23215:23224   */\n      dup3\n        /* \"#utility.yul\":23210:23213   */\n      dup5\n        /* \"#utility.yul\":23206:23225   */\n      sub\n        /* \"#utility.yul\":23202:23232   */\n      slt\n        /* \"#utility.yul\":23199:23316   */\n      iszero\n      tag_560\n      jumpi\n        /* \"#utility.yul\":23235:23314   */\n      tag_561\n      tag_318\n      jump\t// in\n    tag_561:\n        /* \"#utility.yul\":23199:23316   */\n    tag_560:\n        /* \"#utility.yul\":23334:23355   */\n      tag_562\n        /* \"#utility.yul\":23350:23354   */\n      0xa0\n        /* \"#utility.yul\":23334:23355   */\n      tag_297\n      jump\t// in\n    tag_562:\n        /* \"#utility.yul\":23325:23355   */\n      swap1\n      pop\n        /* \"#utility.yul\":23412:23413   */\n      0x00\n        /* \"#utility.yul\":23452:23512   */\n      tag_563\n        /* \"#utility.yul\":23508:23511   */\n      dup5\n        /* \"#utility.yul\":23499:23505   */\n      dup3\n        /* \"#utility.yul\":23488:23497   */\n      dup6\n        /* \"#utility.yul\":23484:23506   */\n      add\n        /* \"#utility.yul\":23452:23512   */\n      tag_327\n      jump\t// in\n    tag_563:\n        /* \"#utility.yul\":23445:23449   */\n      0x00\n        /* \"#utility.yul\":23438:23443   */\n      dup4\n        /* \"#utility.yul\":23434:23450   */\n      add\n        /* \"#utility.yul\":23427:23513   */\n      mstore\n        /* \"#utility.yul\":23365:23524   */\n      pop\n        /* \"#utility.yul\":23608:23610   */\n      0x20\n        /* \"#utility.yul\":23597:23606   */\n      dup3\n        /* \"#utility.yul\":23593:23611   */\n      add\n        /* \"#utility.yul\":23587:23612   */\n      mload\n        /* \"#utility.yul\":23639:23657   */\n      0xffffffffffffffff\n        /* \"#utility.yul\":23631:23637   */\n      dup2\n        /* \"#utility.yul\":23628:23658   */\n      gt\n        /* \"#utility.yul\":23625:23742   */\n      iszero\n      tag_564\n      jumpi\n        /* \"#utility.yul\":23661:23740   */\n      tag_565\n      tag_319\n      jump\t// in\n    tag_565:\n        /* \"#utility.yul\":23625:23742   */\n    tag_564:\n        /* \"#utility.yul\":23781:23851   */\n      tag_566\n        /* \"#utility.yul\":23847:23850   */\n      dup5\n        /* \"#utility.yul\":23838:23844   */\n      dup3\n        /* \"#utility.yul\":23827:23836   */\n      dup6\n        /* \"#utility.yul\":23823:23845   */\n      add\n        /* \"#utility.yul\":23781:23851   */\n      tag_329\n      jump\t// in\n    tag_566:\n        /* \"#utility.yul\":23774:23778   */\n      0x20\n        /* \"#utility.yul\":23767:23772   */\n      dup4\n        /* \"#utility.yul\":23763:23779   */\n      add\n        /* \"#utility.yul\":23756:23852   */\n      mstore\n        /* \"#utility.yul\":23534:23863   */\n      pop\n        /* \"#utility.yul\":23924:23926   */\n      0x40\n        /* \"#utility.yul\":23965:24025   */\n      tag_567\n        /* \"#utility.yul\":24021:24024   */\n      dup5\n        /* \"#utility.yul\":24012:24018   */\n      dup3\n        /* \"#utility.yul\":24001:24010   */\n      dup6\n        /* \"#utility.yul\":23997:24019   */\n      add\n        /* \"#utility.yul\":23965:24025   */\n      tag_330\n      jump\t// in\n    tag_567:\n        /* \"#utility.yul\":23958:23962   */\n      0x40\n        /* \"#utility.yul\":23951:23956   */\n      dup4\n        /* \"#utility.yul\":23947:23963   */\n      add\n        /* \"#utility.yul\":23940:24026   */\n      mstore\n        /* \"#utility.yul\":23873:24037   */\n      pop\n        /* \"#utility.yul\":24123:24125   */\n      0x60\n        /* \"#utility.yul\":24112:24121   */\n      dup3\n        /* \"#utility.yul\":24108:24126   */\n      add\n        /* \"#utility.yul\":24102:24127   */\n      mload\n        /* \"#utility.yul\":24154:24172   */\n      0xffffffffffffffff\n        /* \"#utility.yul\":24146:24152   */\n      dup2\n        /* \"#utility.yul\":24143:24173   */\n      gt\n        /* \"#utility.yul\":24140:24257   */\n      iszero\n      tag_568\n      jumpi\n        /* \"#utility.yul\":24176:24255   */\n      tag_569\n      tag_319\n      jump\t// in\n    tag_569:\n        /* \"#utility.yul\":24140:24257   */\n    tag_568:\n        /* \"#utility.yul\":24296:24366   */\n      tag_570\n        /* \"#utility.yul\":24362:24365   */\n      dup5\n        /* \"#utility.yul\":24353:24359   */\n      dup3\n        /* \"#utility.yul\":24342:24351   */\n      dup6\n        /* \"#utility.yul\":24338:24360   */\n      add\n        /* \"#utility.yul\":24296:24366   */\n      tag_329\n      jump\t// in\n    tag_570:\n        /* \"#utility.yul\":24289:24293   */\n      0x60\n        /* \"#utility.yul\":24282:24287   */\n      dup4\n        /* \"#utility.yul\":24278:24294   */\n      add\n        /* \"#utility.yul\":24271:24367   */\n      mstore\n        /* \"#utility.yul\":24047:24378   */\n      pop\n        /* \"#utility.yul\":24437:24440   */\n      0x80\n        /* \"#utility.yul\":24479:24539   */\n      tag_571\n        /* \"#utility.yul\":24535:24538   */\n      dup5\n        /* \"#utility.yul\":24526:24532   */\n      dup3\n        /* \"#utility.yul\":24515:24524   */\n      dup6\n        /* \"#utility.yul\":24511:24533   */\n      add\n        /* \"#utility.yul\":24479:24539   */\n      tag_327\n      jump\t// in\n    tag_571:\n        /* \"#utility.yul\":24472:24476   */\n      0x80\n        /* \"#utility.yul\":24465:24470   */\n      dup4\n        /* \"#utility.yul\":24461:24477   */\n      add\n        /* \"#utility.yul\":24454:24540   */\n      mstore\n        /* \"#utility.yul\":24388:24551   */\n      pop\n        /* \"#utility.yul\":23099:24558   */\n      swap3\n      swap2\n      pop\n      pop\n      jump\t// out\n        /* \"#utility.yul\":24564:25116   */\n    tag_130:\n        /* \"#utility.yul\":24658:24664   */\n      0x00\n        /* \"#utility.yul\":24707:24709   */\n      0x20\n        /* \"#utility.yul\":24695:24704   */\n      dup3\n        /* \"#utility.yul\":24686:24693   */\n      dup5\n        /* \"#utility.yul\":24682:24705   */\n      sub\n        /* \"#utility.yul\":24678:24710   */\n      slt\n        /* \"#utility.yul\":24675:24794   */\n      iszero\n      tag_573\n      jumpi\n        /* \"#utility.yul\":24713:24792   */\n      tag_574\n      tag_279\n      jump\t// in\n    tag_574:\n        /* \"#utility.yul\":24675:24794   */\n    tag_573:\n        /* \"#utility.yul\":24854:24855   */\n      0x00\n        /* \"#utility.yul\":24843:24852   */\n      dup3\n        /* \"#utility.yul\":24839:24856   */\n      add\n        /* \"#utility.yul\":24833:24857   */\n      mload\n        /* \"#utility.yul\":24884:24902   */\n      0xffffffffffffffff\n        /* \"#utility.yul\":24876:24882   */\n      dup2\n        /* \"#utility.yul\":24873:24903   */\n      gt\n        /* \"#utility.yul\":24870:24987   */\n      iszero\n      tag_575\n      jumpi\n        /* \"#utility.yul\":24906:24985   */\n      tag_576\n      tag_280\n      jump\t// in\n    tag_576:\n        /* \"#utility.yul\":24870:24987   */\n    tag_575:\n        /* \"#utility.yul\":25011:25099   */\n      tag_577\n        /* \"#utility.yul\":25091:25098   */\n      dup5\n        /* \"#utility.yul\":25082:25088   */\n      dup3\n        /* \"#utility.yul\":25071:25080   */\n      dup6\n        /* \"#utility.yul\":25067:25089   */\n      add\n        /* \"#utility.yul\":25011:25099   */\n      tag_331\n      jump\t// in\n    tag_577:\n        /* \"#utility.yul\":25001:25099   */\n      swap2\n      pop\n        /* \"#utility.yul\":24804:25109   */\n      pop\n        /* \"#utility.yul\":24564:25116   */\n      swap3\n      swap2\n      pop\n      pop\n      jump\t// out\n        /* \"#utility.yul\":25122:25240   */\n    tag_332:\n        /* \"#utility.yul\":25209:25233   */\n      tag_579\n        /* \"#utility.yul\":25227:25232   */\n      dup2\n        /* \"#utility.yul\":25209:25233   */\n      tag_291\n      jump\t// in\n    tag_579:\n        /* \"#utility.yul\":25204:25207   */\n      dup3\n        /* \"#utility.yul\":25197:25234   */\n      mstore\n        /* \"#utility.yul\":25122:25240   */\n      pop\n      pop\n      jump\t// out\n        /* \"#utility.yul\":25246:25839   */\n    tag_133:\n        /* \"#utility.yul\":25445:25449   */\n      0x00\n        /* \"#utility.yul\":25483:25485   */\n      0x60\n        /* \"#utility.yul\":25472:25481   */\n      dup3\n        /* \"#utility.yul\":25468:25486   */\n      add\n        /* \"#utility.yul\":25460:25486   */\n      swap1\n      pop\n        /* \"#utility.yul\":25496:25567   */\n      tag_581\n        /* \"#utility.yul\":25564:25565   */\n      0x00\n        /* \"#utility.yul\":25553:25562   */\n      dup4\n        /* \"#utility.yul\":25549:25566   */\n      add\n        /* \"#utility.yul\":25540:25546   */\n      dup7\n        /* \"#utility.yul\":25496:25567   */\n      tag_302\n      jump\t// in\n    tag_581:\n        /* \"#utility.yul\":25614:25623   */\n      dup2\n        /* \"#utility.yul\":25608:25612   */\n      dup2\n        /* \"#utility.yul\":25604:25624   */\n      sub\n        /* \"#utility.yul\":25599:25601   */\n      0x20\n        /* \"#utility.yul\":25588:25597   */\n      dup4\n        /* \"#utility.yul\":25584:25602   */\n      add\n        /* \"#utility.yul\":25577:25625   */\n      mstore\n        /* \"#utility.yul\":25642:25750   */\n      tag_582\n        /* \"#utility.yul\":25745:25749   */\n      dup2\n        /* \"#utility.yul\":25736:25742   */\n      dup6\n        /* \"#utility.yul\":25642:25750   */\n      tag_315\n      jump\t// in\n    tag_582:\n        /* \"#utility.yul\":25634:25750   */\n      swap1\n      pop\n        /* \"#utility.yul\":25760:25832   */\n      tag_583\n        /* \"#utility.yul\":25828:25830   */\n      0x40\n        /* \"#utility.yul\":25817:25826   */\n      dup4\n        /* \"#utility.yul\":25813:25831   */\n      add\n        /* \"#utility.yul\":25804:25810   */\n      dup5\n        /* \"#utility.yul\":25760:25832   */\n      tag_332\n      jump\t// in\n    tag_583:\n        /* \"#utility.yul\":25246:25839   */\n      swap5\n      swap4\n      pop\n      pop\n      pop\n      pop\n      jump\t// out\n        /* \"#utility.yul\":25845:26196   */\n    tag_137:\n        /* \"#utility.yul\":25915:25921   */\n      0x00\n        /* \"#utility.yul\":25964:25966   */\n      0x20\n        /* \"#utility.yul\":25952:25961   */\n      dup3\n        /* \"#utility.yul\":25943:25950   */\n      dup5\n        /* \"#utility.yul\":25939:25962   */\n      sub\n        /* \"#utility.yul\":25935:25967   */\n      slt\n        /* \"#utility.yul\":25932:26051   */\n      iszero\n      tag_585\n      jumpi\n        /* \"#utility.yul\":25970:26049   */\n      tag_586\n      tag_279\n      jump\t// in\n    tag_586:\n        /* \"#utility.yul\":25932:26051   */\n    tag_585:\n        /* \"#utility.yul\":26090:26091   */\n      0x00\n        /* \"#utility.yul\":26115:26179   */\n      tag_587\n        /* \"#utility.yul\":26171:26178   */\n      dup5\n        /* \"#utility.yul\":26162:26168   */\n      dup3\n        /* \"#utility.yul\":26151:26160   */\n      dup6\n        /* \"#utility.yul\":26147:26169   */\n      add\n        /* \"#utility.yul\":26115:26179   */\n      tag_327\n      jump\t// in\n    tag_587:\n        /* \"#utility.yul\":26105:26179   */\n      swap2\n      pop\n        /* \"#utility.yul\":26061:26189   */\n      pop\n        /* \"#utility.yul\":25845:26196   */\n      swap3\n      swap2\n      pop\n      pop\n      jump\t// out\n        /* \"#utility.yul\":26202:26371   */\n    tag_333:\n        /* \"#utility.yul\":26286:26297   */\n      0x00\n        /* \"#utility.yul\":26320:26326   */\n      dup3\n        /* \"#utility.yul\":26315:26318   */\n      dup3\n        /* \"#utility.yul\":26308:26327   */\n      mstore\n        /* \"#utility.yul\":26360:26364   */\n      0x20\n        /* \"#utility.yul\":26355:26358   */\n      dup3\n        /* \"#utility.yul\":26351:26365   */\n      add\n        /* \"#utility.yul\":26336:26365   */\n      swap1\n      pop\n        /* \"#utility.yul\":26202:26371   */\n      swap3\n      swap2\n      pop\n      pop\n      jump\t// out\n        /* \"#utility.yul\":26377:26754   */\n    tag_334:\n        /* \"#utility.yul\":26465:26468   */\n      0x00\n        /* \"#utility.yul\":26493:26532   */\n      tag_590\n        /* \"#utility.yul\":26526:26531   */\n      dup3\n        /* \"#utility.yul\":26493:26532   */\n      tag_285\n      jump\t// in\n    tag_590:\n        /* \"#utility.yul\":26548:26619   */\n      tag_591\n        /* \"#utility.yul\":26612:26618   */\n      dup2\n        /* \"#utility.yul\":26607:26610   */\n      dup6\n        /* \"#utility.yul\":26548:26619   */\n      tag_333\n      jump\t// in\n    tag_591:\n        /* \"#utility.yul\":26541:26619   */\n      swap4\n      pop\n        /* \"#utility.yul\":26628:26693   */\n      tag_592\n        /* \"#utility.yul\":26686:26692   */\n      dup2\n        /* \"#utility.yul\":26681:26684   */\n      dup6\n        /* \"#utility.yul\":26674:26678   */\n      0x20\n        /* \"#utility.yul\":26667:26672   */\n      dup7\n        /* \"#utility.yul\":26663:26679   */\n      add\n        /* \"#utility.yul\":26628:26693   */\n      tag_287\n      jump\t// in\n    tag_592:\n        /* \"#utility.yul\":26718:26747   */\n      tag_593\n        /* \"#utility.yul\":26740:26746   */\n      dup2\n        /* \"#utility.yul\":26718:26747   */\n      tag_288\n      jump\t// in\n    tag_593:\n        /* \"#utility.yul\":26713:26716   */\n      dup5\n        /* \"#utility.yul\":26709:26748   */\n      add\n        /* \"#utility.yul\":26702:26748   */\n      swap2\n      pop\n        /* \"#utility.yul\":26469:26754   */\n      pop\n        /* \"#utility.yul\":26377:26754   */\n      swap3\n      swap2\n      pop\n      pop\n      jump\t// out\n        /* \"#utility.yul\":26760:27183   */\n    tag_140:\n        /* \"#utility.yul\":26901:26905   */\n      0x00\n        /* \"#utility.yul\":26939:26941   */\n      0x40\n        /* \"#utility.yul\":26928:26937   */\n      dup3\n        /* \"#utility.yul\":26924:26942   */\n      add\n        /* \"#utility.yul\":26916:26942   */\n      swap1\n      pop\n        /* \"#utility.yul\":26988:26997   */\n      dup2\n        /* \"#utility.yul\":26982:26986   */\n      dup2\n        /* \"#utility.yul\":26978:26998   */\n      sub\n        /* \"#utility.yul\":26974:26975   */\n      0x00\n        /* \"#utility.yul\":26963:26972   */\n      dup4\n        /* \"#utility.yul\":26959:26976   */\n      add\n        /* \"#utility.yul\":26952:26999   */\n      mstore\n        /* \"#utility.yul\":27016:27094   */\n      tag_595\n        /* \"#utility.yul\":27089:27093   */\n      dup2\n        /* \"#utility.yul\":27080:27086   */\n      dup6\n        /* \"#utility.yul\":27016:27094   */\n      tag_334\n      jump\t// in\n    tag_595:\n        /* \"#utility.yul\":27008:27094   */\n      swap1\n      pop\n        /* \"#utility.yul\":27104:27176   */\n      tag_596\n        /* \"#utility.yul\":27172:27174   */\n      0x20\n        /* \"#utility.yul\":27161:27170   */\n      dup4\n        /* \"#utility.yul\":27157:27175   */\n      add\n        /* \"#utility.yul\":27148:27154   */\n      dup5\n        /* \"#utility.yul\":27104:27176   */\n      tag_332\n      jump\t// in\n    tag_596:\n        /* \"#utility.yul\":26760:27183   */\n      swap4\n      swap3\n      pop\n      pop\n      pop\n      jump\t// out\n        /* \"#utility.yul\":27189:27411   */\n    tag_146:\n        /* \"#utility.yul\":27282:27286   */\n      0x00\n        /* \"#utility.yul\":27320:27322   */\n      0x20\n        /* \"#utility.yul\":27309:27318   */\n      dup3\n        /* \"#utility.yul\":27305:27323   */\n      add\n        /* \"#utility.yul\":27297:27323   */\n      swap1\n      pop\n        /* \"#utility.yul\":27333:27404   */\n      tag_598\n        /* \"#utility.yul\":27401:27402   */\n      0x00\n        /* \"#utility.yul\":27390:27399   */\n      dup4\n        /* \"#utility.yul\":27386:27403   */\n      add\n        /* \"#utility.yul\":27377:27383   */\n      dup5\n        /* \"#utility.yul\":27333:27404   */\n      tag_332\n      jump\t// in\n    tag_598:\n        /* \"#utility.yul\":27189:27411   */\n      swap3\n      swap2\n      pop\n      pop\n      jump\t// out\n        /* \"#utility.yul\":27417:27533   */\n    tag_335:\n        /* \"#utility.yul\":27487:27508   */\n      tag_600\n        /* \"#utility.yul\":27502:27507   */\n      dup2\n        /* \"#utility.yul\":27487:27508   */\n      tag_308\n      jump\t// in\n    tag_600:\n        /* \"#utility.yul\":27480:27485   */\n      dup2\n        /* \"#utility.yul\":27477:27509   */\n      eq\n        /* \"#utility.yul\":27467:27527   */\n      tag_601\n      jumpi\n        /* \"#utility.yul\":27523:27524   */\n      0x00\n        /* \"#utility.yul\":27520:27521   */\n      dup1\n        /* \"#utility.yul\":27513:27525   */\n      revert\n        /* \"#utility.yul\":27467:27527   */\n    tag_601:\n        /* \"#utility.yul\":27417:27533   */\n      pop\n      jump\t// out\n        /* \"#utility.yul\":27539:27676   */\n    tag_336:\n        /* \"#utility.yul\":27593:27598   */\n      0x00\n        /* \"#utility.yul\":27624:27630   */\n      dup2\n        /* \"#utility.yul\":27618:27631   */\n      mload\n        /* \"#utility.yul\":27609:27631   */\n      swap1\n      pop\n        /* \"#utility.yul\":27640:27670   */\n      tag_603\n        /* \"#utility.yul\":27664:27669   */\n      dup2\n        /* \"#utility.yul\":27640:27670   */\n      tag_335\n      jump\t// in\n    tag_603:\n        /* \"#utility.yul\":27539:27676   */\n      swap3\n      swap2\n      pop\n      pop\n      jump\t// out\n        /* \"#utility.yul\":27682:28027   */\n    tag_165:\n        /* \"#utility.yul\":27749:27755   */\n      0x00\n        /* \"#utility.yul\":27798:27800   */\n      0x20\n        /* \"#utility.yul\":27786:27795   */\n      dup3\n        /* \"#utility.yul\":27777:27784   */\n      dup5\n        /* \"#utility.yul\":27773:27796   */\n      sub\n        /* \"#utility.yul\":27769:27801   */\n      slt\n        /* \"#utility.yul\":27766:27885   */\n      iszero\n      tag_605\n      jumpi\n        /* \"#utility.yul\":27804:27883   */\n      tag_606\n      tag_279\n      jump\t// in\n    tag_606:\n        /* \"#utility.yul\":27766:27885   */\n    tag_605:\n        /* \"#utility.yul\":27924:27925   */\n      0x00\n        /* \"#utility.yul\":27949:28010   */\n      tag_607\n        /* \"#utility.yul\":28002:28009   */\n      dup5\n        /* \"#utility.yul\":27993:27999   */\n      dup3\n        /* \"#utility.yul\":27982:27991   */\n      dup6\n        /* \"#utility.yul\":27978:28000   */\n      add\n        /* \"#utility.yul\":27949:28010   */\n      tag_336\n      jump\t// in\n    tag_607:\n        /* \"#utility.yul\":27939:28010   */\n      swap2\n      pop\n        /* \"#utility.yul\":27895:28020   */\n      pop\n        /* \"#utility.yul\":27682:28027   */\n      swap3\n      swap2\n      pop\n      pop\n      jump\t// out\n        /* \"#utility.yul\":28050:28782   */\n    tag_337:\n        /* \"#utility.yul\":28157:28162   */\n      0x00\n        /* \"#utility.yul\":28182:28263   */\n      tag_609\n        /* \"#utility.yul\":28198:28262   */\n      tag_610\n        /* \"#utility.yul\":28255:28261   */\n      dup5\n        /* \"#utility.yul\":28198:28262   */\n      tag_298\n      jump\t// in\n    tag_610:\n        /* \"#utility.yul\":28182:28263   */\n      tag_297\n      jump\t// in\n    tag_609:\n        /* \"#utility.yul\":28173:28263   */\n      swap1\n      pop\n        /* \"#utility.yul\":28283:28288   */\n      dup1\n        /* \"#utility.yul\":28312:28318   */\n      dup4\n        /* \"#utility.yul\":28305:28310   */\n      dup3\n        /* \"#utility.yul\":28298:28319   */\n      mstore\n        /* \"#utility.yul\":28346:28350   */\n      0x20\n        /* \"#utility.yul\":28339:28344   */\n      dup3\n        /* \"#utility.yul\":28335:28351   */\n      add\n        /* \"#utility.yul\":28328:28351   */\n      swap1\n      pop\n        /* \"#utility.yul\":28399:28403   */\n      0x20\n        /* \"#utility.yul\":28391:28397   */\n      dup5\n        /* \"#utility.yul\":28387:28404   */\n      mul\n        /* \"#utility.yul\":28379:28385   */\n      dup4\n        /* \"#utility.yul\":28375:28405   */\n      add\n        /* \"#utility.yul\":28428:28431   */\n      dup6\n        /* \"#utility.yul\":28420:28426   */\n      dup2\n        /* \"#utility.yul\":28417:28432   */\n      gt\n        /* \"#utility.yul\":28414:28536   */\n      iszero\n      tag_611\n      jumpi\n        /* \"#utility.yul\":28447:28526   */\n      tag_612\n      tag_299\n      jump\t// in\n    tag_612:\n        /* \"#utility.yul\":28414:28536   */\n    tag_611:\n        /* \"#utility.yul\":28562:28568   */\n      dup4\n        /* \"#utility.yul\":28545:28776   */\n    tag_613:\n        /* \"#utility.yul\":28579:28585   */\n      dup2\n        /* \"#utility.yul\":28574:28577   */\n      dup2\n        /* \"#utility.yul\":28571:28586   */\n      lt\n        /* \"#utility.yul\":28545:28776   */\n      iszero\n      tag_615\n      jumpi\n        /* \"#utility.yul\":28654:28657   */\n      dup1\n        /* \"#utility.yul\":28683:28731   */\n      tag_616\n        /* \"#utility.yul\":28727:28730   */\n      dup9\n        /* \"#utility.yul\":28715:28725   */\n      dup3\n        /* \"#utility.yul\":28683:28731   */\n      tag_327\n      jump\t// in\n    tag_616:\n        /* \"#utility.yul\":28678:28681   */\n      dup5\n        /* \"#utility.yul\":28671:28732   */\n      mstore\n        /* \"#utility.yul\":28761:28765   */\n      0x20\n        /* \"#utility.yul\":28756:28759   */\n      dup5\n        /* \"#utility.yul\":28752:28766   */\n      add\n        /* \"#utility.yul\":28745:28766   */\n      swap4\n      pop\n        /* \"#utility.yul\":28621:28776   */\n      pop\n        /* \"#utility.yul\":28605:28609   */\n      0x20\n        /* \"#utility.yul\":28600:28603   */\n      dup2\n        /* \"#utility.yul\":28596:28610   */\n      add\n        /* \"#utility.yul\":28589:28610   */\n      swap1\n      pop\n        /* \"#utility.yul\":28545:28776   */\n      jump(tag_613)\n    tag_615:\n        /* \"#utility.yul\":28549:28570   */\n      pop\n        /* \"#utility.yul\":28163:28782   */\n      pop\n      pop\n        /* \"#utility.yul\":28050:28782   */\n      swap4\n      swap3\n      pop\n      pop\n      pop\n      jump\t// out\n        /* \"#utility.yul\":28805:29190   */\n    tag_338:\n        /* \"#utility.yul\":28887:28892   */\n      0x00\n        /* \"#utility.yul\":28936:28939   */\n      dup3\n        /* \"#utility.yul\":28929:28933   */\n      0x1f\n        /* \"#utility.yul\":28921:28927   */\n      dup4\n        /* \"#utility.yul\":28917:28934   */\n      add\n        /* \"#utility.yul\":28913:28940   */\n      slt\n        /* \"#utility.yul\":28903:29025   */\n      tag_618\n      jumpi\n        /* \"#utility.yul\":28944:29023   */\n      tag_619\n      tag_294\n      jump\t// in\n    tag_619:\n        /* \"#utility.yul\":28903:29025   */\n    tag_618:\n        /* \"#utility.yul\":29054:29060   */\n      dup2\n        /* \"#utility.yul\":29048:29061   */\n      mload\n        /* \"#utility.yul\":29079:29184   */\n      tag_620\n        /* \"#utility.yul\":29180:29183   */\n      dup5\n        /* \"#utility.yul\":29172:29178   */\n      dup3\n        /* \"#utility.yul\":29165:29169   */\n      0x20\n        /* \"#utility.yul\":29157:29163   */\n      dup7\n        /* \"#utility.yul\":29153:29170   */\n      add\n        /* \"#utility.yul\":29079:29184   */\n      tag_337\n      jump\t// in\n    tag_620:\n        /* \"#utility.yul\":29070:29184   */\n      swap2\n      pop\n        /* \"#utility.yul\":28893:29190   */\n      pop\n        /* \"#utility.yul\":28805:29190   */\n      swap3\n      swap2\n      pop\n      pop\n      jump\t// out\n        /* \"#utility.yul\":29196:29750   */\n    tag_171:\n        /* \"#utility.yul\":29291:29297   */\n      0x00\n        /* \"#utility.yul\":29340:29342   */\n      0x20\n        /* \"#utility.yul\":29328:29337   */\n      dup3\n        /* \"#utility.yul\":29319:29326   */\n      dup5\n        /* \"#utility.yul\":29315:29338   */\n      sub\n        /* \"#utility.yul\":29311:29343   */\n      slt\n        /* \"#utility.yul\":29308:29427   */\n      iszero\n      tag_622\n      jumpi\n        /* \"#utility.yul\":29346:29425   */\n      tag_623\n      tag_279\n      jump\t// in\n    tag_623:\n        /* \"#utility.yul\":29308:29427   */\n    tag_622:\n        /* \"#utility.yul\":29487:29488   */\n      0x00\n        /* \"#utility.yul\":29476:29485   */\n      dup3\n        /* \"#utility.yul\":29472:29489   */\n      add\n        /* \"#utility.yul\":29466:29490   */\n      mload\n        /* \"#utility.yul\":29517:29535   */\n      0xffffffffffffffff\n        /* \"#utility.yul\":29509:29515   */\n      dup2\n        /* \"#utility.yul\":29506:29536   */\n      gt\n        /* \"#utility.yul\":29503:29620   */\n      iszero\n      tag_624\n      jumpi\n        /* \"#utility.yul\":29539:29618   */\n      tag_625\n      tag_280\n      jump\t// in\n    tag_625:\n        /* \"#utility.yul\":29503:29620   */\n    tag_624:\n        /* \"#utility.yul\":29644:29733   */\n      tag_626\n        /* \"#utility.yul\":29725:29732   */\n      dup5\n        /* \"#utility.yul\":29716:29722   */\n      dup3\n        /* \"#utility.yul\":29705:29714   */\n      dup6\n        /* \"#utility.yul\":29701:29723   */\n      add\n        /* \"#utility.yul\":29644:29733   */\n      tag_338\n      jump\t// in\n    tag_626:\n        /* \"#utility.yul\":29634:29733   */\n      swap2\n      pop\n        /* \"#utility.yul\":29437:29743   */\n      pop\n        /* \"#utility.yul\":29196:29750   */\n      swap3\n      swap2\n      pop\n      pop\n      jump\t// out\n        /* \"#utility.yul\":29756:30239   */\n    tag_174:\n        /* \"#utility.yul\":29927:29931   */\n      0x00\n        /* \"#utility.yul\":29965:29967   */\n      0x40\n        /* \"#utility.yul\":29954:29963   */\n      dup3\n        /* \"#utility.yul\":29950:29968   */\n      add\n        /* \"#utility.yul\":29942:29968   */\n      swap1\n      pop\n        /* \"#utility.yul\":30014:30023   */\n      dup2\n        /* \"#utility.yul\":30008:30012   */\n      dup2\n        /* \"#utility.yul\":30004:30024   */\n      sub\n        /* \"#utility.yul\":30000:30001   */\n      0x00\n        /* \"#utility.yul\":29989:29998   */\n      dup4\n        /* \"#utility.yul\":29985:30002   */\n      add\n        /* \"#utility.yul\":29978:30025   */\n      mstore\n        /* \"#utility.yul\":30042:30150   */\n      tag_628\n        /* \"#utility.yul\":30145:30149   */\n      dup2\n        /* \"#utility.yul\":30136:30142   */\n      dup6\n        /* \"#utility.yul\":30042:30150   */\n      tag_315\n      jump\t// in\n    tag_628:\n        /* \"#utility.yul\":30034:30150   */\n      swap1\n      pop\n        /* \"#utility.yul\":30160:30232   */\n      tag_629\n        /* \"#utility.yul\":30228:30230   */\n      0x20\n        /* \"#utility.yul\":30217:30226   */\n      dup4\n        /* \"#utility.yul\":30213:30231   */\n      add\n        /* \"#utility.yul\":30204:30210   */\n      dup5\n        /* \"#utility.yul\":30160:30232   */\n      tag_332\n      jump\t// in\n    tag_629:\n        /* \"#utility.yul\":29756:30239   */\n      swap4\n      swap3\n      pop\n      pop\n      pop\n      jump\t// out\n        /* \"#utility.yul\":30266:31210   */\n    tag_339:\n        /* \"#utility.yul\":30349:30354   */\n      0x00\n        /* \"#utility.yul\":30393:30397   */\n      0x60\n        /* \"#utility.yul\":30381:30390   */\n      dup3\n        /* \"#utility.yul\":30376:30379   */\n      dup5\n        /* \"#utility.yul\":30372:30391   */\n      sub\n        /* \"#utility.yul\":30368:30398   */\n      slt\n        /* \"#utility.yul\":30365:30482   */\n      iszero\n      tag_631\n      jumpi\n        /* \"#utility.yul\":30401:30480   */\n      tag_632\n      tag_318\n      jump\t// in\n    tag_632:\n        /* \"#utility.yul\":30365:30482   */\n    tag_631:\n        /* \"#utility.yul\":30500:30521   */\n      tag_633\n        /* \"#utility.yul\":30516:30520   */\n      0x60\n        /* \"#utility.yul\":30500:30521   */\n      tag_297\n      jump\t// in\n    tag_633:\n        /* \"#utility.yul\":30491:30521   */\n      swap1\n      pop\n        /* \"#utility.yul\":30578:30579   */\n      0x00\n        /* \"#utility.yul\":30618:30678   */\n      tag_634\n        /* \"#utility.yul\":30674:30677   */\n      dup5\n        /* \"#utility.yul\":30665:30671   */\n      dup3\n        /* \"#utility.yul\":30654:30663   */\n      dup6\n        /* \"#utility.yul\":30650:30672   */\n      add\n        /* \"#utility.yul\":30618:30678   */\n      tag_327\n      jump\t// in\n    tag_634:\n        /* \"#utility.yul\":30611:30615   */\n      0x00\n        /* \"#utility.yul\":30604:30609   */\n      dup4\n        /* \"#utility.yul\":30600:30616   */\n      add\n        /* \"#utility.yul\":30593:30679   */\n      mstore\n        /* \"#utility.yul\":30531:30690   */\n      pop\n        /* \"#utility.yul\":30776:30778   */\n      0x20\n        /* \"#utility.yul\":30765:30774   */\n      dup3\n        /* \"#utility.yul\":30761:30779   */\n      add\n        /* \"#utility.yul\":30755:30780   */\n      mload\n        /* \"#utility.yul\":30807:30825   */\n      0xffffffffffffffff\n        /* \"#utility.yul\":30799:30805   */\n      dup2\n        /* \"#utility.yul\":30796:30826   */\n      gt\n        /* \"#utility.yul\":30793:30910   */\n      iszero\n      tag_635\n      jumpi\n        /* \"#utility.yul\":30829:30908   */\n      tag_636\n      tag_319\n      jump\t// in\n    tag_636:\n        /* \"#utility.yul\":30793:30910   */\n    tag_635:\n        /* \"#utility.yul\":30949:31019   */\n      tag_637\n        /* \"#utility.yul\":31015:31018   */\n      dup5\n        /* \"#utility.yul\":31006:31012   */\n      dup3\n        /* \"#utility.yul\":30995:31004   */\n      dup6\n        /* \"#utility.yul\":30991:31013   */\n      add\n        /* \"#utility.yul\":30949:31019   */\n      tag_329\n      jump\t// in\n    tag_637:\n        /* \"#utility.yul\":30942:30946   */\n      0x20\n        /* \"#utility.yul\":30935:30940   */\n      dup4\n        /* \"#utility.yul\":30931:30947   */\n      add\n        /* \"#utility.yul\":30924:31020   */\n      mstore\n        /* \"#utility.yul\":30700:31031   */\n      pop\n        /* \"#utility.yul\":31090:31092   */\n      0x40\n        /* \"#utility.yul\":31131:31191   */\n      tag_638\n        /* \"#utility.yul\":31187:31190   */\n      dup5\n        /* \"#utility.yul\":31178:31184   */\n      dup3\n        /* \"#utility.yul\":31167:31176   */\n      dup6\n        /* \"#utility.yul\":31163:31185   */\n      add\n        /* \"#utility.yul\":31131:31191   */\n      tag_327\n      jump\t// in\n    tag_638:\n        /* \"#utility.yul\":31124:31128   */\n      0x40\n        /* \"#utility.yul\":31117:31122   */\n      dup4\n        /* \"#utility.yul\":31113:31129   */\n      add\n        /* \"#utility.yul\":31106:31192   */\n      mstore\n        /* \"#utility.yul\":31041:31203   */\n      pop\n        /* \"#utility.yul\":30266:31210   */\n      swap3\n      swap2\n      pop\n      pop\n      jump\t// out\n        /* \"#utility.yul\":31216:31766   */\n    tag_185:\n        /* \"#utility.yul\":31309:31315   */\n      0x00\n        /* \"#utility.yul\":31358:31360   */\n      0x20\n        /* \"#utility.yul\":31346:31355   */\n      dup3\n        /* \"#utility.yul\":31337:31344   */\n      dup5\n        /* \"#utility.yul\":31333:31356   */\n      sub\n        /* \"#utility.yul\":31329:31361   */\n      slt\n        /* \"#utility.yul\":31326:31445   */\n      iszero\n      tag_640\n      jumpi\n        /* \"#utility.yul\":31364:31443   */\n      tag_641\n      tag_279\n      jump\t// in\n    tag_641:\n        /* \"#utility.yul\":31326:31445   */\n    tag_640:\n        /* \"#utility.yul\":31505:31506   */\n      0x00\n        /* \"#utility.yul\":31494:31503   */\n      dup3\n        /* \"#utility.yul\":31490:31507   */\n      add\n        /* \"#utility.yul\":31484:31508   */\n      mload\n        /* \"#utility.yul\":31535:31553   */\n      0xffffffffffffffff\n        /* \"#utility.yul\":31527:31533   */\n      dup2\n        /* \"#utility.yul\":31524:31554   */\n      gt\n        /* \"#utility.yul\":31521:31638   */\n      iszero\n      tag_642\n      jumpi\n        /* \"#utility.yul\":31557:31636   */\n      tag_643\n      tag_280\n      jump\t// in\n    tag_643:\n        /* \"#utility.yul\":31521:31638   */\n    tag_642:\n        /* \"#utility.yul\":31662:31749   */\n      tag_644\n        /* \"#utility.yul\":31741:31748   */\n      dup5\n        /* \"#utility.yul\":31732:31738   */\n      dup3\n        /* \"#utility.yul\":31721:31730   */\n      dup6\n        /* \"#utility.yul\":31717:31739   */\n      add\n        /* \"#utility.yul\":31662:31749   */\n      tag_339\n      jump\t// in\n    tag_644:\n        /* \"#utility.yul\":31652:31749   */\n      swap2\n      pop\n        /* \"#utility.yul\":31455:31759   */\n      pop\n        /* \"#utility.yul\":31216:31766   */\n      swap3\n      swap2\n      pop\n      pop\n      jump\t// out\n        /* \"#utility.yul\":31794:33414   */\n    tag_340:\n        /* \"#utility.yul\":31878:31883   */\n      0x00\n        /* \"#utility.yul\":31922:31926   */\n      0xa0\n        /* \"#utility.yul\":31910:31919   */\n      dup3\n        /* \"#utility.yul\":31905:31908   */\n      dup5\n        /* \"#utility.yul\":31901:31920   */\n      sub\n        /* \"#utility.yul\":31897:31927   */\n      slt\n        /* \"#utility.yul\":31894:32011   */\n      iszero\n      tag_646\n      jumpi\n        /* \"#utility.yul\":31930:32009   */\n      tag_647\n      tag_318\n      jump\t// in\n    tag_647:\n        /* \"#utility.yul\":31894:32011   */\n    tag_646:\n        /* \"#utility.yul\":32029:32050   */\n      tag_648\n        /* \"#utility.yul\":32045:32049   */\n      0xa0\n        /* \"#utility.yul\":32029:32050   */\n      tag_297\n      jump\t// in\n    tag_648:\n        /* \"#utility.yul\":32020:32050   */\n      swap1\n      pop\n        /* \"#utility.yul\":32107:32108   */\n      0x00\n        /* \"#utility.yul\":32147:32207   */\n      tag_649\n        /* \"#utility.yul\":32203:32206   */\n      dup5\n        /* \"#utility.yul\":32194:32200   */\n      dup3\n        /* \"#utility.yul\":32183:32192   */\n      dup6\n        /* \"#utility.yul\":32179:32201   */\n      add\n        /* \"#utility.yul\":32147:32207   */\n      tag_327\n      jump\t// in\n    tag_649:\n        /* \"#utility.yul\":32140:32144   */\n      0x00\n        /* \"#utility.yul\":32133:32138   */\n      dup4\n        /* \"#utility.yul\":32129:32145   */\n      add\n        /* \"#utility.yul\":32122:32208   */\n      mstore\n        /* \"#utility.yul\":32060:32219   */\n      pop\n        /* \"#utility.yul\":32303:32305   */\n      0x20\n        /* \"#utility.yul\":32292:32301   */\n      dup3\n        /* \"#utility.yul\":32288:32306   */\n      add\n        /* \"#utility.yul\":32282:32307   */\n      mload\n        /* \"#utility.yul\":32334:32352   */\n      0xffffffffffffffff\n        /* \"#utility.yul\":32326:32332   */\n      dup2\n        /* \"#utility.yul\":32323:32353   */\n      gt\n        /* \"#utility.yul\":32320:32437   */\n      iszero\n      tag_650\n      jumpi\n        /* \"#utility.yul\":32356:32435   */\n      tag_651\n      tag_319\n      jump\t// in\n    tag_651:\n        /* \"#utility.yul\":32320:32437   */\n    tag_650:\n        /* \"#utility.yul\":32476:32546   */\n      tag_652\n        /* \"#utility.yul\":32542:32545   */\n      dup5\n        /* \"#utility.yul\":32533:32539   */\n      dup3\n        /* \"#utility.yul\":32522:32531   */\n      dup6\n        /* \"#utility.yul\":32518:32540   */\n      add\n        /* \"#utility.yul\":32476:32546   */\n      tag_329\n      jump\t// in\n    tag_652:\n        /* \"#utility.yul\":32469:32473   */\n      0x20\n        /* \"#utility.yul\":32462:32467   */\n      dup4\n        /* \"#utility.yul\":32458:32474   */\n      add\n        /* \"#utility.yul\":32451:32547   */\n      mstore\n        /* \"#utility.yul\":32229:32558   */\n      pop\n        /* \"#utility.yul\":32640:32642   */\n      0x40\n        /* \"#utility.yul\":32629:32638   */\n      dup3\n        /* \"#utility.yul\":32625:32643   */\n      add\n        /* \"#utility.yul\":32619:32644   */\n      mload\n        /* \"#utility.yul\":32671:32689   */\n      0xffffffffffffffff\n        /* \"#utility.yul\":32663:32669   */\n      dup2\n        /* \"#utility.yul\":32660:32690   */\n      gt\n        /* \"#utility.yul\":32657:32774   */\n      iszero\n      tag_653\n      jumpi\n        /* \"#utility.yul\":32693:32772   */\n      tag_654\n      tag_319\n      jump\t// in\n    tag_654:\n        /* \"#utility.yul\":32657:32774   */\n    tag_653:\n        /* \"#utility.yul\":32813:32883   */\n      tag_655\n        /* \"#utility.yul\":32879:32882   */\n      dup5\n        /* \"#utility.yul\":32870:32876   */\n      dup3\n        /* \"#utility.yul\":32859:32868   */\n      dup6\n        /* \"#utility.yul\":32855:32877   */\n      add\n        /* \"#utility.yul\":32813:32883   */\n      tag_329\n      jump\t// in\n    tag_655:\n        /* \"#utility.yul\":32806:32810   */\n      0x40\n        /* \"#utility.yul\":32799:32804   */\n      dup4\n        /* \"#utility.yul\":32795:32811   */\n      add\n        /* \"#utility.yul\":32788:32884   */\n      mstore\n        /* \"#utility.yul\":32568:32895   */\n      pop\n        /* \"#utility.yul\":32979:32981   */\n      0x60\n        /* \"#utility.yul\":32968:32977   */\n      dup3\n        /* \"#utility.yul\":32964:32982   */\n      add\n        /* \"#utility.yul\":32958:32983   */\n      mload\n        /* \"#utility.yul\":33010:33028   */\n      0xffffffffffffffff\n        /* \"#utility.yul\":33002:33008   */\n      dup2\n        /* \"#utility.yul\":32999:33029   */\n      gt\n        /* \"#utility.yul\":32996:33113   */\n      iszero\n      tag_656\n      jumpi\n        /* \"#utility.yul\":33032:33111   */\n      tag_657\n      tag_319\n      jump\t// in\n    tag_657:\n        /* \"#utility.yul\":32996:33113   */\n    tag_656:\n        /* \"#utility.yul\":33152:33222   */\n      tag_658\n        /* \"#utility.yul\":33218:33221   */\n      dup5\n        /* \"#utility.yul\":33209:33215   */\n      dup3\n        /* \"#utility.yul\":33198:33207   */\n      dup6\n        /* \"#utility.yul\":33194:33216   */\n      add\n        /* \"#utility.yul\":33152:33222   */\n      tag_329\n      jump\t// in\n    tag_658:\n        /* \"#utility.yul\":33145:33149   */\n      0x60\n        /* \"#utility.yul\":33138:33143   */\n      dup4\n        /* \"#utility.yul\":33134:33150   */\n      add\n        /* \"#utility.yul\":33127:33223   */\n      mstore\n        /* \"#utility.yul\":32905:33234   */\n      pop\n        /* \"#utility.yul\":33293:33296   */\n      0x80\n        /* \"#utility.yul\":33335:33395   */\n      tag_659\n        /* \"#utility.yul\":33391:33394   */\n      dup5\n        /* \"#utility.yul\":33382:33388   */\n      dup3\n        /* \"#utility.yul\":33371:33380   */\n      dup6\n        /* \"#utility.yul\":33367:33389   */\n      add\n        /* \"#utility.yul\":33335:33395   */\n      tag_327\n      jump\t// in\n    tag_659:\n        /* \"#utility.yul\":33328:33332   */\n      0x80\n        /* \"#utility.yul\":33321:33326   */\n      dup4\n        /* \"#utility.yul\":33317:33333   */\n      add\n        /* \"#utility.yul\":33310:33396   */\n      mstore\n        /* \"#utility.yul\":33244:33407   */\n      pop\n        /* \"#utility.yul\":31794:33414   */\n      swap3\n      swap2\n      pop\n      pop\n      jump\t// out\n        /* \"#utility.yul\":33420:33972   */\n    tag_198:\n        /* \"#utility.yul\":33514:33520   */\n      0x00\n        /* \"#utility.yul\":33563:33565   */\n      0x20\n        /* \"#utility.yul\":33551:33560   */\n      dup3\n        /* \"#utility.yul\":33542:33549   */\n      dup5\n        /* \"#utility.yul\":33538:33561   */\n      sub\n        /* \"#utility.yul\":33534:33566   */\n      slt\n        /* \"#utility.yul\":33531:33650   */\n      iszero\n      tag_661\n      jumpi\n        /* \"#utility.yul\":33569:33648   */\n      tag_662\n      tag_279\n      jump\t// in\n    tag_662:\n        /* \"#utility.yul\":33531:33650   */\n    tag_661:\n        /* \"#utility.yul\":33710:33711   */\n      0x00\n        /* \"#utility.yul\":33699:33708   */\n      dup3\n        /* \"#utility.yul\":33695:33712   */\n      add\n        /* \"#utility.yul\":33689:33713   */\n      mload\n        /* \"#utility.yul\":33740:33758   */\n      0xffffffffffffffff\n        /* \"#utility.yul\":33732:33738   */\n      dup2\n        /* \"#utility.yul\":33729:33759   */\n      gt\n        /* \"#utility.yul\":33726:33843   */\n      iszero\n      tag_663\n      jumpi\n        /* \"#utility.yul\":33762:33841   */\n      tag_664\n      tag_280\n      jump\t// in\n    tag_664:\n        /* \"#utility.yul\":33726:33843   */\n    tag_663:\n        /* \"#utility.yul\":33867:33955   */\n      tag_665\n        /* \"#utility.yul\":33947:33954   */\n      dup5\n        /* \"#utility.yul\":33938:33944   */\n      dup3\n        /* \"#utility.yul\":33927:33936   */\n      dup6\n        /* \"#utility.yul\":33923:33945   */\n      add\n        /* \"#utility.yul\":33867:33955   */\n      tag_340\n      jump\t// in\n    tag_665:\n        /* \"#utility.yul\":33857:33955   */\n      swap2\n      pop\n        /* \"#utility.yul\":33660:33965   */\n      pop\n        /* \"#utility.yul\":33420:33972   */\n      swap3\n      swap2\n      pop\n      pop\n      jump\t// out\n        /* \"#utility.yul\":33978:34310   */\n    tag_205:\n        /* \"#utility.yul\":34099:34103   */\n      0x00\n        /* \"#utility.yul\":34137:34139   */\n      0x40\n        /* \"#utility.yul\":34126:34135   */\n      dup3\n        /* \"#utility.yul\":34122:34140   */\n      add\n        /* \"#utility.yul\":34114:34140   */\n      swap1\n      pop\n        /* \"#utility.yul\":34150:34221   */\n      tag_667\n        /* \"#utility.yul\":34218:34219   */\n      0x00\n        /* \"#utility.yul\":34207:34216   */\n      dup4\n        /* \"#utility.yul\":34203:34220   */\n      add\n        /* \"#utility.yul\":34194:34200   */\n      dup6\n        /* \"#utility.yul\":34150:34221   */\n      tag_302\n      jump\t// in\n    tag_667:\n        /* \"#utility.yul\":34231:34303   */\n      tag_668\n        /* \"#utility.yul\":34299:34301   */\n      0x20\n        /* \"#utility.yul\":34288:34297   */\n      dup4\n        /* \"#utility.yul\":34284:34302   */\n      add\n        /* \"#utility.yul\":34275:34281   */\n      dup5\n        /* \"#utility.yul\":34231:34303   */\n      tag_332\n      jump\t// in\n    tag_668:\n        /* \"#utility.yul\":33978:34310   */\n      swap4\n      swap3\n      pop\n      pop\n      pop\n      jump\t// out\n        /* \"#utility.yul\":34336:35468   */\n    tag_341:\n        /* \"#utility.yul\":34418:34423   */\n      0x00\n        /* \"#utility.yul\":34462:34466   */\n      0x80\n        /* \"#utility.yul\":34450:34459   */\n      dup3\n        /* \"#utility.yul\":34445:34448   */\n      dup5\n        /* \"#utility.yul\":34441:34460   */\n      sub\n        /* \"#utility.yul\":34437:34467   */\n      slt\n        /* \"#utility.yul\":34434:34551   */\n      iszero\n      tag_670\n      jumpi\n        /* \"#utility.yul\":34470:34549   */\n      tag_671\n      tag_318\n      jump\t// in\n    tag_671:\n        /* \"#utility.yul\":34434:34551   */\n    tag_670:\n        /* \"#utility.yul\":34569:34590   */\n      tag_672\n        /* \"#utility.yul\":34585:34589   */\n      0x80\n        /* \"#utility.yul\":34569:34590   */\n      tag_297\n      jump\t// in\n    tag_672:\n        /* \"#utility.yul\":34560:34590   */\n      swap1\n      pop\n        /* \"#utility.yul\":34647:34648   */\n      0x00\n        /* \"#utility.yul\":34687:34747   */\n      tag_673\n        /* \"#utility.yul\":34743:34746   */\n      dup5\n        /* \"#utility.yul\":34734:34740   */\n      dup3\n        /* \"#utility.yul\":34723:34732   */\n      dup6\n        /* \"#utility.yul\":34719:34741   */\n      add\n        /* \"#utility.yul\":34687:34747   */\n      tag_327\n      jump\t// in\n    tag_673:\n        /* \"#utility.yul\":34680:34684   */\n      0x00\n        /* \"#utility.yul\":34673:34678   */\n      dup4\n        /* \"#utility.yul\":34669:34685   */\n      add\n        /* \"#utility.yul\":34662:34748   */\n      mstore\n        /* \"#utility.yul\":34600:34759   */\n      pop\n        /* \"#utility.yul\":34823:34825   */\n      0x20\n        /* \"#utility.yul\":34864:34924   */\n      tag_674\n        /* \"#utility.yul\":34920:34923   */\n      dup5\n        /* \"#utility.yul\":34911:34917   */\n      dup3\n        /* \"#utility.yul\":34900:34909   */\n      dup6\n        /* \"#utility.yul\":34896:34918   */\n      add\n        /* \"#utility.yul\":34864:34924   */\n      tag_327\n      jump\t// in\n    tag_674:\n        /* \"#utility.yul\":34857:34861   */\n      0x20\n        /* \"#utility.yul\":34850:34855   */\n      dup4\n        /* \"#utility.yul\":34846:34862   */\n      add\n        /* \"#utility.yul\":34839:34925   */\n      mstore\n        /* \"#utility.yul\":34769:34936   */\n      pop\n        /* \"#utility.yul\":35019:35021   */\n      0x40\n        /* \"#utility.yul\":35008:35017   */\n      dup3\n        /* \"#utility.yul\":35004:35022   */\n      add\n        /* \"#utility.yul\":34998:35023   */\n      mload\n        /* \"#utility.yul\":35050:35068   */\n      0xffffffffffffffff\n        /* \"#utility.yul\":35042:35048   */\n      dup2\n        /* \"#utility.yul\":35039:35069   */\n      gt\n        /* \"#utility.yul\":35036:35153   */\n      iszero\n      tag_675\n      jumpi\n        /* \"#utility.yul\":35072:35151   */\n      tag_676\n      tag_319\n      jump\t// in\n    tag_676:\n        /* \"#utility.yul\":35036:35153   */\n    tag_675:\n        /* \"#utility.yul\":35192:35277   */\n      tag_677\n        /* \"#utility.yul\":35273:35276   */\n      dup5\n        /* \"#utility.yul\":35264:35270   */\n      dup3\n        /* \"#utility.yul\":35253:35262   */\n      dup6\n        /* \"#utility.yul\":35249:35271   */\n      add\n        /* \"#utility.yul\":35192:35277   */\n      tag_338\n      jump\t// in\n    tag_677:\n        /* \"#utility.yul\":35185:35189   */\n      0x40\n        /* \"#utility.yul\":35178:35183   */\n      dup4\n        /* \"#utility.yul\":35174:35190   */\n      add\n        /* \"#utility.yul\":35167:35278   */\n      mstore\n        /* \"#utility.yul\":34946:35289   */\n      pop\n        /* \"#utility.yul\":35348:35350   */\n      0x60\n        /* \"#utility.yul\":35389:35449   */\n      tag_678\n        /* \"#utility.yul\":35445:35448   */\n      dup5\n        /* \"#utility.yul\":35436:35442   */\n      dup3\n        /* \"#utility.yul\":35425:35434   */\n      dup6\n        /* \"#utility.yul\":35421:35443   */\n      add\n        /* \"#utility.yul\":35389:35449   */\n      tag_327\n      jump\t// in\n    tag_678:\n        /* \"#utility.yul\":35382:35386   */\n      0x60\n        /* \"#utility.yul\":35375:35380   */\n      dup4\n        /* \"#utility.yul\":35371:35387   */\n      add\n        /* \"#utility.yul\":35364:35450   */\n      mstore\n        /* \"#utility.yul\":35299:35461   */\n      pop\n        /* \"#utility.yul\":34336:35468   */\n      swap3\n      swap2\n      pop\n      pop\n      jump\t// out\n        /* \"#utility.yul\":35474:36022   */\n    tag_244:\n        /* \"#utility.yul\":35566:35572   */\n      0x00\n        /* \"#utility.yul\":35615:35617   */\n      0x20\n        /* \"#utility.yul\":35603:35612   */\n      dup3\n        /* \"#utility.yul\":35594:35601   */\n      dup5\n        /* \"#utility.yul\":35590:35613   */\n      sub\n        /* \"#utility.yul\":35586:35618   */\n      slt\n        /* \"#utility.yul\":35583:35702   */\n      iszero\n      tag_680\n      jumpi\n        /* \"#utility.yul\":35621:35700   */\n      tag_681\n      tag_279\n      jump\t// in\n    tag_681:\n        /* \"#utility.yul\":35583:35702   */\n    tag_680:\n        /* \"#utility.yul\":35762:35763   */\n      0x00\n        /* \"#utility.yul\":35751:35760   */\n      dup3\n        /* \"#utility.yul\":35747:35764   */\n      add\n        /* \"#utility.yul\":35741:35765   */\n      mload\n        /* \"#utility.yul\":35792:35810   */\n      0xffffffffffffffff\n        /* \"#utility.yul\":35784:35790   */\n      dup2\n        /* \"#utility.yul\":35781:35811   */\n      gt\n        /* \"#utility.yul\":35778:35895   */\n      iszero\n      tag_682\n      jumpi\n        /* \"#utility.yul\":35814:35893   */\n      tag_683\n      tag_280\n      jump\t// in\n    tag_683:\n        /* \"#utility.yul\":35778:35895   */\n    tag_682:\n        /* \"#utility.yul\":35919:36005   */\n      tag_684\n        /* \"#utility.yul\":35997:36004   */\n      dup5\n        /* \"#utility.yul\":35988:35994   */\n      dup3\n        /* \"#utility.yul\":35977:35986   */\n      dup6\n        /* \"#utility.yul\":35973:35995   */\n      add\n        /* \"#utility.yul\":35919:36005   */\n      tag_341\n      jump\t// in\n    tag_684:\n        /* \"#utility.yul\":35909:36005   */\n      swap2\n      pop\n        /* \"#utility.yul\":35712:36015   */\n      pop\n        /* \"#utility.yul\":35474:36022   */\n      swap3\n      swap2\n      pop\n      pop\n      jump\t// out\n        /* \"#utility.yul\":36028:36341   */\n    tag_252:\n        /* \"#utility.yul\":36141:36145   */\n      0x00\n        /* \"#utility.yul\":36179:36181   */\n      0x20\n        /* \"#utility.yul\":36168:36177   */\n      dup3\n        /* \"#utility.yul\":36164:36182   */\n      add\n        /* \"#utility.yul\":36156:36182   */\n      swap1\n      pop\n        /* \"#utility.yul\":36228:36237   */\n      dup2\n        /* \"#utility.yul\":36222:36226   */\n      dup2\n        /* \"#utility.yul\":36218:36238   */\n      sub\n        /* \"#utility.yul\":36214:36215   */\n      0x00\n        /* \"#utility.yul\":36203:36212   */\n      dup4\n        /* \"#utility.yul\":36199:36216   */\n      add\n        /* \"#utility.yul\":36192:36239   */\n      mstore\n        /* \"#utility.yul\":36256:36334   */\n      tag_686\n        /* \"#utility.yul\":36329:36333   */\n      dup2\n        /* \"#utility.yul\":36320:36326   */\n      dup5\n        /* \"#utility.yul\":36256:36334   */\n      tag_334\n      jump\t// in\n    tag_686:\n        /* \"#utility.yul\":36248:36334   */\n      swap1\n      pop\n        /* \"#utility.yul\":36028:36341   */\n      swap3\n      swap2\n      pop\n      pop\n      jump\t// out\n        /* \"#utility.yul\":36347:36698   */\n    tag_261:\n        /* \"#utility.yul\":36417:36423   */\n      0x00\n        /* \"#utility.yul\":36466:36468   */\n      0x20\n        /* \"#utility.yul\":36454:36463   */\n      dup3\n        /* \"#utility.yul\":36445:36452   */\n      dup5\n        /* \"#utility.yul\":36441:36464   */\n      sub\n        /* \"#utility.yul\":36437:36469   */\n      slt\n        /* \"#utility.yul\":36434:36553   */\n      iszero\n      tag_688\n      jumpi\n        /* \"#utility.yul\":36472:36551   */\n      tag_689\n      tag_279\n      jump\t// in\n    tag_689:\n        /* \"#utility.yul\":36434:36553   */\n    tag_688:\n        /* \"#utility.yul\":36592:36593   */\n      0x00\n        /* \"#utility.yul\":36617:36681   */\n      tag_690\n        /* \"#utility.yul\":36673:36680   */\n      dup5\n        /* \"#utility.yul\":36664:36670   */\n      dup3\n        /* \"#utility.yul\":36653:36662   */\n      dup6\n        /* \"#utility.yul\":36649:36671   */\n      add\n        /* \"#utility.yul\":36617:36681   */\n      tag_330\n      jump\t// in\n    tag_690:\n        /* \"#utility.yul\":36607:36681   */\n      swap2\n      pop\n        /* \"#utility.yul\":36563:36691   */\n      pop\n        /* \"#utility.yul\":36347:36698   */\n      swap3\n      swap2\n      pop\n      pop\n      jump\t// out\n\n    auxdata: 0xa2646970667358221220f3b243b41a5ebc80e67d6c05156b4f47ae90d6abef96b844044e20feefbbd04364736f6c63430008190033\n}\n",
				"bytecode": {
					"linkReferences": {},
					"object": "608060405234801561000f575f80fd5b506040516131e73803806131e783398181016040528101906100319190610634565b805f806101000a81548173ffffffffffffffffffffffffffffffffffffffff021916908373ffffffffffffffffffffffffffffffffffffffff16021790555061007e61008560201b60201c565b5050610744565b5f805f9054906101000a900473ffffffffffffffffffffffffffffffffffffffff1673ffffffffffffffffffffffffffffffffffffffff1663bf40fac16040518060400160405280601581526020017f52455345525645445f4e414d455f4d414e4147455200000000000000000000008152506040518263ffffffff1660e01b815260040161011491906106cf565b602060405180830381865afa15801561012f573d5f803e3d5ffd5b505050506040513d601f19601f820116820180604052508101906101539190610719565b60015f6101000a81548173ffffffffffffffffffffffffffffffffffffffff021916908373ffffffffffffffffffffffffffffffffffffffff1602179055505f8054906101000a900473ffffffffffffffffffffffffffffffffffffffff1673ffffffffffffffffffffffffffffffffffffffff1663bf40fac16040518060400160405280601881526020017f52455345525645445f434f4e54454e545f4d414e4147455200000000000000008152506040518263ffffffff1660e01b815260040161021f91906106cf565b602060405180830381865afa15801561023a573d5f803e3d5ffd5b505050506040513d601f19601f8201168201806040525081019061025e9190610719565b60025f6101000a81548173ffffffffffffffffffffffffffffffffffffffff021916908373ffffffffffffffffffffffffffffffffffffffff1602179055505f8054906101000a900473ffffffffffffffffffffffffffffffffffffffff1673ffffffffffffffffffffffffffffffffffffffff1663bf40fac16040518060400160405280601881526020017f52455345525645445f4d4553534147455f4d414e4147455200000000000000008152506040518263ffffffff1660e01b815260040161032a91906106cf565b602060405180830381865afa158015610345573d5f803e3d5ffd5b505050506040513d601f19601f820116820180604052508101906103699190610719565b60035f6101000a81548173ffffffffffffffffffffffffffffffffffffffff021916908373ffffffffffffffffffffffffffffffffffffffff1602179055505f8054906101000a900473ffffffffffffffffffffffffffffffffffffffff1673ffffffffffffffffffffffffffffffffffffffff1663bf40fac16040518060400160405280601581526020017f52455345525645445f464545445f4d414e4147455200000000000000000000008152506040518263ffffffff1660e01b815260040161043591906106cf565b602060405180830381865afa158015610450573d5f803e3d5ffd5b505050506040513d601f19601f820116820180604052508101906104749190610719565b60045f6101000a81548173ffffffffffffffffffffffffffffffffffffffff021916908373ffffffffffffffffffffffffffffffffffffffff1602179055505f8054906101000a900473ffffffffffffffffffffffffffffffffffffffff1673ffffffffffffffffffffffffffffffffffffffff1663bf40fac16040518060400160405280601881526020017f52455345525645445f464f4c4c4f57535f4d414e4147455200000000000000008152506040518263ffffffff1660e01b815260040161054091906106cf565b602060405180830381865afa15801561055b573d5f803e3d5ffd5b505050506040513d601f19601f8201168201806040525081019061057f9190610719565b60055f6101000a81548173ffffffffffffffffffffffffffffffffffffffff021916908373ffffffffffffffffffffffffffffffffffffffff1602179055506001905090565b5f80fd5b5f73ffffffffffffffffffffffffffffffffffffffff82169050919050565b5f6105f2826105c9565b9050919050565b5f610603826105e8565b9050919050565b610613816105f9565b811461061d575f80fd5b50565b5f8151905061062e8161060a565b92915050565b5f60208284031215610649576106486105c5565b5b5f61065684828501610620565b91505092915050565b5f81519050919050565b5f82825260208201905092915050565b8281835e5f83830152505050565b5f601f19601f8301169050919050565b5f6106a18261065f565b6106ab8185610669565b93506106bb818560208601610679565b6106c481610687565b840191505092915050565b5f6020820190508181035f8301526106e78184610697565b905092915050565b6106f8816105e8565b8114610702575f80fd5b50565b5f81519050610713816106ef565b92915050565b5f6020828403121561072e5761072d6105c5565b5b5f61073b84828501610705565b91505092915050565b612a96806107515f395ff3fe608060405234801561000f575f80fd5b5060043610610140575f3560e01c806386f79edb116100b6578063bb2877da1161007a578063bb2877da146103fc578063ca8d458f1461042c578063cde4c10c1461045c578063cfb5a5f81461047a578063dbadb1d1146104aa578063de0c9b6a146104c857610140565b806386f79edb1461031e5780638f4a38071461034e578063900450691461037e578063a120734b146103ae578063aa5724c9146103cc57610140565b80633d18b912116101085780633d18b9121461022257806353e224d2146102405780635ff6cbf31461027057806373fba1fa1461028e57806380127f7e146102be57806382b566fa146102ee57610140565b80630b7ad54c1461014457806310349ed4146101745780632a788dae146101a45780632f76ca39146101d4578063390deb17146101f2575b5f80fd5b61015e60048036038101906101599190611956565b6104f8565b60405161016b9190611ab9565b60405180910390f35b61018e60048036038101906101899190611c19565b6105a3565b60405161019b9190611c82565b60405180910390f35b6101be60048036038101906101b99190611d4b565b61064a565b6040516101cb9190611c82565b60405180910390f35b6101dc6106ee565b6040516101e99190611c82565b60405180910390f35b61020c60048036038101906102079190611d4b565b61078d565b6040516102199190611c82565b60405180910390f35b61022a610831565b6040516102379190611c82565b60405180910390f35b61025a60048036038101906102559190611d4b565b6108d0565b6040516102679190611dac565b60405180910390f35b610278610974565b6040516102859190611e6d565b60405180910390f35b6102a860048036038101906102a39190611e8d565b610a17565b6040516102b59190611c82565b60405180910390f35b6102d860048036038101906102d39190611956565b610abb565b6040516102e59190611f21565b60405180910390f35b61030860048036038101906103039190611d4b565b610b66565b6040516103159190611dac565b60405180910390f35b61033860048036038101906103339190611956565b610c0a565b6040516103459190611fc2565b60405180910390f35b610368600480360381019061036391906120d5565b610cb5565b6040516103759190611c82565b60405180910390f35b61039860048036038101906103939190611d4b565b610df4565b6040516103a59190611dac565b60405180910390f35b6103b6610e97565b6040516103c39190611e6d565b60405180910390f35b6103e660048036038101906103e19190611e8d565b610f3a565b6040516103f39190611dac565b60405180910390f35b61041660048036038101906104119190611d4b565b610fdc565b6040516104239190611c82565b60405180910390f35b610446600480360381019061044191906121f9565b611080565b6040516104539190611c82565b60405180910390f35b610464611122565b6040516104719190611dac565b60405180910390f35b610494600480360381019061048f9190611956565b611130565b6040516104a1919061230c565b60405180910390f35b6104b26111db565b6040516104bf9190611e6d565b60405180910390f35b6104e260048036038101906104dd9190611d4b565b61127e565b6040516104ef9190611dac565b60405180910390f35b61050061185f565b60025f9054906101000a900473ffffffffffffffffffffffffffffffffffffffff1673ffffffffffffffffffffffffffffffffffffffff16630b7ad54c836040518263ffffffff1660e01b815260040161055a9190611c82565b5f60405180830381865afa158015610574573d5f803e3d5ffd5b505050506040513d5f823e3d601f19601f8201168201806040525081019061059c9190612483565b9050919050565b5f60045f9054906101000a900473ffffffffffffffffffffffffffffffffffffffff1673ffffffffffffffffffffffffffffffffffffffff1663ddb503368484336040518463ffffffff1660e01b8152600401610602939291906124d9565b6020604051808303815f875af115801561061e573d5f803e3d5ffd5b505050506040513d601f19601f820116820180604052508101906106429190612515565b905092915050565b5f60055f9054906101000a900473ffffffffffffffffffffffffffffffffffffffff1673ffffffffffffffffffffffffffffffffffffffff16638b4b028283336040518363ffffffff1660e01b81526004016106a7929190612588565b6020604051808303815f875af11580156106c3573d5f803e3d5ffd5b505050506040513d601f19601f820116820180604052508101906106e79190612515565b9050919050565b5f60055f9054906101000a900473ffffffffffffffffffffffffffffffffffffffff1673ffffffffffffffffffffffffffffffffffffffff1663fab7d536336040518263ffffffff1660e01b815260040161074991906125b6565b602060405180830381865afa158015610764573d5f803e3d5ffd5b505050506040513d601f19601f820116820180604052508101906107889190612515565b905090565b5f60055f9054906101000a900473ffffffffffffffffffffffffffffffffffffffff1673ffffffffffffffffffffffffffffffffffffffff1663fc49dd4d83336040518363ffffffff1660e01b81526004016107ea929190612588565b6020604051808303815f875af1158015610806573d5f803e3d5ffd5b505050506040513d601f19601f8201168201806040525081019061082a9190612515565b9050919050565b5f60065f9054906101000a900473ffffffffffffffffffffffffffffffffffffffff1673ffffffffffffffffffffffffffffffffffffffff1663c00007b0336040518263ffffffff1660e01b815260040161088c91906125b6565b602060405180830381865afa1580156108a7573d5f803e3d5ffd5b505050506040513d601f19601f820116820180604052508101906108cb9190612515565b905090565b5f60055f9054906101000a900473ffffffffffffffffffffffffffffffffffffffff1673ffffffffffffffffffffffffffffffffffffffff16630f9caca283336040518363ffffffff1660e01b815260040161092d929190612588565b6020604051808303815f875af1158015610949573d5f803e3d5ffd5b505050506040513d601f19601f8201168201806040525081019061096d91906125f9565b9050919050565b606060035f9054906101000a900473ffffffffffffffffffffffffffffffffffffffff1673ffffffffffffffffffffffffffffffffffffffff1663b2f71322336040518263ffffffff1660e01b81526004016109d091906125b6565b5f60405180830381865afa1580156109ea573d5f803e3d5ffd5b505050506040513d5f823e3d601f19601f82011682018060405250810190610a1291906126b9565b905090565b5f60045f9054906101000a900473ffffffffffffffffffffffffffffffffffffffff1673ffffffffffffffffffffffffffffffffffffffff1663d537090583336040518363ffffffff1660e01b8152600401610a74929190612700565b6020604051808303815f875af1158015610a90573d5f803e3d5ffd5b505050506040513d601f19601f82011682018060405250810190610ab49190612515565b9050919050565b610ac36118a1565b60055f9054906101000a900473ffffffffffffffffffffffffffffffffffffffff1673ffffffffffffffffffffffffffffffffffffffff166380127f7e836040518263ffffffff1660e01b8152600401610b1d9190611c82565b5f60405180830381865afa158015610b37573d5f803e3d5ffd5b505050506040513d5f823e3d601f19601f82011682018060405250810190610b5f91906127ab565b9050919050565b5f60055f9054906101000a900473ffffffffffffffffffffffffffffffffffffffff1673ffffffffffffffffffffffffffffffffffffffff166301e4014283336040518363ffffffff1660e01b8152600401610bc3929190612588565b6020604051808303815f875af1158015610bdf573d5f803e3d5ffd5b505050506040513d601f19601f82011682018060405250810190610c0391906125f9565b9050919050565b610c126118c0565b60035f9054906101000a900473ffffffffffffffffffffffffffffffffffffffff1673ffffffffffffffffffffffffffffffffffffffff166386f79edb836040518263ffffffff1660e01b8152600401610c6c9190611c82565b5f60405180830381865afa158015610c86573d5f803e3d5ffd5b505050506040513d5f823e3d601f19601f82011682018060405250810190610cae91906128cf565b9050919050565b5f60025f9054906101000a900473ffffffffffffffffffffffffffffffffffffffff1673ffffffffffffffffffffffffffffffffffffffff16638f4a3807836040518263ffffffff1660e01b8152600401610d109190611ab9565b6020604051808303815f875af1158015610d2c573d5f803e3d5ffd5b505050506040513d601f19601f82011682018060405250810190610d509190612515565b905060045f9054906101000a900473ffffffffffffffffffffffffffffffffffffffff1673ffffffffffffffffffffffffffffffffffffffff1663276384b582336040518363ffffffff1660e01b8152600401610dae929190612916565b6020604051808303815f875af1158015610dca573d5f803e3d5ffd5b505050506040513d601f19601f82011682018060405250810190610dee91906125f9565b50919050565b5f60055f9054906101000a900473ffffffffffffffffffffffffffffffffffffffff1673ffffffffffffffffffffffffffffffffffffffff1663fe658b6083336040518363ffffffff1660e01b8152600401610e51929190612588565b602060405180830381865afa158015610e6c573d5f803e3d5ffd5b505050506040513d601f19601f82011682018060405250810190610e9091906125f9565b9050919050565b606060055f9054906101000a900473ffffffffffffffffffffffffffffffffffffffff1673ffffffffffffffffffffffffffffffffffffffff1663eb0eeb10336040518263ffffffff1660e01b8152600401610ef391906125b6565b5f60405180830381865afa158015610f0d573d5f803e3d5ffd5b505050506040513d5f823e3d601f19601f82011682018060405250810190610f3591906126b9565b905090565b5f60035f9054906101000a900473ffffffffffffffffffffffffffffffffffffffff1673ffffffffffffffffffffffffffffffffffffffff1663aa5724c9836040518263ffffffff1660e01b8152600401610f959190611e6d565b6020604051808303815f875af1158015610fb1573d5f803e3d5ffd5b505050506040513d601f19601f82011682018060405250810190610fd591906125f9565b9050919050565b5f60015f9054906101000a900473ffffffffffffffffffffffffffffffffffffffff1673ffffffffffffffffffffffffffffffffffffffff1663f3b95c4683336040518363ffffffff1660e01b8152600401611039929190612588565b6020604051808303815f875af1158015611055573d5f803e3d5ffd5b505050506040513d601f19601f820116820180604052508101906110799190612515565b9050919050565b5f60035f9054906101000a900473ffffffffffffffffffffffffffffffffffffffff1673ffffffffffffffffffffffffffffffffffffffff1663ca8d458f836040518263ffffffff1660e01b81526004016110db9190611fc2565b6020604051808303815f875af11580156110f7573d5f803e3d5ffd5b505050506040513d601f19601f8201168201806040525081019061111b9190612515565b9050919050565b5f61112b61131f565b905090565b6111386118ed565b60045f9054906101000a900473ffffffffffffffffffffffffffffffffffffffff1673ffffffffffffffffffffffffffffffffffffffff1663cfb5a5f8836040518263ffffffff1660e01b81526004016111929190611c82565b5f60405180830381865afa1580156111ac573d5f803e3d5ffd5b505050506040513d5f823e3d601f19601f820116820180604052508101906111d491906129ce565b9050919050565b606060045f9054906101000a900473ffffffffffffffffffffffffffffffffffffffff1673ffffffffffffffffffffffffffffffffffffffff166316b8e731336040518263ffffffff1660e01b815260040161123791906125b6565b5f60405180830381865afa158015611251573d5f803e3d5ffd5b505050506040513d5f823e3d601f19601f8201168201806040525081019061127991906126b9565b905090565b5f60015f9054906101000a900473ffffffffffffffffffffffffffffffffffffffff1673ffffffffffffffffffffffffffffffffffffffff1663de0c9b6a836040518263ffffffff1660e01b81526004016112d99190612a15565b602060405180830381865afa1580156112f4573d5f803e3d5ffd5b505050506040513d601f19601f8201168201806040525081019061131891906125f9565b9050919050565b5f805f9054906101000a900473ffffffffffffffffffffffffffffffffffffffff1673ffffffffffffffffffffffffffffffffffffffff1663bf40fac16040518060400160405280601581526020017f52455345525645445f4e414d455f4d414e4147455200000000000000000000008152506040518263ffffffff1660e01b81526004016113ae9190612a15565b602060405180830381865afa1580156113c9573d5f803e3d5ffd5b505050506040513d601f19601f820116820180604052508101906113ed9190612a35565b60015f6101000a81548173ffffffffffffffffffffffffffffffffffffffff021916908373ffffffffffffffffffffffffffffffffffffffff1602179055505f8054906101000a900473ffffffffffffffffffffffffffffffffffffffff1673ffffffffffffffffffffffffffffffffffffffff1663bf40fac16040518060400160405280601881526020017f52455345525645445f434f4e54454e545f4d414e4147455200000000000000008152506040518263ffffffff1660e01b81526004016114b99190612a15565b602060405180830381865afa1580156114d4573d5f803e3d5ffd5b505050506040513d601f19601f820116820180604052508101906114f89190612a35565b60025f6101000a81548173ffffffffffffffffffffffffffffffffffffffff021916908373ffffffffffffffffffffffffffffffffffffffff1602179055505f8054906101000a900473ffffffffffffffffffffffffffffffffffffffff1673ffffffffffffffffffffffffffffffffffffffff1663bf40fac16040518060400160405280601881526020017f52455345525645445f4d4553534147455f4d414e4147455200000000000000008152506040518263ffffffff1660e01b81526004016115c49190612a15565b602060405180830381865afa1580156115df573d5f803e3d5ffd5b505050506040513d601f19601f820116820180604052508101906116039190612a35565b60035f6101000a81548173ffffffffffffffffffffffffffffffffffffffff021916908373ffffffffffffffffffffffffffffffffffffffff1602179055505f8054906101000a900473ffffffffffffffffffffffffffffffffffffffff1673ffffffffffffffffffffffffffffffffffffffff1663bf40fac16040518060400160405280601581526020017f52455345525645445f464545445f4d414e4147455200000000000000000000008152506040518263ffffffff1660e01b81526004016116cf9190612a15565b602060405180830381865afa1580156116ea573d5f803e3d5ffd5b505050506040513d601f19601f8201168201806040525081019061170e9190612a35565b60045f6101000a81548173ffffffffffffffffffffffffffffffffffffffff021916908373ffffffffffffffffffffffffffffffffffffffff1602179055505f8054906101000a900473ffffffffffffffffffffffffffffffffffffffff1673ffffffffffffffffffffffffffffffffffffffff1663bf40fac16040518060400160405280601881526020017f52455345525645445f464f4c4c4f57535f4d414e4147455200000000000000008152506040518263ffffffff1660e01b81526004016117da9190612a15565b602060405180830381865afa1580156117f5573d5f803e3d5ffd5b505050506040513d601f19601f820116820180604052508101906118199190612a35565b60055f6101000a81548173ffffffffffffffffffffffffffffffffffffffff021916908373ffffffffffffffffffffffffffffffffffffffff1602179055506001905090565b6040518060a001604052805f8152602001606081526020015f73ffffffffffffffffffffffffffffffffffffffff168152602001606081526020015f81525090565b60405180606001604052805f8152602001606081526020015f81525090565b6040518060a001604052805f81526020016060815260200160608152602001606081526020015f81525090565b60405180608001604052805f81526020015f8152602001606081526020015f81525090565b5f604051905090565b5f80fd5b5f80fd5b5f819050919050565b61193581611923565b811461193f575f80fd5b50565b5f813590506119508161192c565b92915050565b5f6020828403121561196b5761196a61191b565b5b5f61197884828501611942565b91505092915050565b61198a81611923565b82525050565b5f81519050919050565b5f82825260208201905092915050565b8281835e5f83830152505050565b5f601f19601f8301169050919050565b5f6119d282611990565b6119dc818561199a565b93506119ec8185602086016119aa565b6119f5816119b8565b840191505092915050565b5f73ffffffffffffffffffffffffffffffffffffffff82169050919050565b5f611a2982611a00565b9050919050565b611a3981611a1f565b82525050565b5f60a083015f830151611a545f860182611981565b5060208301518482036020860152611a6c82826119c8565b9150506040830151611a816040860182611a30565b5060608301518482036060860152611a9982826119c8565b9150506080830151611aae6080860182611981565b508091505092915050565b5f6020820190508181035f830152611ad18184611a3f565b905092915050565b5f80fd5b7f4e487b71000000000000000000000000000000000000000000000000000000005f52604160045260245ffd5b611b13826119b8565b810181811067ffffffffffffffff82111715611b3257611b31611add565b5b80604052505050565b5f611b44611912565b9050611b508282611b0a565b919050565b5f67ffffffffffffffff821115611b6f57611b6e611add565b5b602082029050602081019050919050565b5f80fd5b5f611b96611b9184611b55565b611b3b565b90508083825260208201905060208402830185811115611bb957611bb8611b80565b5b835b81811015611be25780611bce8882611942565b845260208401935050602081019050611bbb565b5050509392505050565b5f82601f830112611c0057611bff611ad9565b5b8135611c10848260208601611b84565b91505092915050565b5f8060408385031215611c2f57611c2e61191b565b5b5f611c3c85828601611942565b925050602083013567ffffffffffffffff811115611c5d57611c5c61191f565b5b611c6985828601611bec565b9150509250929050565b611c7c81611923565b82525050565b5f602082019050611c955f830184611c73565b92915050565b5f80fd5b5f67ffffffffffffffff821115611cb957611cb8611add565b5b611cc2826119b8565b9050602081019050919050565b828183375f83830152505050565b5f611cef611cea84611c9f565b611b3b565b905082815260208101848484011115611d0b57611d0a611c9b565b5b611d16848285611ccf565b509392505050565b5f82601f830112611d3257611d31611ad9565b5b8135611d42848260208601611cdd565b91505092915050565b5f60208284031215611d6057611d5f61191b565b5b5f82013567ffffffffffffffff811115611d7d57611d7c61191f565b5b611d8984828501611d1e565b91505092915050565b5f8115159050919050565b611da681611d92565b82525050565b5f602082019050611dbf5f830184611d9d565b92915050565b5f81519050919050565b5f82825260208201905092915050565b5f819050602082019050919050565b5f611df98383611981565b60208301905092915050565b5f602082019050919050565b5f611e1b82611dc5565b611e258185611dcf565b9350611e3083611ddf565b805f5b83811015611e60578151611e478882611dee565b9750611e5283611e05565b925050600181019050611e33565b5085935050505092915050565b5f6020820190508181035f830152611e858184611e11565b905092915050565b5f60208284031215611ea257611ea161191b565b5b5f82013567ffffffffffffffff811115611ebf57611ebe61191f565b5b611ecb84828501611bec565b91505092915050565b5f606083015f830151611ee95f860182611981565b5060208301518482036020860152611f0182826119c8565b9150506040830151611f166040860182611981565b508091505092915050565b5f6020820190508181035f830152611f398184611ed4565b905092915050565b5f60a083015f830151611f565f860182611981565b5060208301518482036020860152611f6e82826119c8565b91505060408301518482036040860152611f8882826119c8565b91505060608301518482036060860152611fa282826119c8565b9150506080830151611fb76080860182611981565b508091505092915050565b5f6020820190508181035f830152611fda8184611f41565b905092915050565b5f80fd5b5f80fd5b611ff381611a1f565b8114611ffd575f80fd5b50565b5f8135905061200e81611fea565b92915050565b5f60a0828403121561202957612028611fe2565b5b61203360a0611b3b565b90505f61204284828501611942565b5f83015250602082013567ffffffffffffffff81111561206557612064611fe6565b5b61207184828501611d1e565b602083015250604061208584828501612000565b604083015250606082013567ffffffffffffffff8111156120a9576120a8611fe6565b5b6120b584828501611d1e565b60608301525060806120c984828501611942565b60808301525092915050565b5f602082840312156120ea576120e961191b565b5b5f82013567ffffffffffffffff8111156121075761210661191f565b5b61211384828501612014565b91505092915050565b5f60a0828403121561213157612130611fe2565b5b61213b60a0611b3b565b90505f61214a84828501611942565b5f83015250602082013567ffffffffffffffff81111561216d5761216c611fe6565b5b61217984828501611d1e565b602083015250604082013567ffffffffffffffff81111561219d5761219c611fe6565b5b6121a984828501611d1e565b604083015250606082013567ffffffffffffffff8111156121cd576121cc611fe6565b5b6121d984828501611d1e565b60608301525060806121ed84828501611942565b60808301525092915050565b5f6020828403121561220e5761220d61191b565b5b5f82013567ffffffffffffffff81111561222b5761222a61191f565b5b6122378482850161211c565b91505092915050565b5f82825260208201905092915050565b5f61225a82611dc5565b6122648185612240565b935061226f83611ddf565b805f5b8381101561229f5781516122868882611dee565b975061229183611e05565b925050600181019050612272565b5085935050505092915050565b5f608083015f8301516122c15f860182611981565b5060208301516122d46020860182611981565b50604083015184820360408601526122ec8282612250565b91505060608301516123016060860182611981565b508091505092915050565b5f6020820190508181035f83015261232481846122ac565b905092915050565b5f8151905061233a8161192c565b92915050565b5f61235261234d84611c9f565b611b3b565b90508281526020810184848401111561236e5761236d611c9b565b5b6123798482856119aa565b509392505050565b5f82601f83011261239557612394611ad9565b5b81516123a5848260208601612340565b91505092915050565b5f815190506123bc81611fea565b92915050565b5f60a082840312156123d7576123d6611fe2565b5b6123e160a0611b3b565b90505f6123f08482850161232c565b5f83015250602082015167ffffffffffffffff81111561241357612412611fe6565b5b61241f84828501612381565b6020830152506040612433848285016123ae565b604083015250606082015167ffffffffffffffff81111561245757612456611fe6565b5b61246384828501612381565b60608301525060806124778482850161232c565b60808301525092915050565b5f602082840312156124985761249761191b565b5b5f82015167ffffffffffffffff8111156124b5576124b461191f565b5b6124c1848285016123c2565b91505092915050565b6124d381611a1f565b82525050565b5f6060820190506124ec5f830186611c73565b81810360208301526124fe8185611e11565b905061250d60408301846124ca565b949350505050565b5f6020828403121561252a5761252961191b565b5b5f6125378482850161232c565b91505092915050565b5f82825260208201905092915050565b5f61255a82611990565b6125648185612540565b93506125748185602086016119aa565b61257d816119b8565b840191505092915050565b5f6040820190508181035f8301526125a08185612550565b90506125af60208301846124ca565b9392505050565b5f6020820190506125c95f8301846124ca565b92915050565b6125d881611d92565b81146125e2575f80fd5b50565b5f815190506125f3816125cf565b92915050565b5f6020828403121561260e5761260d61191b565b5b5f61261b848285016125e5565b91505092915050565b5f61263661263184611b55565b611b3b565b9050808382526020820190506020840283018581111561265957612658611b80565b5b835b81811015612682578061266e888261232c565b84526020840193505060208101905061265b565b5050509392505050565b5f82601f8301126126a05761269f611ad9565b5b81516126b0848260208601612624565b91505092915050565b5f602082840312156126ce576126cd61191b565b5b5f82015167ffffffffffffffff8111156126eb576126ea61191f565b5b6126f78482850161268c565b91505092915050565b5f6040820190508181035f8301526127188185611e11565b905061272760208301846124ca565b9392505050565b5f6060828403121561274357612742611fe2565b5b61274d6060611b3b565b90505f61275c8482850161232c565b5f83015250602082015167ffffffffffffffff81111561277f5761277e611fe6565b5b61278b84828501612381565b602083015250604061279f8482850161232c565b60408301525092915050565b5f602082840312156127c0576127bf61191b565b5b5f82015167ffffffffffffffff8111156127dd576127dc61191f565b5b6127e98482850161272e565b91505092915050565b5f60a0828403121561280757612806611fe2565b5b61281160a0611b3b565b90505f6128208482850161232c565b5f83015250602082015167ffffffffffffffff81111561284357612842611fe6565b5b61284f84828501612381565b602083015250604082015167ffffffffffffffff81111561287357612872611fe6565b5b61287f84828501612381565b604083015250606082015167ffffffffffffffff8111156128a3576128a2611fe6565b5b6128af84828501612381565b60608301525060806128c38482850161232c565b60808301525092915050565b5f602082840312156128e4576128e361191b565b5b5f82015167ffffffffffffffff8111156129015761290061191f565b5b61290d848285016127f2565b91505092915050565b5f6040820190506129295f830185611c73565b61293660208301846124ca565b9392505050565b5f6080828403121561295257612951611fe2565b5b61295c6080611b3b565b90505f61296b8482850161232c565b5f83015250602061297e8482850161232c565b602083015250604082015167ffffffffffffffff8111156129a2576129a1611fe6565b5b6129ae8482850161268c565b60408301525060606129c28482850161232c565b60608301525092915050565b5f602082840312156129e3576129e261191b565b5b5f82015167ffffffffffffffff811115612a00576129ff61191f565b5b612a0c8482850161293d565b91505092915050565b5f6020820190508181035f830152612a2d8184612550565b905092915050565b5f60208284031215612a4a57612a4961191b565b5b5f612a57848285016123ae565b9150509291505056fea2646970667358221220f3b243b41a5ebc80e67d6c05156b4f47ae90d6abef96b844044e20feefbbd04364736f6c63430008190033",
					"opcodes": "PUSH1 0x80 PUSH1 0x40 MSTORE CALLVALUE DUP1 ISZERO PUSH2 0xF JUMPI PUSH0 DUP1 REVERT JUMPDEST POP PUSH1 0x40 MLOAD PUSH2 0x31E7 CODESIZE SUB DUP1 PUSH2 0x31E7 DUP4 CODECOPY DUP2 DUP2 ADD PUSH1 0x40 MSTORE DUP2 ADD SWAP1 PUSH2 0x31 SWAP2 SWAP1 PUSH2 0x634 JUMP JUMPDEST DUP1 PUSH0 DUP1 PUSH2 0x100 EXP DUP2 SLOAD DUP2 PUSH20 0xFFFFFFFFFFFFFFFFFFFFFFFFFFFFFFFFFFFFFFFF MUL NOT AND SWAP1 DUP4 PUSH20 0xFFFFFFFFFFFFFFFFFFFFFFFFFFFFFFFFFFFFFFFF AND MUL OR SWAP1 SSTORE POP PUSH2 0x7E PUSH2 0x85 PUSH1 0x20 SHL PUSH1 0x20 SHR JUMP JUMPDEST POP POP PUSH2 0x744 JUMP JUMPDEST PUSH0 DUP1 PUSH0 SWAP1 SLOAD SWAP1 PUSH2 0x100 EXP SWAP1 DIV PUSH20 0xFFFFFFFFFFFFFFFFFFFFFFFFFFFFFFFFFFFFFFFF AND PUSH20 0xFFFFFFFFFFFFFFFFFFFFFFFFFFFFFFFFFFFFFFFF AND PUSH4 0xBF40FAC1 PUSH1 0x40 MLOAD DUP1 PUSH1 0x40 ADD PUSH1 0x40 MSTORE DUP1 PUSH1 0x15 DUP2 MSTORE PUSH1 0x20 ADD PUSH32 0x52455345525645445F4E414D455F4D414E414745520000000000000000000000 DUP2 MSTORE POP PUSH1 0x40 MLOAD DUP3 PUSH4 0xFFFFFFFF AND PUSH1 0xE0 SHL DUP2 MSTORE PUSH1 0x4 ADD PUSH2 0x114 SWAP2 SWAP1 PUSH2 0x6CF JUMP JUMPDEST PUSH1 0x20 PUSH1 0x40 MLOAD DUP1 DUP4 SUB DUP2 DUP7 GAS STATICCALL ISZERO DUP1 ISZERO PUSH2 0x12F JUMPI RETURNDATASIZE PUSH0 DUP1 RETURNDATACOPY RETURNDATASIZE PUSH0 REVERT JUMPDEST POP POP POP POP PUSH1 0x40 MLOAD RETURNDATASIZE PUSH1 0x1F NOT PUSH1 0x1F DUP3 ADD AND DUP3 ADD DUP1 PUSH1 0x40 MSTORE POP DUP2 ADD SWAP1 PUSH2 0x153 SWAP2 SWAP1 PUSH2 0x719 JUMP JUMPDEST PUSH1 0x1 PUSH0 PUSH2 0x100 EXP DUP2 SLOAD DUP2 PUSH20 0xFFFFFFFFFFFFFFFFFFFFFFFFFFFFFFFFFFFFFFFF MUL NOT AND SWAP1 DUP4 PUSH20 0xFFFFFFFFFFFFFFFFFFFFFFFFFFFFFFFFFFFFFFFF AND MUL OR SWAP1 SSTORE POP PUSH0 DUP1 SLOAD SWAP1 PUSH2 0x100 EXP SWAP1 DIV PUSH20 0xFFFFFFFFFFFFFFFFFFFFFFFFFFFFFFFFFFFFFFFF AND PUSH20 0xFFFFFFFFFFFFFFFFFFFFFFFFFFFFFFFFFFFFFFFF AND PUSH4 0xBF40FAC1 PUSH1 0x40 MLOAD DUP1 PUSH1 0x40 ADD PUSH1 0x40 MSTORE DUP1 PUSH1 0x18 DUP2 MSTORE PUSH1 0x20 ADD PUSH32 0x52455345525645445F434F4E54454E545F4D414E414745520000000000000000 DUP2 MSTORE POP PUSH1 0x40 MLOAD DUP3 PUSH4 0xFFFFFFFF AND PUSH1 0xE0 SHL DUP2 MSTORE PUSH1 0x4 ADD PUSH2 0x21F SWAP2 SWAP1 PUSH2 0x6CF JUMP JUMPDEST PUSH1 0x20 PUSH1 0x40 MLOAD DUP1 DUP4 SUB DUP2 DUP7 GAS STATICCALL ISZERO DUP1 ISZERO PUSH2 0x23A JUMPI RETURNDATASIZE PUSH0 DUP1 RETURNDATACOPY RETURNDATASIZE PUSH0 REVERT JUMPDEST POP POP POP POP PUSH1 0x40 MLOAD RETURNDATASIZE PUSH1 0x1F NOT PUSH1 0x1F DUP3 ADD AND DUP3 ADD DUP1 PUSH1 0x40 MSTORE POP DUP2 ADD SWAP1 PUSH2 0x25E SWAP2 SWAP1 PUSH2 0x719 JUMP JUMPDEST PUSH1 0x2 PUSH0 PUSH2 0x100 EXP DUP2 SLOAD DUP2 PUSH20 0xFFFFFFFFFFFFFFFFFFFFFFFFFFFFFFFFFFFFFFFF MUL NOT AND SWAP1 DUP4 PUSH20 0xFFFFFFFFFFFFFFFFFFFFFFFFFFFFFFFFFFFFFFFF AND MUL OR SWAP1 SSTORE POP PUSH0 DUP1 SLOAD SWAP1 PUSH2 0x100 EXP SWAP1 DIV PUSH20 0xFFFFFFFFFFFFFFFFFFFFFFFFFFFFFFFFFFFFFFFF AND PUSH20 0xFFFFFFFFFFFFFFFFFFFFFFFFFFFFFFFFFFFFFFFF AND PUSH4 0xBF40FAC1 PUSH1 0x40 MLOAD DUP1 PUSH1 0x40 ADD PUSH1 0x40 MSTORE DUP1 PUSH1 0x18 DUP2 MSTORE PUSH1 0x20 ADD PUSH32 0x52455345525645445F4D4553534147455F4D414E414745520000000000000000 DUP2 MSTORE POP PUSH1 0x40 MLOAD DUP3 PUSH4 0xFFFFFFFF AND PUSH1 0xE0 SHL DUP2 MSTORE PUSH1 0x4 ADD PUSH2 0x32A SWAP2 SWAP1 PUSH2 0x6CF JUMP JUMPDEST PUSH1 0x20 PUSH1 0x40 MLOAD DUP1 DUP4 SUB DUP2 DUP7 GAS STATICCALL ISZERO DUP1 ISZERO PUSH2 0x345 JUMPI RETURNDATASIZE PUSH0 DUP1 RETURNDATACOPY RETURNDATASIZE PUSH0 REVERT JUMPDEST POP POP POP POP PUSH1 0x40 MLOAD RETURNDATASIZE PUSH1 0x1F NOT PUSH1 0x1F DUP3 ADD AND DUP3 ADD DUP1 PUSH1 0x40 MSTORE POP DUP2 ADD SWAP1 PUSH2 0x369 SWAP2 SWAP1 PUSH2 0x719 JUMP JUMPDEST PUSH1 0x3 PUSH0 PUSH2 0x100 EXP DUP2 SLOAD DUP2 PUSH20 0xFFFFFFFFFFFFFFFFFFFFFFFFFFFFFFFFFFFFFFFF MUL NOT AND SWAP1 DUP4 PUSH20 0xFFFFFFFFFFFFFFFFFFFFFFFFFFFFFFFFFFFFFFFF AND MUL OR SWAP1 SSTORE POP PUSH0 DUP1 SLOAD SWAP1 PUSH2 0x100 EXP SWAP1 DIV PUSH20 0xFFFFFFFFFFFFFFFFFFFFFFFFFFFFFFFFFFFFFFFF AND PUSH20 0xFFFFFFFFFFFFFFFFFFFFFFFFFFFFFFFFFFFFFFFF AND PUSH4 0xBF40FAC1 PUSH1 0x40 MLOAD DUP1 PUSH1 0x40 ADD PUSH1 0x40 MSTORE DUP1 PUSH1 0x15 DUP2 MSTORE PUSH1 0x20 ADD PUSH32 0x52455345525645445F464545445F4D414E414745520000000000000000000000 DUP2 MSTORE POP PUSH1 0x40 MLOAD DUP3 PUSH4 0xFFFFFFFF AND PUSH1 0xE0 SHL DUP2 MSTORE PUSH1 0x4 ADD PUSH2 0x435 SWAP2 SWAP1 PUSH2 0x6CF JUMP JUMPDEST PUSH1 0x20 PUSH1 0x40 MLOAD DUP1 DUP4 SUB DUP2 DUP7 GAS STATICCALL ISZERO DUP1 ISZERO PUSH2 0x450 JUMPI RETURNDATASIZE PUSH0 DUP1 RETURNDATACOPY RETURNDATASIZE PUSH0 REVERT JUMPDEST POP POP POP POP PUSH1 0x40 MLOAD RETURNDATASIZE PUSH1 0x1F NOT PUSH1 0x1F DUP3 ADD AND DUP3 ADD DUP1 PUSH1 0x40 MSTORE POP DUP2 ADD SWAP1 PUSH2 0x474 SWAP2 SWAP1 PUSH2 0x719 JUMP JUMPDEST PUSH1 0x4 PUSH0 PUSH2 0x100 EXP DUP2 SLOAD DUP2 PUSH20 0xFFFFFFFFFFFFFFFFFFFFFFFFFFFFFFFFFFFFFFFF MUL NOT AND SWAP1 DUP4 PUSH20 0xFFFFFFFFFFFFFFFFFFFFFFFFFFFFFFFFFFFFFFFF AND MUL OR SWAP1 SSTORE POP PUSH0 DUP1 SLOAD SWAP1 PUSH2 0x100 EXP SWAP1 DIV PUSH20 0xFFFFFFFFFFFFFFFFFFFFFFFFFFFFFFFFFFFFFFFF AND PUSH20 0xFFFFFFFFFFFFFFFFFFFFFFFFFFFFFFFFFFFFFFFF AND PUSH4 0xBF40FAC1 PUSH1 0x40 MLOAD DUP1 PUSH1 0x40 ADD PUSH1 0x40 MSTORE DUP1 PUSH1 0x18 DUP2 MSTORE PUSH1 0x20 ADD PUSH32 0x52455345525645445F464F4C4C4F57535F4D414E414745520000000000000000 DUP2 MSTORE POP PUSH1 0x40 MLOAD DUP3 PUSH4 0xFFFFFFFF AND PUSH1 0xE0 SHL DUP2 MSTORE PUSH1 0x4 ADD PUSH2 0x540 SWAP2 SWAP1 PUSH2 0x6CF JUMP JUMPDEST PUSH1 0x20 PUSH1 0x40 MLOAD DUP1 DUP4 SUB DUP2 DUP7 GAS STATICCALL ISZERO DUP1 ISZERO PUSH2 0x55B JUMPI RETURNDATASIZE PUSH0 DUP1 RETURNDATACOPY RETURNDATASIZE PUSH0 REVERT JUMPDEST POP POP POP POP PUSH1 0x40 MLOAD RETURNDATASIZE PUSH1 0x1F NOT PUSH1 0x1F DUP3 ADD AND DUP3 ADD DUP1 PUSH1 0x40 MSTORE POP DUP2 ADD SWAP1 PUSH2 0x57F SWAP2 SWAP1 PUSH2 0x719 JUMP JUMPDEST PUSH1 0x5 PUSH0 PUSH2 0x100 EXP DUP2 SLOAD DUP2 PUSH20 0xFFFFFFFFFFFFFFFFFFFFFFFFFFFFFFFFFFFFFFFF MUL NOT AND SWAP1 DUP4 PUSH20 0xFFFFFFFFFFFFFFFFFFFFFFFFFFFFFFFFFFFFFFFF AND MUL OR SWAP1 SSTORE POP PUSH1 0x1 SWAP1 POP SWAP1 JUMP JUMPDEST PUSH0 DUP1 REVERT JUMPDEST PUSH0 PUSH20 0xFFFFFFFFFFFFFFFFFFFFFFFFFFFFFFFFFFFFFFFF DUP3 AND SWAP1 POP SWAP2 SWAP1 POP JUMP JUMPDEST PUSH0 PUSH2 0x5F2 DUP3 PUSH2 0x5C9 JUMP JUMPDEST SWAP1 POP SWAP2 SWAP1 POP JUMP JUMPDEST PUSH0 PUSH2 0x603 DUP3 PUSH2 0x5E8 JUMP JUMPDEST SWAP1 POP SWAP2 SWAP1 POP JUMP JUMPDEST PUSH2 0x613 DUP2 PUSH2 0x5F9 JUMP JUMPDEST DUP2 EQ PUSH2 0x61D JUMPI PUSH0 DUP1 REVERT JUMPDEST POP JUMP JUMPDEST PUSH0 DUP2 MLOAD SWAP1 POP PUSH2 0x62E DUP2 PUSH2 0x60A JUMP JUMPDEST SWAP3 SWAP2 POP POP JUMP JUMPDEST PUSH0 PUSH1 0x20 DUP3 DUP5 SUB SLT ISZERO PUSH2 0x649 JUMPI PUSH2 0x648 PUSH2 0x5C5 JUMP JUMPDEST JUMPDEST PUSH0 PUSH2 0x656 DUP5 DUP3 DUP6 ADD PUSH2 0x620 JUMP JUMPDEST SWAP2 POP POP SWAP3 SWAP2 POP POP JUMP JUMPDEST PUSH0 DUP2 MLOAD SWAP1 POP SWAP2 SWAP1 POP JUMP JUMPDEST PUSH0 DUP3 DUP3 MSTORE PUSH1 0x20 DUP3 ADD SWAP1 POP SWAP3 SWAP2 POP POP JUMP JUMPDEST DUP3 DUP2 DUP4 MCOPY PUSH0 DUP4 DUP4 ADD MSTORE POP POP POP JUMP JUMPDEST PUSH0 PUSH1 0x1F NOT PUSH1 0x1F DUP4 ADD AND SWAP1 POP SWAP2 SWAP1 POP JUMP JUMPDEST PUSH0 PUSH2 0x6A1 DUP3 PUSH2 0x65F JUMP JUMPDEST PUSH2 0x6AB DUP2 DUP6 PUSH2 0x669 JUMP JUMPDEST SWAP4 POP PUSH2 0x6BB DUP2 DUP6 PUSH1 0x20 DUP7 ADD PUSH2 0x679 JUMP JUMPDEST PUSH2 0x6C4 DUP2 PUSH2 0x687 JUMP JUMPDEST DUP5 ADD SWAP2 POP POP SWAP3 SWAP2 POP POP JUMP JUMPDEST PUSH0 PUSH1 0x20 DUP3 ADD SWAP1 POP DUP2 DUP2 SUB PUSH0 DUP4 ADD MSTORE PUSH2 0x6E7 DUP2 DUP5 PUSH2 0x697 JUMP JUMPDEST SWAP1 POP SWAP3 SWAP2 POP POP JUMP JUMPDEST PUSH2 0x6F8 DUP2 PUSH2 0x5E8 JUMP JUMPDEST DUP2 EQ PUSH2 0x702 JUMPI PUSH0 DUP1 REVERT JUMPDEST POP JUMP JUMPDEST PUSH0 DUP2 MLOAD SWAP1 POP PUSH2 0x713 DUP2 PUSH2 0x6EF JUMP JUMPDEST SWAP3 SWAP2 POP POP JUMP JUMPDEST PUSH0 PUSH1 0x20 DUP3 DUP5 SUB SLT ISZERO PUSH2 0x72E JUMPI PUSH2 0x72D PUSH2 0x5C5 JUMP JUMPDEST JUMPDEST PUSH0 PUSH2 0x73B DUP5 DUP3 DUP6 ADD PUSH2 0x705 JUMP JUMPDEST SWAP2 POP POP SWAP3 SWAP2 POP POP JUMP JUMPDEST PUSH2 0x2A96 DUP1 PUSH2 0x751 PUSH0 CODECOPY PUSH0 RETURN INVALID PUSH1 0x80 PUSH1 0x40 MSTORE CALLVALUE DUP1 ISZERO PUSH2 0xF JUMPI PUSH0 DUP1 REVERT JUMPDEST POP PUSH1 0x4 CALLDATASIZE LT PUSH2 0x140 JUMPI PUSH0 CALLDATALOAD PUSH1 0xE0 SHR DUP1 PUSH4 0x86F79EDB GT PUSH2 0xB6 JUMPI DUP1 PUSH4 0xBB2877DA GT PUSH2 0x7A JUMPI DUP1 PUSH4 0xBB2877DA EQ PUSH2 0x3FC JUMPI DUP1 PUSH4 0xCA8D458F EQ PUSH2 0x42C JUMPI DUP1 PUSH4 0xCDE4C10C EQ PUSH2 0x45C JUMPI DUP1 PUSH4 0xCFB5A5F8 EQ PUSH2 0x47A JUMPI DUP1 PUSH4 0xDBADB1D1 EQ PUSH2 0x4AA JUMPI DUP1 PUSH4 0xDE0C9B6A EQ PUSH2 0x4C8 JUMPI PUSH2 0x140 JUMP JUMPDEST DUP1 PUSH4 0x86F79EDB EQ PUSH2 0x31E JUMPI DUP1 PUSH4 0x8F4A3807 EQ PUSH2 0x34E JUMPI DUP1 PUSH4 0x90045069 EQ PUSH2 0x37E JUMPI DUP1 PUSH4 0xA120734B EQ PUSH2 0x3AE JUMPI DUP1 PUSH4 0xAA5724C9 EQ PUSH2 0x3CC JUMPI PUSH2 0x140 JUMP JUMPDEST DUP1 PUSH4 0x3D18B912 GT PUSH2 0x108 JUMPI DUP1 PUSH4 0x3D18B912 EQ PUSH2 0x222 JUMPI DUP1 PUSH4 0x53E224D2 EQ PUSH2 0x240 JUMPI DUP1 PUSH4 0x5FF6CBF3 EQ PUSH2 0x270 JUMPI DUP1 PUSH4 0x73FBA1FA EQ PUSH2 0x28E JUMPI DUP1 PUSH4 0x80127F7E EQ PUSH2 0x2BE JUMPI DUP1 PUSH4 0x82B566FA EQ PUSH2 0x2EE JUMPI PUSH2 0x140 JUMP JUMPDEST DUP1 PUSH4 0xB7AD54C EQ PUSH2 0x144 JUMPI DUP1 PUSH4 0x10349ED4 EQ PUSH2 0x174 JUMPI DUP1 PUSH4 0x2A788DAE EQ PUSH2 0x1A4 JUMPI DUP1 PUSH4 0x2F76CA39 EQ PUSH2 0x1D4 JUMPI DUP1 PUSH4 0x390DEB17 EQ PUSH2 0x1F2 JUMPI JUMPDEST PUSH0 DUP1 REVERT JUMPDEST PUSH2 0x15E PUSH1 0x4 DUP1 CALLDATASIZE SUB DUP2 ADD SWAP1 PUSH2 0x159 SWAP2 SWAP1 PUSH2 0x1956 JUMP JUMPDEST PUSH2 0x4F8 JUMP JUMPDEST PUSH1 0x40 MLOAD PUSH2 0x16B SWAP2 SWAP1 PUSH2 0x1AB9 JUMP JUMPDEST PUSH1 0x40 MLOAD DUP1 SWAP2 SUB SWAP1 RETURN JUMPDEST PUSH2 0x18E PUSH1 0x4 DUP1 CALLDATASIZE SUB DUP2 ADD SWAP1 PUSH2 0x189 SWAP2 SWAP1 PUSH2 0x1C19 JUMP JUMPDEST PUSH2 0x5A3 JUMP JUMPDEST PUSH1 0x40 MLOAD PUSH2 0x19B SWAP2 SWAP1 PUSH2 0x1C82 JUMP JUMPDEST PUSH1 0x40 MLOAD DUP1 SWAP2 SUB SWAP1 RETURN JUMPDEST PUSH2 0x1BE PUSH1 0x4 DUP1 CALLDATASIZE SUB DUP2 ADD SWAP1 PUSH2 0x1B9 SWAP2 SWAP1 PUSH2 0x1D4B JUMP JUMPDEST PUSH2 0x64A JUMP JUMPDEST PUSH1 0x40 MLOAD PUSH2 0x1CB SWAP2 SWAP1 PUSH2 0x1C82 JUMP JUMPDEST PUSH1 0x40 MLOAD DUP1 SWAP2 SUB SWAP1 RETURN JUMPDEST PUSH2 0x1DC PUSH2 0x6EE JUMP JUMPDEST PUSH1 0x40 MLOAD PUSH2 0x1E9 SWAP2 SWAP1 PUSH2 0x1C82 JUMP JUMPDEST PUSH1 0x40 MLOAD DUP1 SWAP2 SUB SWAP1 RETURN JUMPDEST PUSH2 0x20C PUSH1 0x4 DUP1 CALLDATASIZE SUB DUP2 ADD SWAP1 PUSH2 0x207 SWAP2 SWAP1 PUSH2 0x1D4B JUMP JUMPDEST PUSH2 0x78D JUMP JUMPDEST PUSH1 0x40 MLOAD PUSH2 0x219 SWAP2 SWAP1 PUSH2 0x1C82 JUMP JUMPDEST PUSH1 0x40 MLOAD DUP1 SWAP2 SUB SWAP1 RETURN JUMPDEST PUSH2 0x22A PUSH2 0x831 JUMP JUMPDEST PUSH1 0x40 MLOAD PUSH2 0x237 SWAP2 SWAP1 PUSH2 0x1C82 JUMP JUMPDEST PUSH1 0x40 MLOAD DUP1 SWAP2 SUB SWAP1 RETURN JUMPDEST PUSH2 0x25A PUSH1 0x4 DUP1 CALLDATASIZE SUB DUP2 ADD SWAP1 PUSH2 0x255 SWAP2 SWAP1 PUSH2 0x1D4B JUMP JUMPDEST PUSH2 0x8D0 JUMP JUMPDEST PUSH1 0x40 MLOAD PUSH2 0x267 SWAP2 SWAP1 PUSH2 0x1DAC JUMP JUMPDEST PUSH1 0x40 MLOAD DUP1 SWAP2 SUB SWAP1 RETURN JUMPDEST PUSH2 0x278 PUSH2 0x974 JUMP JUMPDEST PUSH1 0x40 MLOAD PUSH2 0x285 SWAP2 SWAP1 PUSH2 0x1E6D JUMP JUMPDEST PUSH1 0x40 MLOAD DUP1 SWAP2 SUB SWAP1 RETURN JUMPDEST PUSH2 0x2A8 PUSH1 0x4 DUP1 CALLDATASIZE SUB DUP2 ADD SWAP1 PUSH2 0x2A3 SWAP2 SWAP1 PUSH2 0x1E8D JUMP JUMPDEST PUSH2 0xA17 JUMP JUMPDEST PUSH1 0x40 MLOAD PUSH2 0x2B5 SWAP2 SWAP1 PUSH2 0x1C82 JUMP JUMPDEST PUSH1 0x40 MLOAD DUP1 SWAP2 SUB SWAP1 RETURN JUMPDEST PUSH2 0x2D8 PUSH1 0x4 DUP1 CALLDATASIZE SUB DUP2 ADD SWAP1 PUSH2 0x2D3 SWAP2 SWAP1 PUSH2 0x1956 JUMP JUMPDEST PUSH2 0xABB JUMP JUMPDEST PUSH1 0x40 MLOAD PUSH2 0x2E5 SWAP2 SWAP1 PUSH2 0x1F21 JUMP JUMPDEST PUSH1 0x40 MLOAD DUP1 SWAP2 SUB SWAP1 RETURN JUMPDEST PUSH2 0x308 PUSH1 0x4 DUP1 CALLDATASIZE SUB DUP2 ADD SWAP1 PUSH2 0x303 SWAP2 SWAP1 PUSH2 0x1D4B JUMP JUMPDEST PUSH2 0xB66 JUMP JUMPDEST PUSH1 0x40 MLOAD PUSH2 0x315 SWAP2 SWAP1 PUSH2 0x1DAC JUMP JUMPDEST PUSH1 0x40 MLOAD DUP1 SWAP2 SUB SWAP1 RETURN JUMPDEST PUSH2 0x338 PUSH1 0x4 DUP1 CALLDATASIZE SUB DUP2 ADD SWAP1 PUSH2 0x333 SWAP2 SWAP1 PUSH2 0x1956 JUMP JUMPDEST PUSH2 0xC0A JUMP JUMPDEST PUSH1 0x40 MLOAD PUSH2 0x345 SWAP2 SWAP1 PUSH2 0x1FC2 JUMP JUMPDEST PUSH1 0x40 MLOAD DUP1 SWAP2 SUB SWAP1 RETURN JUMPDEST PUSH2 0x368 PUSH1 0x4 DUP1 CALLDATASIZE SUB DUP2 ADD SWAP1 PUSH2 0x363 SWAP2 SWAP1 PUSH2 0x20D5 JUMP JUMPDEST PUSH2 0xCB5 JUMP JUMPDEST PUSH1 0x40 MLOAD PUSH2 0x375 SWAP2 SWAP1 PUSH2 0x1C82 JUMP JUMPDEST PUSH1 0x40 MLOAD DUP1 SWAP2 SUB SWAP1 RETURN JUMPDEST PUSH2 0x398 PUSH1 0x4 DUP1 CALLDATASIZE SUB DUP2 ADD SWAP1 PUSH2 0x393 SWAP2 SWAP1 PUSH2 0x1D4B JUMP JUMPDEST PUSH2 0xDF4 JUMP JUMPDEST PUSH1 0x40 MLOAD PUSH2 0x3A5 SWAP2 SWAP1 PUSH2 0x1DAC JUMP JUMPDEST PUSH1 0x40 MLOAD DUP1 SWAP2 SUB SWAP1 RETURN JUMPDEST PUSH2 0x3B6 PUSH2 0xE97 JUMP JUMPDEST PUSH1 0x40 MLOAD PUSH2 0x3C3 SWAP2 SWAP1 PUSH2 0x1E6D JUMP JUMPDEST PUSH1 0x40 MLOAD DUP1 SWAP2 SUB SWAP1 RETURN JUMPDEST PUSH2 0x3E6 PUSH1 0x4 DUP1 CALLDATASIZE SUB DUP2 ADD SWAP1 PUSH2 0x3E1 SWAP2 SWAP1 PUSH2 0x1E8D JUMP JUMPDEST PUSH2 0xF3A JUMP JUMPDEST PUSH1 0x40 MLOAD PUSH2 0x3F3 SWAP2 SWAP1 PUSH2 0x1DAC JUMP JUMPDEST PUSH1 0x40 MLOAD DUP1 SWAP2 SUB SWAP1 RETURN JUMPDEST PUSH2 0x416 PUSH1 0x4 DUP1 CALLDATASIZE SUB DUP2 ADD SWAP1 PUSH2 0x411 SWAP2 SWAP1 PUSH2 0x1D4B JUMP JUMPDEST PUSH2 0xFDC JUMP JUMPDEST PUSH1 0x40 MLOAD PUSH2 0x423 SWAP2 SWAP1 PUSH2 0x1C82 JUMP JUMPDEST PUSH1 0x40 MLOAD DUP1 SWAP2 SUB SWAP1 RETURN JUMPDEST PUSH2 0x446 PUSH1 0x4 DUP1 CALLDATASIZE SUB DUP2 ADD SWAP1 PUSH2 0x441 SWAP2 SWAP1 PUSH2 0x21F9 JUMP JUMPDEST PUSH2 0x1080 JUMP JUMPDEST PUSH1 0x40 MLOAD PUSH2 0x453 SWAP2 SWAP1 PUSH2 0x1C82 JUMP JUMPDEST PUSH1 0x40 MLOAD DUP1 SWAP2 SUB SWAP1 RETURN JUMPDEST PUSH2 0x464 PUSH2 0x1122 JUMP JUMPDEST PUSH1 0x40 MLOAD PUSH2 0x471 SWAP2 SWAP1 PUSH2 0x1DAC JUMP JUMPDEST PUSH1 0x40 MLOAD DUP1 SWAP2 SUB SWAP1 RETURN JUMPDEST PUSH2 0x494 PUSH1 0x4 DUP1 CALLDATASIZE SUB DUP2 ADD SWAP1 PUSH2 0x48F SWAP2 SWAP1 PUSH2 0x1956 JUMP JUMPDEST PUSH2 0x1130 JUMP JUMPDEST PUSH1 0x40 MLOAD PUSH2 0x4A1 SWAP2 SWAP1 PUSH2 0x230C JUMP JUMPDEST PUSH1 0x40 MLOAD DUP1 SWAP2 SUB SWAP1 RETURN JUMPDEST PUSH2 0x4B2 PUSH2 0x11DB JUMP JUMPDEST PUSH1 0x40 MLOAD PUSH2 0x4BF SWAP2 SWAP1 PUSH2 0x1E6D JUMP JUMPDEST PUSH1 0x40 MLOAD DUP1 SWAP2 SUB SWAP1 RETURN JUMPDEST PUSH2 0x4E2 PUSH1 0x4 DUP1 CALLDATASIZE SUB DUP2 ADD SWAP1 PUSH2 0x4DD SWAP2 SWAP1 PUSH2 0x1D4B JUMP JUMPDEST PUSH2 0x127E JUMP JUMPDEST PUSH1 0x40 MLOAD PUSH2 0x4EF SWAP2 SWAP1 PUSH2 0x1DAC JUMP JUMPDEST PUSH1 0x40 MLOAD DUP1 SWAP2 SUB SWAP1 RETURN JUMPDEST PUSH2 0x500 PUSH2 0x185F JUMP JUMPDEST PUSH1 0x2 PUSH0 SWAP1 SLOAD SWAP1 PUSH2 0x100 EXP SWAP1 DIV PUSH20 0xFFFFFFFFFFFFFFFFFFFFFFFFFFFFFFFFFFFFFFFF AND PUSH20 0xFFFFFFFFFFFFFFFFFFFFFFFFFFFFFFFFFFFFFFFF AND PUSH4 0xB7AD54C DUP4 PUSH1 0x40 MLOAD DUP3 PUSH4 0xFFFFFFFF AND PUSH1 0xE0 SHL DUP2 MSTORE PUSH1 0x4 ADD PUSH2 0x55A SWAP2 SWAP1 PUSH2 0x1C82 JUMP JUMPDEST PUSH0 PUSH1 0x40 MLOAD DUP1 DUP4 SUB DUP2 DUP7 GAS STATICCALL ISZERO DUP1 ISZERO PUSH2 0x574 JUMPI RETURNDATASIZE PUSH0 DUP1 RETURNDATACOPY RETURNDATASIZE PUSH0 REVERT JUMPDEST POP POP POP POP PUSH1 0x40 MLOAD RETURNDATASIZE PUSH0 DUP3 RETURNDATACOPY RETURNDATASIZE PUSH1 0x1F NOT PUSH1 0x1F DUP3 ADD AND DUP3 ADD DUP1 PUSH1 0x40 MSTORE POP DUP2 ADD SWAP1 PUSH2 0x59C SWAP2 SWAP1 PUSH2 0x2483 JUMP JUMPDEST SWAP1 POP SWAP2 SWAP1 POP JUMP JUMPDEST PUSH0 PUSH1 0x4 PUSH0 SWAP1 SLOAD SWAP1 PUSH2 0x100 EXP SWAP1 DIV PUSH20 0xFFFFFFFFFFFFFFFFFFFFFFFFFFFFFFFFFFFFFFFF AND PUSH20 0xFFFFFFFFFFFFFFFFFFFFFFFFFFFFFFFFFFFFFFFF AND PUSH4 0xDDB50336 DUP5 DUP5 CALLER PUSH1 0x40 MLOAD DUP5 PUSH4 0xFFFFFFFF AND PUSH1 0xE0 SHL DUP2 MSTORE PUSH1 0x4 ADD PUSH2 0x602 SWAP4 SWAP3 SWAP2 SWAP1 PUSH2 0x24D9 JUMP JUMPDEST PUSH1 0x20 PUSH1 0x40 MLOAD DUP1 DUP4 SUB DUP2 PUSH0 DUP8 GAS CALL ISZERO DUP1 ISZERO PUSH2 0x61E JUMPI RETURNDATASIZE PUSH0 DUP1 RETURNDATACOPY RETURNDATASIZE PUSH0 REVERT JUMPDEST POP POP POP POP PUSH1 0x40 MLOAD RETURNDATASIZE PUSH1 0x1F NOT PUSH1 0x1F DUP3 ADD AND DUP3 ADD DUP1 PUSH1 0x40 MSTORE POP DUP2 ADD SWAP1 PUSH2 0x642 SWAP2 SWAP1 PUSH2 0x2515 JUMP JUMPDEST SWAP1 POP SWAP3 SWAP2 POP POP JUMP JUMPDEST PUSH0 PUSH1 0x5 PUSH0 SWAP1 SLOAD SWAP1 PUSH2 0x100 EXP SWAP1 DIV PUSH20 0xFFFFFFFFFFFFFFFFFFFFFFFFFFFFFFFFFFFFFFFF AND PUSH20 0xFFFFFFFFFFFFFFFFFFFFFFFFFFFFFFFFFFFFFFFF AND PUSH4 0x8B4B0282 DUP4 CALLER PUSH1 0x40 MLOAD DUP4 PUSH4 0xFFFFFFFF AND PUSH1 0xE0 SHL DUP2 MSTORE PUSH1 0x4 ADD PUSH2 0x6A7 SWAP3 SWAP2 SWAP1 PUSH2 0x2588 JUMP JUMPDEST PUSH1 0x20 PUSH1 0x40 MLOAD DUP1 DUP4 SUB DUP2 PUSH0 DUP8 GAS CALL ISZERO DUP1 ISZERO PUSH2 0x6C3 JUMPI RETURNDATASIZE PUSH0 DUP1 RETURNDATACOPY RETURNDATASIZE PUSH0 REVERT JUMPDEST POP POP POP POP PUSH1 0x40 MLOAD RETURNDATASIZE PUSH1 0x1F NOT PUSH1 0x1F DUP3 ADD AND DUP3 ADD DUP1 PUSH1 0x40 MSTORE POP DUP2 ADD SWAP1 PUSH2 0x6E7 SWAP2 SWAP1 PUSH2 0x2515 JUMP JUMPDEST SWAP1 POP SWAP2 SWAP1 POP JUMP JUMPDEST PUSH0 PUSH1 0x5 PUSH0 SWAP1 SLOAD SWAP1 PUSH2 0x100 EXP SWAP1 DIV PUSH20 0xFFFFFFFFFFFFFFFFFFFFFFFFFFFFFFFFFFFFFFFF AND PUSH20 0xFFFFFFFFFFFFFFFFFFFFFFFFFFFFFFFFFFFFFFFF AND PUSH4 0xFAB7D536 CALLER PUSH1 0x40 MLOAD DUP3 PUSH4 0xFFFFFFFF AND PUSH1 0xE0 SHL DUP2 MSTORE PUSH1 0x4 ADD PUSH2 0x749 SWAP2 SWAP1 PUSH2 0x25B6 JUMP JUMPDEST PUSH1 0x20 PUSH1 0x40 MLOAD DUP1 DUP4 SUB DUP2 DUP7 GAS STATICCALL ISZERO DUP1 ISZERO PUSH2 0x764 JUMPI RETURNDATASIZE PUSH0 DUP1 RETURNDATACOPY RETURNDATASIZE PUSH0 REVERT JUMPDEST POP POP POP POP PUSH1 0x40 MLOAD RETURNDATASIZE PUSH1 0x1F NOT PUSH1 0x1F DUP3 ADD AND DUP3 ADD DUP1 PUSH1 0x40 MSTORE POP DUP2 ADD SWAP1 PUSH2 0x788 SWAP2 SWAP1 PUSH2 0x2515 JUMP JUMPDEST SWAP1 POP SWAP1 JUMP JUMPDEST PUSH0 PUSH1 0x5 PUSH0 SWAP1 SLOAD SWAP1 PUSH2 0x100 EXP SWAP1 DIV PUSH20 0xFFFFFFFFFFFFFFFFFFFFFFFFFFFFFFFFFFFFFFFF AND PUSH20 0xFFFFFFFFFFFFFFFFFFFFFFFFFFFFFFFFFFFFFFFF AND PUSH4 0xFC49DD4D DUP4 CALLER PUSH1 0x40 MLOAD DUP4 PUSH4 0xFFFFFFFF AND PUSH1 0xE0 SHL DUP2 MSTORE PUSH1 0x4 ADD PUSH2 0x7EA SWAP3 SWAP2 SWAP1 PUSH2 0x2588 JUMP JUMPDEST PUSH1 0x20 PUSH1 0x40 MLOAD DUP1 DUP4 SUB DUP2 PUSH0 DUP8 GAS CALL ISZERO DUP1 ISZERO PUSH2 0x806 JUMPI RETURNDATASIZE PUSH0 DUP1 RETURNDATACOPY RETURNDATASIZE PUSH0 REVERT JUMPDEST POP POP POP POP PUSH1 0x40 MLOAD RETURNDATASIZE PUSH1 0x1F NOT PUSH1 0x1F DUP3 ADD AND DUP3 ADD DUP1 PUSH1 0x40 MSTORE POP DUP2 ADD SWAP1 PUSH2 0x82A SWAP2 SWAP1 PUSH2 0x2515 JUMP JUMPDEST SWAP1 POP SWAP2 SWAP1 POP JUMP JUMPDEST PUSH0 PUSH1 0x6 PUSH0 SWAP1 SLOAD SWAP1 PUSH2 0x100 EXP SWAP1 DIV PUSH20 0xFFFFFFFFFFFFFFFFFFFFFFFFFFFFFFFFFFFFFFFF AND PUSH20 0xFFFFFFFFFFFFFFFFFFFFFFFFFFFFFFFFFFFFFFFF AND PUSH4 0xC00007B0 CALLER PUSH1 0x40 MLOAD DUP3 PUSH4 0xFFFFFFFF AND PUSH1 0xE0 SHL DUP2 MSTORE PUSH1 0x4 ADD PUSH2 0x88C SWAP2 SWAP1 PUSH2 0x25B6 JUMP JUMPDEST PUSH1 0x20 PUSH1 0x40 MLOAD DUP1 DUP4 SUB DUP2 DUP7 GAS STATICCALL ISZERO DUP1 ISZERO PUSH2 0x8A7 JUMPI RETURNDATASIZE PUSH0 DUP1 RETURNDATACOPY RETURNDATASIZE PUSH0 REVERT JUMPDEST POP POP POP POP PUSH1 0x40 MLOAD RETURNDATASIZE PUSH1 0x1F NOT PUSH1 0x1F DUP3 ADD AND DUP3 ADD DUP1 PUSH1 0x40 MSTORE POP DUP2 ADD SWAP1 PUSH2 0x8CB SWAP2 SWAP1 PUSH2 0x2515 JUMP JUMPDEST SWAP1 POP SWAP1 JUMP JUMPDEST PUSH0 PUSH1 0x5 PUSH0 SWAP1 SLOAD SWAP1 PUSH2 0x100 EXP SWAP1 DIV PUSH20 0xFFFFFFFFFFFFFFFFFFFFFFFFFFFFFFFFFFFFFFFF AND PUSH20 0xFFFFFFFFFFFFFFFFFFFFFFFFFFFFFFFFFFFFFFFF AND PUSH4 0xF9CACA2 DUP4 CALLER PUSH1 0x40 MLOAD DUP4 PUSH4 0xFFFFFFFF AND PUSH1 0xE0 SHL DUP2 MSTORE PUSH1 0x4 ADD PUSH2 0x92D SWAP3 SWAP2 SWAP1 PUSH2 0x2588 JUMP JUMPDEST PUSH1 0x20 PUSH1 0x40 MLOAD DUP1 DUP4 SUB DUP2 PUSH0 DUP8 GAS CALL ISZERO DUP1 ISZERO PUSH2 0x949 JUMPI RETURNDATASIZE PUSH0 DUP1 RETURNDATACOPY RETURNDATASIZE PUSH0 REVERT JUMPDEST POP POP POP POP PUSH1 0x40 MLOAD RETURNDATASIZE PUSH1 0x1F NOT PUSH1 0x1F DUP3 ADD AND DUP3 ADD DUP1 PUSH1 0x40 MSTORE POP DUP2 ADD SWAP1 PUSH2 0x96D SWAP2 SWAP1 PUSH2 0x25F9 JUMP JUMPDEST SWAP1 POP SWAP2 SWAP1 POP JUMP JUMPDEST PUSH1 0x60 PUSH1 0x3 PUSH0 SWAP1 SLOAD SWAP1 PUSH2 0x100 EXP SWAP1 DIV PUSH20 0xFFFFFFFFFFFFFFFFFFFFFFFFFFFFFFFFFFFFFFFF AND PUSH20 0xFFFFFFFFFFFFFFFFFFFFFFFFFFFFFFFFFFFFFFFF AND PUSH4 0xB2F71322 CALLER PUSH1 0x40 MLOAD DUP3 PUSH4 0xFFFFFFFF AND PUSH1 0xE0 SHL DUP2 MSTORE PUSH1 0x4 ADD PUSH2 0x9D0 SWAP2 SWAP1 PUSH2 0x25B6 JUMP JUMPDEST PUSH0 PUSH1 0x40 MLOAD DUP1 DUP4 SUB DUP2 DUP7 GAS STATICCALL ISZERO DUP1 ISZERO PUSH2 0x9EA JUMPI RETURNDATASIZE PUSH0 DUP1 RETURNDATACOPY RETURNDATASIZE PUSH0 REVERT JUMPDEST POP POP POP POP PUSH1 0x40 MLOAD RETURNDATASIZE PUSH0 DUP3 RETURNDATACOPY RETURNDATASIZE PUSH1 0x1F NOT PUSH1 0x1F DUP3 ADD AND DUP3 ADD DUP1 PUSH1 0x40 MSTORE POP DUP2 ADD SWAP1 PUSH2 0xA12 SWAP2 SWAP1 PUSH2 0x26B9 JUMP JUMPDEST SWAP1 POP SWAP1 JUMP JUMPDEST PUSH0 PUSH1 0x4 PUSH0 SWAP1 SLOAD SWAP1 PUSH2 0x100 EXP SWAP1 DIV PUSH20 0xFFFFFFFFFFFFFFFFFFFFFFFFFFFFFFFFFFFFFFFF AND PUSH20 0xFFFFFFFFFFFFFFFFFFFFFFFFFFFFFFFFFFFFFFFF AND PUSH4 0xD5370905 DUP4 CALLER PUSH1 0x40 MLOAD DUP4 PUSH4 0xFFFFFFFF AND PUSH1 0xE0 SHL DUP2 MSTORE PUSH1 0x4 ADD PUSH2 0xA74 SWAP3 SWAP2 SWAP1 PUSH2 0x2700 JUMP JUMPDEST PUSH1 0x20 PUSH1 0x40 MLOAD DUP1 DUP4 SUB DUP2 PUSH0 DUP8 GAS CALL ISZERO DUP1 ISZERO PUSH2 0xA90 JUMPI RETURNDATASIZE PUSH0 DUP1 RETURNDATACOPY RETURNDATASIZE PUSH0 REVERT JUMPDEST POP POP POP POP PUSH1 0x40 MLOAD RETURNDATASIZE PUSH1 0x1F NOT PUSH1 0x1F DUP3 ADD AND DUP3 ADD DUP1 PUSH1 0x40 MSTORE POP DUP2 ADD SWAP1 PUSH2 0xAB4 SWAP2 SWAP1 PUSH2 0x2515 JUMP JUMPDEST SWAP1 POP SWAP2 SWAP1 POP JUMP JUMPDEST PUSH2 0xAC3 PUSH2 0x18A1 JUMP JUMPDEST PUSH1 0x5 PUSH0 SWAP1 SLOAD SWAP1 PUSH2 0x100 EXP SWAP1 DIV PUSH20 0xFFFFFFFFFFFFFFFFFFFFFFFFFFFFFFFFFFFFFFFF AND PUSH20 0xFFFFFFFFFFFFFFFFFFFFFFFFFFFFFFFFFFFFFFFF AND PUSH4 0x80127F7E DUP4 PUSH1 0x40 MLOAD DUP3 PUSH4 0xFFFFFFFF AND PUSH1 0xE0 SHL DUP2 MSTORE PUSH1 0x4 ADD PUSH2 0xB1D SWAP2 SWAP1 PUSH2 0x1C82 JUMP JUMPDEST PUSH0 PUSH1 0x40 MLOAD DUP1 DUP4 SUB DUP2 DUP7 GAS STATICCALL ISZERO DUP1 ISZERO PUSH2 0xB37 JUMPI RETURNDATASIZE PUSH0 DUP1 RETURNDATACOPY RETURNDATASIZE PUSH0 REVERT JUMPDEST POP POP POP POP PUSH1 0x40 MLOAD RETURNDATASIZE PUSH0 DUP3 RETURNDATACOPY RETURNDATASIZE PUSH1 0x1F NOT PUSH1 0x1F DUP3 ADD AND DUP3 ADD DUP1 PUSH1 0x40 MSTORE POP DUP2 ADD SWAP1 PUSH2 0xB5F SWAP2 SWAP1 PUSH2 0x27AB JUMP JUMPDEST SWAP1 POP SWAP2 SWAP1 POP JUMP JUMPDEST PUSH0 PUSH1 0x5 PUSH0 SWAP1 SLOAD SWAP1 PUSH2 0x100 EXP SWAP1 DIV PUSH20 0xFFFFFFFFFFFFFFFFFFFFFFFFFFFFFFFFFFFFFFFF AND PUSH20 0xFFFFFFFFFFFFFFFFFFFFFFFFFFFFFFFFFFFFFFFF AND PUSH4 0x1E40142 DUP4 CALLER PUSH1 0x40 MLOAD DUP4 PUSH4 0xFFFFFFFF AND PUSH1 0xE0 SHL DUP2 MSTORE PUSH1 0x4 ADD PUSH2 0xBC3 SWAP3 SWAP2 SWAP1 PUSH2 0x2588 JUMP JUMPDEST PUSH1 0x20 PUSH1 0x40 MLOAD DUP1 DUP4 SUB DUP2 PUSH0 DUP8 GAS CALL ISZERO DUP1 ISZERO PUSH2 0xBDF JUMPI RETURNDATASIZE PUSH0 DUP1 RETURNDATACOPY RETURNDATASIZE PUSH0 REVERT JUMPDEST POP POP POP POP PUSH1 0x40 MLOAD RETURNDATASIZE PUSH1 0x1F NOT PUSH1 0x1F DUP3 ADD AND DUP3 ADD DUP1 PUSH1 0x40 MSTORE POP DUP2 ADD SWAP1 PUSH2 0xC03 SWAP2 SWAP1 PUSH2 0x25F9 JUMP JUMPDEST SWAP1 POP SWAP2 SWAP1 POP JUMP JUMPDEST PUSH2 0xC12 PUSH2 0x18C0 JUMP JUMPDEST PUSH1 0x3 PUSH0 SWAP1 SLOAD SWAP1 PUSH2 0x100 EXP SWAP1 DIV PUSH20 0xFFFFFFFFFFFFFFFFFFFFFFFFFFFFFFFFFFFFFFFF AND PUSH20 0xFFFFFFFFFFFFFFFFFFFFFFFFFFFFFFFFFFFFFFFF AND PUSH4 0x86F79EDB DUP4 PUSH1 0x40 MLOAD DUP3 PUSH4 0xFFFFFFFF AND PUSH1 0xE0 SHL DUP2 MSTORE PUSH1 0x4 ADD PUSH2 0xC6C SWAP2 SWAP1 PUSH2 0x1C82 JUMP JUMPDEST PUSH0 PUSH1 0x40 MLOAD DUP1 DUP4 SUB DUP2 DUP7 GAS STATICCALL ISZERO DUP1 ISZERO PUSH2 0xC86 JUMPI RETURNDATASIZE PUSH0 DUP1 RETURNDATACOPY RETURNDATASIZE PUSH0 REVERT JUMPDEST POP POP POP POP PUSH1 0x40 MLOAD RETURNDATASIZE PUSH0 DUP3 RETURNDATACOPY RETURNDATASIZE PUSH1 0x1F NOT PUSH1 0x1F DUP3 ADD AND DUP3 ADD DUP1 PUSH1 0x40 MSTORE POP DUP2 ADD SWAP1 PUSH2 0xCAE SWAP2 SWAP1 PUSH2 0x28CF JUMP JUMPDEST SWAP1 POP SWAP2 SWAP1 POP JUMP JUMPDEST PUSH0 PUSH1 0x2 PUSH0 SWAP1 SLOAD SWAP1 PUSH2 0x100 EXP SWAP1 DIV PUSH20 0xFFFFFFFFFFFFFFFFFFFFFFFFFFFFFFFFFFFFFFFF AND PUSH20 0xFFFFFFFFFFFFFFFFFFFFFFFFFFFFFFFFFFFFFFFF AND PUSH4 0x8F4A3807 DUP4 PUSH1 0x40 MLOAD DUP3 PUSH4 0xFFFFFFFF AND PUSH1 0xE0 SHL DUP2 MSTORE PUSH1 0x4 ADD PUSH2 0xD10 SWAP2 SWAP1 PUSH2 0x1AB9 JUMP JUMPDEST PUSH1 0x20 PUSH1 0x40 MLOAD DUP1 DUP4 SUB DUP2 PUSH0 DUP8 GAS CALL ISZERO DUP1 ISZERO PUSH2 0xD2C JUMPI RETURNDATASIZE PUSH0 DUP1 RETURNDATACOPY RETURNDATASIZE PUSH0 REVERT JUMPDEST POP POP POP POP PUSH1 0x40 MLOAD RETURNDATASIZE PUSH1 0x1F NOT PUSH1 0x1F DUP3 ADD AND DUP3 ADD DUP1 PUSH1 0x40 MSTORE POP DUP2 ADD SWAP1 PUSH2 0xD50 SWAP2 SWAP1 PUSH2 0x2515 JUMP JUMPDEST SWAP1 POP PUSH1 0x4 PUSH0 SWAP1 SLOAD SWAP1 PUSH2 0x100 EXP SWAP1 DIV PUSH20 0xFFFFFFFFFFFFFFFFFFFFFFFFFFFFFFFFFFFFFFFF AND PUSH20 0xFFFFFFFFFFFFFFFFFFFFFFFFFFFFFFFFFFFFFFFF AND PUSH4 0x276384B5 DUP3 CALLER PUSH1 0x40 MLOAD DUP4 PUSH4 0xFFFFFFFF AND PUSH1 0xE0 SHL DUP2 MSTORE PUSH1 0x4 ADD PUSH2 0xDAE SWAP3 SWAP2 SWAP1 PUSH2 0x2916 JUMP JUMPDEST PUSH1 0x20 PUSH1 0x40 MLOAD DUP1 DUP4 SUB DUP2 PUSH0 DUP8 GAS CALL ISZERO DUP1 ISZERO PUSH2 0xDCA JUMPI RETURNDATASIZE PUSH0 DUP1 RETURNDATACOPY RETURNDATASIZE PUSH0 REVERT JUMPDEST POP POP POP POP PUSH1 0x40 MLOAD RETURNDATASIZE PUSH1 0x1F NOT PUSH1 0x1F DUP3 ADD AND DUP3 ADD DUP1 PUSH1 0x40 MSTORE POP DUP2 ADD SWAP1 PUSH2 0xDEE SWAP2 SWAP1 PUSH2 0x25F9 JUMP JUMPDEST POP SWAP2 SWAP1 POP JUMP JUMPDEST PUSH0 PUSH1 0x5 PUSH0 SWAP1 SLOAD SWAP1 PUSH2 0x100 EXP SWAP1 DIV PUSH20 0xFFFFFFFFFFFFFFFFFFFFFFFFFFFFFFFFFFFFFFFF AND PUSH20 0xFFFFFFFFFFFFFFFFFFFFFFFFFFFFFFFFFFFFFFFF AND PUSH4 0xFE658B60 DUP4 CALLER PUSH1 0x40 MLOAD DUP4 PUSH4 0xFFFFFFFF AND PUSH1 0xE0 SHL DUP2 MSTORE PUSH1 0x4 ADD PUSH2 0xE51 SWAP3 SWAP2 SWAP1 PUSH2 0x2588 JUMP JUMPDEST PUSH1 0x20 PUSH1 0x40 MLOAD DUP1 DUP4 SUB DUP2 DUP7 GAS STATICCALL ISZERO DUP1 ISZERO PUSH2 0xE6C JUMPI RETURNDATASIZE PUSH0 DUP1 RETURNDATACOPY RETURNDATASIZE PUSH0 REVERT JUMPDEST POP POP POP POP PUSH1 0x40 MLOAD RETURNDATASIZE PUSH1 0x1F NOT PUSH1 0x1F DUP3 ADD AND DUP3 ADD DUP1 PUSH1 0x40 MSTORE POP DUP2 ADD SWAP1 PUSH2 0xE90 SWAP2 SWAP1 PUSH2 0x25F9 JUMP JUMPDEST SWAP1 POP SWAP2 SWAP1 POP JUMP JUMPDEST PUSH1 0x60 PUSH1 0x5 PUSH0 SWAP1 SLOAD SWAP1 PUSH2 0x100 EXP SWAP1 DIV PUSH20 0xFFFFFFFFFFFFFFFFFFFFFFFFFFFFFFFFFFFFFFFF AND PUSH20 0xFFFFFFFFFFFFFFFFFFFFFFFFFFFFFFFFFFFFFFFF AND PUSH4 0xEB0EEB10 CALLER PUSH1 0x40 MLOAD DUP3 PUSH4 0xFFFFFFFF AND PUSH1 0xE0 SHL DUP2 MSTORE PUSH1 0x4 ADD PUSH2 0xEF3 SWAP2 SWAP1 PUSH2 0x25B6 JUMP JUMPDEST PUSH0 PUSH1 0x40 MLOAD DUP1 DUP4 SUB DUP2 DUP7 GAS STATICCALL ISZERO DUP1 ISZERO PUSH2 0xF0D JUMPI RETURNDATASIZE PUSH0 DUP1 RETURNDATACOPY RETURNDATASIZE PUSH0 REVERT JUMPDEST POP POP POP POP PUSH1 0x40 MLOAD RETURNDATASIZE PUSH0 DUP3 RETURNDATACOPY RETURNDATASIZE PUSH1 0x1F NOT PUSH1 0x1F DUP3 ADD AND DUP3 ADD DUP1 PUSH1 0x40 MSTORE POP DUP2 ADD SWAP1 PUSH2 0xF35 SWAP2 SWAP1 PUSH2 0x26B9 JUMP JUMPDEST SWAP1 POP SWAP1 JUMP JUMPDEST PUSH0 PUSH1 0x3 PUSH0 SWAP1 SLOAD SWAP1 PUSH2 0x100 EXP SWAP1 DIV PUSH20 0xFFFFFFFFFFFFFFFFFFFFFFFFFFFFFFFFFFFFFFFF AND PUSH20 0xFFFFFFFFFFFFFFFFFFFFFFFFFFFFFFFFFFFFFFFF AND PUSH4 0xAA5724C9 DUP4 PUSH1 0x40 MLOAD DUP3 PUSH4 0xFFFFFFFF AND PUSH1 0xE0 SHL DUP2 MSTORE PUSH1 0x4 ADD PUSH2 0xF95 SWAP2 SWAP1 PUSH2 0x1E6D JUMP JUMPDEST PUSH1 0x20 PUSH1 0x40 MLOAD DUP1 DUP4 SUB DUP2 PUSH0 DUP8 GAS CALL ISZERO DUP1 ISZERO PUSH2 0xFB1 JUMPI RETURNDATASIZE PUSH0 DUP1 RETURNDATACOPY RETURNDATASIZE PUSH0 REVERT JUMPDEST POP POP POP POP PUSH1 0x40 MLOAD RETURNDATASIZE PUSH1 0x1F NOT PUSH1 0x1F DUP3 ADD AND DUP3 ADD DUP1 PUSH1 0x40 MSTORE POP DUP2 ADD SWAP1 PUSH2 0xFD5 SWAP2 SWAP1 PUSH2 0x25F9 JUMP JUMPDEST SWAP1 POP SWAP2 SWAP1 POP JUMP JUMPDEST PUSH0 PUSH1 0x1 PUSH0 SWAP1 SLOAD SWAP1 PUSH2 0x100 EXP SWAP1 DIV PUSH20 0xFFFFFFFFFFFFFFFFFFFFFFFFFFFFFFFFFFFFFFFF AND PUSH20 0xFFFFFFFFFFFFFFFFFFFFFFFFFFFFFFFFFFFFFFFF AND PUSH4 0xF3B95C46 DUP4 CALLER PUSH1 0x40 MLOAD DUP4 PUSH4 0xFFFFFFFF AND PUSH1 0xE0 SHL DUP2 MSTORE PUSH1 0x4 ADD PUSH2 0x1039 SWAP3 SWAP2 SWAP1 PUSH2 0x2588 JUMP JUMPDEST PUSH1 0x20 PUSH1 0x40 MLOAD DUP1 DUP4 SUB DUP2 PUSH0 DUP8 GAS CALL ISZERO DUP1 ISZERO PUSH2 0x1055 JUMPI RETURNDATASIZE PUSH0 DUP1 RETURNDATACOPY RETURNDATASIZE PUSH0 REVERT JUMPDEST POP POP POP POP PUSH1 0x40 MLOAD RETURNDATASIZE PUSH1 0x1F NOT PUSH1 0x1F DUP3 ADD AND DUP3 ADD DUP1 PUSH1 0x40 MSTORE POP DUP2 ADD SWAP1 PUSH2 0x1079 SWAP2 SWAP1 PUSH2 0x2515 JUMP JUMPDEST SWAP1 POP SWAP2 SWAP1 POP JUMP JUMPDEST PUSH0 PUSH1 0x3 PUSH0 SWAP1 SLOAD SWAP1 PUSH2 0x100 EXP SWAP1 DIV PUSH20 0xFFFFFFFFFFFFFFFFFFFFFFFFFFFFFFFFFFFFFFFF AND PUSH20 0xFFFFFFFFFFFFFFFFFFFFFFFFFFFFFFFFFFFFFFFF AND PUSH4 0xCA8D458F DUP4 PUSH1 0x40 MLOAD DUP3 PUSH4 0xFFFFFFFF AND PUSH1 0xE0 SHL DUP2 MSTORE PUSH1 0x4 ADD PUSH2 0x10DB SWAP2 SWAP1 PUSH2 0x1FC2 JUMP JUMPDEST PUSH1 0x20 PUSH1 0x40 MLOAD DUP1 DUP4 SUB DUP2 PUSH0 DUP8 GAS CALL ISZERO DUP1 ISZERO PUSH2 0x10F7 JUMPI RETURNDATASIZE PUSH0 DUP1 RETURNDATACOPY RETURNDATASIZE PUSH0 REVERT JUMPDEST POP POP POP POP PUSH1 0x40 MLOAD RETURNDATASIZE PUSH1 0x1F NOT PUSH1 0x1F DUP3 ADD AND DUP3 ADD DUP1 PUSH1 0x40 MSTORE POP DUP2 ADD SWAP1 PUSH2 0x111B SWAP2 SWAP1 PUSH2 0x2515 JUMP JUMPDEST SWAP1 POP SWAP2 SWAP1 POP JUMP JUMPDEST PUSH0 PUSH2 0x112B PUSH2 0x131F JUMP JUMPDEST SWAP1 POP SWAP1 JUMP JUMPDEST PUSH2 0x1138 PUSH2 0x18ED JUMP JUMPDEST PUSH1 0x4 PUSH0 SWAP1 SLOAD SWAP1 PUSH2 0x100 EXP SWAP1 DIV PUSH20 0xFFFFFFFFFFFFFFFFFFFFFFFFFFFFFFFFFFFFFFFF AND PUSH20 0xFFFFFFFFFFFFFFFFFFFFFFFFFFFFFFFFFFFFFFFF AND PUSH4 0xCFB5A5F8 DUP4 PUSH1 0x40 MLOAD DUP3 PUSH4 0xFFFFFFFF AND PUSH1 0xE0 SHL DUP2 MSTORE PUSH1 0x4 ADD PUSH2 0x1192 SWAP2 SWAP1 PUSH2 0x1C82 JUMP JUMPDEST PUSH0 PUSH1 0x40 MLOAD DUP1 DUP4 SUB DUP2 DUP7 GAS STATICCALL ISZERO DUP1 ISZERO PUSH2 0x11AC JUMPI RETURNDATASIZE PUSH0 DUP1 RETURNDATACOPY RETURNDATASIZE PUSH0 REVERT JUMPDEST POP POP POP POP PUSH1 0x40 MLOAD RETURNDATASIZE PUSH0 DUP3 RETURNDATACOPY RETURNDATASIZE PUSH1 0x1F NOT PUSH1 0x1F DUP3 ADD AND DUP3 ADD DUP1 PUSH1 0x40 MSTORE POP DUP2 ADD SWAP1 PUSH2 0x11D4 SWAP2 SWAP1 PUSH2 0x29CE JUMP JUMPDEST SWAP1 POP SWAP2 SWAP1 POP JUMP JUMPDEST PUSH1 0x60 PUSH1 0x4 PUSH0 SWAP1 SLOAD SWAP1 PUSH2 0x100 EXP SWAP1 DIV PUSH20 0xFFFFFFFFFFFFFFFFFFFFFFFFFFFFFFFFFFFFFFFF AND PUSH20 0xFFFFFFFFFFFFFFFFFFFFFFFFFFFFFFFFFFFFFFFF AND PUSH4 0x16B8E731 CALLER PUSH1 0x40 MLOAD DUP3 PUSH4 0xFFFFFFFF AND PUSH1 0xE0 SHL DUP2 MSTORE PUSH1 0x4 ADD PUSH2 0x1237 SWAP2 SWAP1 PUSH2 0x25B6 JUMP JUMPDEST PUSH0 PUSH1 0x40 MLOAD DUP1 DUP4 SUB DUP2 DUP7 GAS STATICCALL ISZERO DUP1 ISZERO PUSH2 0x1251 JUMPI RETURNDATASIZE PUSH0 DUP1 RETURNDATACOPY RETURNDATASIZE PUSH0 REVERT JUMPDEST POP POP POP POP PUSH1 0x40 MLOAD RETURNDATASIZE PUSH0 DUP3 RETURNDATACOPY RETURNDATASIZE PUSH1 0x1F NOT PUSH1 0x1F DUP3 ADD AND DUP3 ADD DUP1 PUSH1 0x40 MSTORE POP DUP2 ADD SWAP1 PUSH2 0x1279 SWAP2 SWAP1 PUSH2 0x26B9 JUMP JUMPDEST SWAP1 POP SWAP1 JUMP JUMPDEST PUSH0 PUSH1 0x1 PUSH0 SWAP1 SLOAD SWAP1 PUSH2 0x100 EXP SWAP1 DIV PUSH20 0xFFFFFFFFFFFFFFFFFFFFFFFFFFFFFFFFFFFFFFFF AND PUSH20 0xFFFFFFFFFFFFFFFFFFFFFFFFFFFFFFFFFFFFFFFF AND PUSH4 0xDE0C9B6A DUP4 PUSH1 0x40 MLOAD DUP3 PUSH4 0xFFFFFFFF AND PUSH1 0xE0 SHL DUP2 MSTORE PUSH1 0x4 ADD PUSH2 0x12D9 SWAP2 SWAP1 PUSH2 0x2A15 JUMP JUMPDEST PUSH1 0x20 PUSH1 0x40 MLOAD DUP1 DUP4 SUB DUP2 DUP7 GAS STATICCALL ISZERO DUP1 ISZERO PUSH2 0x12F4 JUMPI RETURNDATASIZE PUSH0 DUP1 RETURNDATACOPY RETURNDATASIZE PUSH0 REVERT JUMPDEST POP POP POP POP PUSH1 0x40 MLOAD RETURNDATASIZE PUSH1 0x1F NOT PUSH1 0x1F DUP3 ADD AND DUP3 ADD DUP1 PUSH1 0x40 MSTORE POP DUP2 ADD SWAP1 PUSH2 0x1318 SWAP2 SWAP1 PUSH2 0x25F9 JUMP JUMPDEST SWAP1 POP SWAP2 SWAP1 POP JUMP JUMPDEST PUSH0 DUP1 PUSH0 SWAP1 SLOAD SWAP1 PUSH2 0x100 EXP SWAP1 DIV PUSH20 0xFFFFFFFFFFFFFFFFFFFFFFFFFFFFFFFFFFFFFFFF AND PUSH20 0xFFFFFFFFFFFFFFFFFFFFFFFFFFFFFFFFFFFFFFFF AND PUSH4 0xBF40FAC1 PUSH1 0x40 MLOAD DUP1 PUSH1 0x40 ADD PUSH1 0x40 MSTORE DUP1 PUSH1 0x15 DUP2 MSTORE PUSH1 0x20 ADD PUSH32 0x52455345525645445F4E414D455F4D414E414745520000000000000000000000 DUP2 MSTORE POP PUSH1 0x40 MLOAD DUP3 PUSH4 0xFFFFFFFF AND PUSH1 0xE0 SHL DUP2 MSTORE PUSH1 0x4 ADD PUSH2 0x13AE SWAP2 SWAP1 PUSH2 0x2A15 JUMP JUMPDEST PUSH1 0x20 PUSH1 0x40 MLOAD DUP1 DUP4 SUB DUP2 DUP7 GAS STATICCALL ISZERO DUP1 ISZERO PUSH2 0x13C9 JUMPI RETURNDATASIZE PUSH0 DUP1 RETURNDATACOPY RETURNDATASIZE PUSH0 REVERT JUMPDEST POP POP POP POP PUSH1 0x40 MLOAD RETURNDATASIZE PUSH1 0x1F NOT PUSH1 0x1F DUP3 ADD AND DUP3 ADD DUP1 PUSH1 0x40 MSTORE POP DUP2 ADD SWAP1 PUSH2 0x13ED SWAP2 SWAP1 PUSH2 0x2A35 JUMP JUMPDEST PUSH1 0x1 PUSH0 PUSH2 0x100 EXP DUP2 SLOAD DUP2 PUSH20 0xFFFFFFFFFFFFFFFFFFFFFFFFFFFFFFFFFFFFFFFF MUL NOT AND SWAP1 DUP4 PUSH20 0xFFFFFFFFFFFFFFFFFFFFFFFFFFFFFFFFFFFFFFFF AND MUL OR SWAP1 SSTORE POP PUSH0 DUP1 SLOAD SWAP1 PUSH2 0x100 EXP SWAP1 DIV PUSH20 0xFFFFFFFFFFFFFFFFFFFFFFFFFFFFFFFFFFFFFFFF AND PUSH20 0xFFFFFFFFFFFFFFFFFFFFFFFFFFFFFFFFFFFFFFFF AND PUSH4 0xBF40FAC1 PUSH1 0x40 MLOAD DUP1 PUSH1 0x40 ADD PUSH1 0x40 MSTORE DUP1 PUSH1 0x18 DUP2 MSTORE PUSH1 0x20 ADD PUSH32 0x52455345525645445F434F4E54454E545F4D414E414745520000000000000000 DUP2 MSTORE POP PUSH1 0x40 MLOAD DUP3 PUSH4 0xFFFFFFFF AND PUSH1 0xE0 SHL DUP2 MSTORE PUSH1 0x4 ADD PUSH2 0x14B9 SWAP2 SWAP1 PUSH2 0x2A15 JUMP JUMPDEST PUSH1 0x20 PUSH1 0x40 MLOAD DUP1 DUP4 SUB DUP2 DUP7 GAS STATICCALL ISZERO DUP1 ISZERO PUSH2 0x14D4 JUMPI RETURNDATASIZE PUSH0 DUP1 RETURNDATACOPY RETURNDATASIZE PUSH0 REVERT JUMPDEST POP POP POP POP PUSH1 0x40 MLOAD RETURNDATASIZE PUSH1 0x1F NOT PUSH1 0x1F DUP3 ADD AND DUP3 ADD DUP1 PUSH1 0x40 MSTORE POP DUP2 ADD SWAP1 PUSH2 0x14F8 SWAP2 SWAP1 PUSH2 0x2A35 JUMP JUMPDEST PUSH1 0x2 PUSH0 PUSH2 0x100 EXP DUP2 SLOAD DUP2 PUSH20 0xFFFFFFFFFFFFFFFFFFFFFFFFFFFFFFFFFFFFFFFF MUL NOT AND SWAP1 DUP4 PUSH20 0xFFFFFFFFFFFFFFFFFFFFFFFFFFFFFFFFFFFFFFFF AND MUL OR SWAP1 SSTORE POP PUSH0 DUP1 SLOAD SWAP1 PUSH2 0x100 EXP SWAP1 DIV PUSH20 0xFFFFFFFFFFFFFFFFFFFFFFFFFFFFFFFFFFFFFFFF AND PUSH20 0xFFFFFFFFFFFFFFFFFFFFFFFFFFFFFFFFFFFFFFFF AND PUSH4 0xBF40FAC1 PUSH1 0x40 MLOAD DUP1 PUSH1 0x40 ADD PUSH1 0x40 MSTORE DUP1 PUSH1 0x18 DUP2 MSTORE PUSH1 0x20 ADD PUSH32 0x52455345525645445F4D4553534147455F4D414E414745520000000000000000 DUP2 MSTORE POP PUSH1 0x40 MLOAD DUP3 PUSH4 0xFFFFFFFF AND PUSH1 0xE0 SHL DUP2 MSTORE PUSH1 0x4 ADD PUSH2 0x15C4 SWAP2 SWAP1 PUSH2 0x2A15 JUMP JUMPDEST PUSH1 0x20 PUSH1 0x40 MLOAD DUP1 DUP4 SUB DUP2 DUP7 GAS STATICCALL ISZERO DUP1 ISZERO PUSH2 0x15DF JUMPI RETURNDATASIZE PUSH0 DUP1 RETURNDATACOPY RETURNDATASIZE PUSH0 REVERT JUMPDEST POP POP POP POP PUSH1 0x40 MLOAD RETURNDATASIZE PUSH1 0x1F NOT PUSH1 0x1F DUP3 ADD AND DUP3 ADD DUP1 PUSH1 0x40 MSTORE POP DUP2 ADD SWAP1 PUSH2 0x1603 SWAP2 SWAP1 PUSH2 0x2A35 JUMP JUMPDEST PUSH1 0x3 PUSH0 PUSH2 0x100 EXP DUP2 SLOAD DUP2 PUSH20 0xFFFFFFFFFFFFFFFFFFFFFFFFFFFFFFFFFFFFFFFF MUL NOT AND SWAP1 DUP4 PUSH20 0xFFFFFFFFFFFFFFFFFFFFFFFFFFFFFFFFFFFFFFFF AND MUL OR SWAP1 SSTORE POP PUSH0 DUP1 SLOAD SWAP1 PUSH2 0x100 EXP SWAP1 DIV PUSH20 0xFFFFFFFFFFFFFFFFFFFFFFFFFFFFFFFFFFFFFFFF AND PUSH20 0xFFFFFFFFFFFFFFFFFFFFFFFFFFFFFFFFFFFFFFFF AND PUSH4 0xBF40FAC1 PUSH1 0x40 MLOAD DUP1 PUSH1 0x40 ADD PUSH1 0x40 MSTORE DUP1 PUSH1 0x15 DUP2 MSTORE PUSH1 0x20 ADD PUSH32 0x52455345525645445F464545445F4D414E414745520000000000000000000000 DUP2 MSTORE POP PUSH1 0x40 MLOAD DUP3 PUSH4 0xFFFFFFFF AND PUSH1 0xE0 SHL DUP2 MSTORE PUSH1 0x4 ADD PUSH2 0x16CF SWAP2 SWAP1 PUSH2 0x2A15 JUMP JUMPDEST PUSH1 0x20 PUSH1 0x40 MLOAD DUP1 DUP4 SUB DUP2 DUP7 GAS STATICCALL ISZERO DUP1 ISZERO PUSH2 0x16EA JUMPI RETURNDATASIZE PUSH0 DUP1 RETURNDATACOPY RETURNDATASIZE PUSH0 REVERT JUMPDEST POP POP POP POP PUSH1 0x40 MLOAD RETURNDATASIZE PUSH1 0x1F NOT PUSH1 0x1F DUP3 ADD AND DUP3 ADD DUP1 PUSH1 0x40 MSTORE POP DUP2 ADD SWAP1 PUSH2 0x170E SWAP2 SWAP1 PUSH2 0x2A35 JUMP JUMPDEST PUSH1 0x4 PUSH0 PUSH2 0x100 EXP DUP2 SLOAD DUP2 PUSH20 0xFFFFFFFFFFFFFFFFFFFFFFFFFFFFFFFFFFFFFFFF MUL NOT AND SWAP1 DUP4 PUSH20 0xFFFFFFFFFFFFFFFFFFFFFFFFFFFFFFFFFFFFFFFF AND MUL OR SWAP1 SSTORE POP PUSH0 DUP1 SLOAD SWAP1 PUSH2 0x100 EXP SWAP1 DIV PUSH20 0xFFFFFFFFFFFFFFFFFFFFFFFFFFFFFFFFFFFFFFFF AND PUSH20 0xFFFFFFFFFFFFFFFFFFFFFFFFFFFFFFFFFFFFFFFF AND PUSH4 0xBF40FAC1 PUSH1 0x40 MLOAD DUP1 PUSH1 0x40 ADD PUSH1 0x40 MSTORE DUP1 PUSH1 0x18 DUP2 MSTORE PUSH1 0x20 ADD PUSH32 0x52455345525645445F464F4C4C4F57535F4D414E414745520000000000000000 DUP2 MSTORE POP PUSH1 0x40 MLOAD DUP3 PUSH4 0xFFFFFFFF AND PUSH1 0xE0 SHL DUP2 MSTORE PUSH1 0x4 ADD PUSH2 0x17DA SWAP2 SWAP1 PUSH2 0x2A15 JUMP JUMPDEST PUSH1 0x20 PUSH1 0x40 MLOAD DUP1 DUP4 SUB DUP2 DUP7 GAS STATICCALL ISZERO DUP1 ISZERO PUSH2 0x17F5 JUMPI RETURNDATASIZE PUSH0 DUP1 RETURNDATACOPY RETURNDATASIZE PUSH0 REVERT JUMPDEST POP POP POP POP PUSH1 0x40 MLOAD RETURNDATASIZE PUSH1 0x1F NOT PUSH1 0x1F DUP3 ADD AND DUP3 ADD DUP1 PUSH1 0x40 MSTORE POP DUP2 ADD SWAP1 PUSH2 0x1819 SWAP2 SWAP1 PUSH2 0x2A35 JUMP JUMPDEST PUSH1 0x5 PUSH0 PUSH2 0x100 EXP DUP2 SLOAD DUP2 PUSH20 0xFFFFFFFFFFFFFFFFFFFFFFFFFFFFFFFFFFFFFFFF MUL NOT AND SWAP1 DUP4 PUSH20 0xFFFFFFFFFFFFFFFFFFFFFFFFFFFFFFFFFFFFFFFF AND MUL OR SWAP1 SSTORE POP PUSH1 0x1 SWAP1 POP SWAP1 JUMP JUMPDEST PUSH1 0x40 MLOAD DUP1 PUSH1 0xA0 ADD PUSH1 0x40 MSTORE DUP1 PUSH0 DUP2 MSTORE PUSH1 0x20 ADD PUSH1 0x60 DUP2 MSTORE PUSH1 0x20 ADD PUSH0 PUSH20 0xFFFFFFFFFFFFFFFFFFFFFFFFFFFFFFFFFFFFFFFF AND DUP2 MSTORE PUSH1 0x20 ADD PUSH1 0x60 DUP2 MSTORE PUSH1 0x20 ADD PUSH0 DUP2 MSTORE POP SWAP1 JUMP JUMPDEST PUSH1 0x40 MLOAD DUP1 PUSH1 0x60 ADD PUSH1 0x40 MSTORE DUP1 PUSH0 DUP2 MSTORE PUSH1 0x20 ADD PUSH1 0x60 DUP2 MSTORE PUSH1 0x20 ADD PUSH0 DUP2 MSTORE POP SWAP1 JUMP JUMPDEST PUSH1 0x40 MLOAD DUP1 PUSH1 0xA0 ADD PUSH1 0x40 MSTORE DUP1 PUSH0 DUP2 MSTORE PUSH1 0x20 ADD PUSH1 0x60 DUP2 MSTORE PUSH1 0x20 ADD PUSH1 0x60 DUP2 MSTORE PUSH1 0x20 ADD PUSH1 0x60 DUP2 MSTORE PUSH1 0x20 ADD PUSH0 DUP2 MSTORE POP SWAP1 JUMP JUMPDEST PUSH1 0x40 MLOAD DUP1 PUSH1 0x80 ADD PUSH1 0x40 MSTORE DUP1 PUSH0 DUP2 MSTORE PUSH1 0x20 ADD PUSH0 DUP2 MSTORE PUSH1 0x20 ADD PUSH1 0x60 DUP2 MSTORE PUSH1 0x20 ADD PUSH0 DUP2 MSTORE POP SWAP1 JUMP JUMPDEST PUSH0 PUSH1 0x40 MLOAD SWAP1 POP SWAP1 JUMP JUMPDEST PUSH0 DUP1 REVERT JUMPDEST PUSH0 DUP1 REVERT JUMPDEST PUSH0 DUP2 SWAP1 POP SWAP2 SWAP1 POP JUMP JUMPDEST PUSH2 0x1935 DUP2 PUSH2 0x1923 JUMP JUMPDEST DUP2 EQ PUSH2 0x193F JUMPI PUSH0 DUP1 REVERT JUMPDEST POP JUMP JUMPDEST PUSH0 DUP2 CALLDATALOAD SWAP1 POP PUSH2 0x1950 DUP2 PUSH2 0x192C JUMP JUMPDEST SWAP3 SWAP2 POP POP JUMP JUMPDEST PUSH0 PUSH1 0x20 DUP3 DUP5 SUB SLT ISZERO PUSH2 0x196B JUMPI PUSH2 0x196A PUSH2 0x191B JUMP JUMPDEST JUMPDEST PUSH0 PUSH2 0x1978 DUP5 DUP3 DUP6 ADD PUSH2 0x1942 JUMP JUMPDEST SWAP2 POP POP SWAP3 SWAP2 POP POP JUMP JUMPDEST PUSH2 0x198A DUP2 PUSH2 0x1923 JUMP JUMPDEST DUP3 MSTORE POP POP JUMP JUMPDEST PUSH0 DUP2 MLOAD SWAP1 POP SWAP2 SWAP1 POP JUMP JUMPDEST PUSH0 DUP3 DUP3 MSTORE PUSH1 0x20 DUP3 ADD SWAP1 POP SWAP3 SWAP2 POP POP JUMP JUMPDEST DUP3 DUP2 DUP4 MCOPY PUSH0 DUP4 DUP4 ADD MSTORE POP POP POP JUMP JUMPDEST PUSH0 PUSH1 0x1F NOT PUSH1 0x1F DUP4 ADD AND SWAP1 POP SWAP2 SWAP1 POP JUMP JUMPDEST PUSH0 PUSH2 0x19D2 DUP3 PUSH2 0x1990 JUMP JUMPDEST PUSH2 0x19DC DUP2 DUP6 PUSH2 0x199A JUMP JUMPDEST SWAP4 POP PUSH2 0x19EC DUP2 DUP6 PUSH1 0x20 DUP7 ADD PUSH2 0x19AA JUMP JUMPDEST PUSH2 0x19F5 DUP2 PUSH2 0x19B8 JUMP JUMPDEST DUP5 ADD SWAP2 POP POP SWAP3 SWAP2 POP POP JUMP JUMPDEST PUSH0 PUSH20 0xFFFFFFFFFFFFFFFFFFFFFFFFFFFFFFFFFFFFFFFF DUP3 AND SWAP1 POP SWAP2 SWAP1 POP JUMP JUMPDEST PUSH0 PUSH2 0x1A29 DUP3 PUSH2 0x1A00 JUMP JUMPDEST SWAP1 POP SWAP2 SWAP1 POP JUMP JUMPDEST PUSH2 0x1A39 DUP2 PUSH2 0x1A1F JUMP JUMPDEST DUP3 MSTORE POP POP JUMP JUMPDEST PUSH0 PUSH1 0xA0 DUP4 ADD PUSH0 DUP4 ADD MLOAD PUSH2 0x1A54 PUSH0 DUP7 ADD DUP3 PUSH2 0x1981 JUMP JUMPDEST POP PUSH1 0x20 DUP4 ADD MLOAD DUP5 DUP3 SUB PUSH1 0x20 DUP7 ADD MSTORE PUSH2 0x1A6C DUP3 DUP3 PUSH2 0x19C8 JUMP JUMPDEST SWAP2 POP POP PUSH1 0x40 DUP4 ADD MLOAD PUSH2 0x1A81 PUSH1 0x40 DUP7 ADD DUP3 PUSH2 0x1A30 JUMP JUMPDEST POP PUSH1 0x60 DUP4 ADD MLOAD DUP5 DUP3 SUB PUSH1 0x60 DUP7 ADD MSTORE PUSH2 0x1A99 DUP3 DUP3 PUSH2 0x19C8 JUMP JUMPDEST SWAP2 POP POP PUSH1 0x80 DUP4 ADD MLOAD PUSH2 0x1AAE PUSH1 0x80 DUP7 ADD DUP3 PUSH2 0x1981 JUMP JUMPDEST POP DUP1 SWAP2 POP POP SWAP3 SWAP2 POP POP JUMP JUMPDEST PUSH0 PUSH1 0x20 DUP3 ADD SWAP1 POP DUP2 DUP2 SUB PUSH0 DUP4 ADD MSTORE PUSH2 0x1AD1 DUP2 DUP5 PUSH2 0x1A3F JUMP JUMPDEST SWAP1 POP SWAP3 SWAP2 POP POP JUMP JUMPDEST PUSH0 DUP1 REVERT JUMPDEST PUSH32 0x4E487B7100000000000000000000000000000000000000000000000000000000 PUSH0 MSTORE PUSH1 0x41 PUSH1 0x4 MSTORE PUSH1 0x24 PUSH0 REVERT JUMPDEST PUSH2 0x1B13 DUP3 PUSH2 0x19B8 JUMP JUMPDEST DUP2 ADD DUP2 DUP2 LT PUSH8 0xFFFFFFFFFFFFFFFF DUP3 GT OR ISZERO PUSH2 0x1B32 JUMPI PUSH2 0x1B31 PUSH2 0x1ADD JUMP JUMPDEST JUMPDEST DUP1 PUSH1 0x40 MSTORE POP POP POP JUMP JUMPDEST PUSH0 PUSH2 0x1B44 PUSH2 0x1912 JUMP JUMPDEST SWAP1 POP PUSH2 0x1B50 DUP3 DUP3 PUSH2 0x1B0A JUMP JUMPDEST SWAP2 SWAP1 POP JUMP JUMPDEST PUSH0 PUSH8 0xFFFFFFFFFFFFFFFF DUP3 GT ISZERO PUSH2 0x1B6F JUMPI PUSH2 0x1B6E PUSH2 0x1ADD JUMP JUMPDEST JUMPDEST PUSH1 0x20 DUP3 MUL SWAP1 POP PUSH1 0x20 DUP2 ADD SWAP1 POP SWAP2 SWAP1 POP JUMP JUMPDEST PUSH0 DUP1 REVERT JUMPDEST PUSH0 PUSH2 0x1B96 PUSH2 0x1B91 DUP5 PUSH2 0x1B55 JUMP JUMPDEST PUSH2 0x1B3B JUMP JUMPDEST SWAP1 POP DUP1 DUP4 DUP3 MSTORE PUSH1 0x20 DUP3 ADD SWAP1 POP PUSH1 0x20 DUP5 MUL DUP4 ADD DUP6 DUP2 GT ISZERO PUSH2 0x1BB9 JUMPI PUSH2 0x1BB8 PUSH2 0x1B80 JUMP JUMPDEST JUMPDEST DUP4 JUMPDEST DUP2 DUP2 LT ISZERO PUSH2 0x1BE2 JUMPI DUP1 PUSH2 0x1BCE DUP9 DUP3 PUSH2 0x1942 JUMP JUMPDEST DUP5 MSTORE PUSH1 0x20 DUP5 ADD SWAP4 POP POP PUSH1 0x20 DUP2 ADD SWAP1 POP PUSH2 0x1BBB JUMP JUMPDEST POP POP POP SWAP4 SWAP3 POP POP POP JUMP JUMPDEST PUSH0 DUP3 PUSH1 0x1F DUP4 ADD SLT PUSH2 0x1C00 JUMPI PUSH2 0x1BFF PUSH2 0x1AD9 JUMP JUMPDEST JUMPDEST DUP2 CALLDATALOAD PUSH2 0x1C10 DUP5 DUP3 PUSH1 0x20 DUP7 ADD PUSH2 0x1B84 JUMP JUMPDEST SWAP2 POP POP SWAP3 SWAP2 POP POP JUMP JUMPDEST PUSH0 DUP1 PUSH1 0x40 DUP4 DUP6 SUB SLT ISZERO PUSH2 0x1C2F JUMPI PUSH2 0x1C2E PUSH2 0x191B JUMP JUMPDEST JUMPDEST PUSH0 PUSH2 0x1C3C DUP6 DUP3 DUP7 ADD PUSH2 0x1942 JUMP JUMPDEST SWAP3 POP POP PUSH1 0x20 DUP4 ADD CALLDATALOAD PUSH8 0xFFFFFFFFFFFFFFFF DUP2 GT ISZERO PUSH2 0x1C5D JUMPI PUSH2 0x1C5C PUSH2 0x191F JUMP JUMPDEST JUMPDEST PUSH2 0x1C69 DUP6 DUP3 DUP7 ADD PUSH2 0x1BEC JUMP JUMPDEST SWAP2 POP POP SWAP3 POP SWAP3 SWAP1 POP JUMP JUMPDEST PUSH2 0x1C7C DUP2 PUSH2 0x1923 JUMP JUMPDEST DUP3 MSTORE POP POP JUMP JUMPDEST PUSH0 PUSH1 0x20 DUP3 ADD SWAP1 POP PUSH2 0x1C95 PUSH0 DUP4 ADD DUP5 PUSH2 0x1C73 JUMP JUMPDEST SWAP3 SWAP2 POP POP JUMP JUMPDEST PUSH0 DUP1 REVERT JUMPDEST PUSH0 PUSH8 0xFFFFFFFFFFFFFFFF DUP3 GT ISZERO PUSH2 0x1CB9 JUMPI PUSH2 0x1CB8 PUSH2 0x1ADD JUMP JUMPDEST JUMPDEST PUSH2 0x1CC2 DUP3 PUSH2 0x19B8 JUMP JUMPDEST SWAP1 POP PUSH1 0x20 DUP2 ADD SWAP1 POP SWAP2 SWAP1 POP JUMP JUMPDEST DUP3 DUP2 DUP4 CALLDATACOPY PUSH0 DUP4 DUP4 ADD MSTORE POP POP POP JUMP JUMPDEST PUSH0 PUSH2 0x1CEF PUSH2 0x1CEA DUP5 PUSH2 0x1C9F JUMP JUMPDEST PUSH2 0x1B3B JUMP JUMPDEST SWAP1 POP DUP3 DUP2 MSTORE PUSH1 0x20 DUP2 ADD DUP5 DUP5 DUP5 ADD GT ISZERO PUSH2 0x1D0B JUMPI PUSH2 0x1D0A PUSH2 0x1C9B JUMP JUMPDEST JUMPDEST PUSH2 0x1D16 DUP5 DUP3 DUP6 PUSH2 0x1CCF JUMP JUMPDEST POP SWAP4 SWAP3 POP POP POP JUMP JUMPDEST PUSH0 DUP3 PUSH1 0x1F DUP4 ADD SLT PUSH2 0x1D32 JUMPI PUSH2 0x1D31 PUSH2 0x1AD9 JUMP JUMPDEST JUMPDEST DUP2 CALLDATALOAD PUSH2 0x1D42 DUP5 DUP3 PUSH1 0x20 DUP7 ADD PUSH2 0x1CDD JUMP JUMPDEST SWAP2 POP POP SWAP3 SWAP2 POP POP JUMP JUMPDEST PUSH0 PUSH1 0x20 DUP3 DUP5 SUB SLT ISZERO PUSH2 0x1D60 JUMPI PUSH2 0x1D5F PUSH2 0x191B JUMP JUMPDEST JUMPDEST PUSH0 DUP3 ADD CALLDATALOAD PUSH8 0xFFFFFFFFFFFFFFFF DUP2 GT ISZERO PUSH2 0x1D7D JUMPI PUSH2 0x1D7C PUSH2 0x191F JUMP JUMPDEST JUMPDEST PUSH2 0x1D89 DUP5 DUP3 DUP6 ADD PUSH2 0x1D1E JUMP JUMPDEST SWAP2 POP POP SWAP3 SWAP2 POP POP JUMP JUMPDEST PUSH0 DUP2 ISZERO ISZERO SWAP1 POP SWAP2 SWAP1 POP JUMP JUMPDEST PUSH2 0x1DA6 DUP2 PUSH2 0x1D92 JUMP JUMPDEST DUP3 MSTORE POP POP JUMP JUMPDEST PUSH0 PUSH1 0x20 DUP3 ADD SWAP1 POP PUSH2 0x1DBF PUSH0 DUP4 ADD DUP5 PUSH2 0x1D9D JUMP JUMPDEST SWAP3 SWAP2 POP POP JUMP JUMPDEST PUSH0 DUP2 MLOAD SWAP1 POP SWAP2 SWAP1 POP JUMP JUMPDEST PUSH0 DUP3 DUP3 MSTORE PUSH1 0x20 DUP3 ADD SWAP1 POP SWAP3 SWAP2 POP POP JUMP JUMPDEST PUSH0 DUP2 SWAP1 POP PUSH1 0x20 DUP3 ADD SWAP1 POP SWAP2 SWAP1 POP JUMP JUMPDEST PUSH0 PUSH2 0x1DF9 DUP4 DUP4 PUSH2 0x1981 JUMP JUMPDEST PUSH1 0x20 DUP4 ADD SWAP1 POP SWAP3 SWAP2 POP POP JUMP JUMPDEST PUSH0 PUSH1 0x20 DUP3 ADD SWAP1 POP SWAP2 SWAP1 POP JUMP JUMPDEST PUSH0 PUSH2 0x1E1B DUP3 PUSH2 0x1DC5 JUMP JUMPDEST PUSH2 0x1E25 DUP2 DUP6 PUSH2 0x1DCF JUMP JUMPDEST SWAP4 POP PUSH2 0x1E30 DUP4 PUSH2 0x1DDF JUMP JUMPDEST DUP1 PUSH0 JUMPDEST DUP4 DUP2 LT ISZERO PUSH2 0x1E60 JUMPI DUP2 MLOAD PUSH2 0x1E47 DUP9 DUP3 PUSH2 0x1DEE JUMP JUMPDEST SWAP8 POP PUSH2 0x1E52 DUP4 PUSH2 0x1E05 JUMP JUMPDEST SWAP3 POP POP PUSH1 0x1 DUP2 ADD SWAP1 POP PUSH2 0x1E33 JUMP JUMPDEST POP DUP6 SWAP4 POP POP POP POP SWAP3 SWAP2 POP POP JUMP JUMPDEST PUSH0 PUSH1 0x20 DUP3 ADD SWAP1 POP DUP2 DUP2 SUB PUSH0 DUP4 ADD MSTORE PUSH2 0x1E85 DUP2 DUP5 PUSH2 0x1E11 JUMP JUMPDEST SWAP1 POP SWAP3 SWAP2 POP POP JUMP JUMPDEST PUSH0 PUSH1 0x20 DUP3 DUP5 SUB SLT ISZERO PUSH2 0x1EA2 JUMPI PUSH2 0x1EA1 PUSH2 0x191B JUMP JUMPDEST JUMPDEST PUSH0 DUP3 ADD CALLDATALOAD PUSH8 0xFFFFFFFFFFFFFFFF DUP2 GT ISZERO PUSH2 0x1EBF JUMPI PUSH2 0x1EBE PUSH2 0x191F JUMP JUMPDEST JUMPDEST PUSH2 0x1ECB DUP5 DUP3 DUP6 ADD PUSH2 0x1BEC JUMP JUMPDEST SWAP2 POP POP SWAP3 SWAP2 POP POP JUMP JUMPDEST PUSH0 PUSH1 0x60 DUP4 ADD PUSH0 DUP4 ADD MLOAD PUSH2 0x1EE9 PUSH0 DUP7 ADD DUP3 PUSH2 0x1981 JUMP JUMPDEST POP PUSH1 0x20 DUP4 ADD MLOAD DUP5 DUP3 SUB PUSH1 0x20 DUP7 ADD MSTORE PUSH2 0x1F01 DUP3 DUP3 PUSH2 0x19C8 JUMP JUMPDEST SWAP2 POP POP PUSH1 0x40 DUP4 ADD MLOAD PUSH2 0x1F16 PUSH1 0x40 DUP7 ADD DUP3 PUSH2 0x1981 JUMP JUMPDEST POP DUP1 SWAP2 POP POP SWAP3 SWAP2 POP POP JUMP JUMPDEST PUSH0 PUSH1 0x20 DUP3 ADD SWAP1 POP DUP2 DUP2 SUB PUSH0 DUP4 ADD MSTORE PUSH2 0x1F39 DUP2 DUP5 PUSH2 0x1ED4 JUMP JUMPDEST SWAP1 POP SWAP3 SWAP2 POP POP JUMP JUMPDEST PUSH0 PUSH1 0xA0 DUP4 ADD PUSH0 DUP4 ADD MLOAD PUSH2 0x1F56 PUSH0 DUP7 ADD DUP3 PUSH2 0x1981 JUMP JUMPDEST POP PUSH1 0x20 DUP4 ADD MLOAD DUP5 DUP3 SUB PUSH1 0x20 DUP7 ADD MSTORE PUSH2 0x1F6E DUP3 DUP3 PUSH2 0x19C8 JUMP JUMPDEST SWAP2 POP POP PUSH1 0x40 DUP4 ADD MLOAD DUP5 DUP3 SUB PUSH1 0x40 DUP7 ADD MSTORE PUSH2 0x1F88 DUP3 DUP3 PUSH2 0x19C8 JUMP JUMPDEST SWAP2 POP POP PUSH1 0x60 DUP4 ADD MLOAD DUP5 DUP3 SUB PUSH1 0x60 DUP7 ADD MSTORE PUSH2 0x1FA2 DUP3 DUP3 PUSH2 0x19C8 JUMP JUMPDEST SWAP2 POP POP PUSH1 0x80 DUP4 ADD MLOAD PUSH2 0x1FB7 PUSH1 0x80 DUP7 ADD DUP3 PUSH2 0x1981 JUMP JUMPDEST POP DUP1 SWAP2 POP POP SWAP3 SWAP2 POP POP JUMP JUMPDEST PUSH0 PUSH1 0x20 DUP3 ADD SWAP1 POP DUP2 DUP2 SUB PUSH0 DUP4 ADD MSTORE PUSH2 0x1FDA DUP2 DUP5 PUSH2 0x1F41 JUMP JUMPDEST SWAP1 POP SWAP3 SWAP2 POP POP JUMP JUMPDEST PUSH0 DUP1 REVERT JUMPDEST PUSH0 DUP1 REVERT JUMPDEST PUSH2 0x1FF3 DUP2 PUSH2 0x1A1F JUMP JUMPDEST DUP2 EQ PUSH2 0x1FFD JUMPI PUSH0 DUP1 REVERT JUMPDEST POP JUMP JUMPDEST PUSH0 DUP2 CALLDATALOAD SWAP1 POP PUSH2 0x200E DUP2 PUSH2 0x1FEA JUMP JUMPDEST SWAP3 SWAP2 POP POP JUMP JUMPDEST PUSH0 PUSH1 0xA0 DUP3 DUP5 SUB SLT ISZERO PUSH2 0x2029 JUMPI PUSH2 0x2028 PUSH2 0x1FE2 JUMP JUMPDEST JUMPDEST PUSH2 0x2033 PUSH1 0xA0 PUSH2 0x1B3B JUMP JUMPDEST SWAP1 POP PUSH0 PUSH2 0x2042 DUP5 DUP3 DUP6 ADD PUSH2 0x1942 JUMP JUMPDEST PUSH0 DUP4 ADD MSTORE POP PUSH1 0x20 DUP3 ADD CALLDATALOAD PUSH8 0xFFFFFFFFFFFFFFFF DUP2 GT ISZERO PUSH2 0x2065 JUMPI PUSH2 0x2064 PUSH2 0x1FE6 JUMP JUMPDEST JUMPDEST PUSH2 0x2071 DUP5 DUP3 DUP6 ADD PUSH2 0x1D1E JUMP JUMPDEST PUSH1 0x20 DUP4 ADD MSTORE POP PUSH1 0x40 PUSH2 0x2085 DUP5 DUP3 DUP6 ADD PUSH2 0x2000 JUMP JUMPDEST PUSH1 0x40 DUP4 ADD MSTORE POP PUSH1 0x60 DUP3 ADD CALLDATALOAD PUSH8 0xFFFFFFFFFFFFFFFF DUP2 GT ISZERO PUSH2 0x20A9 JUMPI PUSH2 0x20A8 PUSH2 0x1FE6 JUMP JUMPDEST JUMPDEST PUSH2 0x20B5 DUP5 DUP3 DUP6 ADD PUSH2 0x1D1E JUMP JUMPDEST PUSH1 0x60 DUP4 ADD MSTORE POP PUSH1 0x80 PUSH2 0x20C9 DUP5 DUP3 DUP6 ADD PUSH2 0x1942 JUMP JUMPDEST PUSH1 0x80 DUP4 ADD MSTORE POP SWAP3 SWAP2 POP POP JUMP JUMPDEST PUSH0 PUSH1 0x20 DUP3 DUP5 SUB SLT ISZERO PUSH2 0x20EA JUMPI PUSH2 0x20E9 PUSH2 0x191B JUMP JUMPDEST JUMPDEST PUSH0 DUP3 ADD CALLDATALOAD PUSH8 0xFFFFFFFFFFFFFFFF DUP2 GT ISZERO PUSH2 0x2107 JUMPI PUSH2 0x2106 PUSH2 0x191F JUMP JUMPDEST JUMPDEST PUSH2 0x2113 DUP5 DUP3 DUP6 ADD PUSH2 0x2014 JUMP JUMPDEST SWAP2 POP POP SWAP3 SWAP2 POP POP JUMP JUMPDEST PUSH0 PUSH1 0xA0 DUP3 DUP5 SUB SLT ISZERO PUSH2 0x2131 JUMPI PUSH2 0x2130 PUSH2 0x1FE2 JUMP JUMPDEST JUMPDEST PUSH2 0x213B PUSH1 0xA0 PUSH2 0x1B3B JUMP JUMPDEST SWAP1 POP PUSH0 PUSH2 0x214A DUP5 DUP3 DUP6 ADD PUSH2 0x1942 JUMP JUMPDEST PUSH0 DUP4 ADD MSTORE POP PUSH1 0x20 DUP3 ADD CALLDATALOAD PUSH8 0xFFFFFFFFFFFFFFFF DUP2 GT ISZERO PUSH2 0x216D JUMPI PUSH2 0x216C PUSH2 0x1FE6 JUMP JUMPDEST JUMPDEST PUSH2 0x2179 DUP5 DUP3 DUP6 ADD PUSH2 0x1D1E JUMP JUMPDEST PUSH1 0x20 DUP4 ADD MSTORE POP PUSH1 0x40 DUP3 ADD CALLDATALOAD PUSH8 0xFFFFFFFFFFFFFFFF DUP2 GT ISZERO PUSH2 0x219D JUMPI PUSH2 0x219C PUSH2 0x1FE6 JUMP JUMPDEST JUMPDEST PUSH2 0x21A9 DUP5 DUP3 DUP6 ADD PUSH2 0x1D1E JUMP JUMPDEST PUSH1 0x40 DUP4 ADD MSTORE POP PUSH1 0x60 DUP3 ADD CALLDATALOAD PUSH8 0xFFFFFFFFFFFFFFFF DUP2 GT ISZERO PUSH2 0x21CD JUMPI PUSH2 0x21CC PUSH2 0x1FE6 JUMP JUMPDEST JUMPDEST PUSH2 0x21D9 DUP5 DUP3 DUP6 ADD PUSH2 0x1D1E JUMP JUMPDEST PUSH1 0x60 DUP4 ADD MSTORE POP PUSH1 0x80 PUSH2 0x21ED DUP5 DUP3 DUP6 ADD PUSH2 0x1942 JUMP JUMPDEST PUSH1 0x80 DUP4 ADD MSTORE POP SWAP3 SWAP2 POP POP JUMP JUMPDEST PUSH0 PUSH1 0x20 DUP3 DUP5 SUB SLT ISZERO PUSH2 0x220E JUMPI PUSH2 0x220D PUSH2 0x191B JUMP JUMPDEST JUMPDEST PUSH0 DUP3 ADD CALLDATALOAD PUSH8 0xFFFFFFFFFFFFFFFF DUP2 GT ISZERO PUSH2 0x222B JUMPI PUSH2 0x222A PUSH2 0x191F JUMP JUMPDEST JUMPDEST PUSH2 0x2237 DUP5 DUP3 DUP6 ADD PUSH2 0x211C JUMP JUMPDEST SWAP2 POP POP SWAP3 SWAP2 POP POP JUMP JUMPDEST PUSH0 DUP3 DUP3 MSTORE PUSH1 0x20 DUP3 ADD SWAP1 POP SWAP3 SWAP2 POP POP JUMP JUMPDEST PUSH0 PUSH2 0x225A DUP3 PUSH2 0x1DC5 JUMP JUMPDEST PUSH2 0x2264 DUP2 DUP6 PUSH2 0x2240 JUMP JUMPDEST SWAP4 POP PUSH2 0x226F DUP4 PUSH2 0x1DDF JUMP JUMPDEST DUP1 PUSH0 JUMPDEST DUP4 DUP2 LT ISZERO PUSH2 0x229F JUMPI DUP2 MLOAD PUSH2 0x2286 DUP9 DUP3 PUSH2 0x1DEE JUMP JUMPDEST SWAP8 POP PUSH2 0x2291 DUP4 PUSH2 0x1E05 JUMP JUMPDEST SWAP3 POP POP PUSH1 0x1 DUP2 ADD SWAP1 POP PUSH2 0x2272 JUMP JUMPDEST POP DUP6 SWAP4 POP POP POP POP SWAP3 SWAP2 POP POP JUMP JUMPDEST PUSH0 PUSH1 0x80 DUP4 ADD PUSH0 DUP4 ADD MLOAD PUSH2 0x22C1 PUSH0 DUP7 ADD DUP3 PUSH2 0x1981 JUMP JUMPDEST POP PUSH1 0x20 DUP4 ADD MLOAD PUSH2 0x22D4 PUSH1 0x20 DUP7 ADD DUP3 PUSH2 0x1981 JUMP JUMPDEST POP PUSH1 0x40 DUP4 ADD MLOAD DUP5 DUP3 SUB PUSH1 0x40 DUP7 ADD MSTORE PUSH2 0x22EC DUP3 DUP3 PUSH2 0x2250 JUMP JUMPDEST SWAP2 POP POP PUSH1 0x60 DUP4 ADD MLOAD PUSH2 0x2301 PUSH1 0x60 DUP7 ADD DUP3 PUSH2 0x1981 JUMP JUMPDEST POP DUP1 SWAP2 POP POP SWAP3 SWAP2 POP POP JUMP JUMPDEST PUSH0 PUSH1 0x20 DUP3 ADD SWAP1 POP DUP2 DUP2 SUB PUSH0 DUP4 ADD MSTORE PUSH2 0x2324 DUP2 DUP5 PUSH2 0x22AC JUMP JUMPDEST SWAP1 POP SWAP3 SWAP2 POP POP JUMP JUMPDEST PUSH0 DUP2 MLOAD SWAP1 POP PUSH2 0x233A DUP2 PUSH2 0x192C JUMP JUMPDEST SWAP3 SWAP2 POP POP JUMP JUMPDEST PUSH0 PUSH2 0x2352 PUSH2 0x234D DUP5 PUSH2 0x1C9F JUMP JUMPDEST PUSH2 0x1B3B JUMP JUMPDEST SWAP1 POP DUP3 DUP2 MSTORE PUSH1 0x20 DUP2 ADD DUP5 DUP5 DUP5 ADD GT ISZERO PUSH2 0x236E JUMPI PUSH2 0x236D PUSH2 0x1C9B JUMP JUMPDEST JUMPDEST PUSH2 0x2379 DUP5 DUP3 DUP6 PUSH2 0x19AA JUMP JUMPDEST POP SWAP4 SWAP3 POP POP POP JUMP JUMPDEST PUSH0 DUP3 PUSH1 0x1F DUP4 ADD SLT PUSH2 0x2395 JUMPI PUSH2 0x2394 PUSH2 0x1AD9 JUMP JUMPDEST JUMPDEST DUP2 MLOAD PUSH2 0x23A5 DUP5 DUP3 PUSH1 0x20 DUP7 ADD PUSH2 0x2340 JUMP JUMPDEST SWAP2 POP POP SWAP3 SWAP2 POP POP JUMP JUMPDEST PUSH0 DUP2 MLOAD SWAP1 POP PUSH2 0x23BC DUP2 PUSH2 0x1FEA JUMP JUMPDEST SWAP3 SWAP2 POP POP JUMP JUMPDEST PUSH0 PUSH1 0xA0 DUP3 DUP5 SUB SLT ISZERO PUSH2 0x23D7 JUMPI PUSH2 0x23D6 PUSH2 0x1FE2 JUMP JUMPDEST JUMPDEST PUSH2 0x23E1 PUSH1 0xA0 PUSH2 0x1B3B JUMP JUMPDEST SWAP1 POP PUSH0 PUSH2 0x23F0 DUP5 DUP3 DUP6 ADD PUSH2 0x232C JUMP JUMPDEST PUSH0 DUP4 ADD MSTORE POP PUSH1 0x20 DUP3 ADD MLOAD PUSH8 0xFFFFFFFFFFFFFFFF DUP2 GT ISZERO PUSH2 0x2413 JUMPI PUSH2 0x2412 PUSH2 0x1FE6 JUMP JUMPDEST JUMPDEST PUSH2 0x241F DUP5 DUP3 DUP6 ADD PUSH2 0x2381 JUMP JUMPDEST PUSH1 0x20 DUP4 ADD MSTORE POP PUSH1 0x40 PUSH2 0x2433 DUP5 DUP3 DUP6 ADD PUSH2 0x23AE JUMP JUMPDEST PUSH1 0x40 DUP4 ADD MSTORE POP PUSH1 0x60 DUP3 ADD MLOAD PUSH8 0xFFFFFFFFFFFFFFFF DUP2 GT ISZERO PUSH2 0x2457 JUMPI PUSH2 0x2456 PUSH2 0x1FE6 JUMP JUMPDEST JUMPDEST PUSH2 0x2463 DUP5 DUP3 DUP6 ADD PUSH2 0x2381 JUMP JUMPDEST PUSH1 0x60 DUP4 ADD MSTORE POP PUSH1 0x80 PUSH2 0x2477 DUP5 DUP3 DUP6 ADD PUSH2 0x232C JUMP JUMPDEST PUSH1 0x80 DUP4 ADD MSTORE POP SWAP3 SWAP2 POP POP JUMP JUMPDEST PUSH0 PUSH1 0x20 DUP3 DUP5 SUB SLT ISZERO PUSH2 0x2498 JUMPI PUSH2 0x2497 PUSH2 0x191B JUMP JUMPDEST JUMPDEST PUSH0 DUP3 ADD MLOAD PUSH8 0xFFFFFFFFFFFFFFFF DUP2 GT ISZERO PUSH2 0x24B5 JUMPI PUSH2 0x24B4 PUSH2 0x191F JUMP JUMPDEST JUMPDEST PUSH2 0x24C1 DUP5 DUP3 DUP6 ADD PUSH2 0x23C2 JUMP JUMPDEST SWAP2 POP POP SWAP3 SWAP2 POP POP JUMP JUMPDEST PUSH2 0x24D3 DUP2 PUSH2 0x1A1F JUMP JUMPDEST DUP3 MSTORE POP POP JUMP JUMPDEST PUSH0 PUSH1 0x60 DUP3 ADD SWAP1 POP PUSH2 0x24EC PUSH0 DUP4 ADD DUP7 PUSH2 0x1C73 JUMP JUMPDEST DUP2 DUP2 SUB PUSH1 0x20 DUP4 ADD MSTORE PUSH2 0x24FE DUP2 DUP6 PUSH2 0x1E11 JUMP JUMPDEST SWAP1 POP PUSH2 0x250D PUSH1 0x40 DUP4 ADD DUP5 PUSH2 0x24CA JUMP JUMPDEST SWAP5 SWAP4 POP POP POP POP JUMP JUMPDEST PUSH0 PUSH1 0x20 DUP3 DUP5 SUB SLT ISZERO PUSH2 0x252A JUMPI PUSH2 0x2529 PUSH2 0x191B JUMP JUMPDEST JUMPDEST PUSH0 PUSH2 0x2537 DUP5 DUP3 DUP6 ADD PUSH2 0x232C JUMP JUMPDEST SWAP2 POP POP SWAP3 SWAP2 POP POP JUMP JUMPDEST PUSH0 DUP3 DUP3 MSTORE PUSH1 0x20 DUP3 ADD SWAP1 POP SWAP3 SWAP2 POP POP JUMP JUMPDEST PUSH0 PUSH2 0x255A DUP3 PUSH2 0x1990 JUMP JUMPDEST PUSH2 0x2564 DUP2 DUP6 PUSH2 0x2540 JUMP JUMPDEST SWAP4 POP PUSH2 0x2574 DUP2 DUP6 PUSH1 0x20 DUP7 ADD PUSH2 0x19AA JUMP JUMPDEST PUSH2 0x257D DUP2 PUSH2 0x19B8 JUMP JUMPDEST DUP5 ADD SWAP2 POP POP SWAP3 SWAP2 POP POP JUMP JUMPDEST PUSH0 PUSH1 0x40 DUP3 ADD SWAP1 POP DUP2 DUP2 SUB PUSH0 DUP4 ADD MSTORE PUSH2 0x25A0 DUP2 DUP6 PUSH2 0x2550 JUMP JUMPDEST SWAP1 POP PUSH2 0x25AF PUSH1 0x20 DUP4 ADD DUP5 PUSH2 0x24CA JUMP JUMPDEST SWAP4 SWAP3 POP POP POP JUMP JUMPDEST PUSH0 PUSH1 0x20 DUP3 ADD SWAP1 POP PUSH2 0x25C9 PUSH0 DUP4 ADD DUP5 PUSH2 0x24CA JUMP JUMPDEST SWAP3 SWAP2 POP POP JUMP JUMPDEST PUSH2 0x25D8 DUP2 PUSH2 0x1D92 JUMP JUMPDEST DUP2 EQ PUSH2 0x25E2 JUMPI PUSH0 DUP1 REVERT JUMPDEST POP JUMP JUMPDEST PUSH0 DUP2 MLOAD SWAP1 POP PUSH2 0x25F3 DUP2 PUSH2 0x25CF JUMP JUMPDEST SWAP3 SWAP2 POP POP JUMP JUMPDEST PUSH0 PUSH1 0x20 DUP3 DUP5 SUB SLT ISZERO PUSH2 0x260E JUMPI PUSH2 0x260D PUSH2 0x191B JUMP JUMPDEST JUMPDEST PUSH0 PUSH2 0x261B DUP5 DUP3 DUP6 ADD PUSH2 0x25E5 JUMP JUMPDEST SWAP2 POP POP SWAP3 SWAP2 POP POP JUMP JUMPDEST PUSH0 PUSH2 0x2636 PUSH2 0x2631 DUP5 PUSH2 0x1B55 JUMP JUMPDEST PUSH2 0x1B3B JUMP JUMPDEST SWAP1 POP DUP1 DUP4 DUP3 MSTORE PUSH1 0x20 DUP3 ADD SWAP1 POP PUSH1 0x20 DUP5 MUL DUP4 ADD DUP6 DUP2 GT ISZERO PUSH2 0x2659 JUMPI PUSH2 0x2658 PUSH2 0x1B80 JUMP JUMPDEST JUMPDEST DUP4 JUMPDEST DUP2 DUP2 LT ISZERO PUSH2 0x2682 JUMPI DUP1 PUSH2 0x266E DUP9 DUP3 PUSH2 0x232C JUMP JUMPDEST DUP5 MSTORE PUSH1 0x20 DUP5 ADD SWAP4 POP POP PUSH1 0x20 DUP2 ADD SWAP1 POP PUSH2 0x265B JUMP JUMPDEST POP POP POP SWAP4 SWAP3 POP POP POP JUMP JUMPDEST PUSH0 DUP3 PUSH1 0x1F DUP4 ADD SLT PUSH2 0x26A0 JUMPI PUSH2 0x269F PUSH2 0x1AD9 JUMP JUMPDEST JUMPDEST DUP2 MLOAD PUSH2 0x26B0 DUP5 DUP3 PUSH1 0x20 DUP7 ADD PUSH2 0x2624 JUMP JUMPDEST SWAP2 POP POP SWAP3 SWAP2 POP POP JUMP JUMPDEST PUSH0 PUSH1 0x20 DUP3 DUP5 SUB SLT ISZERO PUSH2 0x26CE JUMPI PUSH2 0x26CD PUSH2 0x191B JUMP JUMPDEST JUMPDEST PUSH0 DUP3 ADD MLOAD PUSH8 0xFFFFFFFFFFFFFFFF DUP2 GT ISZERO PUSH2 0x26EB JUMPI PUSH2 0x26EA PUSH2 0x191F JUMP JUMPDEST JUMPDEST PUSH2 0x26F7 DUP5 DUP3 DUP6 ADD PUSH2 0x268C JUMP JUMPDEST SWAP2 POP POP SWAP3 SWAP2 POP POP JUMP JUMPDEST PUSH0 PUSH1 0x40 DUP3 ADD SWAP1 POP DUP2 DUP2 SUB PUSH0 DUP4 ADD MSTORE PUSH2 0x2718 DUP2 DUP6 PUSH2 0x1E11 JUMP JUMPDEST SWAP1 POP PUSH2 0x2727 PUSH1 0x20 DUP4 ADD DUP5 PUSH2 0x24CA JUMP JUMPDEST SWAP4 SWAP3 POP POP POP JUMP JUMPDEST PUSH0 PUSH1 0x60 DUP3 DUP5 SUB SLT ISZERO PUSH2 0x2743 JUMPI PUSH2 0x2742 PUSH2 0x1FE2 JUMP JUMPDEST JUMPDEST PUSH2 0x274D PUSH1 0x60 PUSH2 0x1B3B JUMP JUMPDEST SWAP1 POP PUSH0 PUSH2 0x275C DUP5 DUP3 DUP6 ADD PUSH2 0x232C JUMP JUMPDEST PUSH0 DUP4 ADD MSTORE POP PUSH1 0x20 DUP3 ADD MLOAD PUSH8 0xFFFFFFFFFFFFFFFF DUP2 GT ISZERO PUSH2 0x277F JUMPI PUSH2 0x277E PUSH2 0x1FE6 JUMP JUMPDEST JUMPDEST PUSH2 0x278B DUP5 DUP3 DUP6 ADD PUSH2 0x2381 JUMP JUMPDEST PUSH1 0x20 DUP4 ADD MSTORE POP PUSH1 0x40 PUSH2 0x279F DUP5 DUP3 DUP6 ADD PUSH2 0x232C JUMP JUMPDEST PUSH1 0x40 DUP4 ADD MSTORE POP SWAP3 SWAP2 POP POP JUMP JUMPDEST PUSH0 PUSH1 0x20 DUP3 DUP5 SUB SLT ISZERO PUSH2 0x27C0 JUMPI PUSH2 0x27BF PUSH2 0x191B JUMP JUMPDEST JUMPDEST PUSH0 DUP3 ADD MLOAD PUSH8 0xFFFFFFFFFFFFFFFF DUP2 GT ISZERO PUSH2 0x27DD JUMPI PUSH2 0x27DC PUSH2 0x191F JUMP JUMPDEST JUMPDEST PUSH2 0x27E9 DUP5 DUP3 DUP6 ADD PUSH2 0x272E JUMP JUMPDEST SWAP2 POP POP SWAP3 SWAP2 POP POP JUMP JUMPDEST PUSH0 PUSH1 0xA0 DUP3 DUP5 SUB SLT ISZERO PUSH2 0x2807 JUMPI PUSH2 0x2806 PUSH2 0x1FE2 JUMP JUMPDEST JUMPDEST PUSH2 0x2811 PUSH1 0xA0 PUSH2 0x1B3B JUMP JUMPDEST SWAP1 POP PUSH0 PUSH2 0x2820 DUP5 DUP3 DUP6 ADD PUSH2 0x232C JUMP JUMPDEST PUSH0 DUP4 ADD MSTORE POP PUSH1 0x20 DUP3 ADD MLOAD PUSH8 0xFFFFFFFFFFFFFFFF DUP2 GT ISZERO PUSH2 0x2843 JUMPI PUSH2 0x2842 PUSH2 0x1FE6 JUMP JUMPDEST JUMPDEST PUSH2 0x284F DUP5 DUP3 DUP6 ADD PUSH2 0x2381 JUMP JUMPDEST PUSH1 0x20 DUP4 ADD MSTORE POP PUSH1 0x40 DUP3 ADD MLOAD PUSH8 0xFFFFFFFFFFFFFFFF DUP2 GT ISZERO PUSH2 0x2873 JUMPI PUSH2 0x2872 PUSH2 0x1FE6 JUMP JUMPDEST JUMPDEST PUSH2 0x287F DUP5 DUP3 DUP6 ADD PUSH2 0x2381 JUMP JUMPDEST PUSH1 0x40 DUP4 ADD MSTORE POP PUSH1 0x60 DUP3 ADD MLOAD PUSH8 0xFFFFFFFFFFFFFFFF DUP2 GT ISZERO PUSH2 0x28A3 JUMPI PUSH2 0x28A2 PUSH2 0x1FE6 JUMP JUMPDEST JUMPDEST PUSH2 0x28AF DUP5 DUP3 DUP6 ADD PUSH2 0x2381 JUMP JUMPDEST PUSH1 0x60 DUP4 ADD MSTORE POP PUSH1 0x80 PUSH2 0x28C3 DUP5 DUP3 DUP6 ADD PUSH2 0x232C JUMP JUMPDEST PUSH1 0x80 DUP4 ADD MSTORE POP SWAP3 SWAP2 POP POP JUMP JUMPDEST PUSH0 PUSH1 0x20 DUP3 DUP5 SUB SLT ISZERO PUSH2 0x28E4 JUMPI PUSH2 0x28E3 PUSH2 0x191B JUMP JUMPDEST JUMPDEST PUSH0 DUP3 ADD MLOAD PUSH8 0xFFFFFFFFFFFFFFFF DUP2 GT ISZERO PUSH2 0x2901 JUMPI PUSH2 0x2900 PUSH2 0x191F JUMP JUMPDEST JUMPDEST PUSH2 0x290D DUP5 DUP3 DUP6 ADD PUSH2 0x27F2 JUMP JUMPDEST SWAP2 POP POP SWAP3 SWAP2 POP POP JUMP JUMPDEST PUSH0 PUSH1 0x40 DUP3 ADD SWAP1 POP PUSH2 0x2929 PUSH0 DUP4 ADD DUP6 PUSH2 0x1C73 JUMP JUMPDEST PUSH2 0x2936 PUSH1 0x20 DUP4 ADD DUP5 PUSH2 0x24CA JUMP JUMPDEST SWAP4 SWAP3 POP POP POP JUMP JUMPDEST PUSH0 PUSH1 0x80 DUP3 DUP5 SUB SLT ISZERO PUSH2 0x2952 JUMPI PUSH2 0x2951 PUSH2 0x1FE2 JUMP JUMPDEST JUMPDEST PUSH2 0x295C PUSH1 0x80 PUSH2 0x1B3B JUMP JUMPDEST SWAP1 POP PUSH0 PUSH2 0x296B DUP5 DUP3 DUP6 ADD PUSH2 0x232C JUMP JUMPDEST PUSH0 DUP4 ADD MSTORE POP PUSH1 0x20 PUSH2 0x297E DUP5 DUP3 DUP6 ADD PUSH2 0x232C JUMP JUMPDEST PUSH1 0x20 DUP4 ADD MSTORE POP PUSH1 0x40 DUP3 ADD MLOAD PUSH8 0xFFFFFFFFFFFFFFFF DUP2 GT ISZERO PUSH2 0x29A2 JUMPI PUSH2 0x29A1 PUSH2 0x1FE6 JUMP JUMPDEST JUMPDEST PUSH2 0x29AE DUP5 DUP3 DUP6 ADD PUSH2 0x268C JUMP JUMPDEST PUSH1 0x40 DUP4 ADD MSTORE POP PUSH1 0x60 PUSH2 0x29C2 DUP5 DUP3 DUP6 ADD PUSH2 0x232C JUMP JUMPDEST PUSH1 0x60 DUP4 ADD MSTORE POP SWAP3 SWAP2 POP POP JUMP JUMPDEST PUSH0 PUSH1 0x20 DUP3 DUP5 SUB SLT ISZERO PUSH2 0x29E3 JUMPI PUSH2 0x29E2 PUSH2 0x191B JUMP JUMPDEST JUMPDEST PUSH0 DUP3 ADD MLOAD PUSH8 0xFFFFFFFFFFFFFFFF DUP2 GT ISZERO PUSH2 0x2A00 JUMPI PUSH2 0x29FF PUSH2 0x191F JUMP JUMPDEST JUMPDEST PUSH2 0x2A0C DUP5 DUP3 DUP6 ADD PUSH2 0x293D JUMP JUMPDEST SWAP2 POP POP SWAP3 SWAP2 POP POP JUMP JUMPDEST PUSH0 PUSH1 0x20 DUP3 ADD SWAP1 POP DUP2 DUP2 SUB PUSH0 DUP4 ADD MSTORE PUSH2 0x2A2D DUP2 DUP5 PUSH2 0x2550 JUMP JUMPDEST SWAP1 POP SWAP3 SWAP2 POP POP JUMP JUMPDEST PUSH0 PUSH1 0x20 DUP3 DUP5 SUB SLT ISZERO PUSH2 0x2A4A JUMPI PUSH2 0x2A49 PUSH2 0x191B JUMP JUMPDEST JUMPDEST PUSH0 PUSH2 0x2A57 DUP5 DUP3 DUP6 ADD PUSH2 0x23AE JUMP JUMPDEST SWAP2 POP POP SWAP3 SWAP2 POP POP JUMP INVALID LOG2 PUSH5 0x6970667358 0x22 SLT KECCAK256 RETURN 0xB2 NUMBER 0xB4 BYTE MCOPY 0xBC DUP1 0xE6 PUSH30 0x6C05156B4F47AE90D6ABEF96B844044E20FEEFBBD04364736F6C63430008 NOT STOP CALLER "
				},
				"gasEstimates": {
					"creation": {
						"codeDepositCost": "2180400",
						"executionCost": "infinite",
						"totalCost": "infinite"
					},
					"external": {
						"follow(string)": "infinite",
						"getContent(uint256)": "infinite",
						"getFeed()": "infinite",
						"getFollow(uint256)": "infinite",
						"getFollowingCount()": "infinite",
						"getFollows()": "infinite",
						"getMessage(uint256)": "infinite",
						"getMessages()": "infinite",
						"getReward()": "infinite",
						"getShare(uint256)": "infinite",
						"isMorphNameAvailable(string)": "infinite",
						"isMuted(string)": "infinite",
						"mute(string)": "infinite",
						"notifyChangeOfAddress()": "infinite",
						"post((uint256,string,address,string,uint256))": "infinite",
						"sendMessage((uint256,string,string,string,uint256))": "infinite",
						"setMorphName(string)": "infinite",
						"share(uint256,uint256[])": "infinite",
						"trimFeed(uint256[])": "infinite",
						"trimMessages(uint256[])": "infinite",
						"unfollow(string)": "infinite",
						"unmute(string)": "infinite"
					},
					"internal": {
						"initialize()": "infinite"
					}
				},
				"methodIdentifiers": {
					"follow(string)": "390deb17",
					"getContent(uint256)": "0b7ad54c",
					"getFeed()": "dbadb1d1",
					"getFollow(uint256)": "80127f7e",
					"getFollowingCount()": "2f76ca39",
					"getFollows()": "a120734b",
					"getMessage(uint256)": "86f79edb",
					"getMessages()": "5ff6cbf3",
					"getReward()": "3d18b912",
					"getShare(uint256)": "cfb5a5f8",
					"isMorphNameAvailable(string)": "de0c9b6a",
					"isMuted(string)": "90045069",
					"mute(string)": "2a788dae",
					"notifyChangeOfAddress()": "cde4c10c",
					"post((uint256,string,address,string,uint256))": "8f4a3807",
					"sendMessage((uint256,string,string,string,uint256))": "ca8d458f",
					"setMorphName(string)": "bb2877da",
					"share(uint256,uint256[])": "10349ed4",
					"trimFeed(uint256[])": "73fba1fa",
					"trimMessages(uint256[])": "aa5724c9",
					"unfollow(string)": "53e224d2",
					"unmute(string)": "82b566fa"
				}
			},
			"storageLayout": {
				"storage": [
					{
						"astId": 38,
						"contract": "contracts/core/MorphBUs.sol:MorphBUs",
						"label": "register",
						"offset": 0,
						"slot": "0",
						"type": "t_contract(IMBURegister)663"
					},
					{
						"astId": 41,
						"contract": "contracts/core/MorphBUs.sol:MorphBUs",
						"label": "names",
						"offset": 0,
						"slot": "1",
						"type": "t_contract(IMBUNameManager)646"
					},
					{
						"astId": 44,
						"contract": "contracts/core/MorphBUs.sol:MorphBUs",
						"label": "contentManager",
						"offset": 0,
						"slot": "2",
						"type": "t_contract(IMBUContentManager)465"
					},
					{
						"astId": 47,
						"contract": "contracts/core/MorphBUs.sol:MorphBUs",
						"label": "messages",
						"offset": 0,
						"slot": "3",
						"type": "t_contract(IMBUMessageManager)627"
					},
					{
						"astId": 50,
						"contract": "contracts/core/MorphBUs.sol:MorphBUs",
						"label": "feed",
						"offset": 0,
						"slot": "4",
						"type": "t_contract(IMBUFeedManager)517"
					},
					{
						"astId": 53,
						"contract": "contracts/core/MorphBUs.sol:MorphBUs",
						"label": "follows",
						"offset": 0,
						"slot": "5",
						"type": "t_contract(IMBUFollowsManager)590"
					},
					{
						"astId": 56,
						"contract": "contracts/core/MorphBUs.sol:MorphBUs",
						"label": "rewards",
						"offset": 0,
						"slot": "6",
						"type": "t_contract(IMBURewardsManager)673"
					}
				],
				"types": {
					"t_contract(IMBUContentManager)465": {
						"encoding": "inplace",
						"label": "contract IMBUContentManager",
						"numberOfBytes": "20"
					},
					"t_contract(IMBUFeedManager)517": {
						"encoding": "inplace",
						"label": "contract IMBUFeedManager",
						"numberOfBytes": "20"
					},
					"t_contract(IMBUFollowsManager)590": {
						"encoding": "inplace",
						"label": "contract IMBUFollowsManager",
						"numberOfBytes": "20"
					},
					"t_contract(IMBUMessageManager)627": {
						"encoding": "inplace",
						"label": "contract IMBUMessageManager",
						"numberOfBytes": "20"
					},
					"t_contract(IMBUNameManager)646": {
						"encoding": "inplace",
						"label": "contract IMBUNameManager",
						"numberOfBytes": "20"
					},
					"t_contract(IMBURegister)663": {
						"encoding": "inplace",
						"label": "contract IMBURegister",
						"numberOfBytes": "20"
					},
					"t_contract(IMBURewardsManager)673": {
						"encoding": "inplace",
						"label": "contract IMBURewardsManager",
						"numberOfBytes": "20"
					}
				}
			},
			"userdoc": {
				"kind": "user",
				"methods": {},
				"version": 1
			}
		}
	}
}